{
  "address": "0xaf19a89ff976f2ee54571dfcb43c478e4007fb87",
  "abi": [
    {
      "inputs": [],
      "stateMutability": "nonpayable",
      "type": "constructor"
    },
    {
      "anonymous": false,
      "inputs": [
        {
          "indexed": true,
          "internalType": "address",
          "name": "at",
          "type": "address"
        }
      ],
      "name": "NewPool",
      "type": "event"
    },
    {
      "anonymous": false,
      "inputs": [
        {
          "indexed": true,
          "internalType": "address",
          "name": "previousOwner",
          "type": "address"
        },
        {
          "indexed": true,
          "internalType": "address",
          "name": "newOwner",
          "type": "address"
        }
      ],
      "name": "OwnershipTransferred",
      "type": "event"
    },
    {
      "inputs": [
        {
          "internalType": "contract IERC20d",
          "name": "_stakedToken",
          "type": "address"
        },
        {
          "internalType": "contract IERC20d",
          "name": "_rewardToken",
          "type": "address"
        },
        {
          "internalType": "uint256",
          "name": "_rewardPerBlock",
          "type": "uint256"
        },
        {
          "internalType": "uint256",
          "name": "_startBlock",
          "type": "uint256"
        },
        {
          "internalType": "uint256",
          "name": "_bonusEndBlock",
          "type": "uint256"
        },
        {
          "internalType": "uint256",
          "name": "_poolLimitPerUser",
          "type": "uint256"
        },
        {
          "internalType": "address",
          "name": "_admin",
          "type": "address"
        }
      ],
      "name": "deployPool",
      "outputs": [],
      "stateMutability": "nonpayable",
      "type": "function"
    },
    {
      "inputs": [],
      "name": "owner",
      "outputs": [
        {
          "internalType": "address",
          "name": "",
          "type": "address"
        }
      ],
      "stateMutability": "view",
      "type": "function"
    },
    {
      "inputs": [
        {
          "internalType": "uint256",
          "name": "",
          "type": "uint256"
        }
      ],
      "name": "poolAddresses",
      "outputs": [
        {
          "internalType": "address",
          "name": "",
          "type": "address"
        }
      ],
      "stateMutability": "view",
      "type": "function"
    },
    {
      "inputs": [],
      "name": "renounceOwnership",
      "outputs": [],
      "stateMutability": "nonpayable",
      "type": "function"
    },
    {
      "inputs": [
        {
          "internalType": "address",
          "name": "newOwner",
          "type": "address"
        }
      ],
      "name": "transferOwnership",
      "outputs": [],
      "stateMutability": "nonpayable",
      "type": "function"
    }
  ],
  "transactionHash": "0xb315bb1f7cae0a2ab52d885c89c4131e2fc6db01d35a87dfce87efcfabd1478b",
  "args": [],
  "solcInputHash": "00a03848dbd4962ff3ef1a1d524fb9d4",
  "bytecode": "0x608060405234801561001057600080fd5b5061001a3361001f565b61006f565b600080546001600160a01b038381166001600160a01b0319831681178455604051919092169283917f8be0079c531659141344cd1fd0a4f28419497f9722a3daafe3b4186f6b6457e09190a35050565b61205a8061007e6000396000f3fe608060405234801561001057600080fd5b50600436106100575760003560e01c8063715018a61461005c5780638da5cb5b14610066578063cc8402f51461008f578063f2fde38b146100a2578063feb21b9c146100b5575b600080fd5b6100646100c8565b005b6000546001600160a01b03165b6040516001600160a01b03909116815260200160405180910390f35b61006461009d36600461056b565b610107565b6100646100b0366004610548565b610426565b6100736100c33660046105dc565b6104c1565b6000546001600160a01b031633146100fb5760405162461bcd60e51b81526004016100f29061060c565b60405180910390fd5b61010560006104eb565b565b6000546001600160a01b031633146101315760405162461bcd60e51b81526004016100f29061060c565b6000876001600160a01b03166318160ddd6040518163ffffffff1660e01b815260040160206040518083038186803b15801561016c57600080fd5b505afa158015610180573d6000803e3d6000fd5b505050506040513d601f19601f820116820180604052508101906101a491906105f4565b10156101af57600080fd5b6000866001600160a01b03166318160ddd6040518163ffffffff1660e01b815260040160206040518083038186803b1580156101ea57600080fd5b505afa1580156101fe573d6000803e3d6000fd5b505050506040513d601f19601f8201168201806040525081019061022291906105f4565b101561022d57600080fd5b856001600160a01b0316876001600160a01b0316141561029d5760405162461bcd60e51b815260206004820152602560248201527f506f6f6c466163746f72793a20746f6b656e73206d7573742062652064696666604482015264195c995b9d60da1b60648201526084016100f2565b6000604051806020016102af9061053b565b601f1982820381018352601f9091011660408190526bffffffffffffffffffffffff1960608b811b821660208401528a901b166034820152604881018790529091506000906068016040516020818303038152906040528051906020012090506000818351602085016000f56040516320e9410760e21b81526001600160a01b038c811660048301528b81166024830152604482018b9052606482018a90526084820189905260a4820188905286811660c4830152919250908216906383a5041c9060e401600060405180830381600087803b15801561038e57600080fd5b505af11580156103a2573d6000803e3d6000fd5b505060018054808201825560009182527fb10e2d527612073b26eecdfd717e6a320cf44b4afac2b0732d9fcbe2b7fa0cf60180546001600160a01b0319166001600160a01b0386169081179091556040519093507fcfb199724e80ef87a82c051c6bcbe15ca80dbd143a1a7ca4f90be72f4fd6bf879250a250505050505050505050565b6000546001600160a01b031633146104505760405162461bcd60e51b81526004016100f29061060c565b6001600160a01b0381166104b55760405162461bcd60e51b815260206004820152602660248201527f4f776e61626c653a206e6577206f776e657220697320746865207a65726f206160448201526564647265737360d01b60648201526084016100f2565b6104be816104eb565b50565b600181815481106104d157600080fd5b6000918252602090912001546001600160a01b0316905081565b600080546001600160a01b038381166001600160a01b0319831681178455604051919092169283917f8be0079c531659141344cd1fd0a4f28419497f9722a3daafe3b4186f6b6457e09190a35050565b6119ce8061065783390190565b600060208284031215610559578081fd5b813561056481610641565b9392505050565b600080600080600080600060e0888a031215610585578283fd5b873561059081610641565b965060208801356105a081610641565b955060408801359450606088013593506080880135925060a0880135915060c08801356105cc81610641565b8091505092959891949750929550565b6000602082840312156105ed578081fd5b5035919050565b600060208284031215610605578081fd5b5051919050565b6020808252818101527f4f776e61626c653a2063616c6c6572206973206e6f7420746865206f776e6572604082015260600190565b6001600160a01b03811681146104be57600080fdfe608060405234801561001057600080fd5b5061001a33610035565b60018055600280546001600160a01b03191633179055610085565b600080546001600160a01b038381166001600160a01b0319831681178455604051919092169283917f8be0079c531659141344cd1fd0a4f28419497f9722a3daafe3b4186f6b6457e09190a35050565b61193a806100946000396000f3fe608060405234801561001057600080fd5b50600436106101a95760003560e01c80638da5cb5b116100f9578063cc7a262e11610097578063db2e21bc11610071578063db2e21bc14610369578063f2fde38b14610371578063f40f0f5214610384578063f7c618c114610397576101a9565b8063cc7a262e1461033a578063ccd34cd51461034d578063d8e3160814610356576101a9565b80639513997f116100d35780639513997f146102f8578063a0b409051461030b578063a9f8d1811461031e578063b6b55f2514610327576101a9565b80638da5cb5b146102b65780638f662915146102db57806392e8990e146102e4576101a9565b80633f138d4b11610166578063715018a611610140578063715018a61461028a57806380dc06721461029257806383a5041c1461029a5780638ae39cac146102ad576101a9565b80633f138d4b1461026557806348cd4cb11461027857806366fe9f8a14610281576101a9565b806301f8a976146101ae5780631959a002146101c35780631aed6553146102045780632e1a7d4d1461021b5780633279beab1461022e578063392e53cd14610241575b600080fd5b6101c16101bc3660046115f0565b6103aa565b005b6101ea6101d13660046114ff565b600c602052600090815260409020805460019091015482565b604080519283526020830191909152015b60405180910390f35b61020d60045481565b6040519081526020016101fb565b6101c16102293660046115f0565b61045c565b6101c161023c3660046115f0565b6105c5565b60025461025590600160a81b900460ff1681565b60405190151581526020016101fb565b6101c161027336600461151b565b610609565b61020d60055481565b61020d60075481565b6101c161073c565b6101c1610772565b6101c16102a836600461157f565b6107a2565b61020d60085481565b6000546001600160a01b03165b6040516001600160a01b0390911681526020016101fb565b61020d60035481565b60025461025590600160a01b900460ff1681565b6101c1610306366004611620565b6109a8565b6101c1610319366004611562565b610b29565b61020d60065481565b6101c16103353660046115f0565b610c4b565b600b546102c3906001600160a01b031681565b61020d60095481565b6002546102c3906001600160a01b031681565b6101c1610dd2565b6101c161037f3660046114ff565b610e69565b61020d6103923660046114ff565b610f01565b600a546102c3906001600160a01b031681565b6000546001600160a01b031633146103dd5760405162461bcd60e51b81526004016103d4906116b1565b60405180910390fd5b60055443106104215760405162461bcd60e51b815260206004820152601060248201526f141bdbdb081a185cc81cdd185c9d195960821b60448201526064016103d4565b60088190556040518181527f0c4d677eef92893ac7ec52faf8140fc6c851ab4736302b4f3a89dfb20696a0df9060200160405180910390a150565b6002600154141561047f5760405162461bcd60e51b81526004016103d4906116e6565b6002600155336000908152600c6020526040902080548211156104e45760405162461bcd60e51b815260206004820152601b60248201527f416d6f756e7420746f20776974686472617720746f6f2068696768000000000060448201526064016103d4565b6104ec61105e565b6000610521826001015461051b600954610515600354876000015461114a90919063ffffffff16565b9061115f565b9061116b565b9050821561054e578154610535908461116b565b8255600b5461054e906001600160a01b03163385611177565b801561056b57600a5461056b906001600160a01b03163383611177565b60095460035483546105829291610515919061114a565b600183015560405183815233907f884edad9ce6fa2440d8a54cc123490eb96d2768479d49ff9c7366125a94243649060200160405180910390a250506001805550565b6000546001600160a01b031633146105ef5760405162461bcd60e51b81526004016103d4906116b1565b600a54610606906001600160a01b03163383611177565b50565b6000546001600160a01b031633146106335760405162461bcd60e51b81526004016103d4906116b1565b600b546001600160a01b038381169116141561068a5760405162461bcd60e51b815260206004820152601660248201527521b0b73737ba1031329039ba30b5b2b2103a37b5b2b760511b60448201526064016103d4565b600a546001600160a01b03838116911614156106e15760405162461bcd60e51b815260206004820152601660248201527521b0b73737ba103132903932bbb0b932103a37b5b2b760511b60448201526064016103d4565b6106f56001600160a01b0383163383611177565b604080516001600160a01b0384168152602081018390527f74545154aac348a3eac92596bd1971957ca94795f4e954ec5f613b55fab7812991015b60405180910390a15050565b6000546001600160a01b031633146107665760405162461bcd60e51b81526004016103d4906116b1565b61077060006111df565b565b6000546001600160a01b0316331461079c5760405162461bcd60e51b81526004016103d4906116b1565b43600455565b600254600160a81b900460ff16156107f25760405162461bcd60e51b8152602060048201526013602482015272105b1c9958591e481a5b9a5d1a585b1a5e9959606a1b60448201526064016103d4565b6002546001600160a01b0316331461083a5760405162461bcd60e51b815260206004820152600b60248201526a4e6f7420666163746f727960a81b60448201526064016103d4565b6002805460ff60a81b1916600160a81b179055600b80546001600160a01b03808a166001600160a01b031992831617909255600a80549289169290911691909117905560088590556005849055600483905581156108ab576002805460ff60a01b1916600160a01b17905560078290555b600a546040805163313ce56760e01b815290516000926001600160a01b03169163313ce567916004808301926020929190829003018186803b1580156108f057600080fd5b505afa158015610904573d6000803e3d6000fd5b505050506040513d601f19601f820116820180604052508101906109289190611641565b60ff169050601e81106109765760405162461bcd60e51b815260206004820152601660248201527504d75737420626520696e666572696f7220746f2033360541b60448201526064016103d4565b610981601e8261116b565b61098c90600a61179b565b60095560055460065561099e82610e69565b5050505050505050565b6000546001600160a01b031633146109d25760405162461bcd60e51b81526004016103d4906116b1565b6005544310610a165760405162461bcd60e51b815260206004820152601060248201526f141bdbdb081a185cc81cdd185c9d195960821b60448201526064016103d4565b808210610a7c5760405162461bcd60e51b815260206004820152602e60248201527f4e6577207374617274426c6f636b206d757374206265206c6f7765722074686160448201526d6e206e657720656e64426c6f636b60901b60648201526084016103d4565b814310610ae45760405162461bcd60e51b815260206004820152603060248201527f4e6577207374617274426c6f636b206d7573742062652068696768657220746860448201526f616e2063757272656e7420626c6f636b60801b60648201526084016103d4565b60058290556004819055600682905560408051838152602081018390527f7cd0ab87d19036f3dfadadb232c78aa4879dda3f0c994a9d637532410ee2ce069101610730565b6000546001600160a01b03163314610b535760405162461bcd60e51b81526004016103d4906116b1565b600254600160a01b900460ff16610b9a5760405162461bcd60e51b815260206004820152600b60248201526a135d5cdd081899481cd95d60aa1b60448201526064016103d4565b8115610bfb576007548111610bf15760405162461bcd60e51b815260206004820152601860248201527f4e6577206c696d6974206d75737420626520686967686572000000000000000060448201526064016103d4565b6007819055610c18565b6002805460ff60a01b1916600160a01b8415150217905560006007555b7f241f67ee5f41b7a5cabf911367329be7215900f602ebfc47f89dce2a6bcd847c60075460405161073091815260200190565b60026001541415610c6e5760405162461bcd60e51b81526004016103d4906116e6565b60026001819055336000908152600c602052604090209054600160a01b900460ff1615610cf3576007548154610ca590849061122f565b1115610cf35760405162461bcd60e51b815260206004820152601760248201527f5573657220616d6f756e742061626f7665206c696d697400000000000000000060448201526064016103d4565b610cfb61105e565b805415610d4c576000610d2b826001015461051b600954610515600354876000015461114a90919063ffffffff16565b90508015610d4a57600a54610d4a906001600160a01b03163383611177565b505b8115610d78578054610d5e908361122f565b8155600b54610d78906001600160a01b031633308561123b565b6009546003548254610d8f9291610515919061114a565b600182015560405182815233907fe1fffcc4923d04b559f4d29a8bfc6cda04eb5b0d3c460751c2402c5c5cc9109c906020015b60405180910390a2505060018055565b60026001541415610df55760405162461bcd60e51b81526004016103d4906116e6565b60026001908155336000908152600c60205260408120805482825592810191909155908015610e3557600b54610e35906001600160a01b03163383611177565b815460405190815233907f5fafa99d0643513820be26656b45130b01e1c03062e1266bf36f88cbd3bd969590602001610dc2565b6000546001600160a01b03163314610e935760405162461bcd60e51b81526004016103d4906116b1565b6001600160a01b038116610ef85760405162461bcd60e51b815260206004820152602660248201527f4f776e61626c653a206e6577206f776e657220697320746865207a65726f206160448201526564647265737360d01b60648201526084016103d4565b610606816111df565b6001600160a01b038181166000908152600c6020526040808220600b5491516370a0823160e01b8152306004820152929390928492909116906370a082319060240160206040518083038186803b158015610f5b57600080fd5b505afa158015610f6f573d6000803e3d6000fd5b505050506040513d601f19601f82011682018060405250810190610f939190611608565b905060065443118015610fa557508015155b1561102d576000610fb860065443611279565b90506000610fd16008548361114a90919063ffffffff16565b90506000610ffa610ff1856105156009548661114a90919063ffffffff16565b6003549061122f565b9050611021856001015461051b600954610515858a6000015461114a90919063ffffffff16565b95505050505050611059565b611054826001015461051b600954610515600354876000015461114a90919063ffffffff16565b925050505b919050565b600654431161106c57610770565b600b546040516370a0823160e01b81523060048201526000916001600160a01b0316906370a082319060240160206040518083038186803b1580156110b057600080fd5b505afa1580156110c4573d6000803e3d6000fd5b505050506040513d601f19601f820116820180604052508101906110e89190611608565b9050806110f9575043600655610770565b600061110760065443611279565b905060006111206008548361114a90919063ffffffff16565b905061113e610ff1846105156009548561114a90919063ffffffff16565b60035550504360065550565b60006111568284611869565b90505b92915050565b60006111568284611735565b60006111568284611888565b6040516001600160a01b0383166024820152604481018290526111da90849063a9059cbb60e01b906064015b60408051601f198184030181529190526020810180516001600160e01b03166001600160e01b0319909316929092179091526112b3565b505050565b600080546001600160a01b038381166001600160a01b0319831681178455604051919092169283917f8be0079c531659141344cd1fd0a4f28419497f9722a3daafe3b4186f6b6457e09190a35050565b6000611156828461171d565b6040516001600160a01b03808516602483015283166044820152606481018290526112739085906323b872dd60e01b906084016111a3565b50505050565b600060045482116112955761128e828461116b565b9050611159565b60045483106112a657506000611159565b60045461128e908461116b565b6000611308826040518060400160405280602081526020017f5361666545524332303a206c6f772d6c6576656c2063616c6c206661696c6564815250856001600160a01b03166113859092919063ffffffff16565b8051909150156111da57808060200190518101906113269190611546565b6111da5760405162461bcd60e51b815260206004820152602a60248201527f5361666545524332303a204552433230206f7065726174696f6e20646964206e6044820152691bdd081cdd58d8d9595960b21b60648201526084016103d4565b6060611394848460008561139e565b90505b9392505050565b6060824710156113ff5760405162461bcd60e51b815260206004820152602660248201527f416464726573733a20696e73756666696369656e742062616c616e636520666f6044820152651c8818d85b1b60d21b60648201526084016103d4565b843b61144d5760405162461bcd60e51b815260206004820152601d60248201527f416464726573733a2063616c6c20746f206e6f6e2d636f6e747261637400000060448201526064016103d4565b600080866001600160a01b031685876040516114699190611662565b60006040518083038185875af1925050503d80600081146114a6576040519150601f19603f3d011682016040523d82523d6000602084013e6114ab565b606091505b50915091506114bb8282866114c6565b979650505050505050565b606083156114d5575081611397565b8251156114e55782518084602001fd5b8160405162461bcd60e51b81526004016103d4919061167e565b600060208284031215611510578081fd5b8135611397816118e1565b6000806040838503121561152d578081fd5b8235611538816118e1565b946020939093013593505050565b600060208284031215611557578081fd5b8151611397816118f6565b60008060408385031215611574578182fd5b8235611538816118f6565b600080600080600080600060e0888a031215611599578283fd5b87356115a4816118e1565b965060208801356115b4816118e1565b955060408801359450606088013593506080880135925060a0880135915060c08801356115e0816118e1565b8091505092959891949750929550565b600060208284031215611601578081fd5b5035919050565b600060208284031215611619578081fd5b5051919050565b60008060408385031215611632578182fd5b50508035926020909101359150565b600060208284031215611652578081fd5b815160ff81168114611397578182fd5b6000825161167481846020870161189f565b9190910192915050565b600060208252825180602084015261169d81604085016020870161189f565b601f01601f19169190910160400192915050565b6020808252818101527f4f776e61626c653a2063616c6c6572206973206e6f7420746865206f776e6572604082015260600190565b6020808252601f908201527f5265656e7472616e637947756172643a207265656e7472616e742063616c6c00604082015260600190565b60008219821115611730576117306118cb565b500190565b60008261175057634e487b7160e01b81526012600452602481fd5b500490565b80825b60018086116117675750611792565b818704821115611779576117796118cb565b8086161561178657918102915b9490941c938002611758565b94509492505050565b600061115660001984846000826117b457506001611397565b816117c157506000611397565b81600181146117d757600281146117e15761180e565b6001915050611397565b60ff8411156117f2576117f26118cb565b6001841b915084821115611808576118086118cb565b50611397565b5060208310610133831016604e8410600b8410161715611841575081810a8381111561183c5761183c6118cb565b611397565b61184e8484846001611755565b808604821115611860576118606118cb565b02949350505050565b6000816000190483118215151615611883576118836118cb565b500290565b60008282101561189a5761189a6118cb565b500390565b60005b838110156118ba5781810151838201526020016118a2565b838111156112735750506000910152565b634e487b7160e01b600052601160045260246000fd5b6001600160a01b038116811461060657600080fd5b801515811461060657600080fdfea26469706673582212201eea7e0d0041725a04867fbb76dc514817f7640526bc8b9c99074a1c0808c42d64736f6c63430008020033a26469706673582212202870b1167d007445a83fca728333cb9907a9eb507cab68c517dfcca01bd7d30564736f6c63430008020033",
  "devdoc": {
    "kind": "dev",
    "methods": {
      "owner()": {
        "details": "Returns the address of the current owner."
      },
      "renounceOwnership()": {
        "details": "Leaves the contract without owner. It will not be possible to call `onlyOwner` functions anymore. Can only be called by the current owner. NOTE: Renouncing ownership will leave the contract without an owner, thereby removing any functionality that is only available to the owner."
      },
      "transferOwnership(address)": {
        "details": "Transfers ownership of the contract to a new account (`newOwner`). Can only be called by the current owner."
      }
    },
    "version": 1
  },
  "userdoc": {
    "kind": "user",
    "methods": {},
    "version": 1
  },
  "storageLayout": {
    "storage": [
      {
        "astId": 7,
        "contract": "contracts/PoolFactory.sol:PoolFactory",
        "label": "_owner",
        "offset": 0,
        "slot": "0",
        "type": "t_address"
      },
      {
        "astId": 2355,
        "contract": "contracts/PoolFactory.sol:PoolFactory",
        "label": "poolAddresses",
        "offset": 0,
        "slot": "1",
        "type": "t_array(t_address)dyn_storage"
      }
    ],
    "types": {
      "t_address": {
        "encoding": "inplace",
        "label": "address",
        "numberOfBytes": "20"
      },
      "t_array(t_address)dyn_storage": {
        "base": "t_address",
        "encoding": "dynamic_array",
        "label": "address[]",
        "numberOfBytes": "32"
      }
    }
  }
}