{
  "address": "0xC433098Aa17dCf35D25C706FA4503354AF58121b",
  "abi": [
    {
      "inputs": [
        {
          "internalType": "contract ReactToken",
          "name": "_react",
          "type": "address"
        },
        {
          "internalType": "address",
          "name": "_devaddr",
          "type": "address"
        },
        {
          "internalType": "uint256",
          "name": "_reactPerBlock",
          "type": "uint256"
        },
        {
          "internalType": "uint256",
          "name": "_startBlock",
          "type": "uint256"
        },
        {
          "internalType": "uint256",
          "name": "_bonusEndBlock",
          "type": "uint256"
        }
      ],
      "stateMutability": "nonpayable",
      "type": "constructor"
    },
    {
      "anonymous": false,
      "inputs": [
        {
          "indexed": true,
          "internalType": "address",
          "name": "user",
          "type": "address"
        },
        {
          "indexed": true,
          "internalType": "uint256",
          "name": "pid",
          "type": "uint256"
        },
        {
          "indexed": false,
          "internalType": "uint256",
          "name": "amount",
          "type": "uint256"
        }
      ],
      "name": "Deposit",
      "type": "event"
    },
    {
      "anonymous": false,
      "inputs": [
        {
          "indexed": true,
          "internalType": "address",
          "name": "user",
          "type": "address"
        },
        {
          "indexed": true,
          "internalType": "uint256",
          "name": "pid",
          "type": "uint256"
        },
        {
          "indexed": false,
          "internalType": "uint256",
          "name": "amount",
          "type": "uint256"
        }
      ],
      "name": "EmergencyWithdraw",
      "type": "event"
    },
    {
      "anonymous": false,
      "inputs": [
        {
          "indexed": true,
          "internalType": "address",
          "name": "previousOwner",
          "type": "address"
        },
        {
          "indexed": true,
          "internalType": "address",
          "name": "newOwner",
          "type": "address"
        }
      ],
      "name": "OwnershipTransferred",
      "type": "event"
    },
    {
      "anonymous": false,
      "inputs": [
        {
          "indexed": true,
          "internalType": "address",
          "name": "user",
          "type": "address"
        },
        {
          "indexed": true,
          "internalType": "uint256",
          "name": "pid",
          "type": "uint256"
        },
        {
          "indexed": false,
          "internalType": "uint256",
          "name": "amount",
          "type": "uint256"
        }
      ],
      "name": "Withdraw",
      "type": "event"
    },
    {
      "inputs": [],
      "name": "BONUS_MULTIPLIER",
      "outputs": [
        {
          "internalType": "uint256",
          "name": "",
          "type": "uint256"
        }
      ],
      "stateMutability": "view",
      "type": "function"
    },
    {
      "inputs": [
        {
          "internalType": "uint256",
          "name": "_allocPoint",
          "type": "uint256"
        },
        {
          "internalType": "contract IERC20",
          "name": "_lpToken",
          "type": "address"
        },
        {
          "internalType": "bool",
          "name": "_withUpdate",
          "type": "bool"
        }
      ],
      "name": "add",
      "outputs": [],
      "stateMutability": "nonpayable",
      "type": "function"
    },
    {
      "inputs": [],
      "name": "bonusEndBlock",
      "outputs": [
        {
          "internalType": "uint256",
          "name": "",
          "type": "uint256"
        }
      ],
      "stateMutability": "view",
      "type": "function"
    },
    {
      "inputs": [
        {
          "internalType": "uint256",
          "name": "_pid",
          "type": "uint256"
        },
        {
          "internalType": "uint256",
          "name": "_amount",
          "type": "uint256"
        }
      ],
      "name": "deposit",
      "outputs": [],
      "stateMutability": "nonpayable",
      "type": "function"
    },
    {
      "inputs": [
        {
          "internalType": "address",
          "name": "_devaddr",
          "type": "address"
        }
      ],
      "name": "dev",
      "outputs": [],
      "stateMutability": "nonpayable",
      "type": "function"
    },
    {
      "inputs": [],
      "name": "devaddr",
      "outputs": [
        {
          "internalType": "address",
          "name": "",
          "type": "address"
        }
      ],
      "stateMutability": "view",
      "type": "function"
    },
    {
      "inputs": [
        {
          "internalType": "uint256",
          "name": "_pid",
          "type": "uint256"
        }
      ],
      "name": "emergencyWithdraw",
      "outputs": [],
      "stateMutability": "nonpayable",
      "type": "function"
    },
    {
      "inputs": [
        {
          "internalType": "uint256",
          "name": "_from",
          "type": "uint256"
        },
        {
          "internalType": "uint256",
          "name": "_to",
          "type": "uint256"
        }
      ],
      "name": "getMultiplier",
      "outputs": [
        {
          "internalType": "uint256",
          "name": "",
          "type": "uint256"
        }
      ],
      "stateMutability": "view",
      "type": "function"
    },
    {
      "inputs": [],
      "name": "massUpdatePools",
      "outputs": [],
      "stateMutability": "nonpayable",
      "type": "function"
    },
    {
      "inputs": [
        {
          "internalType": "uint256",
          "name": "_pid",
          "type": "uint256"
        }
      ],
      "name": "migrate",
      "outputs": [],
      "stateMutability": "nonpayable",
      "type": "function"
    },
    {
      "inputs": [],
      "name": "migrator",
      "outputs": [
        {
          "internalType": "contract IMigrator",
          "name": "",
          "type": "address"
        }
      ],
      "stateMutability": "view",
      "type": "function"
    },
    {
      "inputs": [],
      "name": "owner",
      "outputs": [
        {
          "internalType": "address",
          "name": "",
          "type": "address"
        }
      ],
      "stateMutability": "view",
      "type": "function"
    },
    {
      "inputs": [
        {
          "internalType": "uint256",
          "name": "_pid",
          "type": "uint256"
        },
        {
          "internalType": "address",
          "name": "_user",
          "type": "address"
        }
      ],
      "name": "pendingReact",
      "outputs": [
        {
          "internalType": "uint256",
          "name": "",
          "type": "uint256"
        }
      ],
      "stateMutability": "view",
      "type": "function"
    },
    {
      "inputs": [
        {
          "internalType": "uint256",
          "name": "",
          "type": "uint256"
        }
      ],
      "name": "poolInfo",
      "outputs": [
        {
          "internalType": "contract IERC20",
          "name": "lpToken",
          "type": "address"
        },
        {
          "internalType": "uint256",
          "name": "allocPoint",
          "type": "uint256"
        },
        {
          "internalType": "uint256",
          "name": "lastRewardBlock",
          "type": "uint256"
        },
        {
          "internalType": "uint256",
          "name": "accReactPerShare",
          "type": "uint256"
        }
      ],
      "stateMutability": "view",
      "type": "function"
    },
    {
      "inputs": [],
      "name": "poolLength",
      "outputs": [
        {
          "internalType": "uint256",
          "name": "",
          "type": "uint256"
        }
      ],
      "stateMutability": "view",
      "type": "function"
    },
    {
      "inputs": [],
      "name": "react",
      "outputs": [
        {
          "internalType": "contract ReactToken",
          "name": "",
          "type": "address"
        }
      ],
      "stateMutability": "view",
      "type": "function"
    },
    {
      "inputs": [],
      "name": "reactPerBlock",
      "outputs": [
        {
          "internalType": "uint256",
          "name": "",
          "type": "uint256"
        }
      ],
      "stateMutability": "view",
      "type": "function"
    },
    {
      "inputs": [],
      "name": "renounceOwnership",
      "outputs": [],
      "stateMutability": "nonpayable",
      "type": "function"
    },
    {
      "inputs": [
        {
          "internalType": "uint256",
          "name": "_pid",
          "type": "uint256"
        },
        {
          "internalType": "uint256",
          "name": "_allocPoint",
          "type": "uint256"
        },
        {
          "internalType": "bool",
          "name": "_withUpdate",
          "type": "bool"
        }
      ],
      "name": "set",
      "outputs": [],
      "stateMutability": "nonpayable",
      "type": "function"
    },
    {
      "inputs": [
        {
          "internalType": "contract IMigrator",
          "name": "_migrator",
          "type": "address"
        }
      ],
      "name": "setMigrator",
      "outputs": [],
      "stateMutability": "nonpayable",
      "type": "function"
    },
    {
      "inputs": [],
      "name": "startBlock",
      "outputs": [
        {
          "internalType": "uint256",
          "name": "",
          "type": "uint256"
        }
      ],
      "stateMutability": "view",
      "type": "function"
    },
    {
      "inputs": [],
      "name": "totalAllocPoint",
      "outputs": [
        {
          "internalType": "uint256",
          "name": "",
          "type": "uint256"
        }
      ],
      "stateMutability": "view",
      "type": "function"
    },
    {
      "inputs": [
        {
          "internalType": "address",
          "name": "newOwner",
          "type": "address"
        }
      ],
      "name": "transferOwnership",
      "outputs": [],
      "stateMutability": "nonpayable",
      "type": "function"
    },
    {
      "inputs": [
        {
          "internalType": "uint256",
          "name": "_pid",
          "type": "uint256"
        }
      ],
      "name": "updatePool",
      "outputs": [],
      "stateMutability": "nonpayable",
      "type": "function"
    },
    {
      "inputs": [
        {
          "internalType": "uint256",
          "name": "",
          "type": "uint256"
        },
        {
          "internalType": "address",
          "name": "",
          "type": "address"
        }
      ],
      "name": "userInfo",
      "outputs": [
        {
          "internalType": "uint256",
          "name": "amount",
          "type": "uint256"
        },
        {
          "internalType": "uint256",
          "name": "rewardDebt",
          "type": "uint256"
        }
      ],
      "stateMutability": "view",
      "type": "function"
    },
    {
      "inputs": [
        {
          "internalType": "uint256",
          "name": "_pid",
          "type": "uint256"
        },
        {
          "internalType": "uint256",
          "name": "_amount",
          "type": "uint256"
        }
      ],
      "name": "withdraw",
      "outputs": [],
      "stateMutability": "nonpayable",
      "type": "function"
    }
  ],
  "transactionHash": "0x59efa6c28d75fbb1b4faf45678c4da3db495e028e1fad208e523f556daf0b068",
  "args": [
    "0x2280EC541a667bC94F86ca18e6F7179D56b058A6",
    "0x88888887C3ebD4a33E34a15Db4254C74C75E5D4A",
    "1000000000000000000000",
    "0",
    "1000000000000000000000"
  ],
  "solcInputHash": "a6b651bbec64421c749bb98177eb1996",
  "bytecode": "0x608060405260006008553480156200001657600080fd5b5060405162001bec38038062001bec8339810160408190526200003991620000d3565b620000443362000083565b600180546001600160a01b039687166001600160a01b031991821617909155600280549590961694169390931790935560045560035560095562000143565b600080546001600160a01b038381166001600160a01b0319831681178455604051919092169283917f8be0079c531659141344cd1fd0a4f28419497f9722a3daafe3b4186f6b6457e09190a35050565b600080600080600060a08688031215620000eb578081fd5b8551620000f8816200012a565b60208701519095506200010b816200012a565b6040870151606088015160809098015196999198509695945092505050565b6001600160a01b03811681146200014057600080fd5b50565b611a9980620001536000396000f3fe608060405234801561001057600080fd5b506004361061018e5760003560e01c8063630b5ba1116100de5780638d88a90e1161009757806393f1a40b1161007157806393f1a40b14610332578063d49e77cd14610379578063e2bbb1581461038c578063f2fde38b1461039f5761018e565b80638d88a90e146102fb5780638da5cb5b1461030e5780638dbb1e3a1461031f5761018e565b8063630b5ba1146102aa57806364482f79146102b2578063715018a6146102c55780637cd07e47146102cd5780638791d556146102e05780638aa28550146102f35761018e565b80632d2800f11161014b578063454b060811610125578063454b06081461026857806348cd4cb11461027b57806351eb05a6146102845780635312ea8e146102975761018e565b80632d2800f1146102215780633be04efc1461024c578063441a3e70146102555761018e565b8063081e3eda146101935780631526fe27146101aa57806317caf6f1146101e75780631aed6553146101f05780631eaaa045146101f957806323cf31181461020e575b600080fd5b6006545b6040519081526020015b60405180910390f35b6101bd6101b8366004611803565b6103b2565b604080516001600160a01b03909516855260208501939093529183015260608201526080016101a1565b61019760085481565b61019760035481565b61020c610207366004611862565b6103f6565b005b61020c61021c3660046117af565b61054c565b600154610234906001600160a01b031681565b6040516001600160a01b0390911681526020016101a1565b61019760045481565b61020c6102633660046118a3565b610598565b61020c610276366004611803565b6106fa565b61019760095481565b61020c610292366004611803565b610970565b61020c6102a5366004611803565b610ba9565b61020c610c59565b61020c6102c03660046118c4565b610c84565b61020c610d4f565b600554610234906001600160a01b031681565b6101976102ee366004611833565b610d85565b610197600a81565b61020c6103093660046117af565b610f01565b6000546001600160a01b0316610234565b61019761032d3660046118a3565b610f69565b610364610340366004611833565b60076020908152600092835260408084209091529082529020805460019091015482565b604080519283526020830191909152016101a1565b600254610234906001600160a01b031681565b61020c61039a3660046118a3565b610fcf565b61020c6103ad3660046117af565b6110e8565b600681815481106103c257600080fd5b600091825260209091206004909102018054600182015460028301546003909301546001600160a01b039092169350919084565b6000546001600160a01b031633146104295760405162461bcd60e51b815260040161042090611940565b60405180910390fd5b801561043757610437610c59565b6000600954431161044a5760095461044c565b435b60085490915061045c9085611180565b600855604080516080810182526001600160a01b0394851681526020810195865290810191825260006060820181815260068054600181018255925291517ff652222313e28459528d920b65115c16c04f3efc82aaedc97be59f3f377c0d3f600490920291820180546001600160a01b031916919096161790945593517ff652222313e28459528d920b65115c16c04f3efc82aaedc97be59f3f377c0d40840155517ff652222313e28459528d920b65115c16c04f3efc82aaedc97be59f3f377c0d418301555090517ff652222313e28459528d920b65115c16c04f3efc82aaedc97be59f3f377c0d4290910155565b6000546001600160a01b031633146105765760405162461bcd60e51b815260040161042090611940565b600580546001600160a01b0319166001600160a01b0392909216919091179055565b6000600683815481106105bb57634e487b7160e01b600052603260045260246000fd5b6000918252602080832086845260078252604080852033865290925292208054600490920290920192508311156106295760405162461bcd60e51b81526020600482015260126024820152711dda5d1a191c985dce881b9bdd0819dbdbd960721b6044820152606401610420565b61063284610970565b600061066c826001015461066664e8d4a510006106608760030154876000015461119390919063ffffffff16565b9061119f565b906111ab565b905061067833826111b7565b815461068490856111ab565b80835560038401546106a19164e8d4a51000916106609190611193565b600183015582546106bc906001600160a01b03163386611356565b604051848152859033907ff279e6a1f5e320cca91135676d9cb6e44ca8a08c0b88342bcdb1144f6511b5689060200160405180910390a35050505050565b6005546001600160a01b03166107495760405162461bcd60e51b815260206004820152601460248201527336b4b3b930ba329d1037379036b4b3b930ba37b960611b6044820152606401610420565b60006006828154811061076c57634e487b7160e01b600052603260045260246000fd5b60009182526020822060049182020180546040516370a0823160e01b815230938101939093529093506001600160a01b0316919082906370a082319060240160206040518083038186803b1580156107c357600080fd5b505afa1580156107d7573d6000803e3d6000fd5b505050506040513d601f19601f820116820180604052508101906107fb919061181b565b600554909150610818906001600160a01b038481169116836113b9565b60055460405163ce5494bb60e01b81526001600160a01b038481166004830152600092169063ce5494bb90602401602060405180830381600087803b15801561086057600080fd5b505af1158015610874573d6000803e3d6000fd5b505050506040513d601f19601f8201168201806040525081019061089891906117e7565b6040516370a0823160e01b81523060048201529091506001600160a01b038216906370a082319060240160206040518083038186803b1580156108da57600080fd5b505afa1580156108ee573d6000803e3d6000fd5b505050506040513d601f19601f82011682018060405250810190610912919061181b565b821461094f5760405162461bcd60e51b815260206004820152600c60248201526b1b5a59dc985d194e8818985960a21b6044820152606401610420565b83546001600160a01b0319166001600160a01b039190911617909255505050565b60006006828154811061099357634e487b7160e01b600052603260045260246000fd5b90600052602060002090600402019050806002015443116109b45750610ba6565b80546040516370a0823160e01b81523060048201526000916001600160a01b0316906370a082319060240160206040518083038186803b1580156109f757600080fd5b505afa158015610a0b573d6000803e3d6000fd5b505050506040513d601f19601f82011682018060405250810190610a2f919061181b565b905080610a43575043600290910155610ba6565b6000610a53836002015443610f69565b90506000610a806008546106608660010154610a7a6004548761119390919063ffffffff16565b90611193565b6001546002549192506001600160a01b03908116916340c10f199116610aa784600a61119f565b6040516001600160e01b031960e085901b1681526001600160a01b0390921660048301526024820152604401600060405180830381600087803b158015610aed57600080fd5b505af1158015610b01573d6000803e3d6000fd5b50506001546040516340c10f1960e01b8152306004820152602481018590526001600160a01b0390911692506340c10f199150604401600060405180830381600087803b158015610b5157600080fd5b505af1158015610b65573d6000803e3d6000fd5b50505050610b93610b888461066064e8d4a510008561119390919063ffffffff16565b600386015490611180565b6003850155505043600290920191909155505b50565b600060068281548110610bcc57634e487b7160e01b600052603260045260246000fd5b60009182526020808320858452600782526040808520338087529352909320805460049093029093018054909450610c11926001600160a01b03919091169190611356565b8054604051908152839033907fbb757047c2b5f3974fe26b7c10f732e7bce710b0952a71082702781e62ae05959060200160405180910390a360008082556001909101555050565b60065460005b81811015610c8057610c7081610970565b610c7981611a0f565b9050610c5f565b5050565b6000546001600160a01b03163314610cae5760405162461bcd60e51b815260040161042090611940565b8015610cbc57610cbc610c59565b610d0d82610d0760068681548110610ce457634e487b7160e01b600052603260045260246000fd5b9060005260206000209060040201600101546008546111ab90919063ffffffff16565b90611180565b6008819055508160068481548110610d3557634e487b7160e01b600052603260045260246000fd5b906000526020600020906004020160010181905550505050565b6000546001600160a01b03163314610d795760405162461bcd60e51b815260040161042090611940565b610d8360006114dd565b565b60008060068481548110610da957634e487b7160e01b600052603260045260246000fd5b600091825260208083208784526007825260408085206001600160a01b038981168752935280852060049485029092016003810154815492516370a0823160e01b8152309681019690965290965091949193919216906370a082319060240160206040518083038186803b158015610e2057600080fd5b505afa158015610e34573d6000803e3d6000fd5b505050506040513d601f19601f82011682018060405250810190610e58919061181b565b9050836002015443118015610e6c57508015155b15610ecc576000610e81856002015443610f69565b90506000610ea86008546106608860010154610a7a6004548761119390919063ffffffff16565b9050610ec7610ec0846106608464e8d4a51000611193565b8590611180565b935050505b610ef4836001015461066664e8d4a5100061066086886000015461119390919063ffffffff16565b9450505050505b92915050565b6002546001600160a01b03163314610f475760405162461bcd60e51b81526020600482015260096024820152686465763a207775743f60b81b6044820152606401610420565b600280546001600160a01b0319166001600160a01b0392909216919091179055565b60006003548211610f8a57610f83600a610a7a84866111ab565b9050610efb565b6003548310610f9d57610f8382846111ab565b610f83610fb5600354846111ab90919063ffffffff16565b610d07600a610a7a876003546111ab90919063ffffffff16565b600060068381548110610ff257634e487b7160e01b600052603260045260246000fd5b6000918252602080832086845260078252604080852033865290925292206004909102909101915061102384610970565b805415611066576000611058826001015461066664e8d4a510006106608760030154876000015461119390919063ffffffff16565b905061106433826111b7565b505b815461107d906001600160a01b031633308661152d565b80546110899084611180565b80825560038301546110a69164e8d4a51000916106609190611193565b6001820155604051838152849033907f90890809c654f11d6e72a28fa60149770a0d11ec6c92319d6ceb2bb0a4ea1a159060200160405180910390a350505050565b6000546001600160a01b031633146111125760405162461bcd60e51b815260040161042090611940565b6001600160a01b0381166111775760405162461bcd60e51b815260206004820152602660248201527f4f776e61626c653a206e6577206f776e657220697320746865207a65726f206160448201526564647265737360d01b6064820152608401610420565b610ba6816114dd565b600061118c8284611975565b9392505050565b600061118c82846119ad565b600061118c828461198d565b600061118c82846119cc565b6001546040516370a0823160e01b81523060048201526000916001600160a01b0316906370a082319060240160206040518083038186803b1580156111fb57600080fd5b505afa15801561120f573d6000803e3d6000fd5b505050506040513d601f19601f82011682018060405250810190611233919061181b565b9050808211156112c95760015460405163a9059cbb60e01b81526001600160a01b038581166004830152602482018490529091169063a9059cbb90604401602060405180830381600087803b15801561128b57600080fd5b505af115801561129f573d6000803e3d6000fd5b505050506040513d601f19601f820116820180604052508101906112c391906117cb565b50611351565b60015460405163a9059cbb60e01b81526001600160a01b038581166004830152602482018590529091169063a9059cbb90604401602060405180830381600087803b15801561131757600080fd5b505af115801561132b573d6000803e3d6000fd5b505050506040513d601f19601f8201168201806040525081019061134f91906117cb565b505b505050565b6040516001600160a01b03831660248201526044810182905261135190849063a9059cbb60e01b906064015b60408051601f198184030181529190526020810180516001600160e01b03166001600160e01b031990931692909217909152611565565b8015806114425750604051636eb1769f60e11b81523060048201526001600160a01b03838116602483015284169063dd62ed3e9060440160206040518083038186803b15801561140857600080fd5b505afa15801561141c573d6000803e3d6000fd5b505050506040513d601f19601f82011682018060405250810190611440919061181b565b155b6114ad5760405162461bcd60e51b815260206004820152603660248201527f5361666545524332303a20617070726f76652066726f6d206e6f6e2d7a65726f60448201527520746f206e6f6e2d7a65726f20616c6c6f77616e636560501b6064820152608401610420565b6040516001600160a01b03831660248201526044810182905261135190849063095ea7b360e01b90606401611382565b600080546001600160a01b038381166001600160a01b0319831681178455604051919092169283917f8be0079c531659141344cd1fd0a4f28419497f9722a3daafe3b4186f6b6457e09190a35050565b6040516001600160a01b038085166024830152831660448201526064810182905261134f9085906323b872dd60e01b90608401611382565b60006115ba826040518060400160405280602081526020017f5361666545524332303a206c6f772d6c6576656c2063616c6c206661696c6564815250856001600160a01b03166116379092919063ffffffff16565b80519091501561135157808060200190518101906115d891906117cb565b6113515760405162461bcd60e51b815260206004820152602a60248201527f5361666545524332303a204552433230206f7065726174696f6e20646964206e6044820152691bdd081cdd58d8d9595960b21b6064820152608401610420565b6060611646848460008561164e565b949350505050565b6060824710156116af5760405162461bcd60e51b815260206004820152602660248201527f416464726573733a20696e73756666696369656e742062616c616e636520666f6044820152651c8818d85b1b60d21b6064820152608401610420565b843b6116fd5760405162461bcd60e51b815260206004820152601d60248201527f416464726573733a2063616c6c20746f206e6f6e2d636f6e74726163740000006044820152606401610420565b600080866001600160a01b0316858760405161171991906118f1565b60006040518083038185875af1925050503d8060008114611756576040519150601f19603f3d011682016040523d82523d6000602084013e61175b565b606091505b509150915061176b828286611776565b979650505050505050565b6060831561178557508161118c565b8251156117955782518084602001fd5b8160405162461bcd60e51b8152600401610420919061190d565b6000602082840312156117c0578081fd5b813561118c81611a40565b6000602082840312156117dc578081fd5b815161118c81611a55565b6000602082840312156117f8578081fd5b815161118c81611a40565b600060208284031215611814578081fd5b5035919050565b60006020828403121561182c578081fd5b5051919050565b60008060408385031215611845578081fd5b82359150602083013561185781611a40565b809150509250929050565b600080600060608486031215611876578081fd5b83359250602084013561188881611a40565b9150604084013561189881611a55565b809150509250925092565b600080604083850312156118b5578182fd5b50508035926020909101359150565b6000806000606084860312156118d8578283fd5b8335925060208401359150604084013561189881611a55565b600082516119038184602087016119e3565b9190910192915050565b600060208252825180602084015261192c8160408501602087016119e3565b601f01601f19169190910160400192915050565b6020808252818101527f4f776e61626c653a2063616c6c6572206973206e6f7420746865206f776e6572604082015260600190565b6000821982111561198857611988611a2a565b500190565b6000826119a857634e487b7160e01b81526012600452602481fd5b500490565b60008160001904831182151516156119c7576119c7611a2a565b500290565b6000828210156119de576119de611a2a565b500390565b60005b838110156119fe5781810151838201526020016119e6565b8381111561134f5750506000910152565b6000600019821415611a2357611a23611a2a565b5060010190565b634e487b7160e01b600052601160045260246000fd5b6001600160a01b0381168114610ba657600080fd5b8015158114610ba657600080fdfea2646970667358221220a067ccec296b67cce51d58fd10056388c975f39893eb2b8617eb3be6880567df64736f6c63430008020033",
  "devdoc": {
    "kind": "dev",
    "methods": {
      "owner()": {
        "details": "Returns the address of the current owner."
      },
      "renounceOwnership()": {
        "details": "Leaves the contract without owner. It will not be possible to call `onlyOwner` functions anymore. Can only be called by the current owner. NOTE: Renouncing ownership will leave the contract without an owner, thereby removing any functionality that is only available to the owner."
      },
      "transferOwnership(address)": {
        "details": "Transfers ownership of the contract to a new account (`newOwner`). Can only be called by the current owner."
      }
    },
    "version": 1
  },
  "userdoc": {
    "kind": "user",
    "methods": {},
    "version": 1
  },
  "storageLayout": {
    "storage": [
      {
        "astId": 3482,
        "contract": "contracts/ReactMaster.sol:ReactMaster",
        "label": "_owner",
        "offset": 0,
        "slot": "0",
        "type": "t_address"
      },
      {
        "astId": 5860,
        "contract": "contracts/ReactMaster.sol:ReactMaster",
        "label": "react",
        "offset": 0,
        "slot": "1",
        "type": "t_contract(ReactToken)7340"
      },
      {
        "astId": 5862,
        "contract": "contracts/ReactMaster.sol:ReactMaster",
        "label": "devaddr",
        "offset": 0,
        "slot": "2",
        "type": "t_address"
      },
      {
        "astId": 5864,
        "contract": "contracts/ReactMaster.sol:ReactMaster",
        "label": "bonusEndBlock",
        "offset": 0,
        "slot": "3",
        "type": "t_uint256"
      },
      {
        "astId": 5866,
        "contract": "contracts/ReactMaster.sol:ReactMaster",
        "label": "reactPerBlock",
        "offset": 0,
        "slot": "4",
        "type": "t_uint256"
      },
      {
        "astId": 5872,
        "contract": "contracts/ReactMaster.sol:ReactMaster",
        "label": "migrator",
        "offset": 0,
        "slot": "5",
        "type": "t_contract(IMigrator)5833"
      },
      {
        "astId": 5876,
        "contract": "contracts/ReactMaster.sol:ReactMaster",
        "label": "poolInfo",
        "offset": 0,
        "slot": "6",
        "type": "t_array(t_struct(PoolInfo)5857_storage)dyn_storage"
      },
      {
        "astId": 5883,
        "contract": "contracts/ReactMaster.sol:ReactMaster",
        "label": "userInfo",
        "offset": 0,
        "slot": "7",
        "type": "t_mapping(t_uint256,t_mapping(t_address,t_struct(UserInfo)5847_storage))"
      },
      {
        "astId": 5886,
        "contract": "contracts/ReactMaster.sol:ReactMaster",
        "label": "totalAllocPoint",
        "offset": 0,
        "slot": "8",
        "type": "t_uint256"
      },
      {
        "astId": 5888,
        "contract": "contracts/ReactMaster.sol:ReactMaster",
        "label": "startBlock",
        "offset": 0,
        "slot": "9",
        "type": "t_uint256"
      }
    ],
    "types": {
      "t_address": {
        "encoding": "inplace",
        "label": "address",
        "numberOfBytes": "20"
      },
      "t_array(t_struct(PoolInfo)5857_storage)dyn_storage": {
        "base": "t_struct(PoolInfo)5857_storage",
        "encoding": "dynamic_array",
        "label": "struct ReactMaster.PoolInfo[]",
        "numberOfBytes": "32"
      },
      "t_contract(IERC20)4203": {
        "encoding": "inplace",
        "label": "contract IERC20",
        "numberOfBytes": "20"
      },
      "t_contract(IMigrator)5833": {
        "encoding": "inplace",
        "label": "contract IMigrator",
        "numberOfBytes": "20"
      },
      "t_contract(ReactToken)7340": {
        "encoding": "inplace",
        "label": "contract ReactToken",
        "numberOfBytes": "20"
      },
      "t_mapping(t_address,t_struct(UserInfo)5847_storage)": {
        "encoding": "mapping",
        "key": "t_address",
        "label": "mapping(address => struct ReactMaster.UserInfo)",
        "numberOfBytes": "32",
        "value": "t_struct(UserInfo)5847_storage"
      },
      "t_mapping(t_uint256,t_mapping(t_address,t_struct(UserInfo)5847_storage))": {
        "encoding": "mapping",
        "key": "t_uint256",
        "label": "mapping(uint256 => mapping(address => struct ReactMaster.UserInfo))",
        "numberOfBytes": "32",
        "value": "t_mapping(t_address,t_struct(UserInfo)5847_storage)"
      },
      "t_struct(PoolInfo)5857_storage": {
        "encoding": "inplace",
        "label": "struct ReactMaster.PoolInfo",
        "members": [
          {
            "astId": 5850,
            "contract": "contracts/ReactMaster.sol:ReactMaster",
            "label": "lpToken",
            "offset": 0,
            "slot": "0",
            "type": "t_contract(IERC20)4203"
          },
          {
            "astId": 5852,
            "contract": "contracts/ReactMaster.sol:ReactMaster",
            "label": "allocPoint",
            "offset": 0,
            "slot": "1",
            "type": "t_uint256"
          },
          {
            "astId": 5854,
            "contract": "contracts/ReactMaster.sol:ReactMaster",
            "label": "lastRewardBlock",
            "offset": 0,
            "slot": "2",
            "type": "t_uint256"
          },
          {
            "astId": 5856,
            "contract": "contracts/ReactMaster.sol:ReactMaster",
            "label": "accReactPerShare",
            "offset": 0,
            "slot": "3",
            "type": "t_uint256"
          }
        ],
        "numberOfBytes": "128"
      },
      "t_struct(UserInfo)5847_storage": {
        "encoding": "inplace",
        "label": "struct ReactMaster.UserInfo",
        "members": [
          {
            "astId": 5844,
            "contract": "contracts/ReactMaster.sol:ReactMaster",
            "label": "amount",
            "offset": 0,
            "slot": "0",
            "type": "t_uint256"
          },
          {
            "astId": 5846,
            "contract": "contracts/ReactMaster.sol:ReactMaster",
            "label": "rewardDebt",
            "offset": 0,
            "slot": "1",
            "type": "t_uint256"
          }
        ],
        "numberOfBytes": "64"
      },
      "t_uint256": {
        "encoding": "inplace",
        "label": "uint256",
        "numberOfBytes": "32"
      }
    }
  }
}