{
  "address": "0x5b1295Cf4f69FDA49A830Bc6D467b58c97535893",
  "abi": [
    {
      "inputs": [
        {
          "internalType": "contract IERC20",
          "name": "_react",
          "type": "address"
        }
      ],
      "stateMutability": "nonpayable",
      "type": "constructor"
    },
    {
      "anonymous": false,
      "inputs": [
        {
          "indexed": true,
          "internalType": "address",
          "name": "owner",
          "type": "address"
        },
        {
          "indexed": true,
          "internalType": "address",
          "name": "spender",
          "type": "address"
        },
        {
          "indexed": false,
          "internalType": "uint256",
          "name": "value",
          "type": "uint256"
        }
      ],
      "name": "Approval",
      "type": "event"
    },
    {
      "anonymous": false,
      "inputs": [
        {
          "indexed": true,
          "internalType": "address",
          "name": "delegator",
          "type": "address"
        },
        {
          "indexed": true,
          "internalType": "address",
          "name": "fromDelegate",
          "type": "address"
        },
        {
          "indexed": true,
          "internalType": "address",
          "name": "toDelegate",
          "type": "address"
        }
      ],
      "name": "DelegateChanged",
      "type": "event"
    },
    {
      "anonymous": false,
      "inputs": [
        {
          "indexed": true,
          "internalType": "address",
          "name": "delegate",
          "type": "address"
        },
        {
          "indexed": false,
          "internalType": "uint256",
          "name": "previousBalance",
          "type": "uint256"
        },
        {
          "indexed": false,
          "internalType": "uint256",
          "name": "newBalance",
          "type": "uint256"
        }
      ],
      "name": "DelegateVotesChanged",
      "type": "event"
    },
    {
      "anonymous": false,
      "inputs": [
        {
          "indexed": true,
          "internalType": "address",
          "name": "previousOwner",
          "type": "address"
        },
        {
          "indexed": true,
          "internalType": "address",
          "name": "newOwner",
          "type": "address"
        }
      ],
      "name": "OwnershipTransferred",
      "type": "event"
    },
    {
      "anonymous": false,
      "inputs": [
        {
          "indexed": true,
          "internalType": "address",
          "name": "from",
          "type": "address"
        },
        {
          "indexed": true,
          "internalType": "address",
          "name": "to",
          "type": "address"
        },
        {
          "indexed": false,
          "internalType": "uint256",
          "name": "value",
          "type": "uint256"
        }
      ],
      "name": "Transfer",
      "type": "event"
    },
    {
      "inputs": [],
      "name": "DOMAIN_SEPARATOR",
      "outputs": [
        {
          "internalType": "bytes32",
          "name": "",
          "type": "bytes32"
        }
      ],
      "stateMutability": "view",
      "type": "function"
    },
    {
      "inputs": [
        {
          "internalType": "address",
          "name": "owner",
          "type": "address"
        },
        {
          "internalType": "address",
          "name": "spender",
          "type": "address"
        }
      ],
      "name": "allowance",
      "outputs": [
        {
          "internalType": "uint256",
          "name": "",
          "type": "uint256"
        }
      ],
      "stateMutability": "view",
      "type": "function"
    },
    {
      "inputs": [
        {
          "internalType": "address",
          "name": "spender",
          "type": "address"
        },
        {
          "internalType": "uint256",
          "name": "amount",
          "type": "uint256"
        }
      ],
      "name": "approve",
      "outputs": [
        {
          "internalType": "bool",
          "name": "",
          "type": "bool"
        }
      ],
      "stateMutability": "nonpayable",
      "type": "function"
    },
    {
      "inputs": [
        {
          "internalType": "address",
          "name": "account",
          "type": "address"
        }
      ],
      "name": "balanceOf",
      "outputs": [
        {
          "internalType": "uint256",
          "name": "",
          "type": "uint256"
        }
      ],
      "stateMutability": "view",
      "type": "function"
    },
    {
      "inputs": [
        {
          "internalType": "address",
          "name": "_from",
          "type": "address"
        },
        {
          "internalType": "uint256",
          "name": "_amount",
          "type": "uint256"
        }
      ],
      "name": "burn",
      "outputs": [],
      "stateMutability": "nonpayable",
      "type": "function"
    },
    {
      "inputs": [
        {
          "internalType": "address",
          "name": "account",
          "type": "address"
        },
        {
          "internalType": "uint32",
          "name": "pos",
          "type": "uint32"
        }
      ],
      "name": "checkpoints",
      "outputs": [
        {
          "components": [
            {
              "internalType": "uint32",
              "name": "fromBlock",
              "type": "uint32"
            },
            {
              "internalType": "uint224",
              "name": "votes",
              "type": "uint224"
            }
          ],
          "internalType": "struct ERC20Votes.Checkpoint",
          "name": "",
          "type": "tuple"
        }
      ],
      "stateMutability": "view",
      "type": "function"
    },
    {
      "inputs": [],
      "name": "decimals",
      "outputs": [
        {
          "internalType": "uint8",
          "name": "",
          "type": "uint8"
        }
      ],
      "stateMutability": "view",
      "type": "function"
    },
    {
      "inputs": [
        {
          "internalType": "address",
          "name": "spender",
          "type": "address"
        },
        {
          "internalType": "uint256",
          "name": "subtractedValue",
          "type": "uint256"
        }
      ],
      "name": "decreaseAllowance",
      "outputs": [
        {
          "internalType": "bool",
          "name": "",
          "type": "bool"
        }
      ],
      "stateMutability": "nonpayable",
      "type": "function"
    },
    {
      "inputs": [
        {
          "internalType": "address",
          "name": "delegatee",
          "type": "address"
        }
      ],
      "name": "delegate",
      "outputs": [],
      "stateMutability": "nonpayable",
      "type": "function"
    },
    {
      "inputs": [
        {
          "internalType": "address",
          "name": "delegatee",
          "type": "address"
        },
        {
          "internalType": "uint256",
          "name": "nonce",
          "type": "uint256"
        },
        {
          "internalType": "uint256",
          "name": "expiry",
          "type": "uint256"
        },
        {
          "internalType": "uint8",
          "name": "v",
          "type": "uint8"
        },
        {
          "internalType": "bytes32",
          "name": "r",
          "type": "bytes32"
        },
        {
          "internalType": "bytes32",
          "name": "s",
          "type": "bytes32"
        }
      ],
      "name": "delegateBySig",
      "outputs": [],
      "stateMutability": "nonpayable",
      "type": "function"
    },
    {
      "inputs": [
        {
          "internalType": "address",
          "name": "account",
          "type": "address"
        }
      ],
      "name": "delegates",
      "outputs": [
        {
          "internalType": "address",
          "name": "",
          "type": "address"
        }
      ],
      "stateMutability": "view",
      "type": "function"
    },
    {
      "inputs": [
        {
          "internalType": "uint256",
          "name": "blockNumber",
          "type": "uint256"
        }
      ],
      "name": "getPastTotalSupply",
      "outputs": [
        {
          "internalType": "uint256",
          "name": "",
          "type": "uint256"
        }
      ],
      "stateMutability": "view",
      "type": "function"
    },
    {
      "inputs": [
        {
          "internalType": "address",
          "name": "account",
          "type": "address"
        },
        {
          "internalType": "uint256",
          "name": "blockNumber",
          "type": "uint256"
        }
      ],
      "name": "getPastVotes",
      "outputs": [
        {
          "internalType": "uint256",
          "name": "",
          "type": "uint256"
        }
      ],
      "stateMutability": "view",
      "type": "function"
    },
    {
      "inputs": [
        {
          "internalType": "address",
          "name": "account",
          "type": "address"
        }
      ],
      "name": "getVotes",
      "outputs": [
        {
          "internalType": "uint256",
          "name": "",
          "type": "uint256"
        }
      ],
      "stateMutability": "view",
      "type": "function"
    },
    {
      "inputs": [
        {
          "internalType": "address",
          "name": "spender",
          "type": "address"
        },
        {
          "internalType": "uint256",
          "name": "addedValue",
          "type": "uint256"
        }
      ],
      "name": "increaseAllowance",
      "outputs": [
        {
          "internalType": "bool",
          "name": "",
          "type": "bool"
        }
      ],
      "stateMutability": "nonpayable",
      "type": "function"
    },
    {
      "inputs": [
        {
          "internalType": "address",
          "name": "_to",
          "type": "address"
        },
        {
          "internalType": "uint256",
          "name": "_amount",
          "type": "uint256"
        }
      ],
      "name": "mint",
      "outputs": [],
      "stateMutability": "nonpayable",
      "type": "function"
    },
    {
      "inputs": [],
      "name": "name",
      "outputs": [
        {
          "internalType": "string",
          "name": "",
          "type": "string"
        }
      ],
      "stateMutability": "view",
      "type": "function"
    },
    {
      "inputs": [
        {
          "internalType": "address",
          "name": "owner",
          "type": "address"
        }
      ],
      "name": "nonces",
      "outputs": [
        {
          "internalType": "uint256",
          "name": "",
          "type": "uint256"
        }
      ],
      "stateMutability": "view",
      "type": "function"
    },
    {
      "inputs": [
        {
          "internalType": "address",
          "name": "account",
          "type": "address"
        }
      ],
      "name": "numCheckpoints",
      "outputs": [
        {
          "internalType": "uint32",
          "name": "",
          "type": "uint32"
        }
      ],
      "stateMutability": "view",
      "type": "function"
    },
    {
      "inputs": [],
      "name": "owner",
      "outputs": [
        {
          "internalType": "address",
          "name": "",
          "type": "address"
        }
      ],
      "stateMutability": "view",
      "type": "function"
    },
    {
      "inputs": [
        {
          "internalType": "address",
          "name": "owner",
          "type": "address"
        },
        {
          "internalType": "address",
          "name": "spender",
          "type": "address"
        },
        {
          "internalType": "uint256",
          "name": "value",
          "type": "uint256"
        },
        {
          "internalType": "uint256",
          "name": "deadline",
          "type": "uint256"
        },
        {
          "internalType": "uint8",
          "name": "v",
          "type": "uint8"
        },
        {
          "internalType": "bytes32",
          "name": "r",
          "type": "bytes32"
        },
        {
          "internalType": "bytes32",
          "name": "s",
          "type": "bytes32"
        }
      ],
      "name": "permit",
      "outputs": [],
      "stateMutability": "nonpayable",
      "type": "function"
    },
    {
      "inputs": [],
      "name": "react",
      "outputs": [
        {
          "internalType": "contract IERC20",
          "name": "",
          "type": "address"
        }
      ],
      "stateMutability": "view",
      "type": "function"
    },
    {
      "inputs": [],
      "name": "renounceOwnership",
      "outputs": [],
      "stateMutability": "nonpayable",
      "type": "function"
    },
    {
      "inputs": [
        {
          "internalType": "address",
          "name": "_to",
          "type": "address"
        },
        {
          "internalType": "uint256",
          "name": "_amount",
          "type": "uint256"
        }
      ],
      "name": "safeReactTransfer",
      "outputs": [],
      "stateMutability": "nonpayable",
      "type": "function"
    },
    {
      "inputs": [],
      "name": "symbol",
      "outputs": [
        {
          "internalType": "string",
          "name": "",
          "type": "string"
        }
      ],
      "stateMutability": "view",
      "type": "function"
    },
    {
      "inputs": [],
      "name": "totalSupply",
      "outputs": [
        {
          "internalType": "uint256",
          "name": "",
          "type": "uint256"
        }
      ],
      "stateMutability": "view",
      "type": "function"
    },
    {
      "inputs": [
        {
          "internalType": "address",
          "name": "recipient",
          "type": "address"
        },
        {
          "internalType": "uint256",
          "name": "amount",
          "type": "uint256"
        }
      ],
      "name": "transfer",
      "outputs": [
        {
          "internalType": "bool",
          "name": "",
          "type": "bool"
        }
      ],
      "stateMutability": "nonpayable",
      "type": "function"
    },
    {
      "inputs": [
        {
          "internalType": "address",
          "name": "sender",
          "type": "address"
        },
        {
          "internalType": "address",
          "name": "recipient",
          "type": "address"
        },
        {
          "internalType": "uint256",
          "name": "amount",
          "type": "uint256"
        }
      ],
      "name": "transferFrom",
      "outputs": [
        {
          "internalType": "bool",
          "name": "",
          "type": "bool"
        }
      ],
      "stateMutability": "nonpayable",
      "type": "function"
    },
    {
      "inputs": [
        {
          "internalType": "address",
          "name": "newOwner",
          "type": "address"
        }
      ],
      "name": "transferOwnership",
      "outputs": [],
      "stateMutability": "nonpayable",
      "type": "function"
    }
  ],
  "transactionHash": "0x9a606979f816e5b0f1649121c3f3fcbb2168eca94fb5400b8b492456f7a82ca3",
  "args": [
    "0x2280EC541a667bC94F86ca18e6F7179D56b058A6"
  ],
  "solcInputHash": "d02081c84e8df7996569a58cbe28e379",
  "bytecode": "0x6101606040527f6e71edae12b1b97f4d1f60370fef10105fa2faae0126114a169c64845d6126c9610140523480156200003757600080fd5b506040516200268f3803806200268f8339810160408190526200005a91620002e0565b6040518060400160405280600b81526020016a052656163742053797275760ac1b81525080604051806040016040528060018152602001603160f81b8152506040518060400160405280600b81526020016a052656163742053797275760ac1b8152506040518060400160405280600681526020016507253595255560d41b8152508160039080519060200190620000f49291906200023a565b5080516200010a9060049060208401906200023a565b5050506200012762000121620001e460201b60201c565b620001e8565b815160208084019190912082518383012060e08290526101008190524660a0818152604080517f8b73c3c69bb8fe3d512ecc4cf759cc79239f7b179b0ffacaa9a75d522b39400f81880181905281830187905260608201869052608082019490945230818401528151808203909301835260c00190528051940193909320919290916080523060601b60c052610120525050600a80546001600160a01b0319166001600160a01b039590951694909417909355506200034d915050565b3390565b600580546001600160a01b038381166001600160a01b0319831681179093556040519116919082907f8be0079c531659141344cd1fd0a4f28419497f9722a3daafe3b4186f6b6457e090600090a35050565b828054620002489062000310565b90600052602060002090601f0160209004810192826200026c5760008555620002b7565b82601f106200028757805160ff1916838001178555620002b7565b82800160010185558215620002b7579182015b82811115620002b75782518255916020019190600101906200029a565b50620002c5929150620002c9565b5090565b5b80821115620002c55760008155600101620002ca565b600060208284031215620002f2578081fd5b81516001600160a01b038116811462000309578182fd5b9392505050565b6002810460018216806200032557607f821691505b602082108114156200034757634e487b7160e01b600052602260045260246000fd5b50919050565b60805160a05160c05160601c60e0516101005161012051610140516122e4620003ab6000396000610caf0152600061126d015260006112bc01526000611297015260006111ee015260006112180152600061124201526122e46000f3fe608060405234801561001057600080fd5b50600436106101cf5760003560e01c806370a08231116101045780639dc29fac116100a2578063d505accf11610071578063d505accf146103e7578063dd62ed3e146103fa578063f1127ed814610433578063f2fde38b14610470576101cf565b80639dc29fac1461039b578063a457c2d7146103ae578063a9059cbb146103c1578063c3cda520146103d4576101cf565b80638da5cb5b116100de5780638da5cb5b1461035c5780638e539e8c1461036d57806395d89b41146103805780639ab24eb014610388576101cf565b806370a0823114610318578063715018a6146103415780637ecebe0014610349576101cf565b8063395093511161017157806340c10f191161014b57806340c10f19146102b7578063587cde1e146102ca5780635c19a95c146102dd5780636fcfff45146102f0576101cf565b8063395093511461027c5780633a46b1a81461028f5780633debb4fe146102a2576101cf565b806323b872dd116101ad57806323b872dd146102275780632d2800f11461023a578063313ce567146102655780633644e51514610274576101cf565b806306fdde03146101d4578063095ea7b3146101f257806318160ddd14610215575b600080fd5b6101dc610483565b6040516101e9919061218c565b60405180910390f35b61020561020036600461207e565b610516565b60405190151581526020016101e9565b6002545b6040519081526020016101e9565b610205610235366004611fda565b61052c565b600a5461024d906001600160a01b031681565b6040516001600160a01b0390911681526020016101e9565b604051601281526020016101e9565b6102196105db565b61020561028a36600461207e565b6105ea565b61021961029d36600461207e565b610626565b6102b56102b036600461207e565b6106a0565b005b6102b56102c536600461207e565b610869565b61024d6102d8366004611f8e565b6108a1565b6102b56102eb366004611f8e565b6108c2565b6103036102fe366004611f8e565b6108cf565b60405163ffffffff90911681526020016101e9565b610219610326366004611f8e565b6001600160a01b031660009081526020819052604090205490565b6102b56108f7565b610219610357366004611f8e565b61092d565b6005546001600160a01b031661024d565b61021961037b36600461215c565b61094b565b6101dc6109a7565b610219610396366004611f8e565b6109b6565b6102b56103a936600461207e565b610a4b565b6102056103bc36600461207e565b610a7f565b6102056103cf36600461207e565b610b18565b6102b56103e23660046120a7565b610b25565b6102b56103f5366004612015565b610c5b565b610219610408366004611fa8565b6001600160a01b03918216600090815260016020908152604080832093909416825291909152205490565b6104466104413660046120fe565b610dbf565b60408051825163ffffffff1681526020928301516001600160e01b031692810192909252016101e9565b6102b561047e366004611f8e565b610e51565b60606003805461049290612263565b80601f01602080910402602001604051908101604052809291908181526020018280546104be90612263565b801561050b5780601f106104e05761010080835404028352916020019161050b565b820191906000526020600020905b8154815290600101906020018083116104ee57829003601f168201915b505050505090505b90565b6000610523338484610ee9565b50600192915050565b600061053984848461100d565b6001600160a01b0384166000908152600160209081526040808320338452909152902054828110156105c35760405162461bcd60e51b815260206004820152602860248201527f45524332303a207472616e7366657220616d6f756e74206578636565647320616044820152676c6c6f77616e636560c01b60648201526084015b60405180910390fd5b6105d08533858403610ee9565b506001949350505050565b60006105e56111e1565b905090565b3360008181526001602090815260408083206001600160a01b03871684529091528120549091610523918590610621908690612214565b610ee9565b60004382106106775760405162461bcd60e51b815260206004820152601f60248201527f4552433230566f7465733a20626c6f636b206e6f7420796574206d696e65640060448201526064016105ba565b6001600160a01b0383166000908152600860205260409020610699908361130c565b9392505050565b6005546001600160a01b031633146106ca5760405162461bcd60e51b81526004016105ba906121df565b600a546040516370a0823160e01b81523060048201526000916001600160a01b0316906370a082319060240160206040518083038186803b15801561070e57600080fd5b505afa158015610722573d6000803e3d6000fd5b505050506040513d601f19601f820116820180604052508101906107469190612174565b9050808211156107dc57600a5460405163a9059cbb60e01b81526001600160a01b038581166004830152602482018490529091169063a9059cbb90604401602060405180830381600087803b15801561079e57600080fd5b505af11580156107b2573d6000803e3d6000fd5b505050506040513d601f19601f820116820180604052508101906107d6919061213c565b50610864565b600a5460405163a9059cbb60e01b81526001600160a01b038581166004830152602482018590529091169063a9059cbb90604401602060405180830381600087803b15801561082a57600080fd5b505af115801561083e573d6000803e3d6000fd5b505050506040513d601f19601f82011682018060405250810190610862919061213c565b505b505050565b6005546001600160a01b031633146108935760405162461bcd60e51b81526004016105ba906121df565b61089d82826113e5565b5050565b6001600160a01b03808216600090815260076020526040902054165b919050565b6108cc33826113ef565b50565b6001600160a01b0381166000908152600860205260408120546108f190611485565b92915050565b6005546001600160a01b031633146109215760405162461bcd60e51b81526004016105ba906121df565b61092b60006114ee565b565b6001600160a01b0381166000908152600660205260408120546108f1565b600043821061099c5760405162461bcd60e51b815260206004820152601f60248201527f4552433230566f7465733a20626c6f636b206e6f7420796574206d696e65640060448201526064016105ba565b6108f160098361130c565b60606004805461049290612263565b6001600160a01b0381166000908152600860205260408120548015610a38576001600160a01b03831660009081526008602052604090206109f860018361224c565b81548110610a1657634e487b7160e01b600052603260045260246000fd5b60009182526020909120015464010000000090046001600160e01b0316610a3b565b60005b6001600160e01b03169392505050565b6005546001600160a01b03163314610a755760405162461bcd60e51b81526004016105ba906121df565b61089d8282611540565b3360009081526001602090815260408083206001600160a01b038616845290915281205482811015610b015760405162461bcd60e51b815260206004820152602560248201527f45524332303a2064656372656173656420616c6c6f77616e63652062656c6f77604482015264207a65726f60d81b60648201526084016105ba565b610b0e3385858403610ee9565b5060019392505050565b600061052333848461100d565b83421115610b755760405162461bcd60e51b815260206004820152601d60248201527f4552433230566f7465733a207369676e6174757265206578706972656400000060448201526064016105ba565b604080517fe48329057bfd03d55e49b547132e39cffd9c1820ad7b9d4c5307691425d15adf60208201526001600160a01b038816918101919091526060810186905260808101859052600090610bef90610be79060a0016040516020818303038152906040528051906020012061154a565b858585611598565b9050610bfa816115c0565b8614610c485760405162461bcd60e51b815260206004820152601960248201527f4552433230566f7465733a20696e76616c6964206e6f6e63650000000000000060448201526064016105ba565b610c5281886113ef565b50505050505050565b83421115610cab5760405162461bcd60e51b815260206004820152601d60248201527f45524332305065726d69743a206578706972656420646561646c696e6500000060448201526064016105ba565b60007f0000000000000000000000000000000000000000000000000000000000000000888888610cda8c6115c0565b6040805160208101969096526001600160a01b0394851690860152929091166060840152608083015260a082015260c0810186905260e0016040516020818303038152906040528051906020012090506000610d358261154a565b90506000610d4582878787611598565b9050896001600160a01b0316816001600160a01b031614610da85760405162461bcd60e51b815260206004820152601e60248201527f45524332305065726d69743a20696e76616c6964207369676e6174757265000060448201526064016105ba565b610db38a8a8a610ee9565b50505050505050505050565b60408051808201909152600080825260208201526001600160a01b0383166000908152600860205260409020805463ffffffff8416908110610e1157634e487b7160e01b600052603260045260246000fd5b60009182526020918290206040805180820190915291015463ffffffff8116825264010000000090046001600160e01b0316918101919091529392505050565b6005546001600160a01b03163314610e7b5760405162461bcd60e51b81526004016105ba906121df565b6001600160a01b038116610ee05760405162461bcd60e51b815260206004820152602660248201527f4f776e61626c653a206e6577206f776e657220697320746865207a65726f206160448201526564647265737360d01b60648201526084016105ba565b6108cc816114ee565b6001600160a01b038316610f4b5760405162461bcd60e51b8152602060048201526024808201527f45524332303a20617070726f76652066726f6d20746865207a65726f206164646044820152637265737360e01b60648201526084016105ba565b6001600160a01b038216610fac5760405162461bcd60e51b815260206004820152602260248201527f45524332303a20617070726f766520746f20746865207a65726f206164647265604482015261737360f01b60648201526084016105ba565b6001600160a01b0383811660008181526001602090815260408083209487168084529482529182902085905590518481527f8c5be1e5ebec7d5bd14f71427d1e84f3dd0314c0f7b2291e5b200ac8c7c3b925910160405180910390a3505050565b6001600160a01b0383166110715760405162461bcd60e51b815260206004820152602560248201527f45524332303a207472616e736665722066726f6d20746865207a65726f206164604482015264647265737360d81b60648201526084016105ba565b6001600160a01b0382166110d35760405162461bcd60e51b815260206004820152602360248201527f45524332303a207472616e7366657220746f20746865207a65726f206164647260448201526265737360e81b60648201526084016105ba565b6001600160a01b0383166000908152602081905260409020548181101561114b5760405162461bcd60e51b815260206004820152602660248201527f45524332303a207472616e7366657220616d6f756e7420657863656564732062604482015265616c616e636560d01b60648201526084016105ba565b6001600160a01b03808516600090815260208190526040808220858503905591851681529081208054849290611182908490612214565b92505081905550826001600160a01b0316846001600160a01b03167fddf252ad1be2c89b69c2b068fc378daa952ba7f163c4a11628f55a4df523b3ef846040516111ce91815260200190565b60405180910390a36108628484846115e8565b6000306001600160a01b037f00000000000000000000000000000000000000000000000000000000000000001614801561123a57507f000000000000000000000000000000000000000000000000000000000000000046145b1561126657507f0000000000000000000000000000000000000000000000000000000000000000610513565b50604080517f00000000000000000000000000000000000000000000000000000000000000006020808301919091527f0000000000000000000000000000000000000000000000000000000000000000828401527f000000000000000000000000000000000000000000000000000000000000000060608301524660808301523060a0808401919091528351808403909101815260c09092019092528051910120610513565b8154600090815b8181101561137e57600061132782846115f3565b90508486828154811061134a57634e487b7160e01b600052603260045260246000fd5b60009182526020909120015463ffffffff16111561136a57809250611378565b611375816001612214565b91505b50611313565b81156113d0578461139060018461224c565b815481106113ae57634e487b7160e01b600052603260045260246000fd5b60009182526020909120015464010000000090046001600160e01b03166113d3565b60005b6001600160e01b031695945050505050565b61089d828261160e565b60006113fa836108a1565b9050600061141d846001600160a01b031660009081526020819052604090205490565b6001600160a01b0385811660008181526007602052604080822080546001600160a01b031916898616908117909155905194955093928616927f3134e8a2e6d97e929a7e54011ea5485d7d196dd5f0ba4d4ef95803e8e3fc257f9190a4610862828483611698565b600063ffffffff8211156114ea5760405162461bcd60e51b815260206004820152602660248201527f53616665436173743a2076616c756520646f65736e27742066697420696e203360448201526532206269747360d01b60648201526084016105ba565b5090565b600580546001600160a01b038381166001600160a01b0319831681179093556040519116919082907f8be0079c531659141344cd1fd0a4f28419497f9722a3daafe3b4186f6b6457e090600090a35050565b61089d82826117d5565b60006108f16115576111e1565b8360405161190160f01b6020820152602281018390526042810182905260009060620160405160208183030381529060405280519060200120905092915050565b60008060006115a9878787876117ed565b915091506115b6816118da565b5095945050505050565b6001600160a01b03811660009081526006602052604090208054600181018255905b50919050565b610864838383611add565b6000611602600284841861222c565b61069990848416612214565b6116188282611af8565b6002546001600160e01b03101561168a5760405162461bcd60e51b815260206004820152603060248201527f4552433230566f7465733a20746f74616c20737570706c79207269736b73206f60448201526f766572666c6f77696e6720766f74657360801b60648201526084016105ba565b6108626009611bdf83611beb565b816001600160a01b0316836001600160a01b0316141580156116ba5750600081115b15610864576001600160a01b03831615611748576001600160a01b038316600090815260086020526040812081906116f590611d9c85611beb565b91509150846001600160a01b03167fdec2bacdd2f05b59de34da9b523dff8be42e5e38e818c82fdb0bae774387a724838360405161173d929190918252602082015260400190565b60405180910390a250505b6001600160a01b03821615610864576001600160a01b0382166000908152600860205260408120819061177e90611bdf85611beb565b91509150836001600160a01b03167fdec2bacdd2f05b59de34da9b523dff8be42e5e38e818c82fdb0bae774387a72483836040516117c6929190918252602082015260400190565b60405180910390a25050505050565b6117df8282611da8565b6108626009611d9c83611beb565b6000807f7fffffffffffffffffffffffffffffff5d576e7357a4501ddfe92f46681b20a083111561182457506000905060036118d1565b8460ff16601b1415801561183c57508460ff16601c14155b1561184d57506000905060046118d1565b6040805160008082526020820180845289905260ff881692820192909252606081018690526080810185905260019060a0016020604051602081039080840390855afa1580156118a1573d6000803e3d6000fd5b5050604051601f1901519150506001600160a01b0381166118ca576000600192509250506118d1565b9150600090505b94509492505050565b60008160048111156118fc57634e487b7160e01b600052602160045260246000fd5b1415611907576108cc565b600181600481111561192957634e487b7160e01b600052602160045260246000fd5b14156119775760405162461bcd60e51b815260206004820152601860248201527f45434453413a20696e76616c6964207369676e6174757265000000000000000060448201526064016105ba565b600281600481111561199957634e487b7160e01b600052602160045260246000fd5b14156119e75760405162461bcd60e51b815260206004820152601f60248201527f45434453413a20696e76616c6964207369676e6174757265206c656e6774680060448201526064016105ba565b6003816004811115611a0957634e487b7160e01b600052602160045260246000fd5b1415611a625760405162461bcd60e51b815260206004820152602260248201527f45434453413a20696e76616c6964207369676e6174757265202773272076616c604482015261756560f01b60648201526084016105ba565b6004816004811115611a8457634e487b7160e01b600052602160045260246000fd5b14156108cc5760405162461bcd60e51b815260206004820152602260248201527f45434453413a20696e76616c6964207369676e6174757265202776272076616c604482015261756560f01b60648201526084016105ba565b610864611ae9846108a1565b611af2846108a1565b83611698565b6001600160a01b038216611b4e5760405162461bcd60e51b815260206004820152601f60248201527f45524332303a206d696e7420746f20746865207a65726f20616464726573730060448201526064016105ba565b8060026000828254611b609190612214565b90915550506001600160a01b03821660009081526020819052604081208054839290611b8d908490612214565b90915550506040518181526001600160a01b038316906000907fddf252ad1be2c89b69c2b068fc378daa952ba7f163c4a11628f55a4df523b3ef9060200160405180910390a361089d600083836115e8565b60006106998284612214565b825460009081908015611c445785611c0460018361224c565b81548110611c2257634e487b7160e01b600052603260045260246000fd5b60009182526020909120015464010000000090046001600160e01b0316611c47565b60005b6001600160e01b03169250611c6083858763ffffffff16565b9150600081118015611cac57504386611c7a60018461224c565b81548110611c9857634e487b7160e01b600052603260045260246000fd5b60009182526020909120015463ffffffff16145b15611d1a57611cba82611efd565b86611cc660018461224c565b81548110611ce457634e487b7160e01b600052603260045260246000fd5b9060005260206000200160000160046101000a8154816001600160e01b0302191690836001600160e01b03160217905550611d93565b856040518060400160405280611d2f43611485565b63ffffffff168152602001611d4385611efd565b6001600160e01b039081169091528254600181018455600093845260209384902083519101805493909401519091166401000000000263ffffffff91821663ffffffff1990931692909217161790555b50935093915050565b6000610699828461224c565b6001600160a01b038216611e085760405162461bcd60e51b815260206004820152602160248201527f45524332303a206275726e2066726f6d20746865207a65726f206164647265736044820152607360f81b60648201526084016105ba565b6001600160a01b03821660009081526020819052604090205481811015611e7c5760405162461bcd60e51b815260206004820152602260248201527f45524332303a206275726e20616d6f756e7420657863656564732062616c616e604482015261636560f01b60648201526084016105ba565b6001600160a01b0383166000908152602081905260408120838303905560028054849290611eab90849061224c565b90915550506040518281526000906001600160a01b038516907fddf252ad1be2c89b69c2b068fc378daa952ba7f163c4a11628f55a4df523b3ef9060200160405180910390a3610864836000846115e8565b60006001600160e01b038211156114ea5760405162461bcd60e51b815260206004820152602760248201527f53616665436173743a2076616c756520646f65736e27742066697420696e20326044820152663234206269747360c81b60648201526084016105ba565b80356001600160a01b03811681146108bd57600080fd5b803560ff811681146108bd57600080fd5b600060208284031215611f9f578081fd5b61069982611f66565b60008060408385031215611fba578081fd5b611fc383611f66565b9150611fd160208401611f66565b90509250929050565b600080600060608486031215611fee578081fd5b611ff784611f66565b925061200560208501611f66565b9150604084013590509250925092565b600080600080600080600060e0888a03121561202f578283fd5b61203888611f66565b965061204660208901611f66565b9550604088013594506060880135935061206260808901611f7d565b925060a0880135915060c0880135905092959891949750929550565b60008060408385031215612090578182fd5b61209983611f66565b946020939093013593505050565b60008060008060008060c087890312156120bf578182fd5b6120c887611f66565b955060208701359450604087013593506120e460608801611f7d565b92506080870135915060a087013590509295509295509295565b60008060408385031215612110578182fd5b61211983611f66565b9150602083013563ffffffff81168114612131578182fd5b809150509250929050565b60006020828403121561214d578081fd5b81518015158114610699578182fd5b60006020828403121561216d578081fd5b5035919050565b600060208284031215612185578081fd5b5051919050565b6000602080835283518082850152825b818110156121b85785810183015185820160400152820161219c565b818111156121c95783604083870101525b50601f01601f1916929092016040019392505050565b6020808252818101527f4f776e61626c653a2063616c6c6572206973206e6f7420746865206f776e6572604082015260600190565b6000821982111561222757612227612298565b500190565b60008261224757634e487b7160e01b81526012600452602481fd5b500490565b60008282101561225e5761225e612298565b500390565b60028104600182168061227757607f821691505b602082108114156115e257634e487b7160e01b600052602260045260246000fd5b634e487b7160e01b600052601160045260246000fdfea26469706673582212203f168ea5c02364e62bec2a362ae48be918779af9da26e65ce639103d444a0b1464736f6c63430008020033",
  "devdoc": {
    "kind": "dev",
    "methods": {
      "DOMAIN_SEPARATOR()": {
        "details": "See {IERC20Permit-DOMAIN_SEPARATOR}."
      },
      "allowance(address,address)": {
        "details": "See {IERC20-allowance}."
      },
      "approve(address,uint256)": {
        "details": "See {IERC20-approve}. Requirements: - `spender` cannot be the zero address."
      },
      "balanceOf(address)": {
        "details": "See {IERC20-balanceOf}."
      },
      "checkpoints(address,uint32)": {
        "details": "Get the `pos`-th checkpoint for `account`."
      },
      "decimals()": {
        "details": "Returns the number of decimals used to get its user representation. For example, if `decimals` equals `2`, a balance of `505` tokens should be displayed to a user as `5.05` (`505 / 10 ** 2`). Tokens usually opt for a value of 18, imitating the relationship between Ether and Wei. This is the value {ERC20} uses, unless this function is overridden; NOTE: This information is only used for _display_ purposes: it in no way affects any of the arithmetic of the contract, including {IERC20-balanceOf} and {IERC20-transfer}."
      },
      "decreaseAllowance(address,uint256)": {
        "details": "Atomically decreases the allowance granted to `spender` by the caller. This is an alternative to {approve} that can be used as a mitigation for problems described in {IERC20-approve}. Emits an {Approval} event indicating the updated allowance. Requirements: - `spender` cannot be the zero address. - `spender` must have allowance for the caller of at least `subtractedValue`."
      },
      "delegate(address)": {
        "details": "Delegate votes from the sender to `delegatee`."
      },
      "delegateBySig(address,uint256,uint256,uint8,bytes32,bytes32)": {
        "details": "Delegates votes from signer to `delegatee`"
      },
      "delegates(address)": {
        "details": "Get the address `account` is currently delegating to."
      },
      "getPastTotalSupply(uint256)": {
        "details": "Retrieve the `totalSupply` at the end of `blockNumber`. Note, this value is the sum of all balances. It is but NOT the sum of all the delegated votes! Requirements: - `blockNumber` must have been already mined"
      },
      "getPastVotes(address,uint256)": {
        "details": "Retrieve the number of votes for `account` at the end of `blockNumber`. Requirements: - `blockNumber` must have been already mined"
      },
      "getVotes(address)": {
        "details": "Gets the current votes balance for `account`"
      },
      "increaseAllowance(address,uint256)": {
        "details": "Atomically increases the allowance granted to `spender` by the caller. This is an alternative to {approve} that can be used as a mitigation for problems described in {IERC20-approve}. Emits an {Approval} event indicating the updated allowance. Requirements: - `spender` cannot be the zero address."
      },
      "name()": {
        "details": "Returns the name of the token."
      },
      "nonces(address)": {
        "details": "See {IERC20Permit-nonces}."
      },
      "numCheckpoints(address)": {
        "details": "Get number of checkpoints for `account`."
      },
      "owner()": {
        "details": "Returns the address of the current owner."
      },
      "permit(address,address,uint256,uint256,uint8,bytes32,bytes32)": {
        "details": "See {IERC20Permit-permit}."
      },
      "renounceOwnership()": {
        "details": "Leaves the contract without owner. It will not be possible to call `onlyOwner` functions anymore. Can only be called by the current owner. NOTE: Renouncing ownership will leave the contract without an owner, thereby removing any functionality that is only available to the owner."
      },
      "symbol()": {
        "details": "Returns the symbol of the token, usually a shorter version of the name."
      },
      "totalSupply()": {
        "details": "See {IERC20-totalSupply}."
      },
      "transfer(address,uint256)": {
        "details": "See {IERC20-transfer}. Requirements: - `recipient` cannot be the zero address. - the caller must have a balance of at least `amount`."
      },
      "transferFrom(address,address,uint256)": {
        "details": "See {IERC20-transferFrom}. Emits an {Approval} event indicating the updated allowance. This is not required by the EIP. See the note at the beginning of {ERC20}. Requirements: - `sender` and `recipient` cannot be the zero address. - `sender` must have a balance of at least `amount`. - the caller must have allowance for ``sender``'s tokens of at least `amount`."
      },
      "transferOwnership(address)": {
        "details": "Transfers ownership of the contract to a new account (`newOwner`). Can only be called by the current owner."
      }
    },
    "version": 1
  },
  "userdoc": {
    "kind": "user",
    "methods": {
      "mint(address,uint256)": {
        "notice": "Creates `_amount` token to `_to`. Must only be called by the owner (ReactMaster)."
      }
    },
    "version": 1
  },
  "storageLayout": {
    "storage": [
      {
        "astId": 252,
        "contract": "contracts/ReactSyrup.sol:ReactSyrup",
        "label": "_balances",
        "offset": 0,
        "slot": "0",
        "type": "t_mapping(t_address,t_uint256)"
      },
      {
        "astId": 258,
        "contract": "contracts/ReactSyrup.sol:ReactSyrup",
        "label": "_allowances",
        "offset": 0,
        "slot": "1",
        "type": "t_mapping(t_address,t_mapping(t_address,t_uint256))"
      },
      {
        "astId": 260,
        "contract": "contracts/ReactSyrup.sol:ReactSyrup",
        "label": "_totalSupply",
        "offset": 0,
        "slot": "2",
        "type": "t_uint256"
      },
      {
        "astId": 262,
        "contract": "contracts/ReactSyrup.sol:ReactSyrup",
        "label": "_name",
        "offset": 0,
        "slot": "3",
        "type": "t_string_storage"
      },
      {
        "astId": 264,
        "contract": "contracts/ReactSyrup.sol:ReactSyrup",
        "label": "_symbol",
        "offset": 0,
        "slot": "4",
        "type": "t_string_storage"
      },
      {
        "astId": 7,
        "contract": "contracts/ReactSyrup.sol:ReactSyrup",
        "label": "_owner",
        "offset": 0,
        "slot": "5",
        "type": "t_address"
      },
      {
        "astId": 1554,
        "contract": "contracts/ReactSyrup.sol:ReactSyrup",
        "label": "_nonces",
        "offset": 0,
        "slot": "6",
        "type": "t_mapping(t_address,t_struct(Counter)2285_storage)"
      },
      {
        "astId": 883,
        "contract": "contracts/ReactSyrup.sol:ReactSyrup",
        "label": "_delegates",
        "offset": 0,
        "slot": "7",
        "type": "t_mapping(t_address,t_address)"
      },
      {
        "astId": 889,
        "contract": "contracts/ReactSyrup.sol:ReactSyrup",
        "label": "_checkpoints",
        "offset": 0,
        "slot": "8",
        "type": "t_mapping(t_address,t_array(t_struct(Checkpoint)874_storage)dyn_storage)"
      },
      {
        "astId": 893,
        "contract": "contracts/ReactSyrup.sol:ReactSyrup",
        "label": "_totalSupplyCheckpoints",
        "offset": 0,
        "slot": "9",
        "type": "t_array(t_struct(Checkpoint)874_storage)dyn_storage"
      },
      {
        "astId": 6851,
        "contract": "contracts/ReactSyrup.sol:ReactSyrup",
        "label": "react",
        "offset": 0,
        "slot": "10",
        "type": "t_contract(IERC20)860"
      }
    ],
    "types": {
      "t_address": {
        "encoding": "inplace",
        "label": "address",
        "numberOfBytes": "20"
      },
      "t_array(t_struct(Checkpoint)874_storage)dyn_storage": {
        "base": "t_struct(Checkpoint)874_storage",
        "encoding": "dynamic_array",
        "label": "struct ERC20Votes.Checkpoint[]",
        "numberOfBytes": "32"
      },
      "t_contract(IERC20)860": {
        "encoding": "inplace",
        "label": "contract IERC20",
        "numberOfBytes": "20"
      },
      "t_mapping(t_address,t_address)": {
        "encoding": "mapping",
        "key": "t_address",
        "label": "mapping(address => address)",
        "numberOfBytes": "32",
        "value": "t_address"
      },
      "t_mapping(t_address,t_array(t_struct(Checkpoint)874_storage)dyn_storage)": {
        "encoding": "mapping",
        "key": "t_address",
        "label": "mapping(address => struct ERC20Votes.Checkpoint[])",
        "numberOfBytes": "32",
        "value": "t_array(t_struct(Checkpoint)874_storage)dyn_storage"
      },
      "t_mapping(t_address,t_mapping(t_address,t_uint256))": {
        "encoding": "mapping",
        "key": "t_address",
        "label": "mapping(address => mapping(address => uint256))",
        "numberOfBytes": "32",
        "value": "t_mapping(t_address,t_uint256)"
      },
      "t_mapping(t_address,t_struct(Counter)2285_storage)": {
        "encoding": "mapping",
        "key": "t_address",
        "label": "mapping(address => struct Counters.Counter)",
        "numberOfBytes": "32",
        "value": "t_struct(Counter)2285_storage"
      },
      "t_mapping(t_address,t_uint256)": {
        "encoding": "mapping",
        "key": "t_address",
        "label": "mapping(address => uint256)",
        "numberOfBytes": "32",
        "value": "t_uint256"
      },
      "t_string_storage": {
        "encoding": "bytes",
        "label": "string",
        "numberOfBytes": "32"
      },
      "t_struct(Checkpoint)874_storage": {
        "encoding": "inplace",
        "label": "struct ERC20Votes.Checkpoint",
        "members": [
          {
            "astId": 871,
            "contract": "contracts/ReactSyrup.sol:ReactSyrup",
            "label": "fromBlock",
            "offset": 0,
            "slot": "0",
            "type": "t_uint32"
          },
          {
            "astId": 873,
            "contract": "contracts/ReactSyrup.sol:ReactSyrup",
            "label": "votes",
            "offset": 4,
            "slot": "0",
            "type": "t_uint224"
          }
        ],
        "numberOfBytes": "32"
      },
      "t_struct(Counter)2285_storage": {
        "encoding": "inplace",
        "label": "struct Counters.Counter",
        "members": [
          {
            "astId": 2284,
            "contract": "contracts/ReactSyrup.sol:ReactSyrup",
            "label": "_value",
            "offset": 0,
            "slot": "0",
            "type": "t_uint256"
          }
        ],
        "numberOfBytes": "32"
      },
      "t_uint224": {
        "encoding": "inplace",
        "label": "uint224",
        "numberOfBytes": "28"
      },
      "t_uint256": {
        "encoding": "inplace",
        "label": "uint256",
        "numberOfBytes": "32"
      },
      "t_uint32": {
        "encoding": "inplace",
        "label": "uint32",
        "numberOfBytes": "4"
      }
    }
  }
}