{
  "address": "0xA6896EF99E2d05F04B1141afC97c7D9E831Ee105",
  "abi": [
    {
      "inputs": [
        {
          "internalType": "contract IERC20",
          "name": "_react",
          "type": "address"
        }
      ],
      "stateMutability": "nonpayable",
      "type": "constructor"
    },
    {
      "anonymous": false,
      "inputs": [
        {
          "indexed": true,
          "internalType": "address",
          "name": "user",
          "type": "address"
        },
        {
          "indexed": true,
          "internalType": "uint256",
          "name": "pid",
          "type": "uint256"
        },
        {
          "indexed": false,
          "internalType": "uint256",
          "name": "amount",
          "type": "uint256"
        },
        {
          "indexed": true,
          "internalType": "address",
          "name": "to",
          "type": "address"
        }
      ],
      "name": "Deposit",
      "type": "event"
    },
    {
      "anonymous": false,
      "inputs": [
        {
          "indexed": true,
          "internalType": "address",
          "name": "user",
          "type": "address"
        },
        {
          "indexed": true,
          "internalType": "uint256",
          "name": "pid",
          "type": "uint256"
        },
        {
          "indexed": false,
          "internalType": "uint256",
          "name": "amount",
          "type": "uint256"
        },
        {
          "indexed": true,
          "internalType": "address",
          "name": "to",
          "type": "address"
        }
      ],
      "name": "EmergencyWithdraw",
      "type": "event"
    },
    {
      "anonymous": false,
      "inputs": [
        {
          "indexed": true,
          "internalType": "address",
          "name": "user",
          "type": "address"
        },
        {
          "indexed": true,
          "internalType": "uint256",
          "name": "pid",
          "type": "uint256"
        },
        {
          "indexed": false,
          "internalType": "uint256",
          "name": "amount",
          "type": "uint256"
        }
      ],
      "name": "Harvest",
      "type": "event"
    },
    {
      "anonymous": false,
      "inputs": [
        {
          "indexed": true,
          "internalType": "uint256",
          "name": "pid",
          "type": "uint256"
        },
        {
          "indexed": false,
          "internalType": "uint256",
          "name": "allocPoint",
          "type": "uint256"
        },
        {
          "indexed": true,
          "internalType": "contract IERC20",
          "name": "lpToken",
          "type": "address"
        },
        {
          "indexed": true,
          "internalType": "contract IRewarder",
          "name": "rewarder",
          "type": "address"
        }
      ],
      "name": "LogPoolAddition",
      "type": "event"
    },
    {
      "anonymous": false,
      "inputs": [
        {
          "indexed": false,
          "internalType": "uint256",
          "name": "reactPerSecond",
          "type": "uint256"
        }
      ],
      "name": "LogReactPerSecond",
      "type": "event"
    },
    {
      "anonymous": false,
      "inputs": [
        {
          "indexed": true,
          "internalType": "uint256",
          "name": "pid",
          "type": "uint256"
        },
        {
          "indexed": false,
          "internalType": "uint256",
          "name": "allocPoint",
          "type": "uint256"
        },
        {
          "indexed": true,
          "internalType": "contract IRewarder",
          "name": "rewarder",
          "type": "address"
        },
        {
          "indexed": false,
          "internalType": "bool",
          "name": "overwrite",
          "type": "bool"
        }
      ],
      "name": "LogSetPool",
      "type": "event"
    },
    {
      "anonymous": false,
      "inputs": [
        {
          "indexed": true,
          "internalType": "uint256",
          "name": "pid",
          "type": "uint256"
        },
        {
          "indexed": false,
          "internalType": "uint64",
          "name": "lastRewardTime",
          "type": "uint64"
        },
        {
          "indexed": false,
          "internalType": "uint256",
          "name": "lpSupply",
          "type": "uint256"
        },
        {
          "indexed": false,
          "internalType": "uint256",
          "name": "accReactPerShare",
          "type": "uint256"
        }
      ],
      "name": "LogUpdatePool",
      "type": "event"
    },
    {
      "anonymous": false,
      "inputs": [
        {
          "indexed": true,
          "internalType": "address",
          "name": "previousOwner",
          "type": "address"
        },
        {
          "indexed": true,
          "internalType": "address",
          "name": "newOwner",
          "type": "address"
        }
      ],
      "name": "OwnershipTransferred",
      "type": "event"
    },
    {
      "anonymous": false,
      "inputs": [
        {
          "indexed": true,
          "internalType": "address",
          "name": "user",
          "type": "address"
        },
        {
          "indexed": true,
          "internalType": "uint256",
          "name": "pid",
          "type": "uint256"
        },
        {
          "indexed": false,
          "internalType": "uint256",
          "name": "amount",
          "type": "uint256"
        },
        {
          "indexed": true,
          "internalType": "address",
          "name": "to",
          "type": "address"
        }
      ],
      "name": "Withdraw",
      "type": "event"
    },
    {
      "inputs": [],
      "name": "REACT",
      "outputs": [
        {
          "internalType": "contract IERC20",
          "name": "",
          "type": "address"
        }
      ],
      "stateMutability": "view",
      "type": "function"
    },
    {
      "inputs": [
        {
          "internalType": "uint256",
          "name": "allocPoint",
          "type": "uint256"
        },
        {
          "internalType": "contract IERC20",
          "name": "_lpToken",
          "type": "address"
        },
        {
          "internalType": "contract IRewarder",
          "name": "_rewarder",
          "type": "address"
        }
      ],
      "name": "add",
      "outputs": [],
      "stateMutability": "nonpayable",
      "type": "function"
    },
    {
      "inputs": [
        {
          "internalType": "bytes[]",
          "name": "calls",
          "type": "bytes[]"
        },
        {
          "internalType": "bool",
          "name": "revertOnFail",
          "type": "bool"
        }
      ],
      "name": "batch",
      "outputs": [
        {
          "internalType": "bool[]",
          "name": "successes",
          "type": "bool[]"
        },
        {
          "internalType": "bytes[]",
          "name": "results",
          "type": "bytes[]"
        }
      ],
      "stateMutability": "payable",
      "type": "function"
    },
    {
      "inputs": [],
      "name": "claimOwnership",
      "outputs": [],
      "stateMutability": "nonpayable",
      "type": "function"
    },
    {
      "inputs": [
        {
          "internalType": "uint256",
          "name": "pid",
          "type": "uint256"
        },
        {
          "internalType": "uint256",
          "name": "amount",
          "type": "uint256"
        },
        {
          "internalType": "address",
          "name": "to",
          "type": "address"
        }
      ],
      "name": "deposit",
      "outputs": [],
      "stateMutability": "nonpayable",
      "type": "function"
    },
    {
      "inputs": [
        {
          "internalType": "uint256",
          "name": "pid",
          "type": "uint256"
        },
        {
          "internalType": "address",
          "name": "to",
          "type": "address"
        }
      ],
      "name": "emergencyWithdraw",
      "outputs": [],
      "stateMutability": "nonpayable",
      "type": "function"
    },
    {
      "inputs": [
        {
          "internalType": "uint256",
          "name": "pid",
          "type": "uint256"
        },
        {
          "internalType": "address",
          "name": "to",
          "type": "address"
        }
      ],
      "name": "harvest",
      "outputs": [],
      "stateMutability": "nonpayable",
      "type": "function"
    },
    {
      "inputs": [
        {
          "internalType": "uint256",
          "name": "",
          "type": "uint256"
        }
      ],
      "name": "lpToken",
      "outputs": [
        {
          "internalType": "contract IERC20",
          "name": "",
          "type": "address"
        }
      ],
      "stateMutability": "view",
      "type": "function"
    },
    {
      "inputs": [
        {
          "internalType": "uint256[]",
          "name": "pids",
          "type": "uint256[]"
        }
      ],
      "name": "massUpdatePools",
      "outputs": [],
      "stateMutability": "nonpayable",
      "type": "function"
    },
    {
      "inputs": [
        {
          "internalType": "uint256",
          "name": "_pid",
          "type": "uint256"
        }
      ],
      "name": "migrate",
      "outputs": [],
      "stateMutability": "nonpayable",
      "type": "function"
    },
    {
      "inputs": [],
      "name": "migrator",
      "outputs": [
        {
          "internalType": "contract IMigrator",
          "name": "",
          "type": "address"
        }
      ],
      "stateMutability": "view",
      "type": "function"
    },
    {
      "inputs": [],
      "name": "owner",
      "outputs": [
        {
          "internalType": "address",
          "name": "",
          "type": "address"
        }
      ],
      "stateMutability": "view",
      "type": "function"
    },
    {
      "inputs": [],
      "name": "pendingOwner",
      "outputs": [
        {
          "internalType": "address",
          "name": "",
          "type": "address"
        }
      ],
      "stateMutability": "view",
      "type": "function"
    },
    {
      "inputs": [
        {
          "internalType": "uint256",
          "name": "_pid",
          "type": "uint256"
        },
        {
          "internalType": "address",
          "name": "_user",
          "type": "address"
        }
      ],
      "name": "pendingReact",
      "outputs": [
        {
          "internalType": "uint256",
          "name": "pending",
          "type": "uint256"
        }
      ],
      "stateMutability": "view",
      "type": "function"
    },
    {
      "inputs": [
        {
          "internalType": "contract IERC20",
          "name": "token",
          "type": "address"
        },
        {
          "internalType": "address",
          "name": "from",
          "type": "address"
        },
        {
          "internalType": "address",
          "name": "to",
          "type": "address"
        },
        {
          "internalType": "uint256",
          "name": "amount",
          "type": "uint256"
        },
        {
          "internalType": "uint256",
          "name": "deadline",
          "type": "uint256"
        },
        {
          "internalType": "uint8",
          "name": "v",
          "type": "uint8"
        },
        {
          "internalType": "bytes32",
          "name": "r",
          "type": "bytes32"
        },
        {
          "internalType": "bytes32",
          "name": "s",
          "type": "bytes32"
        }
      ],
      "name": "permitToken",
      "outputs": [],
      "stateMutability": "nonpayable",
      "type": "function"
    },
    {
      "inputs": [
        {
          "internalType": "uint256",
          "name": "",
          "type": "uint256"
        }
      ],
      "name": "poolInfo",
      "outputs": [
        {
          "internalType": "uint128",
          "name": "accReactPerShare",
          "type": "uint128"
        },
        {
          "internalType": "uint64",
          "name": "lastRewardTime",
          "type": "uint64"
        },
        {
          "internalType": "uint64",
          "name": "allocPoint",
          "type": "uint64"
        }
      ],
      "stateMutability": "view",
      "type": "function"
    },
    {
      "inputs": [],
      "name": "poolLength",
      "outputs": [
        {
          "internalType": "uint256",
          "name": "pools",
          "type": "uint256"
        }
      ],
      "stateMutability": "view",
      "type": "function"
    },
    {
      "inputs": [],
      "name": "reactPerSecond",
      "outputs": [
        {
          "internalType": "uint256",
          "name": "",
          "type": "uint256"
        }
      ],
      "stateMutability": "view",
      "type": "function"
    },
    {
      "inputs": [
        {
          "internalType": "uint256",
          "name": "",
          "type": "uint256"
        }
      ],
      "name": "rewarder",
      "outputs": [
        {
          "internalType": "contract IRewarder",
          "name": "",
          "type": "address"
        }
      ],
      "stateMutability": "view",
      "type": "function"
    },
    {
      "inputs": [
        {
          "internalType": "uint256",
          "name": "_pid",
          "type": "uint256"
        },
        {
          "internalType": "uint256",
          "name": "_allocPoint",
          "type": "uint256"
        },
        {
          "internalType": "contract IRewarder",
          "name": "_rewarder",
          "type": "address"
        },
        {
          "internalType": "bool",
          "name": "overwrite",
          "type": "bool"
        }
      ],
      "name": "set",
      "outputs": [],
      "stateMutability": "nonpayable",
      "type": "function"
    },
    {
      "inputs": [
        {
          "internalType": "contract IMigrator",
          "name": "_migrator",
          "type": "address"
        }
      ],
      "name": "setMigrator",
      "outputs": [],
      "stateMutability": "nonpayable",
      "type": "function"
    },
    {
      "inputs": [
        {
          "internalType": "uint256",
          "name": "_reactPerSecond",
          "type": "uint256"
        }
      ],
      "name": "setReactPerSecond",
      "outputs": [],
      "stateMutability": "nonpayable",
      "type": "function"
    },
    {
      "inputs": [],
      "name": "totalAllocPoint",
      "outputs": [
        {
          "internalType": "uint256",
          "name": "",
          "type": "uint256"
        }
      ],
      "stateMutability": "view",
      "type": "function"
    },
    {
      "inputs": [
        {
          "internalType": "address",
          "name": "newOwner",
          "type": "address"
        },
        {
          "internalType": "bool",
          "name": "direct",
          "type": "bool"
        },
        {
          "internalType": "bool",
          "name": "renounce",
          "type": "bool"
        }
      ],
      "name": "transferOwnership",
      "outputs": [],
      "stateMutability": "nonpayable",
      "type": "function"
    },
    {
      "inputs": [
        {
          "internalType": "uint256",
          "name": "pid",
          "type": "uint256"
        }
      ],
      "name": "updatePool",
      "outputs": [
        {
          "components": [
            {
              "internalType": "uint128",
              "name": "accReactPerShare",
              "type": "uint128"
            },
            {
              "internalType": "uint64",
              "name": "lastRewardTime",
              "type": "uint64"
            },
            {
              "internalType": "uint64",
              "name": "allocPoint",
              "type": "uint64"
            }
          ],
          "internalType": "struct ReactMiniMasterV2.PoolInfo",
          "name": "pool",
          "type": "tuple"
        }
      ],
      "stateMutability": "nonpayable",
      "type": "function"
    },
    {
      "inputs": [
        {
          "internalType": "uint256",
          "name": "",
          "type": "uint256"
        },
        {
          "internalType": "address",
          "name": "",
          "type": "address"
        }
      ],
      "name": "userInfo",
      "outputs": [
        {
          "internalType": "uint256",
          "name": "amount",
          "type": "uint256"
        },
        {
          "internalType": "int256",
          "name": "rewardDebt",
          "type": "int256"
        }
      ],
      "stateMutability": "view",
      "type": "function"
    },
    {
      "inputs": [
        {
          "internalType": "uint256",
          "name": "pid",
          "type": "uint256"
        },
        {
          "internalType": "uint256",
          "name": "amount",
          "type": "uint256"
        },
        {
          "internalType": "address",
          "name": "to",
          "type": "address"
        }
      ],
      "name": "withdraw",
      "outputs": [],
      "stateMutability": "nonpayable",
      "type": "function"
    },
    {
      "inputs": [
        {
          "internalType": "uint256",
          "name": "pid",
          "type": "uint256"
        },
        {
          "internalType": "uint256",
          "name": "amount",
          "type": "uint256"
        },
        {
          "internalType": "address",
          "name": "to",
          "type": "address"
        }
      ],
      "name": "withdrawAndHarvest",
      "outputs": [],
      "stateMutability": "nonpayable",
      "type": "function"
    }
  ],
  "transactionHash": "0xa5462a33836e65fa3038a0cd888560759797a70765eb036eac5b91d8caa74c8f",
  "args": [
    "0x2280EC541a667bC94F86ca18e6F7179D56b058A6"
  ],
  "solcInputHash": "d2bfa4ba6d64325ba55a6fc17274acbd",
  "bytecode": "0x60a06040523480156200001157600080fd5b5060405162002c3138038062002c31833981016040819052620000349162000089565b600080546001600160a01b0319163390811782556040519091907f8be0079c531659141344cd1fd0a4f28419497f9722a3daafe3b4186f6b6457e0908290a360601b6001600160601b031916608052620000b9565b6000602082840312156200009b578081fd5b81516001600160a01b0381168114620000b2578182fd5b9392505050565b60805160601c612b50620000e16000398061053652806108bf5280611a155250612b506000f3fe6080604052600436106101b75760003560e01c806378ed5d1f116100ec57806393f1a40b1161008a578063c4e418a411610064578063c4e418a4146104be578063d1abb907146104de578063d2423b51146104fe578063e30c39781461051f576101b7565b806393f1a40b14610450578063ab7de0981461047e578063c346253d1461049e576101b7565b80638791d556116100c65780638791d556146103db57806388bba42f146103fb5780638da5cb5b1461041b5780638dbdbe6d14610430576101b7565b806378ed5d1f146103865780637c516e94146103a65780637cd07e47146103c6576101b7565b806318fccc7611610159578063454b060811610133578063454b0608146103045780634e71e0c81461032457806351eb05a61461033957806357a5b58c14610366576101b7565b806318fccc76146102a457806323cf3118146102c45780632f940c70146102e4576101b7565b80630ad58d2f116101955780630ad58d2f1461022b5780631127891b1461024b5780631526fe271461026057806317caf6f11461028f576101b7565b80630378b675146101bc578063078dfbe7146101e7578063081e3eda14610209575b600080fd5b3480156101c857600080fd5b506101d1610534565b6040516101de9190612527565b60405180910390f35b3480156101f357600080fd5b5061020761020236600461217d565b610558565b005b34801561021557600080fd5b5061021e610647565b6040516101de9190612a04565b34801561023757600080fd5b50610207610246366004612459565b61064d565b34801561025757600080fd5b5061021e6107dd565b34801561026c57600080fd5b5061028061027b3660046123c4565b6107e3565b6040516101de939291906129da565b34801561029b57600080fd5b5061021e610825565b3480156102b057600080fd5b506102076102bf3660046123f4565b61082b565b3480156102d057600080fd5b506102076102df36600461230e565b6109c5565b3480156102f057600080fd5b506102076102ff3660046123f4565b610a11565b34801561031057600080fd5b5061020761031f3660046123c4565b610b32565b34801561033057600080fd5b50610207610dde565b34801561034557600080fd5b506103596103543660046123c4565b610e6b565b6040516101de91906129a1565b34801561037257600080fd5b50610207610381366004612210565b6110f5565b34801561039257600080fd5b506101d16103a13660046123c4565b61112b565b3480156103b257600080fd5b506102076103c1366004612287565b611152565b3480156103d257600080fd5b506101d16111c6565b3480156103e757600080fd5b5061021e6103f63660046123f4565b6111d5565b34801561040757600080fd5b50610207610416366004612486565b6113cf565b34801561042757600080fd5b506101d161153c565b34801561043c57600080fd5b5061020761044b366004612459565b61154b565b34801561045c57600080fd5b5061047061046b3660046123f4565b6116d6565b6040516101de929190612a4c565b34801561048a57600080fd5b50610207610499366004612423565b6116fa565b3480156104aa57600080fd5b506101d16104b93660046123c4565b6118d0565b3480156104ca57600080fd5b506102076104d93660046123c4565b6118dd565b3480156104ea57600080fd5b506102076104f9366004612459565b611947565b61051161050c3660046121c7565b611b7a565b6040516101de9291906125b9565b34801561052b57600080fd5b506101d1611d0a565b7f000000000000000000000000000000000000000000000000000000000000000081565b6000546001600160a01b0316331461058b5760405162461bcd60e51b815260040161058290612806565b60405180910390fd5b8115610626576001600160a01b0383161515806105a55750805b6105c15760405162461bcd60e51b815260040161058290612769565b600080546040516001600160a01b03808716939216917f8be0079c531659141344cd1fd0a4f28419497f9722a3daafe3b4186f6b6457e091a3600080546001600160a01b0385166001600160a01b031991821617909155600180549091169055610642565b600180546001600160a01b0319166001600160a01b0385161790555b505050565b60035490565b610655612115565b61065e84610e6b565b600085815260066020908152604080832033845290915290208151919250906106b09064e8d4a510009061069c9087906001600160801b0316611d19565b816106a357fe5b6001840154919004611d56565b600182015580546106c19085611da3565b81556005805460009190879081106106d557fe5b6000918252602090912001546001600160a01b03169050801561075b578154604051635b5c615b60e11b81526001600160a01b0383169163b6b8c2b691610728918a9133918a9160009190600401612a0d565b600060405180830381600087803b15801561074257600080fd5b505af1158015610756573d6000803e3d6000fd5b505050505b61078984866004898154811061076d57fe5b6000918252602090912001546001600160a01b03169190611dc6565b836001600160a01b031686336001600160a01b03167f8166bf25f8a2b7ed3c85049207da4358d16edbed977d23fa2ee6f0dde3ec2132886040516107cd9190612a04565b60405180910390a4505050505050565b60085481565b600381815481106107f057fe5b6000918252602090912001546001600160801b03811691506001600160401b03600160801b8204811691600160c01b90041683565b60075481565b610833612115565b61083c83610e6b565b6000848152600660209081526040808320338452909152812082518154939450909264e8d4a510009161087891906001600160801b0316611d19565b8161087f57fe5b04905060006108a361089e846001015484611d5690919063ffffffff16565b611eb4565b60018401839055905080156108e6576108e66001600160a01b037f0000000000000000000000000000000000000000000000000000000000000000168683611dc6565b6000600587815481106108f557fe5b6000918252602090912001546001600160a01b03169050801561097a578354604051635b5c615b60e11b81526001600160a01b0383169163b6b8c2b691610947918b9133918c91899190600401612a0d565b600060405180830381600087803b15801561096157600080fd5b505af1158015610975573d6000803e3d6000fd5b505050505b86336001600160a01b03167f71bab65ced2e5750775a0613be067df48ef06cf92a496ebf7663ae0660924954846040516109b49190612a04565b60405180910390a350505050505050565b6000546001600160a01b031633146109ef5760405162461bcd60e51b815260040161058290612806565b600280546001600160a01b0319166001600160a01b0392909216919091179055565b60008281526006602090815260408083203384529091528120805482825560018201839055600580549293919286908110610a4857fe5b6000918252602090912001546001600160a01b031690508015610acd57604051635b5c615b60e11b81526001600160a01b0382169063b6b8c2b690610a9a908890339089906000908190600401612a0d565b600060405180830381600087803b158015610ab457600080fd5b505af1158015610ac8573d6000803e3d6000fd5b505050505b610adf84836004888154811061076d57fe5b836001600160a01b031685336001600160a01b03167f2cac5e20e1541d836381527a43f651851e302817b71dc8e810284e69210c1c6b85604051610b239190612a04565b60405180910390a45050505050565b6002546001600160a01b0316610b5a5760405162461bcd60e51b815260040161058290612732565b600060048281548110610b6957fe5b60009182526020822001546040516370a0823160e01b81526001600160a01b03909116925082906370a0823190610ba4903090600401612527565b60206040518083038186803b158015610bbc57600080fd5b505afa158015610bd0573d6000803e3d6000fd5b505050506040513d601f19601f82011682018060405250810190610bf491906123dc565b60025460405163095ea7b360e01b81529192506001600160a01b038085169263095ea7b392610c2992169085906004016125a0565b602060405180830381600087803b158015610c4357600080fd5b505af1158015610c57573d6000803e3d6000fd5b505050506040513d601f19601f82011682018060405250810190610c7b919061224f565b5060025460405163ce5494bb60e01b81526000916001600160a01b03169063ce5494bb90610cad908690600401612527565b602060405180830381600087803b158015610cc757600080fd5b505af1158015610cdb573d6000803e3d6000fd5b505050506040513d601f19601f82011682018060405250810190610cff919061226b565b6040516370a0823160e01b81529091506001600160a01b038216906370a0823190610d2e903090600401612527565b60206040518083038186803b158015610d4657600080fd5b505afa158015610d5a573d6000803e3d6000fd5b505050506040513d601f19601f82011682018060405250810190610d7e91906123dc565b8214610d9c5760405162461bcd60e51b815260040161058290612957565b8060048581548110610daa57fe5b9060005260206000200160006101000a8154816001600160a01b0302191690836001600160a01b0316021790555050505050565b6001546001600160a01b0316338114610e095760405162461bcd60e51b81526004016105829061283b565b600080546040516001600160a01b03808516939216917f8be0079c531659141344cd1fd0a4f28419497f9722a3daafe3b4186f6b6457e091a3600080546001600160a01b039092166001600160a01b0319928316179055600180549091169055565b610e73612115565b60038281548110610e8057fe5b60009182526020918290206040805160608101825292909101546001600160801b03811683526001600160401b03600160801b82048116948401859052600160c01b909104169082015291504211156110f057600060048381548110610ee257fe5b6000918252602090912001546040516370a0823160e01b81526001600160a01b03909116906370a0823190610f1b903090600401612527565b60206040518083038186803b158015610f3357600080fd5b505afa158015610f47573d6000803e3d6000fd5b505050506040513d601f19601f82011682018060405250810190610f6b91906123dc565b90508015611014576000610f9583602001516001600160401b031642611da390919063ffffffff16565b90506000600754610fc885604001516001600160401b0316610fc260085486611d1990919063ffffffff16565b90611d19565b81610fcf57fe5b049050611006610ff584610fe88464e8d4a51000611d19565b81610fef57fe5b04611eda565b85516001600160801b031690611f03565b6001600160801b0316845250505b61101d42611f32565b6001600160401b03166020830152600380548391908590811061103c57fe5b6000918252602091829020835191018054848401516040958601516001600160801b03199092166001600160801b039094169390931767ffffffffffffffff60801b1916600160801b6001600160401b0394851602176001600160c01b0316600160c01b93909116929092029190911790558301518351915185927f0fc9545022a542541ad085d091fb09a2ab36fee366a4576ab63714ea907ad353926110e69290918691612a5a565b60405180910390a2505b919050565b8060005b818110156111255761111c84848381811061111057fe5b90506020020135610e6b565b506001016110f9565b50505050565b6004818154811061113857fe5b6000918252602090912001546001600160a01b0316905081565b60405163d505accf60e01b81526001600160a01b0389169063d505accf9061118a908a908a908a908a908a908a908a9060040161255f565b600060405180830381600087803b1580156111a457600080fd5b505af11580156111b8573d6000803e3d6000fd5b505050505050505050505050565b6002546001600160a01b031681565b60006111df612115565b600384815481106111ec57fe5b600091825260208083206040805160608101825291909301546001600160801b0380821683526001600160401b03600160801b8304811684860152600160c01b90920490911682850152888552600683528385206001600160a01b038916865290925291832082516004805494965091949216928890811061126a57fe5b6000918252602090912001546040516370a0823160e01b81526001600160a01b03909116906370a08231906112a3903090600401612527565b60206040518083038186803b1580156112bb57600080fd5b505afa1580156112cf573d6000803e3d6000fd5b505050506040513d601f19601f820116820180604052508101906112f391906123dc565b905083602001516001600160401b03164211801561131057508015155b1561139657600061133785602001516001600160401b031642611da390919063ffffffff16565b9050600060075461136487604001516001600160401b0316610fc260085486611d1990919063ffffffff16565b8161136b57fe5b049050611391836113818364e8d4a51000611d19565b8161138857fe5b86919004611f5b565b935050505b600183015483546113c49161089e9164e8d4a51000906113b69087611d19565b816113bd57fe5b0490611d56565b979650505050505050565b6000546001600160a01b031633146113f95760405162461bcd60e51b815260040161058290612806565b611438836114326003878154811061140d57fe5b60009182526020909120015460075490600160c01b90046001600160401b0316611da3565b90611f5b565b60075561144483611f32565b6003858154811061145157fe5b9060005260206000200160000160186101000a8154816001600160401b0302191690836001600160401b0316021790555080156114c557816005858154811061149657fe5b9060005260206000200160006101000a8154816001600160a01b0302191690836001600160a01b031602179055505b806114f157600584815481106114d757fe5b6000918252602090912001546001600160a01b03166114f3565b815b6001600160a01b0316847f95895a6ab1df54420d241b55243258a33e61b2194db66c1179ec521aae8e1865858460405161152e929190612a3c565b60405180910390a350505050565b6000546001600160a01b031681565b611553612115565b61155c84610e6b565b60008581526006602090815260408083206001600160a01b0387168452909152902080549192509061158e9085611f5b565b815581516115c59064e8d4a51000906115b19087906001600160801b0316611d19565b816115b857fe5b6001840154919004611f7e565b81600101819055506000600586815481106115dc57fe5b6000918252602090912001546001600160a01b031690508015611662578154604051635b5c615b60e11b81526001600160a01b0383169163b6b8c2b69161162f918a918991829160009190600401612a0d565b600060405180830381600087803b15801561164957600080fd5b505af115801561165d573d6000803e3d6000fd5b505050505b61169233308760048a8154811061167557fe5b6000918252602090912001546001600160a01b0316929190611fc4565b836001600160a01b031686336001600160a01b03167f02d7e648dd130fc184d383e55bb126ac4c9c60e8f94bf05acdf557ba2d540b47886040516107cd9190612a04565b60066020908152600092835260408084209091529082529020805460019091015482565b6000546001600160a01b031633146117245760405162461bcd60e51b815260040161058290612806565b6007546117319084611f5b565b6007556004805460018181019092557f8a35acfbc15ff81a39ae7d344fd709f28e8600b4aa8c65c6b64bfe7fe36bd19b0180546001600160a01b038086166001600160a01b03199283161790925560058054938401815560009081527f036b6384b5eca791c62761152d0c79bb0604c104a5fb6f4eb0703f3154bb3db09093018054928516929091169190911790556040805160608101909152908152600390602081016117de42611f32565b6001600160401b031681526020016117f586611f32565b6001600160401b039081169091528254600181810185556000948552602094859020845192018054958501516040909501518416600160c01b026001600160c01b0395909416600160801b0267ffffffffffffffff60801b196001600160801b039094166001600160801b0319909716969096179290921694909417929092161790556004546001600160a01b03808416929085169161189491611da3565b7f81ee0f8c5c46e2cb41984886f77a84181724abb86c32a5f6de539b07509d45e5866040516118c39190612a04565b60405180910390a4505050565b6005818154811061113857fe5b6000546001600160a01b031633146119075760405162461bcd60e51b815260040161058290612806565b60088190556040517f581712ba496786d4efe74bad1d116f062989c608bb3fc3df8624516492373bd09061193c908390612a04565b60405180910390a150565b61194f612115565b61195884610e6b565b6000858152600660209081526040808320338452909152812082518154939450909264e8d4a510009161199491906001600160801b0316611d19565b8161199b57fe5b04905060006119ba61089e846001015484611d5690919063ffffffff16565b90506119f564e8d4a510006119e586600001516001600160801b031689611d1990919063ffffffff16565b816119ec57fe5b84919004611d56565b60018401558254611a069087611da3565b8355611a3c6001600160a01b037f0000000000000000000000000000000000000000000000000000000000000000168683611dc6565b600060058881548110611a4b57fe5b6000918252602090912001546001600160a01b031690508015611ad0578354604051635b5c615b60e11b81526001600160a01b0383169163b6b8c2b691611a9d918c9133918c91899190600401612a0d565b600060405180830381600087803b158015611ab757600080fd5b505af1158015611acb573d6000803e3d6000fd5b505050505b611ae2868860048b8154811061076d57fe5b856001600160a01b031688336001600160a01b03167f8166bf25f8a2b7ed3c85049207da4358d16edbed977d23fa2ee6f0dde3ec21328a604051611b269190612a04565b60405180910390a487336001600160a01b03167f71bab65ced2e5750775a0613be067df48ef06cf92a496ebf7663ae066092495484604051611b689190612a04565b60405180910390a35050505050505050565b606080836001600160401b0381118015611b9357600080fd5b50604051908082528060200260200182016040528015611bbd578160200160208202803683370190505b509150836001600160401b0381118015611bd657600080fd5b50604051908082528060200260200182016040528015611c0a57816020015b6060815260200190600190039081611bf55790505b50905060005b84811015611d01576000606030888885818110611c2957fe5b9050602002810190611c3b9190612a84565b604051611c499291906124fb565b600060405180830381855af49150503d8060008114611c84576040519150601f19603f3d011682016040523d82523d6000602084013e611c89565b606091505b50915091508180611c98575085155b611ca1826120b5565b90611cbf5760405162461bcd60e51b81526004016105829190612653565b5081858481518110611ccd57fe5b60200260200101901515908115158152505080848481518110611cec57fe5b60209081029190910101525050600101611c10565b50935093915050565b6001546001600160a01b031681565b6000811580611d3457505080820282828281611d3157fe5b04145b611d505760405162461bcd60e51b815260040161058290612920565b92915050565b6000818303818312801590611d6b5750838113155b80611d805750600083128015611d8057508381135b611d9c5760405162461bcd60e51b8152600401610582906128a7565b9392505050565b80820382811115611d505760405162461bcd60e51b815260040161058290612666565b60006060846001600160a01b031663a9059cbb8585604051602401611dec9291906125a0565b6040516020818303038152906040529060e01b6020820180516001600160e01b038381831617835250505050604051611e25919061250b565b6000604051808303816000865af19150503d8060008114611e62576040519150601f19603f3d011682016040523d82523d6000602084013e611e67565b606091505b5091509150818015611e91575080511580611e91575080806020019051810190611e91919061224f565b611ead5760405162461bcd60e51b8152600401610582906126ba565b5050505050565b600080821215611ed65760405162461bcd60e51b815260040161058290612695565b5090565b60006001600160801b03821115611ed65760405162461bcd60e51b815260040161058290612798565b8181016001600160801b038083169082161015611d505760405162461bcd60e51b8152600401610582906127cf565b60006001600160401b03821115611ed65760405162461bcd60e51b815260040161058290612870565b81810181811015611d505760405162461bcd60e51b8152600401610582906127cf565b6000828201818312801590611f935750838112155b80611fa85750600083128015611fa857508381125b611d9c5760405162461bcd60e51b8152600401610582906126f1565b60006060856001600160a01b03166323b872dd868686604051602401611fec9392919061253b565b6040516020818303038152906040529060e01b6020820180516001600160e01b038381831617835250505050604051612025919061250b565b6000604051808303816000865af19150503d8060008114612062576040519150601f19603f3d011682016040523d82523d6000602084013e612067565b606091505b5091509150818015612091575080511580612091575080806020019051810190612091919061224f565b6120ad5760405162461bcd60e51b8152600401610582906128eb565b505050505050565b60606044825110156120fb575060408051808201909152601d81527f5472616e73616374696f6e2072657665727465642073696c656e746c7900000060208201526110f0565b60048201915081806020019051810190611d50919061232a565b604080516060810182526000808252602082018190529181019190915290565b60008083601f840112612146578182fd5b5081356001600160401b0381111561215c578182fd5b602083019150836020808302850101111561217657600080fd5b9250929050565b600080600060608486031215612191578283fd5b833561219c81612af4565b925060208401356121ac81612b0c565b915060408401356121bc81612b0c565b809150509250925092565b6000806000604084860312156121db578283fd5b83356001600160401b038111156121f0578384fd5b6121fc86828701612135565b90945092505060208401356121bc81612b0c565b60008060208385031215612222578182fd5b82356001600160401b03811115612237578283fd5b61224385828601612135565b90969095509350505050565b600060208284031215612260578081fd5b8151611d9c81612b0c565b60006020828403121561227c578081fd5b8151611d9c81612af4565b600080600080600080600080610100898b0312156122a3578384fd5b88356122ae81612af4565b975060208901356122be81612af4565b965060408901356122ce81612af4565b9550606089013594506080890135935060a089013560ff811681146122f1578384fd5b979a969950949793969295929450505060c08201359160e0013590565b60006020828403121561231f578081fd5b8135611d9c81612af4565b60006020828403121561233b578081fd5b81516001600160401b0380821115612351578283fd5b818401915084601f830112612364578283fd5b815181811115612372578384fd5b604051601f8201601f191681016020018381118282101715612392578586fd5b6040528181528382016020018710156123a9578485fd5b6123ba826020830160208701612ac8565b9695505050505050565b6000602082840312156123d5578081fd5b5035919050565b6000602082840312156123ed578081fd5b5051919050565b60008060408385031215612406578182fd5b82359150602083013561241881612af4565b809150509250929050565b600080600060608486031215612437578081fd5b83359250602084013561244981612af4565b915060408401356121bc81612af4565b60008060006060848603121561246d578081fd5b833592506020840135915060408401356121bc81612af4565b6000806000806080858703121561249b578182fd5b843593506020850135925060408501356124b481612af4565b915060608501356124c481612b0c565b939692955090935050565b600081518084526124e7816020860160208601612ac8565b601f01601f19169290920160200192915050565b6000828483379101908152919050565b6000825161251d818460208701612ac8565b9190910192915050565b6001600160a01b0391909116815260200190565b6001600160a01b039384168152919092166020820152604081019190915260600190565b6001600160a01b0397881681529590961660208601526040850193909352606084019190915260ff16608083015260a082015260c081019190915260e00190565b6001600160a01b03929092168252602082015260400190565b604080825283519082018190526000906020906060840190828701845b828110156125f45781511515845292840192908401906001016125d6565b5050508381038285015280855161260b8184612a04565b91508192508381028201848801865b838110156126445785830385526126328383516124cf565b9487019492509086019060010161261a565b50909998505050505050505050565b600060208252611d9c60208301846124cf565b602080825260159082015274426f72696e674d6174683a20556e646572666c6f7760581b604082015260600190565b6020808252600b908201526a0496e7465676572203c20360ac1b604082015260600190565b6020808252601c908201527f426f72696e6745524332303a205472616e73666572206661696c656400000000604082015260600190565b60208082526021908201527f5369676e6564536166654d6174683a206164646974696f6e206f766572666c6f6040820152607760f81b606082015260800190565b6020808252601e908201527f52656163744d617374657256323a206e6f206d69677261746f72207365740000604082015260600190565b6020808252601590820152744f776e61626c653a207a65726f206164647265737360581b604082015260600190565b6020808252601c908201527f426f72696e674d6174683a2075696e74313238204f766572666c6f7700000000604082015260600190565b60208082526018908201527f426f72696e674d6174683a20416464204f766572666c6f770000000000000000604082015260600190565b6020808252818101527f4f776e61626c653a2063616c6c6572206973206e6f7420746865206f776e6572604082015260600190565b6020808252818101527f4f776e61626c653a2063616c6c657220213d2070656e64696e67206f776e6572604082015260600190565b6020808252601b908201527f426f72696e674d6174683a2075696e743634204f766572666c6f770000000000604082015260600190565b60208082526024908201527f5369676e6564536166654d6174683a207375627472616374696f6e206f766572604082015263666c6f7760e01b606082015260800190565b6020808252818101527f426f72696e6745524332303a205472616e7366657246726f6d206661696c6564604082015260600190565b60208082526018908201527f426f72696e674d6174683a204d756c204f766572666c6f770000000000000000604082015260600190565b6020808252602a908201527f52656163744d617374657256323a206d696772617465642062616c616e6365206040820152690daeae6e840dac2e8c6d60b31b606082015260800190565b81516001600160801b031681526020808301516001600160401b0390811691830191909152604092830151169181019190915260600190565b6001600160801b039390931683526001600160401b03918216602084015216604082015260600190565b90815260200190565b9485526001600160a01b0393841660208601529190921660408401526060830191909152608082015260a00190565b9182521515602082015260400190565b918252602082015260400190565b6001600160401b0393909316835260208301919091526001600160801b0316604082015260600190565b6000808335601e19843603018112612a9a578283fd5b8301803591506001600160401b03821115612ab3578283fd5b60200191503681900382131561217657600080fd5b60005b83811015612ae3578181015183820152602001612acb565b838111156111255750506000910152565b6001600160a01b0381168114612b0957600080fd5b50565b8015158114612b0957600080fdfea26469706673582212200955763e28f9fd261ee541b414793c7a66eb2f8972f8469bf21bc162e484386264736f6c634300060c0033",
  "devdoc": {
    "kind": "dev",
    "methods": {
      "add(uint256,address,address)": {
        "params": {
          "_lpToken": "Address of the LP ERC-20 token.",
          "_rewarder": "Address of the rewarder delegate.",
          "allocPoint": "AP of the new pool."
        }
      },
      "constructor": {
        "params": {
          "_react": "The REACT token contract address."
        }
      },
      "deposit(uint256,uint256,address)": {
        "params": {
          "amount": "LP token amount to deposit.",
          "pid": "The index of the pool. See `poolInfo`.",
          "to": "The receiver of `amount` deposit benefit."
        }
      },
      "emergencyWithdraw(uint256,address)": {
        "params": {
          "pid": "The index of the pool. See `poolInfo`.",
          "to": "Receiver of the LP tokens."
        }
      },
      "harvest(uint256,address)": {
        "params": {
          "pid": "The index of the pool. See `poolInfo`.",
          "to": "Receiver of REACT rewards."
        }
      },
      "massUpdatePools(uint256[])": {
        "params": {
          "pids": "Pool IDs of all to be updated. Make sure to update all active pools."
        }
      },
      "migrate(uint256)": {
        "params": {
          "_pid": "The index of the pool. See `poolInfo`."
        }
      },
      "pendingReact(uint256,address)": {
        "params": {
          "_pid": "The index of the pool. See `poolInfo`.",
          "_user": "Address of user."
        },
        "returns": {
          "pending": "REACT reward for a given user."
        }
      },
      "set(uint256,uint256,address,bool)": {
        "params": {
          "_allocPoint": "New AP of the pool.",
          "_pid": "The index of the pool. See `poolInfo`.",
          "_rewarder": "Address of the rewarder delegate.",
          "overwrite": "True if _rewarder should be `set`. Otherwise `_rewarder` is ignored."
        }
      },
      "setMigrator(address)": {
        "params": {
          "_migrator": "The contract address to set."
        }
      },
      "setReactPerSecond(uint256)": {
        "params": {
          "_reactPerSecond": "The amount of React to be distributed per second."
        }
      },
      "updatePool(uint256)": {
        "params": {
          "pid": "The index of the pool. See `poolInfo`."
        },
        "returns": {
          "pool": "Returns the pool that was updated."
        }
      },
      "withdraw(uint256,uint256,address)": {
        "params": {
          "amount": "LP token amount to withdraw.",
          "pid": "The index of the pool. See `poolInfo`.",
          "to": "Receiver of the LP tokens."
        }
      },
      "withdrawAndHarvest(uint256,uint256,address)": {
        "params": {
          "amount": "LP token amount to withdraw.",
          "pid": "The index of the pool. See `poolInfo`.",
          "to": "Receiver of the LP tokens and REACT rewards."
        }
      }
    },
    "stateVariables": {
      "totalAllocPoint": {
        "details": "Total allocation points. Must be the sum of all allocation points in all pools."
      }
    },
    "version": 1
  },
  "userdoc": {
    "kind": "user",
    "methods": {
      "REACT()": {
        "notice": "Address of REACT contract."
      },
      "add(uint256,address,address)": {
        "notice": "Add a new LP to the pool. Can only be called by the owner. DO NOT add the same LP token more than once. Rewards will be messed up if you do."
      },
      "deposit(uint256,uint256,address)": {
        "notice": "Deposit LP tokens to RMV2 for REACT allocation."
      },
      "emergencyWithdraw(uint256,address)": {
        "notice": "Withdraw without caring about rewards. EMERGENCY ONLY."
      },
      "harvest(uint256,address)": {
        "notice": "Harvest proceeds for transaction sender to `to`."
      },
      "lpToken(uint256)": {
        "notice": "Address of the LP token for each RMV2 pool."
      },
      "massUpdatePools(uint256[])": {
        "notice": "Update reward variables for all pools. Be careful of gas spending!"
      },
      "migrate(uint256)": {
        "notice": "Migrate LP token to another LP contract through the `migrator` contract."
      },
      "pendingReact(uint256,address)": {
        "notice": "View function to see pending REACT on frontend."
      },
      "poolInfo(uint256)": {
        "notice": "Info of each RMV2 pool."
      },
      "poolLength()": {
        "notice": "Returns the number of RMV2 pools."
      },
      "rewarder(uint256)": {
        "notice": "Address of each `IRewarder` contract in RMV2."
      },
      "set(uint256,uint256,address,bool)": {
        "notice": "Update the given pool's REACT allocation point and `IRewarder` contract. Can only be called by the owner."
      },
      "setMigrator(address)": {
        "notice": "Set the `migrator` contract. Can only be called by the owner."
      },
      "setReactPerSecond(uint256)": {
        "notice": "Sets the react per second to be distributed. Can only be called by the owner."
      },
      "updatePool(uint256)": {
        "notice": "Update reward variables of the given pool."
      },
      "userInfo(uint256,address)": {
        "notice": "Info of each user that stakes LP tokens."
      },
      "withdraw(uint256,uint256,address)": {
        "notice": "Withdraw LP tokens from RMV2."
      },
      "withdrawAndHarvest(uint256,uint256,address)": {
        "notice": "Withdraw LP tokens from RMV2 and harvest proceeds for transaction sender to `to`."
      }
    },
    "notice": "The (older) ReactMaster contract gives out a constant number of REACT tokens per block. It is the only address with minting rights for REACT. The idea for this ReactMaster V2 (RMV2) contract is therefore to be the owner of a dummy token that is deposited into the ReactMaster V1 (MCV1) contract. The allocation point for this pool on MCV1 is the total allocation point for all pools that receive double incentives.",
    "version": 1
  },
  "storageLayout": {
    "storage": [
      {
        "astId": 149,
        "contract": "contracts/ReactMiniMasterV2.sol:ReactMiniMasterV2",
        "label": "owner",
        "offset": 0,
        "slot": "0",
        "type": "t_address"
      },
      {
        "astId": 151,
        "contract": "contracts/ReactMiniMasterV2.sol:ReactMiniMasterV2",
        "label": "pendingOwner",
        "offset": 0,
        "slot": "1",
        "type": "t_address"
      },
      {
        "astId": 2142,
        "contract": "contracts/ReactMiniMasterV2.sol:ReactMiniMasterV2",
        "label": "migrator",
        "offset": 0,
        "slot": "2",
        "type": "t_contract(IMigrator)2108"
      },
      {
        "astId": 2146,
        "contract": "contracts/ReactMiniMasterV2.sol:ReactMiniMasterV2",
        "label": "poolInfo",
        "offset": 0,
        "slot": "3",
        "type": "t_array(t_struct(PoolInfo)2137_storage)dyn_storage"
      },
      {
        "astId": 2150,
        "contract": "contracts/ReactMiniMasterV2.sol:ReactMiniMasterV2",
        "label": "lpToken",
        "offset": 0,
        "slot": "4",
        "type": "t_array(t_contract(IERC20)337)dyn_storage"
      },
      {
        "astId": 2154,
        "contract": "contracts/ReactMiniMasterV2.sol:ReactMiniMasterV2",
        "label": "rewarder",
        "offset": 0,
        "slot": "5",
        "type": "t_array(t_contract(IRewarder)3320)dyn_storage"
      },
      {
        "astId": 2161,
        "contract": "contracts/ReactMiniMasterV2.sol:ReactMiniMasterV2",
        "label": "userInfo",
        "offset": 0,
        "slot": "6",
        "type": "t_mapping(t_uint256,t_mapping(t_address,t_struct(UserInfo)2130_storage))"
      },
      {
        "astId": 2164,
        "contract": "contracts/ReactMiniMasterV2.sol:ReactMiniMasterV2",
        "label": "totalAllocPoint",
        "offset": 0,
        "slot": "7",
        "type": "t_uint256"
      },
      {
        "astId": 2166,
        "contract": "contracts/ReactMiniMasterV2.sol:ReactMiniMasterV2",
        "label": "reactPerSecond",
        "offset": 0,
        "slot": "8",
        "type": "t_uint256"
      }
    ],
    "types": {
      "t_address": {
        "encoding": "inplace",
        "label": "address",
        "numberOfBytes": "20"
      },
      "t_array(t_contract(IERC20)337)dyn_storage": {
        "base": "t_contract(IERC20)337",
        "encoding": "dynamic_array",
        "label": "contract IERC20[]",
        "numberOfBytes": "32"
      },
      "t_array(t_contract(IRewarder)3320)dyn_storage": {
        "base": "t_contract(IRewarder)3320",
        "encoding": "dynamic_array",
        "label": "contract IRewarder[]",
        "numberOfBytes": "32"
      },
      "t_array(t_struct(PoolInfo)2137_storage)dyn_storage": {
        "base": "t_struct(PoolInfo)2137_storage",
        "encoding": "dynamic_array",
        "label": "struct ReactMiniMasterV2.PoolInfo[]",
        "numberOfBytes": "32"
      },
      "t_contract(IERC20)337": {
        "encoding": "inplace",
        "label": "contract IERC20",
        "numberOfBytes": "20"
      },
      "t_contract(IMigrator)2108": {
        "encoding": "inplace",
        "label": "contract IMigrator",
        "numberOfBytes": "20"
      },
      "t_contract(IRewarder)3320": {
        "encoding": "inplace",
        "label": "contract IRewarder",
        "numberOfBytes": "20"
      },
      "t_int256": {
        "encoding": "inplace",
        "label": "int256",
        "numberOfBytes": "32"
      },
      "t_mapping(t_address,t_struct(UserInfo)2130_storage)": {
        "encoding": "mapping",
        "key": "t_address",
        "label": "mapping(address => struct ReactMiniMasterV2.UserInfo)",
        "numberOfBytes": "32",
        "value": "t_struct(UserInfo)2130_storage"
      },
      "t_mapping(t_uint256,t_mapping(t_address,t_struct(UserInfo)2130_storage))": {
        "encoding": "mapping",
        "key": "t_uint256",
        "label": "mapping(uint256 => mapping(address => struct ReactMiniMasterV2.UserInfo))",
        "numberOfBytes": "32",
        "value": "t_mapping(t_address,t_struct(UserInfo)2130_storage)"
      },
      "t_struct(PoolInfo)2137_storage": {
        "encoding": "inplace",
        "label": "struct ReactMiniMasterV2.PoolInfo",
        "members": [
          {
            "astId": 2132,
            "contract": "contracts/ReactMiniMasterV2.sol:ReactMiniMasterV2",
            "label": "accReactPerShare",
            "offset": 0,
            "slot": "0",
            "type": "t_uint128"
          },
          {
            "astId": 2134,
            "contract": "contracts/ReactMiniMasterV2.sol:ReactMiniMasterV2",
            "label": "lastRewardTime",
            "offset": 16,
            "slot": "0",
            "type": "t_uint64"
          },
          {
            "astId": 2136,
            "contract": "contracts/ReactMiniMasterV2.sol:ReactMiniMasterV2",
            "label": "allocPoint",
            "offset": 24,
            "slot": "0",
            "type": "t_uint64"
          }
        ],
        "numberOfBytes": "32"
      },
      "t_struct(UserInfo)2130_storage": {
        "encoding": "inplace",
        "label": "struct ReactMiniMasterV2.UserInfo",
        "members": [
          {
            "astId": 2127,
            "contract": "contracts/ReactMiniMasterV2.sol:ReactMiniMasterV2",
            "label": "amount",
            "offset": 0,
            "slot": "0",
            "type": "t_uint256"
          },
          {
            "astId": 2129,
            "contract": "contracts/ReactMiniMasterV2.sol:ReactMiniMasterV2",
            "label": "rewardDebt",
            "offset": 0,
            "slot": "1",
            "type": "t_int256"
          }
        ],
        "numberOfBytes": "64"
      },
      "t_uint128": {
        "encoding": "inplace",
        "label": "uint128",
        "numberOfBytes": "16"
      },
      "t_uint256": {
        "encoding": "inplace",
        "label": "uint256",
        "numberOfBytes": "32"
      },
      "t_uint64": {
        "encoding": "inplace",
        "label": "uint64",
        "numberOfBytes": "8"
      }
    }
  }
}