{
  "address": "0xe10Ec5809683239F00916Cc5770a98817dE8Be0E",
  "abi": [
    {
      "inputs": [
        {
          "internalType": "contract IERC20",
          "name": "_cakeToken",
          "type": "address"
        },
        {
          "internalType": "uint256",
          "name": "_numberCakeToReactivate",
          "type": "uint256"
        },
        {
          "internalType": "uint256",
          "name": "_numberCakeToRegister",
          "type": "uint256"
        },
        {
          "internalType": "uint256",
          "name": "_numberCakeToUpdate",
          "type": "uint256"
        }
      ],
      "stateMutability": "nonpayable",
      "type": "constructor"
    },
    {
      "anonymous": false,
      "inputs": [
        {
          "indexed": true,
          "internalType": "bytes32",
          "name": "role",
          "type": "bytes32"
        },
        {
          "indexed": true,
          "internalType": "bytes32",
          "name": "previousAdminRole",
          "type": "bytes32"
        },
        {
          "indexed": true,
          "internalType": "bytes32",
          "name": "newAdminRole",
          "type": "bytes32"
        }
      ],
      "name": "RoleAdminChanged",
      "type": "event"
    },
    {
      "anonymous": false,
      "inputs": [
        {
          "indexed": true,
          "internalType": "bytes32",
          "name": "role",
          "type": "bytes32"
        },
        {
          "indexed": true,
          "internalType": "address",
          "name": "account",
          "type": "address"
        },
        {
          "indexed": true,
          "internalType": "address",
          "name": "sender",
          "type": "address"
        }
      ],
      "name": "RoleGranted",
      "type": "event"
    },
    {
      "anonymous": false,
      "inputs": [
        {
          "indexed": true,
          "internalType": "bytes32",
          "name": "role",
          "type": "bytes32"
        },
        {
          "indexed": true,
          "internalType": "address",
          "name": "account",
          "type": "address"
        },
        {
          "indexed": true,
          "internalType": "address",
          "name": "sender",
          "type": "address"
        }
      ],
      "name": "RoleRevoked",
      "type": "event"
    },
    {
      "anonymous": false,
      "inputs": [
        {
          "indexed": false,
          "internalType": "uint256",
          "name": "teamId",
          "type": "uint256"
        },
        {
          "indexed": false,
          "internalType": "string",
          "name": "teamName",
          "type": "string"
        }
      ],
      "name": "TeamAdd",
      "type": "event"
    },
    {
      "anonymous": false,
      "inputs": [
        {
          "indexed": true,
          "internalType": "uint256",
          "name": "teamId",
          "type": "uint256"
        },
        {
          "indexed": false,
          "internalType": "uint256",
          "name": "numberPoints",
          "type": "uint256"
        },
        {
          "indexed": true,
          "internalType": "uint256",
          "name": "campaignId",
          "type": "uint256"
        }
      ],
      "name": "TeamPointIncrease",
      "type": "event"
    },
    {
      "anonymous": false,
      "inputs": [
        {
          "indexed": true,
          "internalType": "address",
          "name": "userAddress",
          "type": "address"
        },
        {
          "indexed": false,
          "internalType": "uint256",
          "name": "oldTeamId",
          "type": "uint256"
        },
        {
          "indexed": false,
          "internalType": "uint256",
          "name": "newTeamId",
          "type": "uint256"
        }
      ],
      "name": "UserChangeTeam",
      "type": "event"
    },
    {
      "anonymous": false,
      "inputs": [
        {
          "indexed": true,
          "internalType": "address",
          "name": "userAddress",
          "type": "address"
        },
        {
          "indexed": false,
          "internalType": "uint256",
          "name": "teamId",
          "type": "uint256"
        },
        {
          "indexed": false,
          "internalType": "address",
          "name": "nftAddress",
          "type": "address"
        },
        {
          "indexed": false,
          "internalType": "uint256",
          "name": "tokenId",
          "type": "uint256"
        }
      ],
      "name": "UserNew",
      "type": "event"
    },
    {
      "anonymous": false,
      "inputs": [
        {
          "indexed": true,
          "internalType": "address",
          "name": "userAddress",
          "type": "address"
        },
        {
          "indexed": false,
          "internalType": "uint256",
          "name": "teamId",
          "type": "uint256"
        }
      ],
      "name": "UserPause",
      "type": "event"
    },
    {
      "anonymous": false,
      "inputs": [
        {
          "indexed": true,
          "internalType": "address",
          "name": "userAddress",
          "type": "address"
        },
        {
          "indexed": false,
          "internalType": "uint256",
          "name": "numberPoints",
          "type": "uint256"
        },
        {
          "indexed": true,
          "internalType": "uint256",
          "name": "campaignId",
          "type": "uint256"
        }
      ],
      "name": "UserPointIncrease",
      "type": "event"
    },
    {
      "anonymous": false,
      "inputs": [
        {
          "indexed": false,
          "internalType": "address[]",
          "name": "userAddresses",
          "type": "address[]"
        },
        {
          "indexed": false,
          "internalType": "uint256",
          "name": "numberPoints",
          "type": "uint256"
        },
        {
          "indexed": true,
          "internalType": "uint256",
          "name": "campaignId",
          "type": "uint256"
        }
      ],
      "name": "UserPointIncreaseMultiple",
      "type": "event"
    },
    {
      "anonymous": false,
      "inputs": [
        {
          "indexed": true,
          "internalType": "address",
          "name": "userAddress",
          "type": "address"
        },
        {
          "indexed": false,
          "internalType": "uint256",
          "name": "teamId",
          "type": "uint256"
        },
        {
          "indexed": false,
          "internalType": "address",
          "name": "nftAddress",
          "type": "address"
        },
        {
          "indexed": false,
          "internalType": "uint256",
          "name": "tokenId",
          "type": "uint256"
        }
      ],
      "name": "UserReactivate",
      "type": "event"
    },
    {
      "anonymous": false,
      "inputs": [
        {
          "indexed": true,
          "internalType": "address",
          "name": "userAddress",
          "type": "address"
        },
        {
          "indexed": false,
          "internalType": "address",
          "name": "nftAddress",
          "type": "address"
        },
        {
          "indexed": false,
          "internalType": "uint256",
          "name": "tokenId",
          "type": "uint256"
        }
      ],
      "name": "UserUpdate",
      "type": "event"
    },
    {
      "inputs": [],
      "name": "DEFAULT_ADMIN_ROLE",
      "outputs": [
        {
          "internalType": "bytes32",
          "name": "",
          "type": "bytes32"
        }
      ],
      "stateMutability": "view",
      "type": "function"
    },
    {
      "inputs": [],
      "name": "NFT_ROLE",
      "outputs": [
        {
          "internalType": "bytes32",
          "name": "",
          "type": "bytes32"
        }
      ],
      "stateMutability": "view",
      "type": "function"
    },
    {
      "inputs": [],
      "name": "POINT_ROLE",
      "outputs": [
        {
          "internalType": "bytes32",
          "name": "",
          "type": "bytes32"
        }
      ],
      "stateMutability": "view",
      "type": "function"
    },
    {
      "inputs": [],
      "name": "SPECIAL_ROLE",
      "outputs": [
        {
          "internalType": "bytes32",
          "name": "",
          "type": "bytes32"
        }
      ],
      "stateMutability": "view",
      "type": "function"
    },
    {
      "inputs": [
        {
          "internalType": "address",
          "name": "_nftAddress",
          "type": "address"
        }
      ],
      "name": "addNftAddress",
      "outputs": [],
      "stateMutability": "nonpayable",
      "type": "function"
    },
    {
      "inputs": [
        {
          "internalType": "string",
          "name": "_teamName",
          "type": "string"
        },
        {
          "internalType": "string",
          "name": "_teamDescription",
          "type": "string"
        }
      ],
      "name": "addTeam",
      "outputs": [],
      "stateMutability": "nonpayable",
      "type": "function"
    },
    {
      "inputs": [],
      "name": "cakeToken",
      "outputs": [
        {
          "internalType": "contract IERC20",
          "name": "",
          "type": "address"
        }
      ],
      "stateMutability": "view",
      "type": "function"
    },
    {
      "inputs": [
        {
          "internalType": "address",
          "name": "_userAddress",
          "type": "address"
        },
        {
          "internalType": "uint256",
          "name": "_newTeamId",
          "type": "uint256"
        }
      ],
      "name": "changeTeam",
      "outputs": [],
      "stateMutability": "nonpayable",
      "type": "function"
    },
    {
      "inputs": [
        {
          "internalType": "uint256",
          "name": "_amount",
          "type": "uint256"
        }
      ],
      "name": "claimFee",
      "outputs": [],
      "stateMutability": "nonpayable",
      "type": "function"
    },
    {
      "inputs": [
        {
          "internalType": "uint256",
          "name": "_teamId",
          "type": "uint256"
        },
        {
          "internalType": "address",
          "name": "_nftAddress",
          "type": "address"
        },
        {
          "internalType": "uint256",
          "name": "_tokenId",
          "type": "uint256"
        }
      ],
      "name": "createProfile",
      "outputs": [],
      "stateMutability": "nonpayable",
      "type": "function"
    },
    {
      "inputs": [
        {
          "internalType": "bytes32",
          "name": "role",
          "type": "bytes32"
        }
      ],
      "name": "getRoleAdmin",
      "outputs": [
        {
          "internalType": "bytes32",
          "name": "",
          "type": "bytes32"
        }
      ],
      "stateMutability": "view",
      "type": "function"
    },
    {
      "inputs": [
        {
          "internalType": "uint256",
          "name": "_teamId",
          "type": "uint256"
        }
      ],
      "name": "getTeamProfile",
      "outputs": [
        {
          "internalType": "string",
          "name": "",
          "type": "string"
        },
        {
          "internalType": "string",
          "name": "",
          "type": "string"
        },
        {
          "internalType": "uint256",
          "name": "",
          "type": "uint256"
        },
        {
          "internalType": "uint256",
          "name": "",
          "type": "uint256"
        },
        {
          "internalType": "bool",
          "name": "",
          "type": "bool"
        }
      ],
      "stateMutability": "view",
      "type": "function"
    },
    {
      "inputs": [
        {
          "internalType": "address",
          "name": "_userAddress",
          "type": "address"
        }
      ],
      "name": "getUserProfile",
      "outputs": [
        {
          "internalType": "uint256",
          "name": "",
          "type": "uint256"
        },
        {
          "internalType": "uint256",
          "name": "",
          "type": "uint256"
        },
        {
          "internalType": "uint256",
          "name": "",
          "type": "uint256"
        },
        {
          "internalType": "address",
          "name": "",
          "type": "address"
        },
        {
          "internalType": "uint256",
          "name": "",
          "type": "uint256"
        },
        {
          "internalType": "bool",
          "name": "",
          "type": "bool"
        }
      ],
      "stateMutability": "view",
      "type": "function"
    },
    {
      "inputs": [
        {
          "internalType": "address",
          "name": "_userAddress",
          "type": "address"
        }
      ],
      "name": "getUserStatus",
      "outputs": [
        {
          "internalType": "bool",
          "name": "",
          "type": "bool"
        }
      ],
      "stateMutability": "view",
      "type": "function"
    },
    {
      "inputs": [
        {
          "internalType": "bytes32",
          "name": "role",
          "type": "bytes32"
        },
        {
          "internalType": "address",
          "name": "account",
          "type": "address"
        }
      ],
      "name": "grantRole",
      "outputs": [],
      "stateMutability": "nonpayable",
      "type": "function"
    },
    {
      "inputs": [
        {
          "internalType": "address",
          "name": "",
          "type": "address"
        }
      ],
      "name": "hasRegistered",
      "outputs": [
        {
          "internalType": "bool",
          "name": "",
          "type": "bool"
        }
      ],
      "stateMutability": "view",
      "type": "function"
    },
    {
      "inputs": [
        {
          "internalType": "bytes32",
          "name": "role",
          "type": "bytes32"
        },
        {
          "internalType": "address",
          "name": "account",
          "type": "address"
        }
      ],
      "name": "hasRole",
      "outputs": [
        {
          "internalType": "bool",
          "name": "",
          "type": "bool"
        }
      ],
      "stateMutability": "view",
      "type": "function"
    },
    {
      "inputs": [
        {
          "internalType": "uint256",
          "name": "_teamId",
          "type": "uint256"
        },
        {
          "internalType": "uint256",
          "name": "_numberPoints",
          "type": "uint256"
        },
        {
          "internalType": "uint256",
          "name": "_campaignId",
          "type": "uint256"
        }
      ],
      "name": "increaseTeamPoints",
      "outputs": [],
      "stateMutability": "nonpayable",
      "type": "function"
    },
    {
      "inputs": [
        {
          "internalType": "address",
          "name": "_userAddress",
          "type": "address"
        },
        {
          "internalType": "uint256",
          "name": "_numberPoints",
          "type": "uint256"
        },
        {
          "internalType": "uint256",
          "name": "_campaignId",
          "type": "uint256"
        }
      ],
      "name": "increaseUserPoints",
      "outputs": [],
      "stateMutability": "nonpayable",
      "type": "function"
    },
    {
      "inputs": [
        {
          "internalType": "address[]",
          "name": "_userAddresses",
          "type": "address[]"
        },
        {
          "internalType": "uint256",
          "name": "_numberPoints",
          "type": "uint256"
        },
        {
          "internalType": "uint256",
          "name": "_campaignId",
          "type": "uint256"
        }
      ],
      "name": "increaseUserPointsMultiple",
      "outputs": [],
      "stateMutability": "nonpayable",
      "type": "function"
    },
    {
      "inputs": [
        {
          "internalType": "uint256",
          "name": "_teamId",
          "type": "uint256"
        }
      ],
      "name": "makeTeamJoinable",
      "outputs": [],
      "stateMutability": "nonpayable",
      "type": "function"
    },
    {
      "inputs": [
        {
          "internalType": "uint256",
          "name": "_teamId",
          "type": "uint256"
        }
      ],
      "name": "makeTeamNotJoinable",
      "outputs": [],
      "stateMutability": "nonpayable",
      "type": "function"
    },
    {
      "inputs": [],
      "name": "numberActiveProfiles",
      "outputs": [
        {
          "internalType": "uint256",
          "name": "",
          "type": "uint256"
        }
      ],
      "stateMutability": "view",
      "type": "function"
    },
    {
      "inputs": [],
      "name": "numberCakeToReactivate",
      "outputs": [
        {
          "internalType": "uint256",
          "name": "",
          "type": "uint256"
        }
      ],
      "stateMutability": "view",
      "type": "function"
    },
    {
      "inputs": [],
      "name": "numberCakeToRegister",
      "outputs": [
        {
          "internalType": "uint256",
          "name": "",
          "type": "uint256"
        }
      ],
      "stateMutability": "view",
      "type": "function"
    },
    {
      "inputs": [],
      "name": "numberCakeToUpdate",
      "outputs": [
        {
          "internalType": "uint256",
          "name": "",
          "type": "uint256"
        }
      ],
      "stateMutability": "view",
      "type": "function"
    },
    {
      "inputs": [],
      "name": "numberTeams",
      "outputs": [
        {
          "internalType": "uint256",
          "name": "",
          "type": "uint256"
        }
      ],
      "stateMutability": "view",
      "type": "function"
    },
    {
      "inputs": [
        {
          "internalType": "address",
          "name": "",
          "type": "address"
        },
        {
          "internalType": "address",
          "name": "",
          "type": "address"
        },
        {
          "internalType": "uint256",
          "name": "",
          "type": "uint256"
        },
        {
          "internalType": "bytes",
          "name": "",
          "type": "bytes"
        }
      ],
      "name": "onERC721Received",
      "outputs": [
        {
          "internalType": "bytes4",
          "name": "",
          "type": "bytes4"
        }
      ],
      "stateMutability": "nonpayable",
      "type": "function"
    },
    {
      "inputs": [],
      "name": "pauseProfile",
      "outputs": [],
      "stateMutability": "nonpayable",
      "type": "function"
    },
    {
      "inputs": [
        {
          "internalType": "address",
          "name": "_nftAddress",
          "type": "address"
        },
        {
          "internalType": "uint256",
          "name": "_tokenId",
          "type": "uint256"
        }
      ],
      "name": "reactivateProfile",
      "outputs": [],
      "stateMutability": "nonpayable",
      "type": "function"
    },
    {
      "inputs": [
        {
          "internalType": "uint256",
          "name": "_teamId",
          "type": "uint256"
        },
        {
          "internalType": "uint256",
          "name": "_numberPoints",
          "type": "uint256"
        }
      ],
      "name": "removeTeamPoints",
      "outputs": [],
      "stateMutability": "nonpayable",
      "type": "function"
    },
    {
      "inputs": [
        {
          "internalType": "address",
          "name": "_userAddress",
          "type": "address"
        },
        {
          "internalType": "uint256",
          "name": "_numberPoints",
          "type": "uint256"
        }
      ],
      "name": "removeUserPoints",
      "outputs": [],
      "stateMutability": "nonpayable",
      "type": "function"
    },
    {
      "inputs": [
        {
          "internalType": "address[]",
          "name": "_userAddresses",
          "type": "address[]"
        },
        {
          "internalType": "uint256",
          "name": "_numberPoints",
          "type": "uint256"
        }
      ],
      "name": "removeUserPointsMultiple",
      "outputs": [],
      "stateMutability": "nonpayable",
      "type": "function"
    },
    {
      "inputs": [
        {
          "internalType": "uint256",
          "name": "_teamId",
          "type": "uint256"
        },
        {
          "internalType": "string",
          "name": "_teamName",
          "type": "string"
        },
        {
          "internalType": "string",
          "name": "_teamDescription",
          "type": "string"
        }
      ],
      "name": "renameTeam",
      "outputs": [],
      "stateMutability": "nonpayable",
      "type": "function"
    },
    {
      "inputs": [
        {
          "internalType": "bytes32",
          "name": "role",
          "type": "bytes32"
        },
        {
          "internalType": "address",
          "name": "account",
          "type": "address"
        }
      ],
      "name": "renounceRole",
      "outputs": [],
      "stateMutability": "nonpayable",
      "type": "function"
    },
    {
      "inputs": [
        {
          "internalType": "bytes32",
          "name": "role",
          "type": "bytes32"
        },
        {
          "internalType": "address",
          "name": "account",
          "type": "address"
        }
      ],
      "name": "revokeRole",
      "outputs": [],
      "stateMutability": "nonpayable",
      "type": "function"
    },
    {
      "inputs": [
        {
          "internalType": "bytes4",
          "name": "interfaceId",
          "type": "bytes4"
        }
      ],
      "name": "supportsInterface",
      "outputs": [
        {
          "internalType": "bool",
          "name": "",
          "type": "bool"
        }
      ],
      "stateMutability": "view",
      "type": "function"
    },
    {
      "inputs": [
        {
          "internalType": "uint256",
          "name": "_newNumberCakeToReactivate",
          "type": "uint256"
        },
        {
          "internalType": "uint256",
          "name": "_newNumberCakeToRegister",
          "type": "uint256"
        },
        {
          "internalType": "uint256",
          "name": "_newNumberCakeToUpdate",
          "type": "uint256"
        }
      ],
      "name": "updateNumberCake",
      "outputs": [],
      "stateMutability": "nonpayable",
      "type": "function"
    },
    {
      "inputs": [
        {
          "internalType": "address",
          "name": "_nftAddress",
          "type": "address"
        },
        {
          "internalType": "uint256",
          "name": "_tokenId",
          "type": "uint256"
        }
      ],
      "name": "updateProfile",
      "outputs": [],
      "stateMutability": "nonpayable",
      "type": "function"
    }
  ],
  "transactionHash": "0x840bd1a98388811266ee12f67fac7ecc088fd967f38e73fea4578c24660179c7",
  "args": [
    "0x2925293d027391eD3CC24bf4a4B80D072FCBB714",
    "1000000000000000000",
    "1000000000000000000",
    "1000000000000000000"
  ],
  "solcInputHash": "dac350dcdb2b51afef353dcc77743026",
  "bytecode": "0x60806040523480156200001157600080fd5b50604051620034ce380380620034ce83398101604081905262000034916200012c565b600180546001600160a01b0319166001600160a01b0386161790556003839055600482905560058190556200007260006200006c3390565b6200007c565b5050505062000177565b6200008882826200008c565b5050565b6000828152602081815260408083206001600160a01b038516845290915290205460ff1662000088576000828152602081815260408083206001600160a01b03851684529091529020805460ff19166001179055620000e83390565b6001600160a01b0316816001600160a01b0316837f2f8788117e7eff1d82e926ec794901d17c78024a50270940304540a733656f0d60405160405180910390a45050565b6000806000806080858703121562000142578384fd5b84516001600160a01b038116811462000159578485fd5b60208601516040870151606090970151919890975090945092505050565b61334780620001876000396000f3fe608060405234801561001057600080fd5b506004361061023d5760003560e01c8063a0d035261161013b578063d547741f116100b8578063ea0d5dcd1161007c578063ea0d5dcd14610560578063ebc4ffc71461058f578063f667526a146105a2578063f684f33c146105b5578063fd825f58146105ca5761023d565b8063d547741f1461050b578063da83fe4a1461051e578063da95006d14610531578063e2fa2ff31461053a578063e5020a621461054d5761023d565b8063be4f9bd6116100ff578063be4f9bd6146104ab578063bf051c13146104b4578063c1694a2f146104db578063c9bed948146104e3578063d1d0954c146104f85761023d565b8063a0d0352614610436578063a217fddf14610459578063a40601ee14610461578063a56bd1de14610474578063aee2f47f146104875761023d565b80632daa72d4116101c95780635da3c2401161018d5780635da3c240146103875780635db345661461039a5780638904bf2f146103ad57806391d14854146103d8578063987ee156146103eb5761023d565b80632daa72d41461033c5780632f2ff15d1461034f57806336568abe146103625780633dd452d61461037557806349b2cff51461037e5761023d565b80631bdc17f6116102105780631bdc17f6146102c95780631d0c02b9146102dc5780631e47a476146102f3578063218188d714610306578063248a9ca3146103195761023d565b806301ffc9a7146102425780630a82697b1461026a5780630d4fb8031461027f578063150b7a0214610292575b600080fd5b610255610250366004612d81565b6105dd565b60405190151581526020015b60405180910390f35b61027d610278366004612c22565b610614565b005b61027d61028d366004612da9565b61097e565b6102b06102a0366004612b49565b630a85bd0160e11b949350505050565b6040516001600160e01b03199091168152602001610261565b61027d6102d7366004612c4d565b610bc0565b6102e560055481565b604051908152602001610261565b61027d610301366004612ee1565b610c74565b61027d610314366004612d3a565b610d0d565b6102e5610327366004612d3a565b60009081526020819052604090206001015490565b61027d61034a366004612ee1565b610d7d565b61027d61035d366004612d52565b610db2565b61027d610370366004612d52565b610dde565b6102e560065481565b6102e560045481565b61027d610395366004612b11565b610e5c565b61027d6103a8366004612e49565b610f55565b6001546103c0906001600160a01b031681565b6040516001600160a01b039091168152602001610261565b6102556103e6366004612d52565b6110a6565b6103fe6103f9366004612b11565b6110cf565b604080519687526020870195909552938501929092526001600160a01b031660608401526080830152151560a082015260c001610261565b610255610444366004612b11565b60076020526000908152604090205460ff1681565b6102e5600081565b61027d61046f366004612c22565b61117d565b61027d610482366004612c81565b611499565b61049a610495366004612d3a565b6115ef565b604051610261959493929190613056565b6102e560025481565b6102e57f3f12a51c1a5d4235e47a0365ddc220be1678ccffcdf71bfd6ee9c417f801e00881565b61027d611778565b6102e56000805160206132f283398151915281565b61027d610506366004612ec0565b61193e565b61027d610519366004612d52565b6119a7565b61027d61052c366004612c22565b6119cd565b6102e560035481565b61027d610548366004612ccb565b611a4a565b61027d61055b366004612c22565b611bcf565b61025561056e366004612b11565b6001600160a01b031660009081526009602052604090206005015460ff1690565b61027d61059d366004612d3a565b611e7b565b61027d6105b0366004612d3a565b611eee565b6102e56000805160206132d283398151915281565b61027d6105d8366004612e12565b611f2c565b60006001600160e01b03198216637965db0b60e01b148061060e57506301ffc9a760e01b6001600160e01b03198316145b92915050565b3360009081526007602052604090205460ff1661064c5760405162461bcd60e51b8152600401610643906130c6565b60405180910390fd5b6106646000805160206132d2833981519152836110a6565b6106805760405162461bcd60e51b815260040161064390613146565b3360009081526009602052604090206005015460ff166106d45760405162461bcd60e51b815260206004820152600f60248201526e55736572206e6f742061637469766560881b6044820152606401610643565b3360009081526009602052604090819020600381015460049182015492516331a9108f60e11b81529182018490526001600160a01b0390811692918591821690636352211e9060240160206040518083038186803b15801561073557600080fd5b505afa158015610749573d6000803e3d6000fd5b505050506040513d601f19601f8201168201806040525081019061076d9190612b2d565b6001600160a01b0316336001600160a01b0316146107c95760405162461bcd60e51b81526020600482015260196024820152784f6e6c79204e4654206f776e65722063616e2075706461746560381b6044820152606401610643565b604051632142170760e11b81526001600160a01b038216906342842e0e906107f990339030908990600401612fc9565b600060405180830381600087803b15801561081357600080fd5b505af1158015610827573d6000803e3d6000fd5b5050505061084d6108353390565b6005546001546001600160a01b03169190309061235b565b604051632142170760e11b815283906001600160a01b038216906342842e0e9061087f90309033908890600401612fc9565b600060405180830381600087803b15801561089957600080fd5b505af11580156108ad573d6000803e3d6000fd5b5050505085600960006108bd3390565b6001600160a01b03166001600160a01b0316815260200190815260200160002060030160006101000a8154816001600160a01b0302191690836001600160a01b0316021790555084600960006109103390565b6001600160a01b0316815260208101919091526040016000206004015533604080516001600160a01b0389811682526020820189905292909216917fe8e88d4216f3bbc2d1a4dd55aa66fd3e0065ef03970fa056a19d018ca19d5805910160405180910390a2505050505050565b6109896000336103e6565b6109a55760405162461bcd60e51b81526004016106439061311a565b600084848080601f0160208091040260200160405190810160405280939291908181526020018383808284376000920191909152505082519293505060149091109050610a235760405162461bcd60e51b815260206004820152600c60248201526b04d757374206265203c2032360a41b6044820152606401610643565b6003815111610a625760405162461bcd60e51b815260206004820152600b60248201526a4d757374206265203e203360a81b6044820152606401610643565b610a70600a80546001019055565b6000610a7b600a5490565b6040805160c06020601f8a01819004028201810190925260a081018881529293509182918990899081908501838280828437600092019190915250505090825250604080516020601f880181900481028201810190925286815291810191908790879081908401838280828437600092018290525093855250505060208083018290526040808401839052600160609094019390935284825260088152919020825180519192610b309284929091019061297b565b506020828101518051610b49926001850192019061297b565b506040828101516002830155606083015160038301556080909201516004909101805460ff19169115159190911790556006829055517f1137f48534f03e02268dec7839069a7484bc6788c43e4ed9dc38dd8a2f269bc790610bb090839089908990613173565b60405180910390a1505050505050565b610bd86000805160206132f2833981519152336103e6565b610bf45760405162461bcd60e51b81526004016106439061309b565b6001600160a01b038316600090815260096020526040902060010154610c1a90836123b3565b6001600160a01b038416600081815260096020908152604091829020600101939093555184815283927f04bc07bcb78bb21e5665cf01cd24f6a6a06e21fd20d60df8f0fa8d58c66f293491015b60405180910390a3505050565b610c8c6000805160206132f2833981519152336103e6565b610ca85760405162461bcd60e51b81526004016106439061309b565b600083815260086020526040902060030154610cc490836123b3565b6000848152600860209081526040918290206003019290925551838152829185917f2056366a9d1345af9da00985231357931fb77dc7fa7bdf71058e3ca3816f9d389101610c67565b610d186000336103e6565b610d345760405162461bcd60e51b81526004016106439061311a565b6006548111158015610d465750600081115b610d625760405162461bcd60e51b8152600401610643906130f2565b6000908152600860205260409020600401805460ff19169055565b610d886000336103e6565b610da45760405162461bcd60e51b81526004016106439061311a565b600392909255600455600555565b600082815260208190526040902060010154610dcf81335b6123c6565b610dd9838361242a565b505050565b6001600160a01b0381163314610e4e5760405162461bcd60e51b815260206004820152602f60248201527f416363657373436f6e74726f6c3a2063616e206f6e6c792072656e6f756e636560448201526e103937b632b9903337b91039b2b63360891b6064820152608401610643565b610e5882826124ae565b5050565b610e676000336103e6565b610e835760405162461bcd60e51b81526004016106439061311a565b6040516301ffc9a760e01b81526380ac58cd60e01b60048201526001600160a01b038216906301ffc9a79060240160206040518083038186803b158015610ec957600080fd5b505afa158015610edd573d6000803e3d6000fd5b505050506040513d601f19601f82011682018060405250810190610f019190612d1a565b610f3a5760405162461bcd60e51b815260206004820152600a6024820152694e6f742045524337323160b01b6044820152606401610643565b610f526000805160206132d283398151915282610db2565b50565b610f606000336103e6565b610f7c5760405162461bcd60e51b81526004016106439061311a565b6006548511158015610f8e5750600085115b610faa5760405162461bcd60e51b8152600401610643906130f2565b600084848080601f01602080910402602001604051908101604052809392919081815260200183838082843760009201919091525050825192935050601490911090506110285760405162461bcd60e51b815260206004820152600c60248201526b04d757374206265203c2032360a41b6044820152606401610643565b60038151116110675760405162461bcd60e51b815260206004820152600b60248201526a4d757374206265203e203360a81b6044820152606401610643565b60008681526008602052604090206110809086866129ff565b50600086815260086020526040902061109d9060010184846129ff565b50505050505050565b6000918252602082815260408084206001600160a01b0393909316845291905290205460ff1690565b6001600160a01b0381166000908152600760205260408120548190819081908190819060ff166111325760405162461bcd60e51b815260206004820152600e60248201526d139bdd081c9959da5cdd195c995960921b6044820152606401610643565b505050506001600160a01b039283166000908152600960205260409020805460018201546002830154600384015460048501546005909501549398929791965016935060ff90911690565b3360009081526007602052604090205460ff166111ac5760405162461bcd60e51b8152600401610643906130c6565b6111c46000805160206132d2833981519152836110a6565b6111e05760405162461bcd60e51b815260040161064390613146565b3360009081526009602052604090206005015460ff16156112345760405162461bcd60e51b815260206004820152600e60248201526d557365722069732061637469766560901b6044820152606401610643565b6040516331a9108f60e11b81526004810182905282906001600160a01b03821690636352211e9060240160206040518083038186803b15801561127657600080fd5b505afa15801561128a573d6000803e3d6000fd5b505050506040513d601f19601f820116820180604052508101906112ae9190612b2d565b6001600160a01b0316336001600160a01b03161461130a5760405162461bcd60e51b81526020600482015260196024820152784f6e6c79204e4654206f776e65722063616e2075706461746560381b6044820152606401610643565b611326336003546001546001600160a01b03169190309061235b565b604051632142170760e11b81526001600160a01b038216906342842e0e9061135690339030908790600401612fc9565b600060405180830381600087803b15801561137057600080fd5b505af1158015611384573d6000803e3d6000fd5b505050506000600960006113953390565b6001600160a01b03166001600160a01b031681526020019081526020016000206002015490506113e5600160086000848152602001908152602001600020600201546123b390919063ffffffff16565b6000828152600860205260409020600290810191909155546114089060016123b3565b6002553360008181526009602090815260409182902060058101805460ff191660011790556003810180546001600160a01b038a166001600160a01b0319909116811790915560049091018790558251858152918201529081018590527fdb76eea80687b6553e5d689ff9d000c0ce2c10574b39d64cacc2b4f6f54f6838906060015b60405180910390a250505050565b6114b16000805160206132f2833981519152336103e6565b6114cd5760405162461bcd60e51b81526004016106439061309b565b6103e982106115165760405162461bcd60e51b81526020600482015260156024820152744c656e677468206d757374206265203c203130303160581b6044820152606401610643565b60005b828110156115e957611581826009600087878681811061154957634e487b7160e01b600052603260045260246000fd5b905060200201602081019061155e9190612b11565b6001600160a01b0316815260208101919091526040016000206001015490612513565b600960008686858181106115a557634e487b7160e01b600052603260045260246000fd5b90506020020160208101906115ba9190612b11565b6001600160a01b03168152602081019190915260400160002060010155806115e181613275565b915050611519565b50505050565b606080600080600060065486111580156116095750600086115b6116255760405162461bcd60e51b8152600401610643906130f2565b600086815260086020526040902060028101546003820154600483015483546001850193929160ff1690859061165a9061323a565b80601f01602080910402602001604051908101604052809291908181526020018280546116869061323a565b80156116d35780601f106116a8576101008083540402835291602001916116d3565b820191906000526020600020905b8154815290600101906020018083116116b657829003601f168201915b505050505094508380546116e69061323a565b80601f01602080910402602001604051908101604052809291908181526020018280546117129061323a565b801561175f5780601f106117345761010080835404028352916020019161175f565b820191906000526020600020905b81548152906001019060200180831161174257829003601f168201915b50989f939e50959c50939a509198509650505050505050565b3360009081526007602052604090205460ff166117a75760405162461bcd60e51b8152600401610643906130c6565b3360009081526009602052604090206005015460ff166117fb5760405162461bcd60e51b815260206004820152600f60248201526e55736572206e6f742061637469766560881b6044820152606401610643565b33600090815260096020908152604080832060058101805460ff191690556002908101548085526008909352922090910154611838906001612513565b60008281526008602052604090206002908101919091555461185b906001612513565b60025533600081815260096020526040808220600381018054600492830180546001600160a01b03198316909355949094559151632142170760e11b81526001600160a01b0390931693919284926342842e0e926118be92309291879101612fc9565b600060405180830381600087803b1580156118d857600080fd5b505af11580156118ec573d6000803e3d6000fd5b505050506118f73390565b6001600160a01b03167fe0ed25582c4d86fd51bfe26383781fc8bbf5636813cbfdf93c440b5828c930408460405161193191815260200190565b60405180910390a2505050565b6119566000805160206132f2833981519152336103e6565b6119725760405162461bcd60e51b81526004016106439061309b565b60008281526008602052604090206003015461198e9082612513565b6000928352600860205260409092206003019190915550565b6000828152602081905260409020600101546119c38133610dca565b610dd983836124ae565b6119e56000805160206132f2833981519152336103e6565b611a015760405162461bcd60e51b81526004016106439061309b565b6001600160a01b038216600090815260096020526040902060010154611a279082612513565b6001600160a01b0390921660009081526009602052604090206001019190915550565b611a626000805160206132f2833981519152336103e6565b611a7e5760405162461bcd60e51b81526004016106439061309b565b6103e98310611ac75760405162461bcd60e51b81526020600482015260156024820152744c656e677468206d757374206265203c203130303160581b6044820152606401610643565b60005b83811015611b9a57611b328360096000888886818110611afa57634e487b7160e01b600052603260045260246000fd5b9050602002016020810190611b0f9190612b11565b6001600160a01b03168152602081019190915260400160002060010154906123b3565b60096000878785818110611b5657634e487b7160e01b600052603260045260246000fd5b9050602002016020810190611b6b9190612b11565b6001600160a01b0316815260208101919091526040016000206001015580611b9281613275565b915050611aca565b50807f473f8fafa9bb6f152b95565955b672a2c8b798b9c0a7c17f2e43bd4577f972de85858560405161148b93929190612fed565b611bf97f3f12a51c1a5d4235e47a0365ddc220be1678ccffcdf71bfd6ee9c417f801e008336103e6565b611c3b5760405162461bcd60e51b81526020600482015260136024820152722737ba10309039b832b1b4b0b61030b236b4b760691b6044820152606401610643565b6001600160a01b03821660009081526007602052604090205460ff16611c985760405162461bcd60e51b8152602060048201526012602482015271155cd95c88191bd95cdb89dd08195e1a5cdd60721b6044820152606401610643565b6006548111158015611caa5750600081115b611ced5760405162461bcd60e51b81526020600482015260146024820152731d19585b525908191bd95cdb89dd08195e1a5cdd60621b6044820152606401610643565b60008181526008602052604090206004015460ff16611d425760405162461bcd60e51b81526020600482015260116024820152705465616d206e6f74206a6f696e61626c6560781b6044820152606401610643565b6001600160a01b038216600090815260096020526040902060020154811415611da35760405162461bcd60e51b8152602060048201526013602482015272416c726561647920696e20746865207465616d60681b6044820152606401610643565b6001600160a01b03821660009081526009602090815260408083206002908101548085526008909352922090910154611ddd906001612513565b60008281526008602081815260408084206002908101959095556001600160a01b038816845260098252808420850187905586845291905290200154611e249060016123b3565b6000838152600860209081526040918290206002019290925580518381529182018490526001600160a01b038516917f74c08ece62e2369a06a4cac8609fd31e7f3ae99e0dbedbc2bfcf0b9397d9a6919101611931565b611e866000336103e6565b611ea25760405162461bcd60e51b81526004016106439061311a565b6006548111158015611eb45750600081115b611ed05760405162461bcd60e51b8152600401610643906130f2565b6000908152600860205260409020600401805460ff19166001179055565b611ef96000336103e6565b611f155760405162461bcd60e51b81526004016106439061311a565b610f52336001546001600160a01b0316908361251f565b3360009081526007602052604090205460ff1615611f815760405162461bcd60e51b8152602060048201526012602482015271105b1c9958591e481c9959da5cdd195c995960721b6044820152606401610643565b6006548311158015611f935750600083115b611fd05760405162461bcd60e51b815260206004820152600e60248201526d125b9d985b1a59081d19585b525960921b6044820152606401610643565b60008381526008602052604090206004015460ff166120255760405162461bcd60e51b81526020600482015260116024820152705465616d206e6f74206a6f696e61626c6560781b6044820152606401610643565b61203d6000805160206132d2833981519152836110a6565b6120595760405162461bcd60e51b815260040161064390613146565b6040516331a9108f60e11b81526004810182905282906001600160a01b03821690636352211e9060240160206040518083038186803b15801561209b57600080fd5b505afa1580156120af573d6000803e3d6000fd5b505050506040513d601f19601f820116820180604052508101906120d39190612b2d565b6001600160a01b0316336001600160a01b0316146121335760405162461bcd60e51b815260206004820152601b60248201527f4f6e6c79204e4654206f776e65722063616e20726567697374657200000000006044820152606401610643565b604051632142170760e11b81526001600160a01b038216906342842e0e9061216390339030908790600401612fc9565b600060405180830381600087803b15801561217d57600080fd5b505af1158015612191573d6000803e3d6000fd5b505050506121b761219f3390565b6004546001546001600160a01b03169190309061235b565b6121c5600b80546001019055565b60006121d0600b5490565b90506040518060c0016040528082815260200160008152602001868152602001856001600160a01b0316815260200184815260200160011515815250600960006122173390565b6001600160a01b03908116825260208083019390935260409182016000908120855181559385015160018086019190915592850151600285015560608501516003850180546001600160a01b03191691909316179091556080840151600484015560a0909301516005909201805460ff1916921515929092179091559060079061229e3390565b6001600160a01b031681526020810191909152604001600020805460ff19169115159190911790556002546122d49060016123b3565b6002908155600086815260086020526040902001546122f49060016123b3565b60008681526008602052604090206002015533604080518781526001600160a01b0387811660208301529181018690529116907f628915737ae1dae037b128d0892692746d4e63e2f72632781c0a08f7168b1be89060600160405180910390a25050505050565b6115e9846323b872dd60e01b85858560405160240161237c93929190612fc9565b60408051601f198184030181529190526020810180516001600160e01b03166001600160e01b03199093169290921790915261254f565b60006123bf82846131a9565b9392505050565b6123d082826110a6565b610e58576123e8816001600160a01b03166014612621565b6123f3836020612621565b604051602001612404929190612f54565b60408051601f198184030181529082905262461bcd60e51b825261064391600401613043565b61243482826110a6565b610e58576000828152602081815260408083206001600160a01b03851684529091529020805460ff1916600117905561246a3390565b6001600160a01b0316816001600160a01b0316837f2f8788117e7eff1d82e926ec794901d17c78024a50270940304540a733656f0d60405160405180910390a45050565b6124b882826110a6565b15610e58576000828152602081815260408083206001600160a01b0385168085529252808320805460ff1916905551339285917ff6391f5c32d9c69d2a47ea670b442974b53935d1edc7fd64eb21e047a839171b9190a45050565b60006123bf82846131e0565b6040516001600160a01b038316602482015260448101829052610dd990849063a9059cbb60e01b9060640161237c565b60006125a4826040518060400160405280602081526020017f5361666545524332303a206c6f772d6c6576656c2063616c6c206661696c6564815250856001600160a01b03166128039092919063ffffffff16565b805190915015610dd957808060200190518101906125c29190612d1a565b610dd95760405162461bcd60e51b815260206004820152602a60248201527f5361666545524332303a204552433230206f7065726174696f6e20646964206e6044820152691bdd081cdd58d8d9595960b21b6064820152608401610643565b606060006126308360026131c1565b61263b9060026131a9565b67ffffffffffffffff81111561266157634e487b7160e01b600052604160045260246000fd5b6040519080825280601f01601f19166020018201604052801561268b576020820181803683370190505b509050600360fc1b816000815181106126b457634e487b7160e01b600052603260045260246000fd5b60200101906001600160f81b031916908160001a905350600f60fb1b816001815181106126f157634e487b7160e01b600052603260045260246000fd5b60200101906001600160f81b031916908160001a90535060006127158460026131c1565b6127209060016131a9565b90505b60018111156127b4576f181899199a1a9b1b9c1cb0b131b232b360811b85600f166010811061276257634e487b7160e01b600052603260045260246000fd5b1a60f81b82828151811061278657634e487b7160e01b600052603260045260246000fd5b60200101906001600160f81b031916908160001a90535060049490941c936127ad81613223565b9050612723565b5083156123bf5760405162461bcd60e51b815260206004820181905260248201527f537472696e67733a20686578206c656e67746820696e73756666696369656e746044820152606401610643565b6060612812848460008561281a565b949350505050565b60608247101561287b5760405162461bcd60e51b815260206004820152602660248201527f416464726573733a20696e73756666696369656e742062616c616e636520666f6044820152651c8818d85b1b60d21b6064820152608401610643565b843b6128c95760405162461bcd60e51b815260206004820152601d60248201527f416464726573733a2063616c6c20746f206e6f6e2d636f6e74726163740000006044820152606401610643565b600080866001600160a01b031685876040516128e59190612f38565b60006040518083038185875af1925050503d8060008114612922576040519150601f19603f3d011682016040523d82523d6000602084013e612927565b606091505b5091509150612937828286612942565b979650505050505050565b606083156129515750816123bf565b8251156129615782518084602001fd5b8160405162461bcd60e51b81526004016106439190613043565b8280546129879061323a565b90600052602060002090601f0160209004810192826129a957600085556129ef565b82601f106129c257805160ff19168380011785556129ef565b828001600101855582156129ef579182015b828111156129ef5782518255916020019190600101906129d4565b506129fb929150612a73565b5090565b828054612a0b9061323a565b90600052602060002090601f016020900481019282612a2d57600085556129ef565b82601f10612a465782800160ff198235161785556129ef565b828001600101855582156129ef579182015b828111156129ef578235825591602001919060010190612a58565b5b808211156129fb5760008155600101612a74565b60008083601f840112612a99578081fd5b50813567ffffffffffffffff811115612ab0578182fd5b6020830191508360208083028501011115612aca57600080fd5b9250929050565b60008083601f840112612ae2578182fd5b50813567ffffffffffffffff811115612af9578182fd5b602083019150836020828501011115612aca57600080fd5b600060208284031215612b22578081fd5b81356123bf816132bc565b600060208284031215612b3e578081fd5b81516123bf816132bc565b60008060008060808587031215612b5e578283fd5b8435612b69816132bc565b93506020850135612b79816132bc565b925060408501359150606085013567ffffffffffffffff80821115612b9c578283fd5b818701915087601f830112612baf578283fd5b813581811115612bc157612bc16132a6565b604051601f8201601f19908116603f01168101908382118183101715612be957612be96132a6565b816040528281528a6020848701011115612c01578586fd5b82602086016020830137918201602001949094529598949750929550505050565b60008060408385031215612c34578182fd5b8235612c3f816132bc565b946020939093013593505050565b600080600060608486031215612c61578283fd5b8335612c6c816132bc565b95602085013595506040909401359392505050565b600080600060408486031215612c95578283fd5b833567ffffffffffffffff811115612cab578384fd5b612cb786828701612a88565b909790965060209590950135949350505050565b60008060008060608587031215612ce0578384fd5b843567ffffffffffffffff811115612cf6578485fd5b612d0287828801612a88565b90989097506020870135966040013595509350505050565b600060208284031215612d2b578081fd5b815180151581146123bf578182fd5b600060208284031215612d4b578081fd5b5035919050565b60008060408385031215612d64578182fd5b823591506020830135612d76816132bc565b809150509250929050565b600060208284031215612d92578081fd5b81356001600160e01b0319811681146123bf578182fd5b60008060008060408587031215612dbe578384fd5b843567ffffffffffffffff80821115612dd5578586fd5b612de188838901612ad1565b90965094506020870135915080821115612df9578384fd5b50612e0687828801612ad1565b95989497509550505050565b600080600060608486031215612e26578081fd5b833592506020840135612e38816132bc565b929592945050506040919091013590565b600080600080600060608688031215612e60578283fd5b85359450602086013567ffffffffffffffff80821115612e7e578485fd5b612e8a89838a01612ad1565b90965094506040880135915080821115612ea2578283fd5b50612eaf88828901612ad1565b969995985093965092949392505050565b60008060408385031215612ed2578182fd5b50508035926020909101359150565b600080600060608486031215612ef5578081fd5b505081359360208301359350604090920135919050565b60008151808452612f248160208601602086016131f7565b601f01601f19169290920160200192915050565b60008251612f4a8184602087016131f7565b9190910192915050565b60007f416363657373436f6e74726f6c3a206163636f756e742000000000000000000082528351612f8c8160178501602088016131f7565b7001034b99036b4b9b9b4b733903937b6329607d1b6017918401918201528351612fbd8160288401602088016131f7565b01602801949350505050565b6001600160a01b039384168152919092166020820152604081019190915260600190565b6040808252810183905260008460608301825b86811015613030578235613013816132bc565b6001600160a01b0316825260209283019290910190600101613000565b5060209390930193909352509392505050565b6000602082526123bf6020830184612f0c565b600060a0825261306960a0830188612f0c565b828103602084015261307b8188612f0c565b604084019690965250506060810192909252151560809091015292915050565b6020808252601190820152702737ba1030903837b4b73a1030b236b4b760791b604082015260600190565b60208082526012908201527112185cc81b9bdd081c9959da5cdd195c995960721b604082015260600190565b6020808252600e908201526d1d19585b5259081a5b9d985b1a5960921b604082015260600190565b6020808252601290820152712737ba103a34329036b0b4b71030b236b4b760711b604082015260600190565b602080825260139082015272139195081859191c995cdcc81a5b9d985b1a59606a1b604082015260600190565b60008482526040602083015282604083015282846060840137818301606090810191909152601f909201601f1916010192915050565b600082198211156131bc576131bc613290565b500190565b60008160001904831182151516156131db576131db613290565b500290565b6000828210156131f2576131f2613290565b500390565b60005b838110156132125781810151838201526020016131fa565b838111156115e95750506000910152565b60008161323257613232613290565b506000190190565b60028104600182168061324e57607f821691505b6020821081141561326f57634e487b7160e01b600052602260045260246000fd5b50919050565b600060001982141561328957613289613290565b5060010190565b634e487b7160e01b600052601160045260246000fd5b634e487b7160e01b600052604160045260246000fd5b6001600160a01b0381168114610f5257600080fdfe8736816fdbcc15d6cc3f6dcf60e42b0ef33eb02281d312c807a38b4ad09190c0110b44e4bccdedbab0625f137765abddea8ae658791a82fff3fb5e80db2bad48a2646970667358221220f64188d072d17ca363f89841b9a0ba3da86dbc911a82521c226e64af4cfb053064736f6c63430008020033",
  "devdoc": {
    "details": "It is a contract for users to bind their address to a customizable profile by depositing a NFT.",
    "kind": "dev",
    "methods": {
      "addNftAddress(address)": {
        "details": "To add a NFT contract address for users to set their profile. Callable only by owner admins."
      },
      "addTeam(string,string)": {
        "details": "Add a new teamId Callable only by owner admins."
      },
      "changeTeam(address,uint256)": {
        "details": "Function to change team. Callable only by special admins."
      },
      "claimFee(uint256)": {
        "details": "Claim CAKE to burn later. Callable only by owner admins."
      },
      "createProfile(uint256,address,uint256)": {
        "details": "To create a user profile. It sends the NFT to the contract and sends CAKE to burn address. Requires 2 token approvals."
      },
      "getRoleAdmin(bytes32)": {
        "details": "Returns the admin role that controls `role`. See {grantRole} and {revokeRole}. To change a role's admin, use {_setRoleAdmin}."
      },
      "getTeamProfile(uint256)": {
        "details": "Check a team's profile"
      },
      "getUserProfile(address)": {
        "details": "Check the user's profile for a given address"
      },
      "getUserStatus(address)": {
        "details": "Check the user's status for a given address"
      },
      "grantRole(bytes32,address)": {
        "details": "Grants `role` to `account`. If `account` had not been already granted `role`, emits a {RoleGranted} event. Requirements: - the caller must have ``role``'s admin role."
      },
      "hasRole(bytes32,address)": {
        "details": "Returns `true` if `account` has been granted `role`."
      },
      "increaseTeamPoints(uint256,uint256,uint256)": {
        "details": "To increase the number of points for a team. Callable only by point admins"
      },
      "increaseUserPoints(address,uint256,uint256)": {
        "details": "To increase the number of points for a user. Callable only by point admins"
      },
      "increaseUserPointsMultiple(address[],uint256,uint256)": {
        "details": "To increase the number of points for a set of users. Callable only by point admins"
      },
      "makeTeamJoinable(uint256)": {
        "details": "Make a team joinable again. Callable only by owner admins."
      },
      "makeTeamNotJoinable(uint256)": {
        "details": "Make a team not joinable. Callable only by owner admins."
      },
      "onERC721Received(address,address,uint256,bytes)": {
        "details": "See {IERC721Receiver-onERC721Received}. Always returns `IERC721Receiver.onERC721Received.selector`."
      },
      "pauseProfile()": {
        "details": "To pause user profile. It releases the NFT. Callable only by registered users."
      },
      "reactivateProfile(address,uint256)": {
        "details": "To reactivate user profile. Callable only by registered users."
      },
      "removeTeamPoints(uint256,uint256)": {
        "details": "To remove the number of points for a team. Callable only by point admins"
      },
      "removeUserPoints(address,uint256)": {
        "details": "To remove the number of points for a user. Callable only by point admins"
      },
      "removeUserPointsMultiple(address[],uint256)": {
        "details": "To remove a set number of points for a set of users."
      },
      "renameTeam(uint256,string,string)": {
        "details": "Rename a team Callable only by owner admins."
      },
      "renounceRole(bytes32,address)": {
        "details": "Revokes `role` from the calling account. Roles are often managed via {grantRole} and {revokeRole}: this function's purpose is to provide a mechanism for accounts to lose their privileges if they are compromised (such as when a trusted device is misplaced). If the calling account had been revoked `role`, emits a {RoleRevoked} event. Requirements: - the caller must be `account`."
      },
      "revokeRole(bytes32,address)": {
        "details": "Revokes `role` from `account`. If `account` had been granted `role`, emits a {RoleRevoked} event. Requirements: - the caller must have ``role``'s admin role."
      },
      "supportsInterface(bytes4)": {
        "details": "See {IERC165-supportsInterface}."
      },
      "updateNumberCake(uint256,uint256,uint256)": {
        "details": "Update the number of CAKE to register Callable only by owner admins."
      },
      "updateProfile(address,uint256)": {
        "details": "To update user profile. Callable only by registered users."
      }
    },
    "title": "ReactProfile.",
    "version": 1
  },
  "userdoc": {
    "kind": "user",
    "methods": {},
    "version": 1
  },
  "storageLayout": {
    "storage": [
      {
        "astId": 24,
        "contract": "contracts/ReactProfile.sol:ReactProfile",
        "label": "_roles",
        "offset": 0,
        "slot": "0",
        "type": "t_mapping(t_bytes32,t_struct(RoleData)19_storage)"
      },
      {
        "astId": 7437,
        "contract": "contracts/ReactProfile.sol:ReactProfile",
        "label": "cakeToken",
        "offset": 0,
        "slot": "1",
        "type": "t_contract(IERC20)1242"
      },
      {
        "astId": 7454,
        "contract": "contracts/ReactProfile.sol:ReactProfile",
        "label": "numberActiveProfiles",
        "offset": 0,
        "slot": "2",
        "type": "t_uint256"
      },
      {
        "astId": 7456,
        "contract": "contracts/ReactProfile.sol:ReactProfile",
        "label": "numberCakeToReactivate",
        "offset": 0,
        "slot": "3",
        "type": "t_uint256"
      },
      {
        "astId": 7458,
        "contract": "contracts/ReactProfile.sol:ReactProfile",
        "label": "numberCakeToRegister",
        "offset": 0,
        "slot": "4",
        "type": "t_uint256"
      },
      {
        "astId": 7460,
        "contract": "contracts/ReactProfile.sol:ReactProfile",
        "label": "numberCakeToUpdate",
        "offset": 0,
        "slot": "5",
        "type": "t_uint256"
      },
      {
        "astId": 7462,
        "contract": "contracts/ReactProfile.sol:ReactProfile",
        "label": "numberTeams",
        "offset": 0,
        "slot": "6",
        "type": "t_uint256"
      },
      {
        "astId": 7466,
        "contract": "contracts/ReactProfile.sol:ReactProfile",
        "label": "hasRegistered",
        "offset": 0,
        "slot": "7",
        "type": "t_mapping(t_address,t_bool)"
      },
      {
        "astId": 7471,
        "contract": "contracts/ReactProfile.sol:ReactProfile",
        "label": "teams",
        "offset": 0,
        "slot": "8",
        "type": "t_mapping(t_uint256,t_struct(Team)7605_storage)"
      },
      {
        "astId": 7476,
        "contract": "contracts/ReactProfile.sol:ReactProfile",
        "label": "users",
        "offset": 0,
        "slot": "9",
        "type": "t_mapping(t_address,t_struct(User)7618_storage)"
      },
      {
        "astId": 7479,
        "contract": "contracts/ReactProfile.sol:ReactProfile",
        "label": "_countTeams",
        "offset": 0,
        "slot": "10",
        "type": "t_struct(Counter)2828_storage"
      },
      {
        "astId": 7482,
        "contract": "contracts/ReactProfile.sol:ReactProfile",
        "label": "_countUsers",
        "offset": 0,
        "slot": "11",
        "type": "t_struct(Counter)2828_storage"
      }
    ],
    "types": {
      "t_address": {
        "encoding": "inplace",
        "label": "address",
        "numberOfBytes": "20"
      },
      "t_bool": {
        "encoding": "inplace",
        "label": "bool",
        "numberOfBytes": "1"
      },
      "t_bytes32": {
        "encoding": "inplace",
        "label": "bytes32",
        "numberOfBytes": "32"
      },
      "t_contract(IERC20)1242": {
        "encoding": "inplace",
        "label": "contract IERC20",
        "numberOfBytes": "20"
      },
      "t_mapping(t_address,t_bool)": {
        "encoding": "mapping",
        "key": "t_address",
        "label": "mapping(address => bool)",
        "numberOfBytes": "32",
        "value": "t_bool"
      },
      "t_mapping(t_address,t_struct(User)7618_storage)": {
        "encoding": "mapping",
        "key": "t_address",
        "label": "mapping(address => struct ReactProfile.User)",
        "numberOfBytes": "32",
        "value": "t_struct(User)7618_storage"
      },
      "t_mapping(t_bytes32,t_struct(RoleData)19_storage)": {
        "encoding": "mapping",
        "key": "t_bytes32",
        "label": "mapping(bytes32 => struct AccessControl.RoleData)",
        "numberOfBytes": "32",
        "value": "t_struct(RoleData)19_storage"
      },
      "t_mapping(t_uint256,t_struct(Team)7605_storage)": {
        "encoding": "mapping",
        "key": "t_uint256",
        "label": "mapping(uint256 => struct ReactProfile.Team)",
        "numberOfBytes": "32",
        "value": "t_struct(Team)7605_storage"
      },
      "t_string_storage": {
        "encoding": "bytes",
        "label": "string",
        "numberOfBytes": "32"
      },
      "t_struct(Counter)2828_storage": {
        "encoding": "inplace",
        "label": "struct Counters.Counter",
        "members": [
          {
            "astId": 2827,
            "contract": "contracts/ReactProfile.sol:ReactProfile",
            "label": "_value",
            "offset": 0,
            "slot": "0",
            "type": "t_uint256"
          }
        ],
        "numberOfBytes": "32"
      },
      "t_struct(RoleData)19_storage": {
        "encoding": "inplace",
        "label": "struct AccessControl.RoleData",
        "members": [
          {
            "astId": 16,
            "contract": "contracts/ReactProfile.sol:ReactProfile",
            "label": "members",
            "offset": 0,
            "slot": "0",
            "type": "t_mapping(t_address,t_bool)"
          },
          {
            "astId": 18,
            "contract": "contracts/ReactProfile.sol:ReactProfile",
            "label": "adminRole",
            "offset": 0,
            "slot": "1",
            "type": "t_bytes32"
          }
        ],
        "numberOfBytes": "64"
      },
      "t_struct(Team)7605_storage": {
        "encoding": "inplace",
        "label": "struct ReactProfile.Team",
        "members": [
          {
            "astId": 7596,
            "contract": "contracts/ReactProfile.sol:ReactProfile",
            "label": "teamName",
            "offset": 0,
            "slot": "0",
            "type": "t_string_storage"
          },
          {
            "astId": 7598,
            "contract": "contracts/ReactProfile.sol:ReactProfile",
            "label": "teamDescription",
            "offset": 0,
            "slot": "1",
            "type": "t_string_storage"
          },
          {
            "astId": 7600,
            "contract": "contracts/ReactProfile.sol:ReactProfile",
            "label": "numberUsers",
            "offset": 0,
            "slot": "2",
            "type": "t_uint256"
          },
          {
            "astId": 7602,
            "contract": "contracts/ReactProfile.sol:ReactProfile",
            "label": "numberPoints",
            "offset": 0,
            "slot": "3",
            "type": "t_uint256"
          },
          {
            "astId": 7604,
            "contract": "contracts/ReactProfile.sol:ReactProfile",
            "label": "isJoinable",
            "offset": 0,
            "slot": "4",
            "type": "t_bool"
          }
        ],
        "numberOfBytes": "160"
      },
      "t_struct(User)7618_storage": {
        "encoding": "inplace",
        "label": "struct ReactProfile.User",
        "members": [
          {
            "astId": 7607,
            "contract": "contracts/ReactProfile.sol:ReactProfile",
            "label": "userId",
            "offset": 0,
            "slot": "0",
            "type": "t_uint256"
          },
          {
            "astId": 7609,
            "contract": "contracts/ReactProfile.sol:ReactProfile",
            "label": "numberPoints",
            "offset": 0,
            "slot": "1",
            "type": "t_uint256"
          },
          {
            "astId": 7611,
            "contract": "contracts/ReactProfile.sol:ReactProfile",
            "label": "teamId",
            "offset": 0,
            "slot": "2",
            "type": "t_uint256"
          },
          {
            "astId": 7613,
            "contract": "contracts/ReactProfile.sol:ReactProfile",
            "label": "nftAddress",
            "offset": 0,
            "slot": "3",
            "type": "t_address"
          },
          {
            "astId": 7615,
            "contract": "contracts/ReactProfile.sol:ReactProfile",
            "label": "tokenId",
            "offset": 0,
            "slot": "4",
            "type": "t_uint256"
          },
          {
            "astId": 7617,
            "contract": "contracts/ReactProfile.sol:ReactProfile",
            "label": "isActive",
            "offset": 0,
            "slot": "5",
            "type": "t_bool"
          }
        ],
        "numberOfBytes": "192"
      },
      "t_uint256": {
        "encoding": "inplace",
        "label": "uint256",
        "numberOfBytes": "32"
      }
    }
  }
}