{
  "address": "0x3EC9060E52b9B435Db7fDeC55CA33B8bcBaF2D2b",
  "abi": [
    {
      "inputs": [
        {
          "internalType": "contract IERC20Mintable",
          "name": "_react",
          "type": "address"
        },
        {
          "internalType": "contract IERC20MintableBurnable",
          "name": "_syrup",
          "type": "address"
        },
        {
          "internalType": "address",
          "name": "_devaddr",
          "type": "address"
        },
        {
          "internalType": "uint256",
          "name": "_reactPerBlock",
          "type": "uint256"
        },
        {
          "internalType": "uint256",
          "name": "_startBlock",
          "type": "uint256"
        },
        {
          "internalType": "uint256",
          "name": "_bonusEndBlock",
          "type": "uint256"
        }
      ],
      "stateMutability": "nonpayable",
      "type": "constructor"
    },
    {
      "anonymous": false,
      "inputs": [
        {
          "indexed": true,
          "internalType": "address",
          "name": "user",
          "type": "address"
        },
        {
          "indexed": true,
          "internalType": "uint256",
          "name": "pid",
          "type": "uint256"
        },
        {
          "indexed": false,
          "internalType": "uint256",
          "name": "amount",
          "type": "uint256"
        }
      ],
      "name": "Deposit",
      "type": "event"
    },
    {
      "anonymous": false,
      "inputs": [
        {
          "indexed": true,
          "internalType": "address",
          "name": "user",
          "type": "address"
        },
        {
          "indexed": true,
          "internalType": "uint256",
          "name": "pid",
          "type": "uint256"
        },
        {
          "indexed": false,
          "internalType": "uint256",
          "name": "amount",
          "type": "uint256"
        }
      ],
      "name": "EmergencyWithdraw",
      "type": "event"
    },
    {
      "anonymous": false,
      "inputs": [
        {
          "indexed": true,
          "internalType": "address",
          "name": "previousOwner",
          "type": "address"
        },
        {
          "indexed": true,
          "internalType": "address",
          "name": "newOwner",
          "type": "address"
        }
      ],
      "name": "OwnershipTransferred",
      "type": "event"
    },
    {
      "anonymous": false,
      "inputs": [
        {
          "indexed": true,
          "internalType": "address",
          "name": "user",
          "type": "address"
        },
        {
          "indexed": true,
          "internalType": "uint256",
          "name": "pid",
          "type": "uint256"
        },
        {
          "indexed": false,
          "internalType": "uint256",
          "name": "amount",
          "type": "uint256"
        }
      ],
      "name": "Withdraw",
      "type": "event"
    },
    {
      "inputs": [],
      "name": "BONUS_MULTIPLIER",
      "outputs": [
        {
          "internalType": "uint256",
          "name": "",
          "type": "uint256"
        }
      ],
      "stateMutability": "view",
      "type": "function"
    },
    {
      "inputs": [
        {
          "internalType": "uint256",
          "name": "_allocPoint",
          "type": "uint256"
        },
        {
          "internalType": "contract IERC20",
          "name": "_lpToken",
          "type": "address"
        },
        {
          "internalType": "bool",
          "name": "_withUpdate",
          "type": "bool"
        }
      ],
      "name": "add",
      "outputs": [],
      "stateMutability": "nonpayable",
      "type": "function"
    },
    {
      "inputs": [],
      "name": "bonusEndBlock",
      "outputs": [
        {
          "internalType": "uint256",
          "name": "",
          "type": "uint256"
        }
      ],
      "stateMutability": "view",
      "type": "function"
    },
    {
      "inputs": [
        {
          "internalType": "uint256",
          "name": "_pid",
          "type": "uint256"
        },
        {
          "internalType": "uint256",
          "name": "_amount",
          "type": "uint256"
        }
      ],
      "name": "deposit",
      "outputs": [],
      "stateMutability": "nonpayable",
      "type": "function"
    },
    {
      "inputs": [
        {
          "internalType": "address",
          "name": "_devaddr",
          "type": "address"
        }
      ],
      "name": "dev",
      "outputs": [],
      "stateMutability": "nonpayable",
      "type": "function"
    },
    {
      "inputs": [],
      "name": "devaddr",
      "outputs": [
        {
          "internalType": "address",
          "name": "",
          "type": "address"
        }
      ],
      "stateMutability": "view",
      "type": "function"
    },
    {
      "inputs": [
        {
          "internalType": "uint256",
          "name": "_pid",
          "type": "uint256"
        }
      ],
      "name": "emergencyWithdraw",
      "outputs": [],
      "stateMutability": "nonpayable",
      "type": "function"
    },
    {
      "inputs": [
        {
          "internalType": "uint256",
          "name": "_amount",
          "type": "uint256"
        }
      ],
      "name": "enterStaking",
      "outputs": [],
      "stateMutability": "nonpayable",
      "type": "function"
    },
    {
      "inputs": [
        {
          "internalType": "uint256",
          "name": "_from",
          "type": "uint256"
        },
        {
          "internalType": "uint256",
          "name": "_to",
          "type": "uint256"
        }
      ],
      "name": "getMultiplier",
      "outputs": [
        {
          "internalType": "uint256",
          "name": "",
          "type": "uint256"
        }
      ],
      "stateMutability": "view",
      "type": "function"
    },
    {
      "inputs": [
        {
          "internalType": "uint256",
          "name": "_amount",
          "type": "uint256"
        }
      ],
      "name": "leaveStaking",
      "outputs": [],
      "stateMutability": "nonpayable",
      "type": "function"
    },
    {
      "inputs": [],
      "name": "massUpdatePools",
      "outputs": [],
      "stateMutability": "nonpayable",
      "type": "function"
    },
    {
      "inputs": [
        {
          "internalType": "uint256",
          "name": "_pid",
          "type": "uint256"
        }
      ],
      "name": "migrate",
      "outputs": [],
      "stateMutability": "nonpayable",
      "type": "function"
    },
    {
      "inputs": [],
      "name": "migrator",
      "outputs": [
        {
          "internalType": "contract IMigrator",
          "name": "",
          "type": "address"
        }
      ],
      "stateMutability": "view",
      "type": "function"
    },
    {
      "inputs": [],
      "name": "owner",
      "outputs": [
        {
          "internalType": "address",
          "name": "",
          "type": "address"
        }
      ],
      "stateMutability": "view",
      "type": "function"
    },
    {
      "inputs": [
        {
          "internalType": "uint256",
          "name": "_pid",
          "type": "uint256"
        },
        {
          "internalType": "address",
          "name": "_user",
          "type": "address"
        }
      ],
      "name": "pendingReact",
      "outputs": [
        {
          "internalType": "uint256",
          "name": "",
          "type": "uint256"
        }
      ],
      "stateMutability": "view",
      "type": "function"
    },
    {
      "inputs": [
        {
          "internalType": "uint256",
          "name": "",
          "type": "uint256"
        }
      ],
      "name": "poolInfo",
      "outputs": [
        {
          "internalType": "contract IERC20",
          "name": "lpToken",
          "type": "address"
        },
        {
          "internalType": "uint256",
          "name": "allocPoint",
          "type": "uint256"
        },
        {
          "internalType": "uint256",
          "name": "lastRewardBlock",
          "type": "uint256"
        },
        {
          "internalType": "uint256",
          "name": "accReactPerShare",
          "type": "uint256"
        }
      ],
      "stateMutability": "view",
      "type": "function"
    },
    {
      "inputs": [],
      "name": "poolLength",
      "outputs": [
        {
          "internalType": "uint256",
          "name": "",
          "type": "uint256"
        }
      ],
      "stateMutability": "view",
      "type": "function"
    },
    {
      "inputs": [],
      "name": "react",
      "outputs": [
        {
          "internalType": "contract IERC20Mintable",
          "name": "",
          "type": "address"
        }
      ],
      "stateMutability": "view",
      "type": "function"
    },
    {
      "inputs": [],
      "name": "reactPerBlock",
      "outputs": [
        {
          "internalType": "uint256",
          "name": "",
          "type": "uint256"
        }
      ],
      "stateMutability": "view",
      "type": "function"
    },
    {
      "inputs": [],
      "name": "renounceOwnership",
      "outputs": [],
      "stateMutability": "nonpayable",
      "type": "function"
    },
    {
      "inputs": [
        {
          "internalType": "uint256",
          "name": "_pid",
          "type": "uint256"
        },
        {
          "internalType": "uint256",
          "name": "_allocPoint",
          "type": "uint256"
        },
        {
          "internalType": "bool",
          "name": "_withUpdate",
          "type": "bool"
        }
      ],
      "name": "set",
      "outputs": [],
      "stateMutability": "nonpayable",
      "type": "function"
    },
    {
      "inputs": [
        {
          "internalType": "contract IMigrator",
          "name": "_migrator",
          "type": "address"
        }
      ],
      "name": "setMigrator",
      "outputs": [],
      "stateMutability": "nonpayable",
      "type": "function"
    },
    {
      "inputs": [],
      "name": "startBlock",
      "outputs": [
        {
          "internalType": "uint256",
          "name": "",
          "type": "uint256"
        }
      ],
      "stateMutability": "view",
      "type": "function"
    },
    {
      "inputs": [],
      "name": "syrup",
      "outputs": [
        {
          "internalType": "contract IERC20MintableBurnable",
          "name": "",
          "type": "address"
        }
      ],
      "stateMutability": "view",
      "type": "function"
    },
    {
      "inputs": [],
      "name": "totalAllocPoint",
      "outputs": [
        {
          "internalType": "uint256",
          "name": "",
          "type": "uint256"
        }
      ],
      "stateMutability": "view",
      "type": "function"
    },
    {
      "inputs": [
        {
          "internalType": "address",
          "name": "newOwner",
          "type": "address"
        }
      ],
      "name": "transferOwnership",
      "outputs": [],
      "stateMutability": "nonpayable",
      "type": "function"
    },
    {
      "inputs": [
        {
          "internalType": "uint256",
          "name": "k",
          "type": "uint256"
        }
      ],
      "name": "updateBonusMultiplier",
      "outputs": [],
      "stateMutability": "nonpayable",
      "type": "function"
    },
    {
      "inputs": [
        {
          "internalType": "uint256",
          "name": "_pid",
          "type": "uint256"
        }
      ],
      "name": "updatePool",
      "outputs": [],
      "stateMutability": "nonpayable",
      "type": "function"
    },
    {
      "inputs": [
        {
          "internalType": "uint256",
          "name": "divider",
          "type": "uint256"
        }
      ],
      "name": "updateStakingPool",
      "outputs": [],
      "stateMutability": "nonpayable",
      "type": "function"
    },
    {
      "inputs": [
        {
          "internalType": "uint256",
          "name": "",
          "type": "uint256"
        },
        {
          "internalType": "address",
          "name": "",
          "type": "address"
        }
      ],
      "name": "userInfo",
      "outputs": [
        {
          "internalType": "uint256",
          "name": "amount",
          "type": "uint256"
        },
        {
          "internalType": "uint256",
          "name": "rewardDebt",
          "type": "uint256"
        }
      ],
      "stateMutability": "view",
      "type": "function"
    },
    {
      "inputs": [
        {
          "internalType": "uint256",
          "name": "_pid",
          "type": "uint256"
        },
        {
          "internalType": "uint256",
          "name": "_amount",
          "type": "uint256"
        }
      ],
      "name": "withdraw",
      "outputs": [],
      "stateMutability": "nonpayable",
      "type": "function"
    }
  ],
  "transactionHash": "0x9747b06abc39bf2077a32556baf7925743ba3c55fd1fe63cdda1d14e657f4d2e",
  "args": [
    "0x2925293d027391eD3CC24bf4a4B80D072FCBB714",
    "0x74ce4292557bC5e7a86749F84117EAe8706C3D85",
    "0x88888887C3ebD4a33E34a15Db4254C74C75E5D4A",
    "1000000000000000000",
    "0",
    "100000000"
  ],
  "solcInputHash": "dac350dcdb2b51afef353dcc77743026",
  "bytecode": "0x6080604052600a6006556000600a553480156200001b57600080fd5b5060405162002347380380620023478339810160408190526200003e91620001cd565b62000049336200017d565b600180546001600160a01b039788166001600160a01b03199182168117835560028054988a169883169890981790975560038054968916968216969096179095556005939093556004908155600b829055604080516080810182529586526000602087018181529187019384526060870181815260088054968701815582529651949092027ff3f7a9fe364faab93b216da50a3214154f22a0a2b415b23a84c8169e8b636ee38101805495909816949095169390931790955590517ff3f7a9fe364faab93b216da50a3214154f22a0a2b415b23a84c8169e8b636ee4830155517ff3f7a9fe364faab93b216da50a3214154f22a0a2b415b23a84c8169e8b636ee582015590517ff3f7a9fe364faab93b216da50a3214154f22a0a2b415b23a84c8169e8b636ee690910155600a5562000255565b600080546001600160a01b038381166001600160a01b0319831681178455604051919092169283917f8be0079c531659141344cd1fd0a4f28419497f9722a3daafe3b4186f6b6457e09190a35050565b60008060008060008060c08789031215620001e6578182fd5b8651620001f3816200023c565b602088015190965062000206816200023c565b604088015190955062000219816200023c565b80945050606087015192506080870151915060a087015190509295509295509295565b6001600160a01b03811681146200025257600080fd5b50565b6120e280620002656000396000f3fe608060405234801561001057600080fd5b50600436106101e55760003560e01c8063630b5ba11161010f5780638da5cb5b116100a2578063d49e77cd11610071578063d49e77cd1461041d578063e2bbb15814610430578063f2fde38b14610443578063f8c84eaa14610456576101e5565b80638da5cb5b1461039f5780638dbb1e3a146103b057806393f1a40b146103c3578063b5e69b171461040a576101e5565b806386a952c4116100de57806386a952c41461035d5780638791d556146103705780638aa28550146103835780638d88a90e1461038c576101e5565b8063630b5ba11461032757806364482f791461032f578063715018a6146103425780637cd07e471461034a576101e5565b80632d2800f111610187578063454b060811610156578063454b0608146102e557806348cd4cb1146102f857806351eb05a6146103015780635312ea8e14610314576101e5565b80632d2800f11461028b5780633be04efc146102b657806341441d3b146102bf578063441a3e70146102d2576101e5565b806317caf6f1116101c357806317caf6f1146102535780631aed65531461025c5780631eaaa0451461026557806323cf311814610278576101e5565b8063081e3eda146101ea5780631058d281146102015780631526fe2714610216575b600080fd5b6008545b6040519081526020015b60405180910390f35b61021461020f366004611e4c565b610469565b005b610229610224366004611e4c565b61065b565b604080516001600160a01b03909516855260208501939093529183015260608201526080016101f8565b6101ee600a5481565b6101ee60045481565b610214610273366004611eab565b61069f565b610214610286366004611df8565b6107ec565b60015461029e906001600160a01b031681565b6040516001600160a01b0390911681526020016101f8565b6101ee60055481565b6102146102cd366004611e4c565b610838565b6102146102e0366004611eec565b6109d9565b6102146102f3366004611e4c565b610b88565b6101ee600b5481565b61021461030f366004611e4c565b610dfe565b610214610322366004611e4c565b611037565b6102146110e7565b61021461033d366004611f0d565b611112565b6102146111e8565b60075461029e906001600160a01b031681565b60025461029e906001600160a01b031681565b6101ee61037e366004611e7c565b61121e565b6101ee60065481565b61021461039a366004611df8565b61139a565b6000546001600160a01b031661029e565b6101ee6103be366004611eec565b611402565b6103f56103d1366004611e7c565b60096020908152600092835260408084209091529082529020805460019091015482565b604080519283526020830191909152016101f8565b610214610418366004611e4c565b61146b565b60035461029e906001600160a01b031681565b61021461043e366004611eec565b61149a565b610214610451366004611df8565b611604565b610214610464366004611e4c565b61169c565b6000600860008154811061048d57634e487b7160e01b600052603260045260246000fd5b600091825260208083203384527fec8156718a8372b1db44bb411437d0870f3e3790d4a08526d024ce1b0b668f6b90915260409092208054600490920290920192508311156105185760405162461bcd60e51b81526020600482015260126024820152711dda5d1a191c985dce881b9bdd0819dbdbd960721b60448201526064015b60405180910390fd5b6105226000610dfe565b600061055c826001015461055664e8d4a51000610550876003015487600001546117d090919063ffffffff16565b906117e3565b906117ef565b9050801561056e5761056e33826117fb565b831561059857815461058090856117ef565b82558254610598906001600160a01b03163386611993565b600383015482546105b39164e8d4a5100091610550916117d0565b6001830155600254604051632770a7eb60e21b8152336004820152602481018690526001600160a01b0390911690639dc29fac90604401600060405180830381600087803b15801561060457600080fd5b505af1158015610618573d6000803e3d6000fd5b5050604051868152600092503391507ff279e6a1f5e320cca91135676d9cb6e44ca8a08c0b88342bcdb1144f6511b568906020015b60405180910390a350505050565b6008818154811061066b57600080fd5b600091825260209091206004909102018054600182015460028301546003909301546001600160a01b039092169350919084565b6000546001600160a01b031633146106c95760405162461bcd60e51b815260040161050f90611f89565b80156106d7576106d76110e7565b6000600b5443116106ea57600b546106ec565b435b600a549091506106fc90856119f6565b600a55604080516080810182526001600160a01b0394851681526020810195865290810191825260006060820181815260088054600181018255925291517ff3f7a9fe364faab93b216da50a3214154f22a0a2b415b23a84c8169e8b636ee3600490920291820180546001600160a01b031916919096161790945593517ff3f7a9fe364faab93b216da50a3214154f22a0a2b415b23a84c8169e8b636ee4840155517ff3f7a9fe364faab93b216da50a3214154f22a0a2b415b23a84c8169e8b636ee58301555090517ff3f7a9fe364faab93b216da50a3214154f22a0a2b415b23a84c8169e8b636ee690910155565b6000546001600160a01b031633146108165760405162461bcd60e51b815260040161050f90611f89565b600780546001600160a01b0319166001600160a01b0392909216919091179055565b6000600860008154811061085c57634e487b7160e01b600052603260045260246000fd5b600091825260208083203384527fec8156718a8372b1db44bb411437d0870f3e3790d4a08526d024ce1b0b668f6b909152604083206004909202019250906108a390610dfe565b8054156108ec5760006108d8826001015461055664e8d4a51000610550876003015487600001546117d090919063ffffffff16565b905080156108ea576108ea33826117fb565b505b8215610918578154610909906001600160a01b0316333086611a02565b805461091590846119f6565b81555b600382015481546109339164e8d4a5100091610550916117d0565b60018201556002546040516340c10f1960e01b8152336004820152602481018590526001600160a01b03909116906340c10f1990604401600060405180830381600087803b15801561098457600080fd5b505af1158015610998573d6000803e3d6000fd5b5050604051858152600092503391507f90890809c654f11d6e72a28fa60149770a0d11ec6c92319d6ceb2bb0a4ea1a159060200160405180910390a3505050565b81610a265760405162461bcd60e51b815260206004820152601b60248201527f776974686472617720524541435420627920756e7374616b696e670000000000604482015260640161050f565b600060088381548110610a4957634e487b7160e01b600052603260045260246000fd5b600091825260208083208684526009825260408085203386529092529220805460049092029092019250831115610ab75760405162461bcd60e51b81526020600482015260126024820152711dda5d1a191c985dce881b9bdd0819dbdbd960721b604482015260640161050f565b610ac084610dfe565b6000610aee826001015461055664e8d4a51000610550876003015487600001546117d090919063ffffffff16565b90508015610b0057610b0033826117fb565b8315610b2a578154610b1290856117ef565b82558254610b2a906001600160a01b03163386611993565b60038301548254610b459164e8d4a5100091610550916117d0565b6001830155604051848152859033907ff279e6a1f5e320cca91135676d9cb6e44ca8a08c0b88342bcdb1144f6511b5689060200160405180910390a35050505050565b6007546001600160a01b0316610bd75760405162461bcd60e51b815260206004820152601460248201527336b4b3b930ba329d1037379036b4b3b930ba37b960611b604482015260640161050f565b600060088281548110610bfa57634e487b7160e01b600052603260045260246000fd5b60009182526020822060049182020180546040516370a0823160e01b815230938101939093529093506001600160a01b0316919082906370a082319060240160206040518083038186803b158015610c5157600080fd5b505afa158015610c65573d6000803e3d6000fd5b505050506040513d601f19601f82011682018060405250810190610c899190611e64565b600754909150610ca6906001600160a01b03848116911683611a3a565b60075460405163ce5494bb60e01b81526001600160a01b038481166004830152600092169063ce5494bb90602401602060405180830381600087803b158015610cee57600080fd5b505af1158015610d02573d6000803e3d6000fd5b505050506040513d601f19601f82011682018060405250810190610d269190611e30565b6040516370a0823160e01b81523060048201529091506001600160a01b038216906370a082319060240160206040518083038186803b158015610d6857600080fd5b505afa158015610d7c573d6000803e3d6000fd5b505050506040513d601f19601f82011682018060405250810190610da09190611e64565b8214610ddd5760405162461bcd60e51b815260206004820152600c60248201526b1b5a59dc985d194e8818985960a21b604482015260640161050f565b83546001600160a01b0319166001600160a01b039190911617909255505050565b600060088281548110610e2157634e487b7160e01b600052603260045260246000fd5b9060005260206000209060040201905080600201544311610e425750611034565b80546040516370a0823160e01b81523060048201526000916001600160a01b0316906370a082319060240160206040518083038186803b158015610e8557600080fd5b505afa158015610e99573d6000803e3d6000fd5b505050506040513d601f19601f82011682018060405250810190610ebd9190611e64565b905080610ed1575043600290910155611034565b6000610ee1836002015443611402565b90506000610f0e600a546105508660010154610f08600554876117d090919063ffffffff16565b906117d0565b6001546003549192506001600160a01b03908116916340c10f199116610f3584600a6117e3565b6040516001600160e01b031960e085901b1681526001600160a01b0390921660048301526024820152604401600060405180830381600087803b158015610f7b57600080fd5b505af1158015610f8f573d6000803e3d6000fd5b50506001546040516340c10f1960e01b8152306004820152602481018590526001600160a01b0390911692506340c10f199150604401600060405180830381600087803b158015610fdf57600080fd5b505af1158015610ff3573d6000803e3d6000fd5b505050506110216110168461055064e8d4a51000856117d090919063ffffffff16565b6003860154906119f6565b6003850155505043600290920191909155505b50565b60006008828154811061105a57634e487b7160e01b600052603260045260246000fd5b6000918252602080832085845260098252604080852033808752935290932080546004909302909301805490945061109f926001600160a01b03919091169190611993565b8054604051908152839033907fbb757047c2b5f3974fe26b7c10f732e7bce710b0952a71082702781e62ae05959060200160405180910390a360008082556001909101555050565b60085460005b8181101561110e576110fe81610dfe565b61110781612058565b90506110ed565b5050565b6000546001600160a01b0316331461113c5760405162461bcd60e51b815260040161050f90611f89565b801561114a5761114a6110e7565b60006008848154811061116d57634e487b7160e01b600052603260045260246000fd5b906000526020600020906004020160010154905082600885815481106111a357634e487b7160e01b600052603260045260246000fd5b9060005260206000209060040201600101819055508281146111e2576111de836111d883600a546117ef90919063ffffffff16565b906119f6565b600a555b50505050565b6000546001600160a01b031633146112125760405162461bcd60e51b815260040161050f90611f89565b61121c6000611b5e565b565b6000806008848154811061124257634e487b7160e01b600052603260045260246000fd5b600091825260208083208784526009825260408085206001600160a01b038981168752935280852060049485029092016003810154815492516370a0823160e01b8152309681019690965290965091949193919216906370a082319060240160206040518083038186803b1580156112b957600080fd5b505afa1580156112cd573d6000803e3d6000fd5b505050506040513d601f19601f820116820180604052508101906112f19190611e64565b905083600201544311801561130557508015155b1561136557600061131a856002015443611402565b90506000611341600a546105508860010154610f08600554876117d090919063ffffffff16565b9050611360611359846105508464e8d4a510006117d0565b85906119f6565b935050505b61138d836001015461055664e8d4a510006105508688600001546117d090919063ffffffff16565b9450505050505b92915050565b6003546001600160a01b031633146113e05760405162461bcd60e51b81526020600482015260096024820152686465763a207775743f60b81b604482015260640161050f565b600380546001600160a01b0319166001600160a01b0392909216919091179055565b600060045482116114255760065461141e90610f0884866117ef565b9050611394565b60045483106114385761141e82846117ef565b61141e611450600454846117ef90919063ffffffff16565b6111d8600654610f08876004546117ef90919063ffffffff16565b6000546001600160a01b031633146114955760405162461bcd60e51b815260040161050f90611f89565b600655565b816114e75760405162461bcd60e51b815260206004820152601860248201527f6465706f736974205245414354206279207374616b696e670000000000000000604482015260640161050f565b60006008838154811061150a57634e487b7160e01b600052603260045260246000fd5b6000918252602080832086845260098252604080852033865290925292206004909102909101915061153b84610dfe565b805415611584576000611570826001015461055664e8d4a51000610550876003015487600001546117d090919063ffffffff16565b905080156115825761158233826117fb565b505b82156115b05781546115a1906001600160a01b0316333086611a02565b80546115ad90846119f6565b81555b600382015481546115cb9164e8d4a5100091610550916117d0565b6001820155604051838152849033907f90890809c654f11d6e72a28fa60149770a0d11ec6c92319d6ceb2bb0a4ea1a159060200161064d565b6000546001600160a01b0316331461162e5760405162461bcd60e51b815260040161050f90611f89565b6001600160a01b0381166116935760405162461bcd60e51b815260206004820152602660248201527f4f776e61626c653a206e6577206f776e657220697320746865207a65726f206160448201526564647265737360d01b606482015260840161050f565b61103481611b5e565b6000546001600160a01b031633146116c65760405162461bcd60e51b815260040161050f90611f89565b600854600060015b8281101561172d5761171b600882815481106116fa57634e487b7160e01b600052603260045260246000fd5b906000526020600020906004020160010154836119f690919063ffffffff16565b915061172681612058565b90506116ce565b5080156117cb5761173e81846117e3565b905061178c816111d8600860008154811061176957634e487b7160e01b600052603260045260246000fd5b906000526020600020906004020160010154600a546117ef90919063ffffffff16565b600a819055508060086000815481106117b557634e487b7160e01b600052603260045260246000fd5b9060005260206000209060040201600101819055505b505050565b60006117dc8284611ff6565b9392505050565b60006117dc8284611fd6565b60006117dc8284612015565b6001546040516370a0823160e01b81523060048201526000916001600160a01b0316906370a082319060240160206040518083038186803b15801561183f57600080fd5b505afa158015611853573d6000803e3d6000fd5b505050506040513d601f19601f820116820180604052508101906118779190611e64565b90508082111561190d5760015460405163a9059cbb60e01b81526001600160a01b038581166004830152602482018490529091169063a9059cbb90604401602060405180830381600087803b1580156118cf57600080fd5b505af11580156118e3573d6000803e3d6000fd5b505050506040513d601f19601f820116820180604052508101906119079190611e14565b506117cb565b60015460405163a9059cbb60e01b81526001600160a01b038581166004830152602482018590529091169063a9059cbb90604401602060405180830381600087803b15801561195b57600080fd5b505af115801561196f573d6000803e3d6000fd5b505050506040513d601f19601f820116820180604052508101906111e29190611e14565b6040516001600160a01b0383166024820152604481018290526117cb90849063a9059cbb60e01b906064015b60408051601f198184030181529190526020810180516001600160e01b03166001600160e01b031990931692909217909152611bae565b60006117dc8284611fbe565b6040516001600160a01b03808516602483015283166044820152606481018290526111e29085906323b872dd60e01b906084016119bf565b801580611ac35750604051636eb1769f60e11b81523060048201526001600160a01b03838116602483015284169063dd62ed3e9060440160206040518083038186803b158015611a8957600080fd5b505afa158015611a9d573d6000803e3d6000fd5b505050506040513d601f19601f82011682018060405250810190611ac19190611e64565b155b611b2e5760405162461bcd60e51b815260206004820152603660248201527f5361666545524332303a20617070726f76652066726f6d206e6f6e2d7a65726f60448201527520746f206e6f6e2d7a65726f20616c6c6f77616e636560501b606482015260840161050f565b6040516001600160a01b0383166024820152604481018290526117cb90849063095ea7b360e01b906064016119bf565b600080546001600160a01b038381166001600160a01b0319831681178455604051919092169283917f8be0079c531659141344cd1fd0a4f28419497f9722a3daafe3b4186f6b6457e09190a35050565b6000611c03826040518060400160405280602081526020017f5361666545524332303a206c6f772d6c6576656c2063616c6c206661696c6564815250856001600160a01b0316611c809092919063ffffffff16565b8051909150156117cb5780806020019051810190611c219190611e14565b6117cb5760405162461bcd60e51b815260206004820152602a60248201527f5361666545524332303a204552433230206f7065726174696f6e20646964206e6044820152691bdd081cdd58d8d9595960b21b606482015260840161050f565b6060611c8f8484600085611c97565b949350505050565b606082471015611cf85760405162461bcd60e51b815260206004820152602660248201527f416464726573733a20696e73756666696369656e742062616c616e636520666f6044820152651c8818d85b1b60d21b606482015260840161050f565b843b611d465760405162461bcd60e51b815260206004820152601d60248201527f416464726573733a2063616c6c20746f206e6f6e2d636f6e7472616374000000604482015260640161050f565b600080866001600160a01b03168587604051611d629190611f3a565b60006040518083038185875af1925050503d8060008114611d9f576040519150601f19603f3d011682016040523d82523d6000602084013e611da4565b606091505b5091509150611db4828286611dbf565b979650505050505050565b60608315611dce5750816117dc565b825115611dde5782518084602001fd5b8160405162461bcd60e51b815260040161050f9190611f56565b600060208284031215611e09578081fd5b81356117dc81612089565b600060208284031215611e25578081fd5b81516117dc8161209e565b600060208284031215611e41578081fd5b81516117dc81612089565b600060208284031215611e5d578081fd5b5035919050565b600060208284031215611e75578081fd5b5051919050565b60008060408385031215611e8e578081fd5b823591506020830135611ea081612089565b809150509250929050565b600080600060608486031215611ebf578081fd5b833592506020840135611ed181612089565b91506040840135611ee18161209e565b809150509250925092565b60008060408385031215611efe578182fd5b50508035926020909101359150565b600080600060608486031215611f21578283fd5b83359250602084013591506040840135611ee18161209e565b60008251611f4c81846020870161202c565b9190910192915050565b6000602082528251806020840152611f7581604085016020870161202c565b601f01601f19169190910160400192915050565b6020808252818101527f4f776e61626c653a2063616c6c6572206973206e6f7420746865206f776e6572604082015260600190565b60008219821115611fd157611fd1612073565b500190565b600082611ff157634e487b7160e01b81526012600452602481fd5b500490565b600081600019048311821515161561201057612010612073565b500290565b60008282101561202757612027612073565b500390565b60005b8381101561204757818101518382015260200161202f565b838111156111e25750506000910152565b600060001982141561206c5761206c612073565b5060010190565b634e487b7160e01b600052601160045260246000fd5b6001600160a01b038116811461103457600080fd5b801515811461103457600080fdfea26469706673582212207abb30d88dc4e613297cab561b0994c57919dc62d062130a3ea4e949e25a9d0264736f6c63430008020033",
  "devdoc": {
    "kind": "dev",
    "methods": {
      "owner()": {
        "details": "Returns the address of the current owner."
      },
      "renounceOwnership()": {
        "details": "Leaves the contract without owner. It will not be possible to call `onlyOwner` functions anymore. Can only be called by the current owner. NOTE: Renouncing ownership will leave the contract without an owner, thereby removing any functionality that is only available to the owner."
      },
      "transferOwnership(address)": {
        "details": "Transfers ownership of the contract to a new account (`newOwner`). Can only be called by the current owner."
      }
    },
    "version": 1
  },
  "userdoc": {
    "kind": "user",
    "methods": {},
    "version": 1
  },
  "storageLayout": {
    "storage": [
      {
        "astId": 389,
        "contract": "contracts/ReactFarm.sol:ReactFarm",
        "label": "_owner",
        "offset": 0,
        "slot": "0",
        "type": "t_address"
      },
      {
        "astId": 5253,
        "contract": "contracts/ReactFarm.sol:ReactFarm",
        "label": "react",
        "offset": 0,
        "slot": "1",
        "type": "t_contract(IERC20Mintable)5209"
      },
      {
        "astId": 5256,
        "contract": "contracts/ReactFarm.sol:ReactFarm",
        "label": "syrup",
        "offset": 0,
        "slot": "2",
        "type": "t_contract(IERC20MintableBurnable)5226"
      },
      {
        "astId": 5258,
        "contract": "contracts/ReactFarm.sol:ReactFarm",
        "label": "devaddr",
        "offset": 0,
        "slot": "3",
        "type": "t_address"
      },
      {
        "astId": 5260,
        "contract": "contracts/ReactFarm.sol:ReactFarm",
        "label": "bonusEndBlock",
        "offset": 0,
        "slot": "4",
        "type": "t_uint256"
      },
      {
        "astId": 5262,
        "contract": "contracts/ReactFarm.sol:ReactFarm",
        "label": "reactPerBlock",
        "offset": 0,
        "slot": "5",
        "type": "t_uint256"
      },
      {
        "astId": 5265,
        "contract": "contracts/ReactFarm.sol:ReactFarm",
        "label": "BONUS_MULTIPLIER",
        "offset": 0,
        "slot": "6",
        "type": "t_uint256"
      },
      {
        "astId": 5268,
        "contract": "contracts/ReactFarm.sol:ReactFarm",
        "label": "migrator",
        "offset": 0,
        "slot": "7",
        "type": "t_contract(IMigrator)5199"
      },
      {
        "astId": 5272,
        "contract": "contracts/ReactFarm.sol:ReactFarm",
        "label": "poolInfo",
        "offset": 0,
        "slot": "8",
        "type": "t_array(t_struct(PoolInfo)5250_storage)dyn_storage"
      },
      {
        "astId": 5279,
        "contract": "contracts/ReactFarm.sol:ReactFarm",
        "label": "userInfo",
        "offset": 0,
        "slot": "9",
        "type": "t_mapping(t_uint256,t_mapping(t_address,t_struct(UserInfo)5240_storage))"
      },
      {
        "astId": 5282,
        "contract": "contracts/ReactFarm.sol:ReactFarm",
        "label": "totalAllocPoint",
        "offset": 0,
        "slot": "10",
        "type": "t_uint256"
      },
      {
        "astId": 5284,
        "contract": "contracts/ReactFarm.sol:ReactFarm",
        "label": "startBlock",
        "offset": 0,
        "slot": "11",
        "type": "t_uint256"
      }
    ],
    "types": {
      "t_address": {
        "encoding": "inplace",
        "label": "address",
        "numberOfBytes": "20"
      },
      "t_array(t_struct(PoolInfo)5250_storage)dyn_storage": {
        "base": "t_struct(PoolInfo)5250_storage",
        "encoding": "dynamic_array",
        "label": "struct ReactFarm.PoolInfo[]",
        "numberOfBytes": "32"
      },
      "t_contract(IERC20)1242": {
        "encoding": "inplace",
        "label": "contract IERC20",
        "numberOfBytes": "20"
      },
      "t_contract(IERC20Mintable)5209": {
        "encoding": "inplace",
        "label": "contract IERC20Mintable",
        "numberOfBytes": "20"
      },
      "t_contract(IERC20MintableBurnable)5226": {
        "encoding": "inplace",
        "label": "contract IERC20MintableBurnable",
        "numberOfBytes": "20"
      },
      "t_contract(IMigrator)5199": {
        "encoding": "inplace",
        "label": "contract IMigrator",
        "numberOfBytes": "20"
      },
      "t_mapping(t_address,t_struct(UserInfo)5240_storage)": {
        "encoding": "mapping",
        "key": "t_address",
        "label": "mapping(address => struct ReactFarm.UserInfo)",
        "numberOfBytes": "32",
        "value": "t_struct(UserInfo)5240_storage"
      },
      "t_mapping(t_uint256,t_mapping(t_address,t_struct(UserInfo)5240_storage))": {
        "encoding": "mapping",
        "key": "t_uint256",
        "label": "mapping(uint256 => mapping(address => struct ReactFarm.UserInfo))",
        "numberOfBytes": "32",
        "value": "t_mapping(t_address,t_struct(UserInfo)5240_storage)"
      },
      "t_struct(PoolInfo)5250_storage": {
        "encoding": "inplace",
        "label": "struct ReactFarm.PoolInfo",
        "members": [
          {
            "astId": 5243,
            "contract": "contracts/ReactFarm.sol:ReactFarm",
            "label": "lpToken",
            "offset": 0,
            "slot": "0",
            "type": "t_contract(IERC20)1242"
          },
          {
            "astId": 5245,
            "contract": "contracts/ReactFarm.sol:ReactFarm",
            "label": "allocPoint",
            "offset": 0,
            "slot": "1",
            "type": "t_uint256"
          },
          {
            "astId": 5247,
            "contract": "contracts/ReactFarm.sol:ReactFarm",
            "label": "lastRewardBlock",
            "offset": 0,
            "slot": "2",
            "type": "t_uint256"
          },
          {
            "astId": 5249,
            "contract": "contracts/ReactFarm.sol:ReactFarm",
            "label": "accReactPerShare",
            "offset": 0,
            "slot": "3",
            "type": "t_uint256"
          }
        ],
        "numberOfBytes": "128"
      },
      "t_struct(UserInfo)5240_storage": {
        "encoding": "inplace",
        "label": "struct ReactFarm.UserInfo",
        "members": [
          {
            "astId": 5237,
            "contract": "contracts/ReactFarm.sol:ReactFarm",
            "label": "amount",
            "offset": 0,
            "slot": "0",
            "type": "t_uint256"
          },
          {
            "astId": 5239,
            "contract": "contracts/ReactFarm.sol:ReactFarm",
            "label": "rewardDebt",
            "offset": 0,
            "slot": "1",
            "type": "t_uint256"
          }
        ],
        "numberOfBytes": "64"
      },
      "t_uint256": {
        "encoding": "inplace",
        "label": "uint256",
        "numberOfBytes": "32"
      }
    }
  }
}