{
  "address": "0x07A7d038EB2DC9aCCeeFBDf28cBef21Df68b1616",
  "abi": [
    {
      "inputs": [
        {
          "internalType": "address",
          "name": "_factory",
          "type": "address"
        },
        {
          "internalType": "address",
          "name": "_WETH",
          "type": "address"
        }
      ],
      "stateMutability": "nonpayable",
      "type": "constructor"
    },
    {
      "inputs": [],
      "name": "MAX_INT",
      "outputs": [
        {
          "internalType": "uint256",
          "name": "",
          "type": "uint256"
        }
      ],
      "stateMutability": "view",
      "type": "function"
    },
    {
      "inputs": [],
      "name": "WETH",
      "outputs": [
        {
          "internalType": "address",
          "name": "",
          "type": "address"
        }
      ],
      "stateMutability": "view",
      "type": "function"
    },
    {
      "inputs": [
        {
          "internalType": "address",
          "name": "tokenA",
          "type": "address"
        },
        {
          "internalType": "address",
          "name": "tokenB",
          "type": "address"
        },
        {
          "internalType": "uint256",
          "name": "amountADesired",
          "type": "uint256"
        },
        {
          "internalType": "uint256",
          "name": "amountBDesired",
          "type": "uint256"
        },
        {
          "internalType": "uint256",
          "name": "amountAMin",
          "type": "uint256"
        },
        {
          "internalType": "uint256",
          "name": "amountBMin",
          "type": "uint256"
        },
        {
          "internalType": "address",
          "name": "to",
          "type": "address"
        },
        {
          "internalType": "uint256",
          "name": "deadline",
          "type": "uint256"
        }
      ],
      "name": "addLiquidity",
      "outputs": [
        {
          "internalType": "uint256",
          "name": "amountA",
          "type": "uint256"
        },
        {
          "internalType": "uint256",
          "name": "amountB",
          "type": "uint256"
        },
        {
          "internalType": "uint256",
          "name": "liquidity",
          "type": "uint256"
        }
      ],
      "stateMutability": "nonpayable",
      "type": "function"
    },
    {
      "inputs": [
        {
          "internalType": "address",
          "name": "token",
          "type": "address"
        },
        {
          "internalType": "uint256",
          "name": "amountTokenDesired",
          "type": "uint256"
        },
        {
          "internalType": "uint256",
          "name": "amountTokenMin",
          "type": "uint256"
        },
        {
          "internalType": "uint256",
          "name": "amountETHMin",
          "type": "uint256"
        },
        {
          "internalType": "address",
          "name": "to",
          "type": "address"
        },
        {
          "internalType": "uint256",
          "name": "deadline",
          "type": "uint256"
        }
      ],
      "name": "addLiquidityETH",
      "outputs": [
        {
          "internalType": "uint256",
          "name": "amountToken",
          "type": "uint256"
        },
        {
          "internalType": "uint256",
          "name": "amountETH",
          "type": "uint256"
        },
        {
          "internalType": "uint256",
          "name": "liquidity",
          "type": "uint256"
        }
      ],
      "stateMutability": "payable",
      "type": "function"
    },
    {
      "inputs": [],
      "name": "factory",
      "outputs": [
        {
          "internalType": "address",
          "name": "",
          "type": "address"
        }
      ],
      "stateMutability": "view",
      "type": "function"
    },
    {
      "inputs": [
        {
          "internalType": "uint256",
          "name": "amountOut",
          "type": "uint256"
        },
        {
          "internalType": "uint256",
          "name": "reserveIn",
          "type": "uint256"
        },
        {
          "internalType": "uint256",
          "name": "reserveOut",
          "type": "uint256"
        }
      ],
      "name": "getAmountIn",
      "outputs": [
        {
          "internalType": "uint256",
          "name": "amountIn",
          "type": "uint256"
        }
      ],
      "stateMutability": "pure",
      "type": "function"
    },
    {
      "inputs": [
        {
          "internalType": "uint256",
          "name": "amountIn",
          "type": "uint256"
        },
        {
          "internalType": "uint256",
          "name": "reserveIn",
          "type": "uint256"
        },
        {
          "internalType": "uint256",
          "name": "reserveOut",
          "type": "uint256"
        }
      ],
      "name": "getAmountOut",
      "outputs": [
        {
          "internalType": "uint256",
          "name": "amountOut",
          "type": "uint256"
        }
      ],
      "stateMutability": "pure",
      "type": "function"
    },
    {
      "inputs": [
        {
          "internalType": "uint256",
          "name": "amountOut",
          "type": "uint256"
        },
        {
          "internalType": "address[]",
          "name": "path",
          "type": "address[]"
        }
      ],
      "name": "getAmountsIn",
      "outputs": [
        {
          "internalType": "uint256[]",
          "name": "amounts",
          "type": "uint256[]"
        }
      ],
      "stateMutability": "view",
      "type": "function"
    },
    {
      "inputs": [
        {
          "internalType": "uint256",
          "name": "amountIn",
          "type": "uint256"
        },
        {
          "internalType": "address[]",
          "name": "path",
          "type": "address[]"
        }
      ],
      "name": "getAmountsOut",
      "outputs": [
        {
          "internalType": "uint256[]",
          "name": "amounts",
          "type": "uint256[]"
        }
      ],
      "stateMutability": "view",
      "type": "function"
    },
    {
      "inputs": [
        {
          "internalType": "uint256",
          "name": "amountA",
          "type": "uint256"
        },
        {
          "internalType": "uint256",
          "name": "reserveA",
          "type": "uint256"
        },
        {
          "internalType": "uint256",
          "name": "reserveB",
          "type": "uint256"
        }
      ],
      "name": "quote",
      "outputs": [
        {
          "internalType": "uint256",
          "name": "amountB",
          "type": "uint256"
        }
      ],
      "stateMutability": "pure",
      "type": "function"
    },
    {
      "inputs": [
        {
          "internalType": "address",
          "name": "tokenA",
          "type": "address"
        },
        {
          "internalType": "address",
          "name": "tokenB",
          "type": "address"
        },
        {
          "internalType": "uint256",
          "name": "liquidity",
          "type": "uint256"
        },
        {
          "internalType": "uint256",
          "name": "amountAMin",
          "type": "uint256"
        },
        {
          "internalType": "uint256",
          "name": "amountBMin",
          "type": "uint256"
        },
        {
          "internalType": "address",
          "name": "to",
          "type": "address"
        },
        {
          "internalType": "uint256",
          "name": "deadline",
          "type": "uint256"
        }
      ],
      "name": "removeLiquidity",
      "outputs": [
        {
          "internalType": "uint256",
          "name": "amountA",
          "type": "uint256"
        },
        {
          "internalType": "uint256",
          "name": "amountB",
          "type": "uint256"
        }
      ],
      "stateMutability": "nonpayable",
      "type": "function"
    },
    {
      "inputs": [
        {
          "internalType": "address",
          "name": "token",
          "type": "address"
        },
        {
          "internalType": "uint256",
          "name": "liquidity",
          "type": "uint256"
        },
        {
          "internalType": "uint256",
          "name": "amountTokenMin",
          "type": "uint256"
        },
        {
          "internalType": "uint256",
          "name": "amountETHMin",
          "type": "uint256"
        },
        {
          "internalType": "address",
          "name": "to",
          "type": "address"
        },
        {
          "internalType": "uint256",
          "name": "deadline",
          "type": "uint256"
        }
      ],
      "name": "removeLiquidityETH",
      "outputs": [
        {
          "internalType": "uint256",
          "name": "amountToken",
          "type": "uint256"
        },
        {
          "internalType": "uint256",
          "name": "amountETH",
          "type": "uint256"
        }
      ],
      "stateMutability": "nonpayable",
      "type": "function"
    },
    {
      "inputs": [
        {
          "internalType": "address",
          "name": "token",
          "type": "address"
        },
        {
          "internalType": "uint256",
          "name": "liquidity",
          "type": "uint256"
        },
        {
          "internalType": "uint256",
          "name": "amountTokenMin",
          "type": "uint256"
        },
        {
          "internalType": "uint256",
          "name": "amountETHMin",
          "type": "uint256"
        },
        {
          "internalType": "address",
          "name": "to",
          "type": "address"
        },
        {
          "internalType": "uint256",
          "name": "deadline",
          "type": "uint256"
        }
      ],
      "name": "removeLiquidityETHSupportingFeeOnTransferTokens",
      "outputs": [
        {
          "internalType": "uint256",
          "name": "amountETH",
          "type": "uint256"
        }
      ],
      "stateMutability": "nonpayable",
      "type": "function"
    },
    {
      "inputs": [
        {
          "internalType": "address",
          "name": "token",
          "type": "address"
        },
        {
          "internalType": "uint256",
          "name": "liquidity",
          "type": "uint256"
        },
        {
          "internalType": "uint256",
          "name": "amountTokenMin",
          "type": "uint256"
        },
        {
          "internalType": "uint256",
          "name": "amountETHMin",
          "type": "uint256"
        },
        {
          "internalType": "address",
          "name": "to",
          "type": "address"
        },
        {
          "internalType": "uint256",
          "name": "deadline",
          "type": "uint256"
        },
        {
          "internalType": "bool",
          "name": "approveMax",
          "type": "bool"
        },
        {
          "internalType": "uint8",
          "name": "v",
          "type": "uint8"
        },
        {
          "internalType": "bytes32",
          "name": "r",
          "type": "bytes32"
        },
        {
          "internalType": "bytes32",
          "name": "s",
          "type": "bytes32"
        }
      ],
      "name": "removeLiquidityETHWithPermit",
      "outputs": [
        {
          "internalType": "uint256",
          "name": "amountToken",
          "type": "uint256"
        },
        {
          "internalType": "uint256",
          "name": "amountETH",
          "type": "uint256"
        }
      ],
      "stateMutability": "nonpayable",
      "type": "function"
    },
    {
      "inputs": [
        {
          "internalType": "address",
          "name": "token",
          "type": "address"
        },
        {
          "internalType": "uint256",
          "name": "liquidity",
          "type": "uint256"
        },
        {
          "internalType": "uint256",
          "name": "amountTokenMin",
          "type": "uint256"
        },
        {
          "internalType": "uint256",
          "name": "amountETHMin",
          "type": "uint256"
        },
        {
          "internalType": "address",
          "name": "to",
          "type": "address"
        },
        {
          "internalType": "uint256",
          "name": "deadline",
          "type": "uint256"
        },
        {
          "internalType": "bool",
          "name": "approveMax",
          "type": "bool"
        },
        {
          "internalType": "uint8",
          "name": "v",
          "type": "uint8"
        },
        {
          "internalType": "bytes32",
          "name": "r",
          "type": "bytes32"
        },
        {
          "internalType": "bytes32",
          "name": "s",
          "type": "bytes32"
        }
      ],
      "name": "removeLiquidityETHWithPermitSupportingFeeOnTransferTokens",
      "outputs": [
        {
          "internalType": "uint256",
          "name": "amountETH",
          "type": "uint256"
        }
      ],
      "stateMutability": "nonpayable",
      "type": "function"
    },
    {
      "inputs": [
        {
          "internalType": "address",
          "name": "tokenA",
          "type": "address"
        },
        {
          "internalType": "address",
          "name": "tokenB",
          "type": "address"
        },
        {
          "internalType": "uint256",
          "name": "liquidity",
          "type": "uint256"
        },
        {
          "internalType": "uint256",
          "name": "amountAMin",
          "type": "uint256"
        },
        {
          "internalType": "uint256",
          "name": "amountBMin",
          "type": "uint256"
        },
        {
          "internalType": "address",
          "name": "to",
          "type": "address"
        },
        {
          "internalType": "uint256",
          "name": "deadline",
          "type": "uint256"
        },
        {
          "internalType": "bool",
          "name": "approveMax",
          "type": "bool"
        },
        {
          "internalType": "uint8",
          "name": "v",
          "type": "uint8"
        },
        {
          "internalType": "bytes32",
          "name": "r",
          "type": "bytes32"
        },
        {
          "internalType": "bytes32",
          "name": "s",
          "type": "bytes32"
        }
      ],
      "name": "removeLiquidityWithPermit",
      "outputs": [
        {
          "internalType": "uint256",
          "name": "amountA",
          "type": "uint256"
        },
        {
          "internalType": "uint256",
          "name": "amountB",
          "type": "uint256"
        }
      ],
      "stateMutability": "nonpayable",
      "type": "function"
    },
    {
      "inputs": [
        {
          "internalType": "uint256",
          "name": "amountOut",
          "type": "uint256"
        },
        {
          "internalType": "address[]",
          "name": "path",
          "type": "address[]"
        },
        {
          "internalType": "address",
          "name": "to",
          "type": "address"
        },
        {
          "internalType": "uint256",
          "name": "deadline",
          "type": "uint256"
        }
      ],
      "name": "swapETHForExactTokens",
      "outputs": [
        {
          "internalType": "uint256[]",
          "name": "amounts",
          "type": "uint256[]"
        }
      ],
      "stateMutability": "payable",
      "type": "function"
    },
    {
      "inputs": [
        {
          "internalType": "uint256",
          "name": "amountOutMin",
          "type": "uint256"
        },
        {
          "internalType": "address[]",
          "name": "path",
          "type": "address[]"
        },
        {
          "internalType": "address",
          "name": "to",
          "type": "address"
        },
        {
          "internalType": "uint256",
          "name": "deadline",
          "type": "uint256"
        }
      ],
      "name": "swapExactETHForTokens",
      "outputs": [
        {
          "internalType": "uint256[]",
          "name": "amounts",
          "type": "uint256[]"
        }
      ],
      "stateMutability": "payable",
      "type": "function"
    },
    {
      "inputs": [
        {
          "internalType": "uint256",
          "name": "amountOutMin",
          "type": "uint256"
        },
        {
          "internalType": "address[]",
          "name": "path",
          "type": "address[]"
        },
        {
          "internalType": "address",
          "name": "to",
          "type": "address"
        },
        {
          "internalType": "uint256",
          "name": "deadline",
          "type": "uint256"
        }
      ],
      "name": "swapExactETHForTokensSupportingFeeOnTransferTokens",
      "outputs": [],
      "stateMutability": "payable",
      "type": "function"
    },
    {
      "inputs": [
        {
          "internalType": "uint256",
          "name": "amountIn",
          "type": "uint256"
        },
        {
          "internalType": "uint256",
          "name": "amountOutMin",
          "type": "uint256"
        },
        {
          "internalType": "address[]",
          "name": "path",
          "type": "address[]"
        },
        {
          "internalType": "address",
          "name": "to",
          "type": "address"
        },
        {
          "internalType": "uint256",
          "name": "deadline",
          "type": "uint256"
        }
      ],
      "name": "swapExactTokensForETH",
      "outputs": [
        {
          "internalType": "uint256[]",
          "name": "amounts",
          "type": "uint256[]"
        }
      ],
      "stateMutability": "nonpayable",
      "type": "function"
    },
    {
      "inputs": [
        {
          "internalType": "uint256",
          "name": "amountIn",
          "type": "uint256"
        },
        {
          "internalType": "uint256",
          "name": "amountOutMin",
          "type": "uint256"
        },
        {
          "internalType": "address[]",
          "name": "path",
          "type": "address[]"
        },
        {
          "internalType": "address",
          "name": "to",
          "type": "address"
        },
        {
          "internalType": "uint256",
          "name": "deadline",
          "type": "uint256"
        }
      ],
      "name": "swapExactTokensForETHSupportingFeeOnTransferTokens",
      "outputs": [],
      "stateMutability": "nonpayable",
      "type": "function"
    },
    {
      "inputs": [
        {
          "internalType": "uint256",
          "name": "amountIn",
          "type": "uint256"
        },
        {
          "internalType": "uint256",
          "name": "amountOutMin",
          "type": "uint256"
        },
        {
          "internalType": "address[]",
          "name": "path",
          "type": "address[]"
        },
        {
          "internalType": "address",
          "name": "to",
          "type": "address"
        },
        {
          "internalType": "uint256",
          "name": "deadline",
          "type": "uint256"
        }
      ],
      "name": "swapExactTokensForTokens",
      "outputs": [
        {
          "internalType": "uint256[]",
          "name": "amounts",
          "type": "uint256[]"
        }
      ],
      "stateMutability": "nonpayable",
      "type": "function"
    },
    {
      "inputs": [
        {
          "internalType": "uint256",
          "name": "amountIn",
          "type": "uint256"
        },
        {
          "internalType": "uint256",
          "name": "amountOutMin",
          "type": "uint256"
        },
        {
          "internalType": "address[]",
          "name": "path",
          "type": "address[]"
        },
        {
          "internalType": "address",
          "name": "to",
          "type": "address"
        },
        {
          "internalType": "uint256",
          "name": "deadline",
          "type": "uint256"
        }
      ],
      "name": "swapExactTokensForTokensSupportingFeeOnTransferTokens",
      "outputs": [],
      "stateMutability": "nonpayable",
      "type": "function"
    },
    {
      "inputs": [
        {
          "internalType": "uint256",
          "name": "amountOut",
          "type": "uint256"
        },
        {
          "internalType": "uint256",
          "name": "amountInMax",
          "type": "uint256"
        },
        {
          "internalType": "address[]",
          "name": "path",
          "type": "address[]"
        },
        {
          "internalType": "address",
          "name": "to",
          "type": "address"
        },
        {
          "internalType": "uint256",
          "name": "deadline",
          "type": "uint256"
        }
      ],
      "name": "swapTokensForExactETH",
      "outputs": [
        {
          "internalType": "uint256[]",
          "name": "amounts",
          "type": "uint256[]"
        }
      ],
      "stateMutability": "nonpayable",
      "type": "function"
    },
    {
      "inputs": [
        {
          "internalType": "uint256",
          "name": "amountOut",
          "type": "uint256"
        },
        {
          "internalType": "uint256",
          "name": "amountInMax",
          "type": "uint256"
        },
        {
          "internalType": "address[]",
          "name": "path",
          "type": "address[]"
        },
        {
          "internalType": "address",
          "name": "to",
          "type": "address"
        },
        {
          "internalType": "uint256",
          "name": "deadline",
          "type": "uint256"
        }
      ],
      "name": "swapTokensForExactTokens",
      "outputs": [
        {
          "internalType": "uint256[]",
          "name": "amounts",
          "type": "uint256[]"
        }
      ],
      "stateMutability": "nonpayable",
      "type": "function"
    },
    {
      "stateMutability": "payable",
      "type": "receive"
    }
  ],
  "transactionHash": "0xd4932f91ccdf4d652180556c1a670b95519b2f2b028bdfe6ca9732c3408bdc46",
  "args": [
    "0xff6dca94678a420190aAee00485c5F2d1B6bae7e",
    "0xc778417E063141139Fce010982780140Aa0cD5Ab"
  ],
  "solcInputHash": "d02081c84e8df7996569a58cbe28e379",
  "bytecode": "0x60c06040523480156200001157600080fd5b50604051620046a1380380620046a1833981016040819052620000349162000070565b6001600160601b0319606092831b8116608052911b1660a052620000a7565b80516001600160a01b03811681146200006b57600080fd5b919050565b6000806040838503121562000083578182fd5b6200008e8362000053565b91506200009e6020840162000053565b90509250929050565b60805160601c60a05160601c6144626200023f6000396000818161017a015281816103ac01528181610561015281816105b00152818161066c015281816108e301528181610c5201528181610da90152818161115d0152818161125c01528181611316015281816113a9015281816114e30152818161157f0152818161180e015281816118d501528181611966015281816119f101528181611a6501528181611f8001528181612180015281816121d60152818161220a0152818161229f015281816124040152818161253201526125ce01526000818161046b015281816106f6015281816107e4015281816109e501528181610a1c01528181610b1301528181610cdc01528181610d8701528181610ecc01528181611432015281816115b10152818161173501528181611a9701528181611d0c01528181611f2e01528181611f5e01528181612087015281816121b40152818161248d0152818161260001528181612f6901528181612fc70152818161330201528181613479015281816137e001528181613892015261391801526144626000f3fe60806040526004361061016a5760003560e01c806385f8c259116100d1578063baa2abde1161008a578063ded9382a11610064578063ded9382a146104ad578063e8e33700146104cd578063f305d71914610508578063fb3bdb411461051b576101b7565b8063baa2abde14610439578063c45a015514610459578063d06ca61f1461048d576101b7565b806385f8c2591461035a5780638803dbee1461037a578063ad5c46481461039a578063ad615dec146103e6578063af2979eb14610406578063b6f9de9514610426576101b7565b806338ed17391161012357806338ed1739146102a75780634a25d94a146102c75780635b0d5984146102e75780635c11d79514610307578063791ac947146103275780637ff36ab514610347576101b7565b806302751cec146101bc578063054d50d4146101f6578063098d32281461022457806318cbafe51461023a5780631f00ca74146102675780632195995c14610287576101b7565b366101b757336001600160a01b037f000000000000000000000000000000000000000000000000000000000000000016146101b557634e487b7160e01b600052600160045260246000fd5b005b600080fd5b3480156101c857600080fd5b506101dc6101d7366004613d9b565b61052e565b604080519283526020830191909152015b60405180910390f35b34801561020257600080fd5b506102166102113660046140da565b61062a565b6040519081526020016101ed565b34801561023057600080fd5b5061021660001981565b34801561024657600080fd5b5061025a610255366004614069565b61063f565b6040516101ed9190614162565b34801561027357600080fd5b5061025a610282366004613f74565b6109de565b34801561029357600080fd5b506101dc6102a2366004613c77565b610a12565b3480156102b357600080fd5b5061025a6102c2366004614069565b610aeb565b3480156102d357600080fd5b5061025a6102e2366004614069565b610c25565b3480156102f357600080fd5b50610216610302366004613df8565b610d7f565b34801561031357600080fd5b506101b5610322366004614069565b610e6c565b34801561033357600080fd5b506101b5610342366004614069565b611132565b61025a610355366004613f0f565b611384565b34801561036657600080fd5b506102166103753660046140da565b611700565b34801561038657600080fd5b5061025a610395366004614069565b61170d565b3480156103a657600080fd5b506103ce7f000000000000000000000000000000000000000000000000000000000000000081565b6040516001600160a01b0390911681526020016101ed565b3480156103f257600080fd5b506102166104013660046140da565b6117d8565b34801561041257600080fd5b50610216610421366004613d9b565b6117e5565b6101b5610434366004613f0f565b611943565b34801561044557600080fd5b506101dc610454366004613c06565b611ce1565b34801561046557600080fd5b506103ce7f000000000000000000000000000000000000000000000000000000000000000081565b34801561049957600080fd5b5061025a6104a8366004613f74565b611f27565b3480156104b957600080fd5b506101dc6104c8366004613df8565b611f54565b3480156104d957600080fd5b506104ed6104e8366004613d20565b612047565b604080519384526020840192909252908201526060016101ed565b6104ed610516366004613d9b565b612154565b61025a610529366004613f0f565b6123df565b600080824281101561055b5760405162461bcd60e51b815260040161055290614253565b60405180910390fd5b61058a897f00000000000000000000000000000000000000000000000000000000000000008a8a8a308a611ce1565b909350915061059a8986856127ad565b604051632e1a7d4d60e01b8152600481018390527f00000000000000000000000000000000000000000000000000000000000000006001600160a01b031690632e1a7d4d90602401600060405180830381600087803b1580156105fc57600080fd5b505af1158015610610573d6000803e3d6000fd5b5050505061061e85836128c8565b50965096945050505050565b6000610637848484612996565b949350505050565b606081428110156106625760405162461bcd60e51b815260040161055290614253565b6001600160a01b037f0000000000000000000000000000000000000000000000000000000000000000168686610699600182614365565b8181106106b657634e487b7160e01b600052603260045260246000fd5b90506020020160208101906106cb9190613bce565b6001600160a01b0316146106f15760405162461bcd60e51b8152600401610552906141a6565b61074f7f000000000000000000000000000000000000000000000000000000000000000089888880806020026020016040519081016040528093929190818152602001838360200280828437600092019190915250612a7492505050565b91508682600184516107619190614365565b8151811061077f57634e487b7160e01b600052603260045260246000fd5b602002602001015110156107a55760405162461bcd60e51b81526004016105529061427c565b6108a2868660008181106107c957634e487b7160e01b600052603260045260246000fd5b90506020020160208101906107de9190613bce565b336108747f00000000000000000000000000000000000000000000000000000000000000008a8a600081811061082457634e487b7160e01b600052603260045260246000fd5b90506020020160208101906108399190613bce565b8b8b600181811061085a57634e487b7160e01b600052603260045260246000fd5b905060200201602081019061086f9190613bce565b612c53565b8560008151811061089557634e487b7160e01b600052603260045260246000fd5b6020026020010151612d2c565b6108e182878780806020026020016040519081016040528093929190818152602001838360200280828437600092019190915250309250612e5c915050565b7f00000000000000000000000000000000000000000000000000000000000000006001600160a01b0316632e1a7d4d836001855161091f9190614365565b8151811061093d57634e487b7160e01b600052603260045260246000fd5b60200260200101516040518263ffffffff1660e01b815260040161096391815260200190565b600060405180830381600087803b15801561097d57600080fd5b505af1158015610991573d6000803e3d6000fd5b505050506109d38483600185516109a89190614365565b815181106109c657634e487b7160e01b600052603260045260246000fd5b60200260200101516128c8565b509695505050505050565b6060610a0b7f0000000000000000000000000000000000000000000000000000000000000000848461309c565b9392505050565b6000806000610a427f00000000000000000000000000000000000000000000000000000000000000008f8f612c53565b9050600087610a51578c610a55565b6000195b60405163d505accf60e01b81529091506001600160a01b0383169063d505accf90610a90903390309086908f908e908e908e90600401614121565b600060405180830381600087803b158015610aaa57600080fd5b505af1158015610abe573d6000803e3d6000fd5b50505050610ad18f8f8f8f8f8f8f611ce1565b809450819550505050509b509b9950505050505050505050565b60608142811015610b0e5760405162461bcd60e51b815260040161055290614253565b610b6c7f000000000000000000000000000000000000000000000000000000000000000089888880806020026020016040519081016040528093929190818152602001838360200280828437600092019190915250612a7492505050565b9150868260018451610b7e9190614365565b81518110610b9c57634e487b7160e01b600052603260045260246000fd5b60200260200101511015610bc25760405162461bcd60e51b81526004016105529061427c565b610be6868660008181106107c957634e487b7160e01b600052603260045260246000fd5b6109d382878780806020026020016040519081016040528093929190818152602001838360200280828437600092019190915250899250612e5c915050565b60608142811015610c485760405162461bcd60e51b815260040161055290614253565b6001600160a01b037f0000000000000000000000000000000000000000000000000000000000000000168686610c7f600182614365565b818110610c9c57634e487b7160e01b600052603260045260246000fd5b9050602002016020810190610cb19190613bce565b6001600160a01b031614610cd75760405162461bcd60e51b8152600401610552906141a6565b610d357f00000000000000000000000000000000000000000000000000000000000000008988888080602002602001604051908101604052809392919081815260200183836020028082843760009201919091525061309c92505050565b91508682600081518110610d5957634e487b7160e01b600052603260045260246000fd5b602002602001015111156107a55760405162461bcd60e51b8152600401610552906141d4565b600080610dcd7f00000000000000000000000000000000000000000000000000000000000000008d7f0000000000000000000000000000000000000000000000000000000000000000612c53565b9050600086610ddc578b610de0565b6000195b60405163d505accf60e01b81529091506001600160a01b0383169063d505accf90610e1b903390309086908e908d908d908d90600401614121565b600060405180830381600087803b158015610e3557600080fd5b505af1158015610e49573d6000803e3d6000fd5b50505050610e5b8d8d8d8d8d8d6117e5565b9d9c50505050505050505050505050565b8042811015610e8d5760405162461bcd60e51b815260040161055290614253565b610f4885856000818110610eb157634e487b7160e01b600052603260045260246000fd5b9050602002016020810190610ec69190613bce565b33610f427f000000000000000000000000000000000000000000000000000000000000000089896000818110610f0c57634e487b7160e01b600052603260045260246000fd5b9050602002016020810190610f219190613bce565b8a8a600181811061085a57634e487b7160e01b600052603260045260246000fd5b8a612d2c565b60008585610f57600182614365565b818110610f7457634e487b7160e01b600052603260045260246000fd5b9050602002016020810190610f899190613bce565b6040516370a0823160e01b81526001600160a01b03868116600483015291909116906370a082319060240160206040518083038186803b158015610fcc57600080fd5b505afa158015610fe0573d6000803e3d6000fd5b505050506040513d601f19601f820116820180604052508101906110049190613ef7565b9050611044868680806020026020016040519081016040528093929190818152602001838360200280828437600092019190915250889250613271915050565b8661110a828888611056600182614365565b81811061107357634e487b7160e01b600052603260045260246000fd5b90506020020160208101906110889190613bce565b6040516370a0823160e01b81526001600160a01b03898116600483015291909116906370a08231906024015b60206040518083038186803b1580156110cc57600080fd5b505afa1580156110e0573d6000803e3d6000fd5b505050506040513d601f19601f820116820180604052508101906111049190613ef7565b90613535565b10156111285760405162461bcd60e51b81526004016105529061427c565b5050505050505050565b80428110156111535760405162461bcd60e51b815260040161055290614253565b6001600160a01b037f000000000000000000000000000000000000000000000000000000000000000016858561118a600182614365565b8181106111a757634e487b7160e01b600052603260045260246000fd5b90506020020160208101906111bc9190613bce565b6001600160a01b0316146111e25760405162461bcd60e51b8152600401610552906141a6565b61120685856000818110610eb157634e487b7160e01b600052603260045260246000fd5b611244858580806020026020016040519081016040528093929190818152602001838360200280828437600092019190915250309250613271915050565b6040516370a0823160e01b81523060048201526000907f00000000000000000000000000000000000000000000000000000000000000006001600160a01b0316906370a082319060240160206040518083038186803b1580156112a657600080fd5b505afa1580156112ba573d6000803e3d6000fd5b505050506040513d601f19601f820116820180604052508101906112de9190613ef7565b9050868110156113005760405162461bcd60e51b81526004016105529061427c565b604051632e1a7d4d60e01b8152600481018290527f00000000000000000000000000000000000000000000000000000000000000006001600160a01b031690632e1a7d4d90602401600060405180830381600087803b15801561136257600080fd5b505af1158015611376573d6000803e3d6000fd5b5050505061112884826128c8565b606081428110156113a75760405162461bcd60e51b815260040161055290614253565b7f00000000000000000000000000000000000000000000000000000000000000006001600160a01b0316868660008181106113f257634e487b7160e01b600052603260045260246000fd5b90506020020160208101906114079190613bce565b6001600160a01b03161461142d5760405162461bcd60e51b8152600401610552906141a6565b61148b7f000000000000000000000000000000000000000000000000000000000000000034888880806020026020016040519081016040528093929190818152602001838360200280828437600092019190915250612a7492505050565b915086826001845161149d9190614365565b815181106114bb57634e487b7160e01b600052603260045260246000fd5b602002602001015110156114e15760405162461bcd60e51b81526004016105529061427c565b7f00000000000000000000000000000000000000000000000000000000000000006001600160a01b031663d0e30db08360008151811061153157634e487b7160e01b600052603260045260246000fd5b60200260200101516040518263ffffffff1660e01b81526004016000604051808303818588803b15801561156457600080fd5b505af1158015611578573d6000803e3d6000fd5b50505050507f00000000000000000000000000000000000000000000000000000000000000006001600160a01b031663a9059cbb6115f17f000000000000000000000000000000000000000000000000000000000000000089896000818110610f0c57634e487b7160e01b600052603260045260246000fd5b8460008151811061161257634e487b7160e01b600052603260045260246000fd5b60200260200101516040518363ffffffff1660e01b815260040161164b9291906001600160a01b03929092168252602082015260400190565b602060405180830381600087803b15801561166557600080fd5b505af1158015611679573d6000803e3d6000fd5b505050506040513d601f19601f8201168201806040525081019061169d9190613e8d565b6116b757634e487b7160e01b600052600160045260246000fd5b6116f682878780806020026020016040519081016040528093929190818152602001838360200280828437600092019190915250899250612e5c915050565b5095945050505050565b6000610637848484613541565b606081428110156117305760405162461bcd60e51b815260040161055290614253565b61178e7f00000000000000000000000000000000000000000000000000000000000000008988888080602002602001604051908101604052809392919081815260200183836020028082843760009201919091525061309c92505050565b915086826000815181106117b257634e487b7160e01b600052603260045260246000fd5b60200260200101511115610bc25760405162461bcd60e51b8152600401610552906141d4565b600061063784848461361a565b600081428110156118085760405162461bcd60e51b815260040161055290614253565b611837887f00000000000000000000000000000000000000000000000000000000000000008989893089611ce1565b6040516370a0823160e01b81523060048201529093506118bf9150899086906001600160a01b038316906370a082319060240160206040518083038186803b15801561188257600080fd5b505afa158015611896573d6000803e3d6000fd5b505050506040513d601f19601f820116820180604052508101906118ba9190613ef7565b6127ad565b604051632e1a7d4d60e01b8152600481018390527f00000000000000000000000000000000000000000000000000000000000000006001600160a01b031690632e1a7d4d90602401600060405180830381600087803b15801561192157600080fd5b505af1158015611935573d6000803e3d6000fd5b505050506109d384836128c8565b80428110156119645760405162461bcd60e51b815260040161055290614253565b7f00000000000000000000000000000000000000000000000000000000000000006001600160a01b0316858560008181106119af57634e487b7160e01b600052603260045260246000fd5b90506020020160208101906119c49190613bce565b6001600160a01b0316146119ea5760405162461bcd60e51b8152600401610552906141a6565b60003490507f00000000000000000000000000000000000000000000000000000000000000006001600160a01b031663d0e30db0826040518263ffffffff1660e01b81526004016000604051808303818588803b158015611a4a57600080fd5b505af1158015611a5e573d6000803e3d6000fd5b50505050507f00000000000000000000000000000000000000000000000000000000000000006001600160a01b031663a9059cbb611ad77f000000000000000000000000000000000000000000000000000000000000000089896000818110610f0c57634e487b7160e01b600052603260045260246000fd5b6040516001600160e01b031960e084901b1681526001600160a01b03909116600482015260248101849052604401602060405180830381600087803b158015611b1f57600080fd5b505af1158015611b33573d6000803e3d6000fd5b505050506040513d601f19601f82011682018060405250810190611b579190613e8d565b611b7157634e487b7160e01b600052600160045260246000fd5b60008686611b80600182614365565b818110611b9d57634e487b7160e01b600052603260045260246000fd5b9050602002016020810190611bb29190613bce565b6040516370a0823160e01b81526001600160a01b03878116600483015291909116906370a082319060240160206040518083038186803b158015611bf557600080fd5b505afa158015611c09573d6000803e3d6000fd5b505050506040513d601f19601f82011682018060405250810190611c2d9190613ef7565b9050611c6d878780806020026020016040519081016040528093929190818152602001838360200280828437600092019190915250899250613271915050565b8761110a828989611c7f600182614365565b818110611c9c57634e487b7160e01b600052603260045260246000fd5b9050602002016020810190611cb19190613bce565b6040516370a0823160e01b81526001600160a01b038a8116600483015291909116906370a08231906024016110b4565b6000808242811015611d055760405162461bcd60e51b815260040161055290614253565b6000611d327f00000000000000000000000000000000000000000000000000000000000000008c8c612c53565b6040516323b872dd60e01b81523360048201526001600160a01b03821660248201819052604482018c90529192506323b872dd90606401602060405180830381600087803b158015611d8357600080fd5b505af1158015611d97573d6000803e3d6000fd5b505050506040513d601f19601f82011682018060405250810190611dbb9190613e8d565b5060405163226bf2d160e21b81526001600160a01b03878116600483015260009182918416906389afcb44906024016040805180830381600087803b158015611e0357600080fd5b505af1158015611e17573d6000803e3d6000fd5b505050506040513d601f19601f82011682018060405250810190611e3b9190614046565b915091506000611e4b8e8e6136ba565b509050806001600160a01b03168e6001600160a01b031614611e6e578183611e71565b82825b90975095508a871015611ec65760405162461bcd60e51b815260206004820152601d60248201527f526f757465723a20494e53554646494349454e545f415f414d4f554e540000006044820152606401610552565b89861015611f165760405162461bcd60e51b815260206004820152601d60248201527f526f757465723a20494e53554646494349454e545f425f414d4f554e540000006044820152606401610552565b505050505097509795505050505050565b6060610a0b7f00000000000000000000000000000000000000000000000000000000000000008484612a74565b6000806000611fa47f00000000000000000000000000000000000000000000000000000000000000008e7f0000000000000000000000000000000000000000000000000000000000000000612c53565b9050600087611fb3578c611fb7565b6000195b60405163d505accf60e01b81529091506001600160a01b0383169063d505accf90611ff2903390309086908f908e908e908e90600401614121565b600060405180830381600087803b15801561200c57600080fd5b505af1158015612020573d6000803e3d6000fd5b505050506120328e8e8e8e8e8e61052e565b909f909e509c50505050505050505050505050565b6000806000834281101561206d5760405162461bcd60e51b815260040161055290614253565b61207b8c8c8c8c8c8c6137b2565b909450925060006120ad7f00000000000000000000000000000000000000000000000000000000000000008e8e612c53565b90506120bb8d338388612d2c565b6120c78c338387612d2c565b6040516335313c2160e11b81526001600160a01b038881166004830152821690636a62784290602401602060405180830381600087803b15801561210a57600080fd5b505af115801561211e573d6000803e3d6000fd5b505050506040513d601f19601f820116820180604052508101906121429190613ef7565b92505050985098509895505050505050565b6000806000834281101561217a5760405162461bcd60e51b815260040161055290614253565b6121a88a7f00000000000000000000000000000000000000000000000000000000000000008b348c8c6137b2565b909450925060006121fa7f00000000000000000000000000000000000000000000000000000000000000008c7f0000000000000000000000000000000000000000000000000000000000000000612c53565b90506122088b338388612d2c565b7f00000000000000000000000000000000000000000000000000000000000000006001600160a01b031663d0e30db0856040518263ffffffff1660e01b81526004016000604051808303818588803b15801561226357600080fd5b505af1158015612277573d6000803e3d6000fd5b505060405163a9059cbb60e01b81526001600160a01b038581166004830152602482018990527f000000000000000000000000000000000000000000000000000000000000000016935063a9059cbb92506044019050602060405180830381600087803b1580156122e757600080fd5b505af11580156122fb573d6000803e3d6000fd5b505050506040513d601f19601f8201168201806040525081019061231f9190613e8d565b61233957634e487b7160e01b600052600160045260246000fd5b6040516335313c2160e11b81526001600160a01b038881166004830152821690636a62784290602401602060405180830381600087803b15801561237c57600080fd5b505af1158015612390573d6000803e3d6000fd5b505050506040513d601f19601f820116820180604052508101906123b49190613ef7565b9250833411156123d1576123d1336123cc8634614365565b6128c8565b505096509650969350505050565b606081428110156124025760405162461bcd60e51b815260040161055290614253565b7f00000000000000000000000000000000000000000000000000000000000000006001600160a01b03168686600081811061244d57634e487b7160e01b600052603260045260246000fd5b90506020020160208101906124629190613bce565b6001600160a01b0316146124885760405162461bcd60e51b8152600401610552906141a6565b6124e67f00000000000000000000000000000000000000000000000000000000000000008888888080602002602001604051908101604052809392919081815260200183836020028082843760009201919091525061309c92505050565b9150348260008151811061250a57634e487b7160e01b600052603260045260246000fd5b602002602001015111156125305760405162461bcd60e51b8152600401610552906141d4565b7f00000000000000000000000000000000000000000000000000000000000000006001600160a01b031663d0e30db08360008151811061258057634e487b7160e01b600052603260045260246000fd5b60200260200101516040518263ffffffff1660e01b81526004016000604051808303818588803b1580156125b357600080fd5b505af11580156125c7573d6000803e3d6000fd5b50505050507f00000000000000000000000000000000000000000000000000000000000000006001600160a01b031663a9059cbb6126407f000000000000000000000000000000000000000000000000000000000000000089896000818110610f0c57634e487b7160e01b600052603260045260246000fd5b8460008151811061266157634e487b7160e01b600052603260045260246000fd5b60200260200101516040518363ffffffff1660e01b815260040161269a9291906001600160a01b03929092168252602082015260400190565b602060405180830381600087803b1580156126b457600080fd5b505af11580156126c8573d6000803e3d6000fd5b505050506040513d601f19601f820116820180604052508101906126ec9190613e8d565b61270657634e487b7160e01b600052600160045260246000fd5b61274582878780806020026020016040519081016040528093929190818152602001838360200280828437600092019190915250899250612e5c915050565b8160008151811061276657634e487b7160e01b600052603260045260246000fd5b60200260200101513411156116f6576116f6338360008151811061279a57634e487b7160e01b600052603260045260246000fd5b6020026020010151346123cc9190614365565b604080516001600160a01b038481166024830152604480830185905283518084039091018152606490920183526020820180516001600160e01b031663a9059cbb60e01b17905291516000928392908716916128099190614105565b6000604051808303816000865af19150503d8060008114612846576040519150601f19603f3d011682016040523d82523d6000602084013e61284b565b606091505b50915091508180156128755750805115806128755750808060200190518101906128759190613e8d565b6128c15760405162461bcd60e51b815260206004820152601f60248201527f5472616e7366657248656c7065723a205452414e534645525f4641494c4544006044820152606401610552565b5050505050565b604080516000808252602082019092526001600160a01b0384169083906040516128f29190614105565b60006040518083038185875af1925050503d806000811461292f576040519150601f19603f3d011682016040523d82523d6000602084013e612934565b606091505b50509050806129915760405162461bcd60e51b815260206004820152602360248201527f5472616e7366657248656c7065723a204554485f5452414e534645525f46414960448201526213115160ea1b6064820152608401610552565b505050565b60008084116129fb5760405162461bcd60e51b815260206004820152602b60248201527f556e697377617056324c6962726172793a20494e53554646494349454e545f4960448201526a1394155517d05353d5539560aa1b6064820152608401610552565b600083118015612a0b5750600082115b612a275760405162461bcd60e51b81526004016105529061420b565b6000612a35856103e5613a63565b90506000612a438285613a63565b90506000612a5d83612a57886103e8613a63565b90613a6f565b9050612a698183614326565b979650505050505050565b6060600282511015612ac85760405162461bcd60e51b815260206004820152601e60248201527f556e697377617056324c6962726172793a20494e56414c49445f5041544800006044820152606401610552565b815167ffffffffffffffff811115612af057634e487b7160e01b600052604160045260246000fd5b604051908082528060200260200182016040528015612b19578160200160208202803683370190505b5090508281600081518110612b3e57634e487b7160e01b600052603260045260246000fd5b60200260200101818152505060005b60018351612b5b9190614365565b811015612c4b57600080612bca87868581518110612b8957634e487b7160e01b600052603260045260246000fd5b602002602001015187866001612b9f919061430e565b81518110612bbd57634e487b7160e01b600052603260045260246000fd5b6020026020010151613a7b565b91509150612c00848481518110612bf157634e487b7160e01b600052603260045260246000fd5b60200260200101518383612996565b84612c0c85600161430e565b81518110612c2a57634e487b7160e01b600052603260045260246000fd5b60200260200101818152505050508080612c43906143bf565b915050612b4d565b509392505050565b6000806000612c6285856136ba565b6040516bffffffffffffffffffffffff19606084811b8216602084015283901b1660348201529193509150869060480160405160208183030381529060405280519060200120604051602001612d0a9291906001600160f81b0319815260609290921b6bffffffffffffffffffffffff1916600183015260158201527fedeccb88a4d2c30e6406944e3b3b22b0806f5aca2fa7edfd90e916bb34c10d43603582015260550190565b60408051601f1981840301815291905280516020909101209695505050505050565b604080516001600160a01b0385811660248301528481166044830152606480830185905283518084039091018152608490920183526020820180516001600160e01b03166323b872dd60e01b1790529151600092839290881691612d909190614105565b6000604051808303816000865af19150503d8060008114612dcd576040519150601f19603f3d011682016040523d82523d6000602084013e612dd2565b606091505b5091509150818015612dfc575080511580612dfc575080806020019051810190612dfc9190613e8d565b612e545760405162461bcd60e51b8152602060048201526024808201527f5472616e7366657248656c7065723a205452414e534645525f46524f4d5f46416044820152631253115160e21b6064820152608401610552565b505050505050565b60005b60018351612e6d9190614365565b81101561309657600080848381518110612e9757634e487b7160e01b600052603260045260246000fd5b602002602001015185846001612ead919061430e565b81518110612ecb57634e487b7160e01b600052603260045260246000fd5b6020026020010151915091506000612ee383836136ba565b509050600087612ef486600161430e565b81518110612f1257634e487b7160e01b600052603260045260246000fd5b60200260200101519050600080836001600160a01b0316866001600160a01b031614612f4057826000612f44565b6000835b91509150600060028a51612f589190614365565b8810612f645788612fc0565b612fc07f0000000000000000000000000000000000000000000000000000000000000000878c612f958c600261430e565b81518110612fb357634e487b7160e01b600052603260045260246000fd5b6020026020010151612c53565b9050612fed7f00000000000000000000000000000000000000000000000000000000000000008888612c53565b6001600160a01b031663022c0d9f84848460006040519080825280601f01601f19166020018201604052801561302a576020820181803683370190505b506040518563ffffffff1660e01b815260040161304a94939291906142be565b600060405180830381600087803b15801561306457600080fd5b505af1158015613078573d6000803e3d6000fd5b5050505050505050505050808061308e906143bf565b915050612e5f565b50505050565b60606002825110156130f05760405162461bcd60e51b815260206004820152601e60248201527f556e697377617056324c6962726172793a20494e56414c49445f5041544800006044820152606401610552565b815167ffffffffffffffff81111561311857634e487b7160e01b600052604160045260246000fd5b604051908082528060200260200182016040528015613141578160200160208202803683370190505b5090508281600183516131549190614365565b8151811061317257634e487b7160e01b600052603260045260246000fd5b60200260200101818152505060006001835161318e9190614365565b90505b8015612c4b576000806131f087866131aa600187614365565b815181106131c857634e487b7160e01b600052603260045260246000fd5b6020026020010151878681518110612bbd57634e487b7160e01b600052603260045260246000fd5b9150915061322684848151811061321757634e487b7160e01b600052603260045260246000fd5b60200260200101518383613541565b84613232600186614365565b8151811061325057634e487b7160e01b600052603260045260246000fd5b60200260200101818152505050508080613269906143a8565b915050613191565b60005b600183516132829190614365565b811015612991576000808483815181106132ac57634e487b7160e01b600052603260045260246000fd5b6020026020010151858460016132c2919061430e565b815181106132e057634e487b7160e01b600052603260045260246000fd5b60200260200101519150915060006132f883836136ba565b50905060006133287f00000000000000000000000000000000000000000000000000000000000000008585612c53565b9050600080600080846001600160a01b0316630902f1ac6040518163ffffffff1660e01b815260040160606040518083038186803b15801561336957600080fd5b505afa15801561337d573d6000803e3d6000fd5b505050506040513d601f19601f820116820180604052508101906133a19190613ea9565b506001600160701b031691506001600160701b03169150600080876001600160a01b03168a6001600160a01b0316146133db5782846133de565b83835b6040516370a0823160e01b81526001600160a01b038a81166004830152929450909250613419918491908d16906370a08231906024016110b4565b9550613426868383612996565b945050505050600080856001600160a01b0316886001600160a01b03161461345057826000613454565b6000835b91509150600060028c516134689190614365565b8a10613474578a6134a5565b6134a57f0000000000000000000000000000000000000000000000000000000000000000898e612f958e600261430e565b6040805160008152602081019182905263022c0d9f60e01b9091529091506001600160a01b0387169063022c0d9f906134e790869086908690602481016142be565b600060405180830381600087803b15801561350157600080fd5b505af1158015613515573d6000803e3d6000fd5b50505050505050505050505050808061352d906143bf565b915050613274565b6000610a0b8284614365565b60008084116135a75760405162461bcd60e51b815260206004820152602c60248201527f556e697377617056324c6962726172793a20494e53554646494349454e545f4f60448201526b155514155517d05353d5539560a21b6064820152608401610552565b6000831180156135b75750600082115b6135d35760405162461bcd60e51b81526004016105529061420b565b60006135eb6103e86135e58688613a63565b90613a63565b905060006135ff6103e56135e58689613535565b90506136106001612a578385614326565b9695505050505050565b60008084116136795760405162461bcd60e51b815260206004820152602560248201527f556e697377617056324c6962726172793a20494e53554646494349454e545f416044820152641353d5539560da1b6064820152608401610552565b6000831180156136895750600082115b6136a55760405162461bcd60e51b81526004016105529061420b565b826136b08584613a63565b6106379190614326565b600080826001600160a01b0316846001600160a01b0316141561372d5760405162461bcd60e51b815260206004820152602560248201527f556e697377617056324c6962726172793a204944454e544943414c5f41444452604482015264455353455360d81b6064820152608401610552565b826001600160a01b0316846001600160a01b03161061374d578284613750565b83835b90925090506001600160a01b0382166137ab5760405162461bcd60e51b815260206004820152601e60248201527f556e697377617056324c6962726172793a205a45524f5f4144445245535300006044820152606401610552565b9250929050565b60405163e6a4390560e01b81526001600160a01b0387811660048301528681166024830152600091829182917f00000000000000000000000000000000000000000000000000000000000000009091169063e6a439059060440160206040518083038186803b15801561382457600080fd5b505afa158015613838573d6000803e3d6000fd5b505050506040513d601f19601f8201168201806040525081019061385c9190613bea565b6001600160a01b03161415613910576040516364e329cb60e11b81526001600160a01b03898116600483015288811660248301527f0000000000000000000000000000000000000000000000000000000000000000169063c9c6539690604401602060405180830381600087803b1580156138d657600080fd5b505af11580156138ea573d6000803e3d6000fd5b505050506040513d601f19601f8201168201806040525081019061390e9190613bea565b505b60008061393e7f00000000000000000000000000000000000000000000000000000000000000008b8b613a7b565b91509150816000148015613950575080155b1561396057879350869250613a56565b600061396d89848461361a565b90508781116139d157858110156139c65760405162461bcd60e51b815260206004820152601d60248201527f526f757465723a20494e53554646494349454e545f425f414d4f554e540000006044820152606401610552565b889450925082613a54565b60006139de89848661361a565b9050898111156139fe57634e487b7160e01b600052600160045260246000fd5b87811015613a4e5760405162461bcd60e51b815260206004820152601d60248201527f526f757465723a20494e53554646494349454e545f415f414d4f554e540000006044820152606401610552565b94508793505b505b5050965096945050505050565b6000610a0b8284614346565b6000610a0b828461430e565b6000806000613a8a85856136ba565b509050600080613a9b888888612c53565b6001600160a01b0316630902f1ac6040518163ffffffff1660e01b815260040160606040518083038186803b158015613ad357600080fd5b505afa158015613ae7573d6000803e3d6000fd5b505050506040513d601f19601f82011682018060405250810190613b0b9190613ea9565b506001600160701b031691506001600160701b03169150826001600160a01b0316876001600160a01b031614613b42578082613b45565b81815b90999098509650505050505050565b8035613b5f81614406565b919050565b60008083601f840112613b75578081fd5b50813567ffffffffffffffff811115613b8c578182fd5b60208301915083602080830285010111156137ab57600080fd5b80516001600160701b0381168114613b5f57600080fd5b803560ff81168114613b5f57600080fd5b600060208284031215613bdf578081fd5b8135610a0b81614406565b600060208284031215613bfb578081fd5b8151610a0b81614406565b600080600080600080600060e0888a031215613c20578283fd5b8735613c2b81614406565b96506020880135613c3b81614406565b955060408801359450606088013593506080880135925060a0880135613c6081614406565b8092505060c0880135905092959891949750929550565b60008060008060008060008060008060006101608c8e031215613c98578384fd5b8b35613ca381614406565b9a5060208c0135613cb381614406565b995060408c0135985060608c0135975060808c0135965060a08c0135613cd881614406565b955060c08c0135945060e08c0135613cef8161441e565b9350613cfe6101008d01613bbd565b92506101208c013591506101408c013590509295989b509295989b9093969950565b600080600080600080600080610100898b031215613d3c578384fd5b8835613d4781614406565b97506020890135613d5781614406565b965060408901359550606089013594506080890135935060a0890135925060c0890135613d8381614406565b8092505060e089013590509295985092959890939650565b60008060008060008060c08789031215613db3578182fd5b8635613dbe81614406565b95506020870135945060408701359350606087013592506080870135613de381614406565b8092505060a087013590509295509295509295565b6000806000806000806000806000806101408b8d031215613e17578384fd5b8a35613e2281614406565b995060208b0135985060408b0135975060608b0135965060808b0135613e4781614406565b955060a08b0135945060c08b0135613e5e8161441e565b9350613e6c60e08c01613bbd565b92506101008b013591506101208b013590509295989b9194979a5092959850565b600060208284031215613e9e578081fd5b8151610a0b8161441e565b600080600060608486031215613ebd578081fd5b613ec684613ba6565b9250613ed460208501613ba6565b9150604084015163ffffffff81168114613eec578182fd5b809150509250925092565b600060208284031215613f08578081fd5b5051919050565b600080600080600060808688031215613f26578283fd5b85359450602086013567ffffffffffffffff811115613f43578384fd5b613f4f88828901613b64565b9095509350506040860135613f6381614406565b949793965091946060013592915050565b60008060408385031215613f86578182fd5b8235915060208084013567ffffffffffffffff80821115613fa5578384fd5b818601915086601f830112613fb8578384fd5b813581811115613fca57613fca6143f0565b838102604051601f19603f83011681018181108582111715613fee57613fee6143f0565b604052828152858101935084860182860187018b101561400c578788fd5b8795505b838610156140355761402181613b54565b855260019590950194938601938601614010565b508096505050505050509250929050565b60008060408385031215614058578182fd5b505080516020909101519092909150565b60008060008060008060a08789031215614081578384fd5b8635955060208701359450604087013567ffffffffffffffff8111156140a5578485fd5b6140b189828a01613b64565b90955093505060608701356140c581614406565b80925050608087013590509295509295509295565b6000806000606084860312156140ee578081fd5b505081359360208301359350604090920135919050565b6000825161411781846020870161437c565b9190910192915050565b6001600160a01b0397881681529590961660208601526040850193909352606084019190915260ff16608083015260a082015260c081019190915260e00190565b6020808252825182820181905260009190848201906040850190845b8181101561419a5783518352928401929184019160010161417e565b50909695505050505050565b6020808252601490820152730a4deeae8cae47440929cac82989288bea082a8960631b604082015260600190565b6020808252601e908201527f526f757465723a204558434553534956455f494e5055545f414d4f554e540000604082015260600190565b60208082526028908201527f556e697377617056324c6962726172793a20494e53554646494349454e545f4c604082015267495155494449545960c01b606082015260800190565b6020808252600f908201526e149bdd5d195c8e8811561412549151608a1b604082015260600190565b60208082526022908201527f526f757465723a20494e53554646494349454e545f4f55545055545f414d4f55604082015261139560f21b606082015260800190565b600085825284602083015260018060a01b03841660408301526080606083015282518060808401526142f78160a085016020870161437c565b601f01601f19169190910160a00195945050505050565b60008219821115614321576143216143da565b500190565b60008261434157634e487b7160e01b81526012600452602481fd5b500490565b6000816000190483118215151615614360576143606143da565b500290565b600082821015614377576143776143da565b500390565b60005b8381101561439757818101518382015260200161437f565b838111156130965750506000910152565b6000816143b7576143b76143da565b506000190190565b60006000198214156143d3576143d36143da565b5060010190565b634e487b7160e01b600052601160045260246000fd5b634e487b7160e01b600052604160045260246000fd5b6001600160a01b038116811461441b57600080fd5b50565b801515811461441b57600080fdfea26469706673582212206d3e7cbce63464b0ffd2912338616ba4afd1ae57eeb21badf174cb2ab103d3f564736f6c63430008020033",
  "devdoc": {
    "kind": "dev",
    "methods": {},
    "version": 1
  },
  "userdoc": {
    "kind": "user",
    "methods": {},
    "version": 1
  },
  "storageLayout": {
    "storage": [],
    "types": null
  }
}