{
  "address": "0x67e983b3B9f55A1eaA259D58E425e418f3900872",
  "abi": [
    {
      "inputs": [
        {
          "internalType": "address",
          "name": "_factory",
          "type": "address"
        },
        {
          "internalType": "address",
          "name": "_WETH",
          "type": "address"
        }
      ],
      "stateMutability": "nonpayable",
      "type": "constructor"
    },
    {
      "inputs": [],
      "name": "MAX_INT",
      "outputs": [
        {
          "internalType": "uint256",
          "name": "",
          "type": "uint256"
        }
      ],
      "stateMutability": "view",
      "type": "function"
    },
    {
      "inputs": [],
      "name": "WETH",
      "outputs": [
        {
          "internalType": "address",
          "name": "",
          "type": "address"
        }
      ],
      "stateMutability": "view",
      "type": "function"
    },
    {
      "inputs": [
        {
          "internalType": "address",
          "name": "tokenA",
          "type": "address"
        },
        {
          "internalType": "address",
          "name": "tokenB",
          "type": "address"
        },
        {
          "internalType": "uint256",
          "name": "amountADesired",
          "type": "uint256"
        },
        {
          "internalType": "uint256",
          "name": "amountBDesired",
          "type": "uint256"
        },
        {
          "internalType": "uint256",
          "name": "amountAMin",
          "type": "uint256"
        },
        {
          "internalType": "uint256",
          "name": "amountBMin",
          "type": "uint256"
        },
        {
          "internalType": "address",
          "name": "to",
          "type": "address"
        },
        {
          "internalType": "uint256",
          "name": "deadline",
          "type": "uint256"
        }
      ],
      "name": "addLiquidity",
      "outputs": [
        {
          "internalType": "uint256",
          "name": "amountA",
          "type": "uint256"
        },
        {
          "internalType": "uint256",
          "name": "amountB",
          "type": "uint256"
        },
        {
          "internalType": "uint256",
          "name": "liquidity",
          "type": "uint256"
        }
      ],
      "stateMutability": "nonpayable",
      "type": "function"
    },
    {
      "inputs": [
        {
          "internalType": "address",
          "name": "token",
          "type": "address"
        },
        {
          "internalType": "uint256",
          "name": "amountTokenDesired",
          "type": "uint256"
        },
        {
          "internalType": "uint256",
          "name": "amountTokenMin",
          "type": "uint256"
        },
        {
          "internalType": "uint256",
          "name": "amountETHMin",
          "type": "uint256"
        },
        {
          "internalType": "address",
          "name": "to",
          "type": "address"
        },
        {
          "internalType": "uint256",
          "name": "deadline",
          "type": "uint256"
        }
      ],
      "name": "addLiquidityETH",
      "outputs": [
        {
          "internalType": "uint256",
          "name": "amountToken",
          "type": "uint256"
        },
        {
          "internalType": "uint256",
          "name": "amountETH",
          "type": "uint256"
        },
        {
          "internalType": "uint256",
          "name": "liquidity",
          "type": "uint256"
        }
      ],
      "stateMutability": "payable",
      "type": "function"
    },
    {
      "inputs": [],
      "name": "factory",
      "outputs": [
        {
          "internalType": "address",
          "name": "",
          "type": "address"
        }
      ],
      "stateMutability": "view",
      "type": "function"
    },
    {
      "inputs": [
        {
          "internalType": "uint256",
          "name": "amountOut",
          "type": "uint256"
        },
        {
          "internalType": "uint256",
          "name": "reserveIn",
          "type": "uint256"
        },
        {
          "internalType": "uint256",
          "name": "reserveOut",
          "type": "uint256"
        }
      ],
      "name": "getAmountIn",
      "outputs": [
        {
          "internalType": "uint256",
          "name": "amountIn",
          "type": "uint256"
        }
      ],
      "stateMutability": "pure",
      "type": "function"
    },
    {
      "inputs": [
        {
          "internalType": "uint256",
          "name": "amountIn",
          "type": "uint256"
        },
        {
          "internalType": "uint256",
          "name": "reserveIn",
          "type": "uint256"
        },
        {
          "internalType": "uint256",
          "name": "reserveOut",
          "type": "uint256"
        }
      ],
      "name": "getAmountOut",
      "outputs": [
        {
          "internalType": "uint256",
          "name": "amountOut",
          "type": "uint256"
        }
      ],
      "stateMutability": "pure",
      "type": "function"
    },
    {
      "inputs": [
        {
          "internalType": "uint256",
          "name": "amountOut",
          "type": "uint256"
        },
        {
          "internalType": "address[]",
          "name": "path",
          "type": "address[]"
        }
      ],
      "name": "getAmountsIn",
      "outputs": [
        {
          "internalType": "uint256[]",
          "name": "amounts",
          "type": "uint256[]"
        }
      ],
      "stateMutability": "view",
      "type": "function"
    },
    {
      "inputs": [
        {
          "internalType": "uint256",
          "name": "amountIn",
          "type": "uint256"
        },
        {
          "internalType": "address[]",
          "name": "path",
          "type": "address[]"
        }
      ],
      "name": "getAmountsOut",
      "outputs": [
        {
          "internalType": "uint256[]",
          "name": "amounts",
          "type": "uint256[]"
        }
      ],
      "stateMutability": "view",
      "type": "function"
    },
    {
      "inputs": [
        {
          "internalType": "uint256",
          "name": "amountA",
          "type": "uint256"
        },
        {
          "internalType": "uint256",
          "name": "reserveA",
          "type": "uint256"
        },
        {
          "internalType": "uint256",
          "name": "reserveB",
          "type": "uint256"
        }
      ],
      "name": "quote",
      "outputs": [
        {
          "internalType": "uint256",
          "name": "amountB",
          "type": "uint256"
        }
      ],
      "stateMutability": "pure",
      "type": "function"
    },
    {
      "inputs": [
        {
          "internalType": "address",
          "name": "tokenA",
          "type": "address"
        },
        {
          "internalType": "address",
          "name": "tokenB",
          "type": "address"
        },
        {
          "internalType": "uint256",
          "name": "liquidity",
          "type": "uint256"
        },
        {
          "internalType": "uint256",
          "name": "amountAMin",
          "type": "uint256"
        },
        {
          "internalType": "uint256",
          "name": "amountBMin",
          "type": "uint256"
        },
        {
          "internalType": "address",
          "name": "to",
          "type": "address"
        },
        {
          "internalType": "uint256",
          "name": "deadline",
          "type": "uint256"
        }
      ],
      "name": "removeLiquidity",
      "outputs": [
        {
          "internalType": "uint256",
          "name": "amountA",
          "type": "uint256"
        },
        {
          "internalType": "uint256",
          "name": "amountB",
          "type": "uint256"
        }
      ],
      "stateMutability": "nonpayable",
      "type": "function"
    },
    {
      "inputs": [
        {
          "internalType": "address",
          "name": "token",
          "type": "address"
        },
        {
          "internalType": "uint256",
          "name": "liquidity",
          "type": "uint256"
        },
        {
          "internalType": "uint256",
          "name": "amountTokenMin",
          "type": "uint256"
        },
        {
          "internalType": "uint256",
          "name": "amountETHMin",
          "type": "uint256"
        },
        {
          "internalType": "address",
          "name": "to",
          "type": "address"
        },
        {
          "internalType": "uint256",
          "name": "deadline",
          "type": "uint256"
        }
      ],
      "name": "removeLiquidityETH",
      "outputs": [
        {
          "internalType": "uint256",
          "name": "amountToken",
          "type": "uint256"
        },
        {
          "internalType": "uint256",
          "name": "amountETH",
          "type": "uint256"
        }
      ],
      "stateMutability": "nonpayable",
      "type": "function"
    },
    {
      "inputs": [
        {
          "internalType": "address",
          "name": "token",
          "type": "address"
        },
        {
          "internalType": "uint256",
          "name": "liquidity",
          "type": "uint256"
        },
        {
          "internalType": "uint256",
          "name": "amountTokenMin",
          "type": "uint256"
        },
        {
          "internalType": "uint256",
          "name": "amountETHMin",
          "type": "uint256"
        },
        {
          "internalType": "address",
          "name": "to",
          "type": "address"
        },
        {
          "internalType": "uint256",
          "name": "deadline",
          "type": "uint256"
        }
      ],
      "name": "removeLiquidityETHSupportingFeeOnTransferTokens",
      "outputs": [
        {
          "internalType": "uint256",
          "name": "amountETH",
          "type": "uint256"
        }
      ],
      "stateMutability": "nonpayable",
      "type": "function"
    },
    {
      "inputs": [
        {
          "internalType": "address",
          "name": "token",
          "type": "address"
        },
        {
          "internalType": "uint256",
          "name": "liquidity",
          "type": "uint256"
        },
        {
          "internalType": "uint256",
          "name": "amountTokenMin",
          "type": "uint256"
        },
        {
          "internalType": "uint256",
          "name": "amountETHMin",
          "type": "uint256"
        },
        {
          "internalType": "address",
          "name": "to",
          "type": "address"
        },
        {
          "internalType": "uint256",
          "name": "deadline",
          "type": "uint256"
        },
        {
          "internalType": "bool",
          "name": "approveMax",
          "type": "bool"
        },
        {
          "internalType": "uint8",
          "name": "v",
          "type": "uint8"
        },
        {
          "internalType": "bytes32",
          "name": "r",
          "type": "bytes32"
        },
        {
          "internalType": "bytes32",
          "name": "s",
          "type": "bytes32"
        }
      ],
      "name": "removeLiquidityETHWithPermit",
      "outputs": [
        {
          "internalType": "uint256",
          "name": "amountToken",
          "type": "uint256"
        },
        {
          "internalType": "uint256",
          "name": "amountETH",
          "type": "uint256"
        }
      ],
      "stateMutability": "nonpayable",
      "type": "function"
    },
    {
      "inputs": [
        {
          "internalType": "address",
          "name": "token",
          "type": "address"
        },
        {
          "internalType": "uint256",
          "name": "liquidity",
          "type": "uint256"
        },
        {
          "internalType": "uint256",
          "name": "amountTokenMin",
          "type": "uint256"
        },
        {
          "internalType": "uint256",
          "name": "amountETHMin",
          "type": "uint256"
        },
        {
          "internalType": "address",
          "name": "to",
          "type": "address"
        },
        {
          "internalType": "uint256",
          "name": "deadline",
          "type": "uint256"
        },
        {
          "internalType": "bool",
          "name": "approveMax",
          "type": "bool"
        },
        {
          "internalType": "uint8",
          "name": "v",
          "type": "uint8"
        },
        {
          "internalType": "bytes32",
          "name": "r",
          "type": "bytes32"
        },
        {
          "internalType": "bytes32",
          "name": "s",
          "type": "bytes32"
        }
      ],
      "name": "removeLiquidityETHWithPermitSupportingFeeOnTransferTokens",
      "outputs": [
        {
          "internalType": "uint256",
          "name": "amountETH",
          "type": "uint256"
        }
      ],
      "stateMutability": "nonpayable",
      "type": "function"
    },
    {
      "inputs": [
        {
          "internalType": "address",
          "name": "tokenA",
          "type": "address"
        },
        {
          "internalType": "address",
          "name": "tokenB",
          "type": "address"
        },
        {
          "internalType": "uint256",
          "name": "liquidity",
          "type": "uint256"
        },
        {
          "internalType": "uint256",
          "name": "amountAMin",
          "type": "uint256"
        },
        {
          "internalType": "uint256",
          "name": "amountBMin",
          "type": "uint256"
        },
        {
          "internalType": "address",
          "name": "to",
          "type": "address"
        },
        {
          "internalType": "uint256",
          "name": "deadline",
          "type": "uint256"
        },
        {
          "internalType": "bool",
          "name": "approveMax",
          "type": "bool"
        },
        {
          "internalType": "uint8",
          "name": "v",
          "type": "uint8"
        },
        {
          "internalType": "bytes32",
          "name": "r",
          "type": "bytes32"
        },
        {
          "internalType": "bytes32",
          "name": "s",
          "type": "bytes32"
        }
      ],
      "name": "removeLiquidityWithPermit",
      "outputs": [
        {
          "internalType": "uint256",
          "name": "amountA",
          "type": "uint256"
        },
        {
          "internalType": "uint256",
          "name": "amountB",
          "type": "uint256"
        }
      ],
      "stateMutability": "nonpayable",
      "type": "function"
    },
    {
      "inputs": [
        {
          "internalType": "uint256",
          "name": "amountOut",
          "type": "uint256"
        },
        {
          "internalType": "address[]",
          "name": "path",
          "type": "address[]"
        },
        {
          "internalType": "address",
          "name": "to",
          "type": "address"
        },
        {
          "internalType": "uint256",
          "name": "deadline",
          "type": "uint256"
        }
      ],
      "name": "swapETHForExactTokens",
      "outputs": [
        {
          "internalType": "uint256[]",
          "name": "amounts",
          "type": "uint256[]"
        }
      ],
      "stateMutability": "payable",
      "type": "function"
    },
    {
      "inputs": [
        {
          "internalType": "uint256",
          "name": "amountOutMin",
          "type": "uint256"
        },
        {
          "internalType": "address[]",
          "name": "path",
          "type": "address[]"
        },
        {
          "internalType": "address",
          "name": "to",
          "type": "address"
        },
        {
          "internalType": "uint256",
          "name": "deadline",
          "type": "uint256"
        }
      ],
      "name": "swapExactETHForTokens",
      "outputs": [
        {
          "internalType": "uint256[]",
          "name": "amounts",
          "type": "uint256[]"
        }
      ],
      "stateMutability": "payable",
      "type": "function"
    },
    {
      "inputs": [
        {
          "internalType": "uint256",
          "name": "amountOutMin",
          "type": "uint256"
        },
        {
          "internalType": "address[]",
          "name": "path",
          "type": "address[]"
        },
        {
          "internalType": "address",
          "name": "to",
          "type": "address"
        },
        {
          "internalType": "uint256",
          "name": "deadline",
          "type": "uint256"
        }
      ],
      "name": "swapExactETHForTokensSupportingFeeOnTransferTokens",
      "outputs": [],
      "stateMutability": "payable",
      "type": "function"
    },
    {
      "inputs": [
        {
          "internalType": "uint256",
          "name": "amountIn",
          "type": "uint256"
        },
        {
          "internalType": "uint256",
          "name": "amountOutMin",
          "type": "uint256"
        },
        {
          "internalType": "address[]",
          "name": "path",
          "type": "address[]"
        },
        {
          "internalType": "address",
          "name": "to",
          "type": "address"
        },
        {
          "internalType": "uint256",
          "name": "deadline",
          "type": "uint256"
        }
      ],
      "name": "swapExactTokensForETH",
      "outputs": [
        {
          "internalType": "uint256[]",
          "name": "amounts",
          "type": "uint256[]"
        }
      ],
      "stateMutability": "nonpayable",
      "type": "function"
    },
    {
      "inputs": [
        {
          "internalType": "uint256",
          "name": "amountIn",
          "type": "uint256"
        },
        {
          "internalType": "uint256",
          "name": "amountOutMin",
          "type": "uint256"
        },
        {
          "internalType": "address[]",
          "name": "path",
          "type": "address[]"
        },
        {
          "internalType": "address",
          "name": "to",
          "type": "address"
        },
        {
          "internalType": "uint256",
          "name": "deadline",
          "type": "uint256"
        }
      ],
      "name": "swapExactTokensForETHSupportingFeeOnTransferTokens",
      "outputs": [],
      "stateMutability": "nonpayable",
      "type": "function"
    },
    {
      "inputs": [
        {
          "internalType": "uint256",
          "name": "amountIn",
          "type": "uint256"
        },
        {
          "internalType": "uint256",
          "name": "amountOutMin",
          "type": "uint256"
        },
        {
          "internalType": "address[]",
          "name": "path",
          "type": "address[]"
        },
        {
          "internalType": "address",
          "name": "to",
          "type": "address"
        },
        {
          "internalType": "uint256",
          "name": "deadline",
          "type": "uint256"
        }
      ],
      "name": "swapExactTokensForTokens",
      "outputs": [
        {
          "internalType": "uint256[]",
          "name": "amounts",
          "type": "uint256[]"
        }
      ],
      "stateMutability": "nonpayable",
      "type": "function"
    },
    {
      "inputs": [
        {
          "internalType": "uint256",
          "name": "amountIn",
          "type": "uint256"
        },
        {
          "internalType": "uint256",
          "name": "amountOutMin",
          "type": "uint256"
        },
        {
          "internalType": "address[]",
          "name": "path",
          "type": "address[]"
        },
        {
          "internalType": "address",
          "name": "to",
          "type": "address"
        },
        {
          "internalType": "uint256",
          "name": "deadline",
          "type": "uint256"
        }
      ],
      "name": "swapExactTokensForTokensSupportingFeeOnTransferTokens",
      "outputs": [],
      "stateMutability": "nonpayable",
      "type": "function"
    },
    {
      "inputs": [
        {
          "internalType": "uint256",
          "name": "amountOut",
          "type": "uint256"
        },
        {
          "internalType": "uint256",
          "name": "amountInMax",
          "type": "uint256"
        },
        {
          "internalType": "address[]",
          "name": "path",
          "type": "address[]"
        },
        {
          "internalType": "address",
          "name": "to",
          "type": "address"
        },
        {
          "internalType": "uint256",
          "name": "deadline",
          "type": "uint256"
        }
      ],
      "name": "swapTokensForExactETH",
      "outputs": [
        {
          "internalType": "uint256[]",
          "name": "amounts",
          "type": "uint256[]"
        }
      ],
      "stateMutability": "nonpayable",
      "type": "function"
    },
    {
      "inputs": [
        {
          "internalType": "uint256",
          "name": "amountOut",
          "type": "uint256"
        },
        {
          "internalType": "uint256",
          "name": "amountInMax",
          "type": "uint256"
        },
        {
          "internalType": "address[]",
          "name": "path",
          "type": "address[]"
        },
        {
          "internalType": "address",
          "name": "to",
          "type": "address"
        },
        {
          "internalType": "uint256",
          "name": "deadline",
          "type": "uint256"
        }
      ],
      "name": "swapTokensForExactTokens",
      "outputs": [
        {
          "internalType": "uint256[]",
          "name": "amounts",
          "type": "uint256[]"
        }
      ],
      "stateMutability": "nonpayable",
      "type": "function"
    },
    {
      "stateMutability": "payable",
      "type": "receive"
    }
  ],
  "transactionHash": "0x4acbb26970e3351623cb714ea785e134e2d5f898c31f4c8abb1611d5a4c6ac13",
  "args": [
    "0x107143bce537a2bd50c98303bf2ddb36396d0f8d",
    "0xc778417E063141139Fce010982780140Aa0cD5Ab"
  ],
  "solcInputHash": "a6b651bbec64421c749bb98177eb1996",
  "bytecode": "0x60c06040523480156200001157600080fd5b506040516200469d3803806200469d833981016040819052620000349162000070565b6001600160601b0319606092831b8116608052911b1660a052620000a7565b80516001600160a01b03811681146200006b57600080fd5b919050565b6000806040838503121562000083578182fd5b6200008e8362000053565b91506200009e6020840162000053565b90509250929050565b60805160601c60a05160601c61445e6200023f6000396000818161017a015281816103ac01528181610561015281816105b00152818161066c015281816108e301528181610c5201528181610da90152818161115d0152818161125c01528181611316015281816113a9015281816114e30152818161157f0152818161180e015281816118d501528181611966015281816119f101528181611a6501528181611f200152818161212001528181612176015281816121aa0152818161223f015281816123a4015281816124d2015261256e01526000818161046b015281816106f6015281816107e4015281816109e501528181610a1c01528181610b1301528181610cdc01528181610d8701528181610ecc01528181611432015281816115b10152818161173501528181611a9701528181611d0c01528181611ece01528181611efe01528181612027015281816121540152818161242d015281816125a001528181612f0901528181612f67015281816132a201528181613419015281816137800152818161383201526138b8015261445e6000f3fe60806040526004361061016a5760003560e01c806385f8c259116100d1578063baa2abde1161008a578063ded9382a11610064578063ded9382a146104ad578063e8e33700146104cd578063f305d71914610508578063fb3bdb411461051b576101b7565b8063baa2abde14610439578063c45a015514610459578063d06ca61f1461048d576101b7565b806385f8c2591461035a5780638803dbee1461037a578063ad5c46481461039a578063ad615dec146103e6578063af2979eb14610406578063b6f9de9514610426576101b7565b806338ed17391161012357806338ed1739146102a75780634a25d94a146102c75780635b0d5984146102e75780635c11d79514610307578063791ac947146103275780637ff36ab514610347576101b7565b806302751cec146101bc578063054d50d4146101f6578063098d32281461022457806318cbafe51461023a5780631f00ca74146102675780632195995c14610287576101b7565b366101b757336001600160a01b037f000000000000000000000000000000000000000000000000000000000000000016146101b557634e487b7160e01b600052600160045260246000fd5b005b600080fd5b3480156101c857600080fd5b506101dc6101d7366004613cdb565b61052e565b604080519283526020830191909152015b60405180910390f35b34801561020257600080fd5b5061021661021136600461401a565b61062a565b6040519081526020016101ed565b34801561023057600080fd5b5061021660001981565b34801561024657600080fd5b5061025a610255366004613fa9565b61063f565b6040516101ed91906140a2565b34801561027357600080fd5b5061025a610282366004613eb4565b6109de565b34801561029357600080fd5b506101dc6102a2366004613bb7565b610a12565b3480156102b357600080fd5b5061025a6102c2366004613fa9565b610aeb565b3480156102d357600080fd5b5061025a6102e2366004613fa9565b610c25565b3480156102f357600080fd5b50610216610302366004613d38565b610d7f565b34801561031357600080fd5b506101b5610322366004613fa9565b610e6c565b34801561033357600080fd5b506101b5610342366004613fa9565b611132565b61025a610355366004613e4f565b611384565b34801561036657600080fd5b5061021661037536600461401a565b611700565b34801561038657600080fd5b5061025a610395366004613fa9565b61170d565b3480156103a657600080fd5b506103ce7f000000000000000000000000000000000000000000000000000000000000000081565b6040516001600160a01b0390911681526020016101ed565b3480156103f257600080fd5b5061021661040136600461401a565b6117d8565b34801561041257600080fd5b50610216610421366004613cdb565b6117e5565b6101b5610434366004613e4f565b611943565b34801561044557600080fd5b506101dc610454366004613b46565b611ce1565b34801561046557600080fd5b506103ce7f000000000000000000000000000000000000000000000000000000000000000081565b34801561049957600080fd5b5061025a6104a8366004613eb4565b611ec7565b3480156104b957600080fd5b506101dc6104c8366004613d38565b611ef4565b3480156104d957600080fd5b506104ed6104e8366004613c60565b611fe7565b604080519384526020840192909252908201526060016101ed565b6104ed610516366004613cdb565b6120f4565b61025a610529366004613e4f565b61237f565b600080824281101561055b5760405162461bcd60e51b8152600401610552906140e6565b60405180910390fd5b61058a897f00000000000000000000000000000000000000000000000000000000000000008a8a8a308a611ce1565b909350915061059a89868561274d565b604051632e1a7d4d60e01b8152600481018390527f00000000000000000000000000000000000000000000000000000000000000006001600160a01b031690632e1a7d4d90602401600060405180830381600087803b1580156105fc57600080fd5b505af1158015610610573d6000803e3d6000fd5b5050505061061e8583612868565b50965096945050505050565b6000610637848484612936565b949350505050565b606081428110156106625760405162461bcd60e51b8152600401610552906140e6565b6001600160a01b037f0000000000000000000000000000000000000000000000000000000000000000168686610699600182614361565b8181106106b657634e487b7160e01b600052603260045260246000fd5b90506020020160208101906106cb9190613b0e565b6001600160a01b0316146106f15760405162461bcd60e51b815260040161055290614163565b61074f7f000000000000000000000000000000000000000000000000000000000000000089888880806020026020016040519081016040528093929190818152602001838360200280828437600092019190915250612a1492505050565b91508682600184516107619190614361565b8151811061077f57634e487b7160e01b600052603260045260246000fd5b602002602001015110156107a55760405162461bcd60e51b81526004016105529061426f565b6108a2868660008181106107c957634e487b7160e01b600052603260045260246000fd5b90506020020160208101906107de9190613b0e565b336108747f00000000000000000000000000000000000000000000000000000000000000008a8a600081811061082457634e487b7160e01b600052603260045260246000fd5b90506020020160208101906108399190613b0e565b8b8b600181811061085a57634e487b7160e01b600052603260045260246000fd5b905060200201602081019061086f9190613b0e565b612bf3565b8560008151811061089557634e487b7160e01b600052603260045260246000fd5b6020026020010151612ccc565b6108e182878780806020026020016040519081016040528093929190818152602001838360200280828437600092019190915250309250612dfc915050565b7f00000000000000000000000000000000000000000000000000000000000000006001600160a01b0316632e1a7d4d836001855161091f9190614361565b8151811061093d57634e487b7160e01b600052603260045260246000fd5b60200260200101516040518263ffffffff1660e01b815260040161096391815260200190565b600060405180830381600087803b15801561097d57600080fd5b505af1158015610991573d6000803e3d6000fd5b505050506109d38483600185516109a89190614361565b815181106109c657634e487b7160e01b600052603260045260246000fd5b6020026020010151612868565b509695505050505050565b6060610a0b7f0000000000000000000000000000000000000000000000000000000000000000848461303c565b9392505050565b6000806000610a427f00000000000000000000000000000000000000000000000000000000000000008f8f612bf3565b9050600087610a51578c610a55565b6000195b60405163d505accf60e01b81529091506001600160a01b0383169063d505accf90610a90903390309086908f908e908e908e90600401614061565b600060405180830381600087803b158015610aaa57600080fd5b505af1158015610abe573d6000803e3d6000fd5b50505050610ad18f8f8f8f8f8f8f611ce1565b809450819550505050509b509b9950505050505050505050565b60608142811015610b0e5760405162461bcd60e51b8152600401610552906140e6565b610b6c7f000000000000000000000000000000000000000000000000000000000000000089888880806020026020016040519081016040528093929190818152602001838360200280828437600092019190915250612a1492505050565b9150868260018451610b7e9190614361565b81518110610b9c57634e487b7160e01b600052603260045260246000fd5b60200260200101511015610bc25760405162461bcd60e51b81526004016105529061426f565b610be6868660008181106107c957634e487b7160e01b600052603260045260246000fd5b6109d382878780806020026020016040519081016040528093929190818152602001838360200280828437600092019190915250899250612dfc915050565b60608142811015610c485760405162461bcd60e51b8152600401610552906140e6565b6001600160a01b037f0000000000000000000000000000000000000000000000000000000000000000168686610c7f600182614361565b818110610c9c57634e487b7160e01b600052603260045260246000fd5b9050602002016020810190610cb19190613b0e565b6001600160a01b031614610cd75760405162461bcd60e51b815260040161055290614163565b610d357f00000000000000000000000000000000000000000000000000000000000000008988888080602002602001604051908101604052809392919081815260200183836020028082843760009201919091525061303c92505050565b91508682600081518110610d5957634e487b7160e01b600052603260045260246000fd5b602002602001015111156107a55760405162461bcd60e51b8152600401610552906141e2565b600080610dcd7f00000000000000000000000000000000000000000000000000000000000000008d7f0000000000000000000000000000000000000000000000000000000000000000612bf3565b9050600086610ddc578b610de0565b6000195b60405163d505accf60e01b81529091506001600160a01b0383169063d505accf90610e1b903390309086908e908d908d908d90600401614061565b600060405180830381600087803b158015610e3557600080fd5b505af1158015610e49573d6000803e3d6000fd5b50505050610e5b8d8d8d8d8d8d6117e5565b9d9c50505050505050505050505050565b8042811015610e8d5760405162461bcd60e51b8152600401610552906140e6565b610f4885856000818110610eb157634e487b7160e01b600052603260045260246000fd5b9050602002016020810190610ec69190613b0e565b33610f427f000000000000000000000000000000000000000000000000000000000000000089896000818110610f0c57634e487b7160e01b600052603260045260246000fd5b9050602002016020810190610f219190613b0e565b8a8a600181811061085a57634e487b7160e01b600052603260045260246000fd5b8a612ccc565b60008585610f57600182614361565b818110610f7457634e487b7160e01b600052603260045260246000fd5b9050602002016020810190610f899190613b0e565b6040516370a0823160e01b81526001600160a01b03868116600483015291909116906370a082319060240160206040518083038186803b158015610fcc57600080fd5b505afa158015610fe0573d6000803e3d6000fd5b505050506040513d601f19601f820116820180604052508101906110049190613e37565b9050611044868680806020026020016040519081016040528093929190818152602001838360200280828437600092019190915250889250613211915050565b8661110a828888611056600182614361565b81811061107357634e487b7160e01b600052603260045260246000fd5b90506020020160208101906110889190613b0e565b6040516370a0823160e01b81526001600160a01b03898116600483015291909116906370a08231906024015b60206040518083038186803b1580156110cc57600080fd5b505afa1580156110e0573d6000803e3d6000fd5b505050506040513d601f19601f820116820180604052508101906111049190613e37565b906134d5565b10156111285760405162461bcd60e51b81526004016105529061426f565b5050505050505050565b80428110156111535760405162461bcd60e51b8152600401610552906140e6565b6001600160a01b037f000000000000000000000000000000000000000000000000000000000000000016858561118a600182614361565b8181106111a757634e487b7160e01b600052603260045260246000fd5b90506020020160208101906111bc9190613b0e565b6001600160a01b0316146111e25760405162461bcd60e51b815260040161055290614163565b61120685856000818110610eb157634e487b7160e01b600052603260045260246000fd5b611244858580806020026020016040519081016040528093929190818152602001838360200280828437600092019190915250309250613211915050565b6040516370a0823160e01b81523060048201526000907f00000000000000000000000000000000000000000000000000000000000000006001600160a01b0316906370a082319060240160206040518083038186803b1580156112a657600080fd5b505afa1580156112ba573d6000803e3d6000fd5b505050506040513d601f19601f820116820180604052508101906112de9190613e37565b9050868110156113005760405162461bcd60e51b81526004016105529061426f565b604051632e1a7d4d60e01b8152600481018290527f00000000000000000000000000000000000000000000000000000000000000006001600160a01b031690632e1a7d4d90602401600060405180830381600087803b15801561136257600080fd5b505af1158015611376573d6000803e3d6000fd5b505050506111288482612868565b606081428110156113a75760405162461bcd60e51b8152600401610552906140e6565b7f00000000000000000000000000000000000000000000000000000000000000006001600160a01b0316868660008181106113f257634e487b7160e01b600052603260045260246000fd5b90506020020160208101906114079190613b0e565b6001600160a01b03161461142d5760405162461bcd60e51b815260040161055290614163565b61148b7f000000000000000000000000000000000000000000000000000000000000000034888880806020026020016040519081016040528093929190818152602001838360200280828437600092019190915250612a1492505050565b915086826001845161149d9190614361565b815181106114bb57634e487b7160e01b600052603260045260246000fd5b602002602001015110156114e15760405162461bcd60e51b81526004016105529061426f565b7f00000000000000000000000000000000000000000000000000000000000000006001600160a01b031663d0e30db08360008151811061153157634e487b7160e01b600052603260045260246000fd5b60200260200101516040518263ffffffff1660e01b81526004016000604051808303818588803b15801561156457600080fd5b505af1158015611578573d6000803e3d6000fd5b50505050507f00000000000000000000000000000000000000000000000000000000000000006001600160a01b031663a9059cbb6115f17f000000000000000000000000000000000000000000000000000000000000000089896000818110610f0c57634e487b7160e01b600052603260045260246000fd5b8460008151811061161257634e487b7160e01b600052603260045260246000fd5b60200260200101516040518363ffffffff1660e01b815260040161164b9291906001600160a01b03929092168252602082015260400190565b602060405180830381600087803b15801561166557600080fd5b505af1158015611679573d6000803e3d6000fd5b505050506040513d601f19601f8201168201806040525081019061169d9190613dcd565b6116b757634e487b7160e01b600052600160045260246000fd5b6116f682878780806020026020016040519081016040528093929190818152602001838360200280828437600092019190915250899250612dfc915050565b5095945050505050565b60006106378484846134e1565b606081428110156117305760405162461bcd60e51b8152600401610552906140e6565b61178e7f00000000000000000000000000000000000000000000000000000000000000008988888080602002602001604051908101604052809392919081815260200183836020028082843760009201919091525061303c92505050565b915086826000815181106117b257634e487b7160e01b600052603260045260246000fd5b60200260200101511115610bc25760405162461bcd60e51b8152600401610552906141e2565b60006106378484846135ba565b600081428110156118085760405162461bcd60e51b8152600401610552906140e6565b611837887f00000000000000000000000000000000000000000000000000000000000000008989893089611ce1565b6040516370a0823160e01b81523060048201529093506118bf9150899086906001600160a01b038316906370a082319060240160206040518083038186803b15801561188257600080fd5b505afa158015611896573d6000803e3d6000fd5b505050506040513d601f19601f820116820180604052508101906118ba9190613e37565b61274d565b604051632e1a7d4d60e01b8152600481018390527f00000000000000000000000000000000000000000000000000000000000000006001600160a01b031690632e1a7d4d90602401600060405180830381600087803b15801561192157600080fd5b505af1158015611935573d6000803e3d6000fd5b505050506109d38483612868565b80428110156119645760405162461bcd60e51b8152600401610552906140e6565b7f00000000000000000000000000000000000000000000000000000000000000006001600160a01b0316858560008181106119af57634e487b7160e01b600052603260045260246000fd5b90506020020160208101906119c49190613b0e565b6001600160a01b0316146119ea5760405162461bcd60e51b815260040161055290614163565b60003490507f00000000000000000000000000000000000000000000000000000000000000006001600160a01b031663d0e30db0826040518263ffffffff1660e01b81526004016000604051808303818588803b158015611a4a57600080fd5b505af1158015611a5e573d6000803e3d6000fd5b50505050507f00000000000000000000000000000000000000000000000000000000000000006001600160a01b031663a9059cbb611ad77f000000000000000000000000000000000000000000000000000000000000000089896000818110610f0c57634e487b7160e01b600052603260045260246000fd5b6040516001600160e01b031960e084901b1681526001600160a01b03909116600482015260248101849052604401602060405180830381600087803b158015611b1f57600080fd5b505af1158015611b33573d6000803e3d6000fd5b505050506040513d601f19601f82011682018060405250810190611b579190613dcd565b611b7157634e487b7160e01b600052600160045260246000fd5b60008686611b80600182614361565b818110611b9d57634e487b7160e01b600052603260045260246000fd5b9050602002016020810190611bb29190613b0e565b6040516370a0823160e01b81526001600160a01b03878116600483015291909116906370a082319060240160206040518083038186803b158015611bf557600080fd5b505afa158015611c09573d6000803e3d6000fd5b505050506040513d601f19601f82011682018060405250810190611c2d9190613e37565b9050611c6d878780806020026020016040519081016040528093929190818152602001838360200280828437600092019190915250899250613211915050565b8761110a828989611c7f600182614361565b818110611c9c57634e487b7160e01b600052603260045260246000fd5b9050602002016020810190611cb19190613b0e565b6040516370a0823160e01b81526001600160a01b038a8116600483015291909116906370a08231906024016110b4565b6000808242811015611d055760405162461bcd60e51b8152600401610552906140e6565b6000611d327f00000000000000000000000000000000000000000000000000000000000000008c8c612bf3565b6040516323b872dd60e01b81523360048201526001600160a01b03821660248201819052604482018c90529192506323b872dd90606401602060405180830381600087803b158015611d8357600080fd5b505af1158015611d97573d6000803e3d6000fd5b505050506040513d601f19601f82011682018060405250810190611dbb9190613dcd565b5060405163226bf2d160e21b81526001600160a01b03878116600483015260009182918416906389afcb44906024016040805180830381600087803b158015611e0357600080fd5b505af1158015611e17573d6000803e3d6000fd5b505050506040513d601f19601f82011682018060405250810190611e3b9190613f86565b915091506000611e4b8e8e61365a565b509050806001600160a01b03168e6001600160a01b031614611e6e578183611e71565b82825b90975095508a871015611e965760405162461bcd60e51b815260040161055290614229565b89861015611eb65760405162461bcd60e51b81526004016105529061411d565b505050505097509795505050505050565b6060610a0b7f00000000000000000000000000000000000000000000000000000000000000008484612a14565b6000806000611f447f00000000000000000000000000000000000000000000000000000000000000008e7f0000000000000000000000000000000000000000000000000000000000000000612bf3565b9050600087611f53578c611f57565b6000195b60405163d505accf60e01b81529091506001600160a01b0383169063d505accf90611f92903390309086908f908e908e908e90600401614061565b600060405180830381600087803b158015611fac57600080fd5b505af1158015611fc0573d6000803e3d6000fd5b50505050611fd28e8e8e8e8e8e61052e565b909f909e509c50505050505050505050505050565b6000806000834281101561200d5760405162461bcd60e51b8152600401610552906140e6565b61201b8c8c8c8c8c8c613752565b9094509250600061204d7f00000000000000000000000000000000000000000000000000000000000000008e8e612bf3565b905061205b8d338388612ccc565b6120678c338387612ccc565b6040516335313c2160e11b81526001600160a01b038881166004830152821690636a62784290602401602060405180830381600087803b1580156120aa57600080fd5b505af11580156120be573d6000803e3d6000fd5b505050506040513d601f19601f820116820180604052508101906120e29190613e37565b92505050985098509895505050505050565b6000806000834281101561211a5760405162461bcd60e51b8152600401610552906140e6565b6121488a7f00000000000000000000000000000000000000000000000000000000000000008b348c8c613752565b9094509250600061219a7f00000000000000000000000000000000000000000000000000000000000000008c7f0000000000000000000000000000000000000000000000000000000000000000612bf3565b90506121a88b338388612ccc565b7f00000000000000000000000000000000000000000000000000000000000000006001600160a01b031663d0e30db0856040518263ffffffff1660e01b81526004016000604051808303818588803b15801561220357600080fd5b505af1158015612217573d6000803e3d6000fd5b505060405163a9059cbb60e01b81526001600160a01b038581166004830152602482018990527f000000000000000000000000000000000000000000000000000000000000000016935063a9059cbb92506044019050602060405180830381600087803b15801561228757600080fd5b505af115801561229b573d6000803e3d6000fd5b505050506040513d601f19601f820116820180604052508101906122bf9190613dcd565b6122d957634e487b7160e01b600052600160045260246000fd5b6040516335313c2160e11b81526001600160a01b038881166004830152821690636a62784290602401602060405180830381600087803b15801561231c57600080fd5b505af1158015612330573d6000803e3d6000fd5b505050506040513d601f19601f820116820180604052508101906123549190613e37565b925083341115612371576123713361236c8634614361565b612868565b505096509650969350505050565b606081428110156123a25760405162461bcd60e51b8152600401610552906140e6565b7f00000000000000000000000000000000000000000000000000000000000000006001600160a01b0316868660008181106123ed57634e487b7160e01b600052603260045260246000fd5b90506020020160208101906124029190613b0e565b6001600160a01b0316146124285760405162461bcd60e51b815260040161055290614163565b6124867f00000000000000000000000000000000000000000000000000000000000000008888888080602002602001604051908101604052809392919081815260200183836020028082843760009201919091525061303c92505050565b915034826000815181106124aa57634e487b7160e01b600052603260045260246000fd5b602002602001015111156124d05760405162461bcd60e51b8152600401610552906141e2565b7f00000000000000000000000000000000000000000000000000000000000000006001600160a01b031663d0e30db08360008151811061252057634e487b7160e01b600052603260045260246000fd5b60200260200101516040518263ffffffff1660e01b81526004016000604051808303818588803b15801561255357600080fd5b505af1158015612567573d6000803e3d6000fd5b50505050507f00000000000000000000000000000000000000000000000000000000000000006001600160a01b031663a9059cbb6125e07f000000000000000000000000000000000000000000000000000000000000000089896000818110610f0c57634e487b7160e01b600052603260045260246000fd5b8460008151811061260157634e487b7160e01b600052603260045260246000fd5b60200260200101516040518363ffffffff1660e01b815260040161263a9291906001600160a01b03929092168252602082015260400190565b602060405180830381600087803b15801561265457600080fd5b505af1158015612668573d6000803e3d6000fd5b505050506040513d601f19601f8201168201806040525081019061268c9190613dcd565b6126a657634e487b7160e01b600052600160045260246000fd5b6126e582878780806020026020016040519081016040528093929190818152602001838360200280828437600092019190915250899250612dfc915050565b8160008151811061270657634e487b7160e01b600052603260045260246000fd5b60200260200101513411156116f6576116f6338360008151811061273a57634e487b7160e01b600052603260045260246000fd5b60200260200101513461236c9190614361565b604080516001600160a01b038481166024830152604480830185905283518084039091018152606490920183526020820180516001600160e01b031663a9059cbb60e01b17905291516000928392908716916127a99190614045565b6000604051808303816000865af19150503d80600081146127e6576040519150601f19603f3d011682016040523d82523d6000602084013e6127eb565b606091505b50915091508180156128155750805115806128155750808060200190518101906128159190613dcd565b6128615760405162461bcd60e51b815260206004820152601f60248201527f5472616e7366657248656c7065723a205452414e534645525f4641494c4544006044820152606401610552565b5050505050565b604080516000808252602082019092526001600160a01b0384169083906040516128929190614045565b60006040518083038185875af1925050503d80600081146128cf576040519150601f19603f3d011682016040523d82523d6000602084013e6128d4565b606091505b50509050806129315760405162461bcd60e51b815260206004820152602360248201527f5472616e7366657248656c7065723a204554485f5452414e534645525f46414960448201526213115160ea1b6064820152608401610552565b505050565b600080841161299b5760405162461bcd60e51b815260206004820152602b60248201527f556e697377617056324c6962726172793a20494e53554646494349454e545f4960448201526a1394155517d05353d5539560aa1b6064820152608401610552565b6000831180156129ab5750600082115b6129c75760405162461bcd60e51b81526004016105529061419a565b60006129d5856103e56139a3565b905060006129e382856139a3565b905060006129fd836129f7886103e86139a3565b906139af565b9050612a098183614322565b979650505050505050565b6060600282511015612a685760405162461bcd60e51b815260206004820152601e60248201527f556e697377617056324c6962726172793a20494e56414c49445f5041544800006044820152606401610552565b815167ffffffffffffffff811115612a9057634e487b7160e01b600052604160045260246000fd5b604051908082528060200260200182016040528015612ab9578160200160208202803683370190505b5090508281600081518110612ade57634e487b7160e01b600052603260045260246000fd5b60200260200101818152505060005b60018351612afb9190614361565b811015612beb57600080612b6a87868581518110612b2957634e487b7160e01b600052603260045260246000fd5b602002602001015187866001612b3f919061430a565b81518110612b5d57634e487b7160e01b600052603260045260246000fd5b60200260200101516139bb565b91509150612ba0848481518110612b9157634e487b7160e01b600052603260045260246000fd5b60200260200101518383612936565b84612bac85600161430a565b81518110612bca57634e487b7160e01b600052603260045260246000fd5b60200260200101818152505050508080612be3906143bb565b915050612aed565b509392505050565b6000806000612c02858561365a565b6040516bffffffffffffffffffffffff19606084811b8216602084015283901b1660348201529193509150869060480160405160208183030381529060405280519060200120604051602001612caa9291906001600160f81b0319815260609290921b6bffffffffffffffffffffffff1916600183015260158201527fe18a34eb0e04b04f7a0ac29a6e80748dca96319b42c54d679cb821dca90c6303603582015260550190565b60408051601f1981840301815291905280516020909101209695505050505050565b604080516001600160a01b0385811660248301528481166044830152606480830185905283518084039091018152608490920183526020820180516001600160e01b03166323b872dd60e01b1790529151600092839290881691612d309190614045565b6000604051808303816000865af19150503d8060008114612d6d576040519150601f19603f3d011682016040523d82523d6000602084013e612d72565b606091505b5091509150818015612d9c575080511580612d9c575080806020019051810190612d9c9190613dcd565b612df45760405162461bcd60e51b8152602060048201526024808201527f5472616e7366657248656c7065723a205452414e534645525f46524f4d5f46416044820152631253115160e21b6064820152608401610552565b505050505050565b60005b60018351612e0d9190614361565b81101561303657600080848381518110612e3757634e487b7160e01b600052603260045260246000fd5b602002602001015185846001612e4d919061430a565b81518110612e6b57634e487b7160e01b600052603260045260246000fd5b6020026020010151915091506000612e83838361365a565b509050600087612e9486600161430a565b81518110612eb257634e487b7160e01b600052603260045260246000fd5b60200260200101519050600080836001600160a01b0316866001600160a01b031614612ee057826000612ee4565b6000835b91509150600060028a51612ef89190614361565b8810612f045788612f60565b612f607f0000000000000000000000000000000000000000000000000000000000000000878c612f358c600261430a565b81518110612f5357634e487b7160e01b600052603260045260246000fd5b6020026020010151612bf3565b9050612f8d7f00000000000000000000000000000000000000000000000000000000000000008888612bf3565b6001600160a01b031663022c0d9f84848460006040519080825280601f01601f191660200182016040528015612fca576020820181803683370190505b506040518563ffffffff1660e01b8152600401612fea94939291906142ba565b600060405180830381600087803b15801561300457600080fd5b505af1158015613018573d6000803e3d6000fd5b5050505050505050505050808061302e906143bb565b915050612dff565b50505050565b60606002825110156130905760405162461bcd60e51b815260206004820152601e60248201527f556e697377617056324c6962726172793a20494e56414c49445f5041544800006044820152606401610552565b815167ffffffffffffffff8111156130b857634e487b7160e01b600052604160045260246000fd5b6040519080825280602002602001820160405280156130e1578160200160208202803683370190505b5090508281600183516130f49190614361565b8151811061311257634e487b7160e01b600052603260045260246000fd5b60200260200101818152505060006001835161312e9190614361565b90505b8015612beb57600080613190878661314a600187614361565b8151811061316857634e487b7160e01b600052603260045260246000fd5b6020026020010151878681518110612b5d57634e487b7160e01b600052603260045260246000fd5b915091506131c68484815181106131b757634e487b7160e01b600052603260045260246000fd5b602002602001015183836134e1565b846131d2600186614361565b815181106131f057634e487b7160e01b600052603260045260246000fd5b60200260200101818152505050508080613209906143a4565b915050613131565b60005b600183516132229190614361565b8110156129315760008084838151811061324c57634e487b7160e01b600052603260045260246000fd5b602002602001015185846001613262919061430a565b8151811061328057634e487b7160e01b600052603260045260246000fd5b6020026020010151915091506000613298838361365a565b50905060006132c87f00000000000000000000000000000000000000000000000000000000000000008585612bf3565b9050600080600080846001600160a01b0316630902f1ac6040518163ffffffff1660e01b815260040160606040518083038186803b15801561330957600080fd5b505afa15801561331d573d6000803e3d6000fd5b505050506040513d601f19601f820116820180604052508101906133419190613de9565b506001600160701b031691506001600160701b03169150600080876001600160a01b03168a6001600160a01b03161461337b57828461337e565b83835b6040516370a0823160e01b81526001600160a01b038a811660048301529294509092506133b9918491908d16906370a08231906024016110b4565b95506133c6868383612936565b945050505050600080856001600160a01b0316886001600160a01b0316146133f0578260006133f4565b6000835b91509150600060028c516134089190614361565b8a10613414578a613445565b6134457f0000000000000000000000000000000000000000000000000000000000000000898e612f358e600261430a565b6040805160008152602081019182905263022c0d9f60e01b9091529091506001600160a01b0387169063022c0d9f9061348790869086908690602481016142ba565b600060405180830381600087803b1580156134a157600080fd5b505af11580156134b5573d6000803e3d6000fd5b5050505050505050505050505080806134cd906143bb565b915050613214565b6000610a0b8284614361565b60008084116135475760405162461bcd60e51b815260206004820152602c60248201527f556e697377617056324c6962726172793a20494e53554646494349454e545f4f60448201526b155514155517d05353d5539560a21b6064820152608401610552565b6000831180156135575750600082115b6135735760405162461bcd60e51b81526004016105529061419a565b600061358b6103e861358586886139a3565b906139a3565b9050600061359f6103e561358586896134d5565b90506135b060016129f78385614322565b9695505050505050565b60008084116136195760405162461bcd60e51b815260206004820152602560248201527f556e697377617056324c6962726172793a20494e53554646494349454e545f416044820152641353d5539560da1b6064820152608401610552565b6000831180156136295750600082115b6136455760405162461bcd60e51b81526004016105529061419a565b8261365085846139a3565b6106379190614322565b600080826001600160a01b0316846001600160a01b031614156136cd5760405162461bcd60e51b815260206004820152602560248201527f556e697377617056324c6962726172793a204944454e544943414c5f41444452604482015264455353455360d81b6064820152608401610552565b826001600160a01b0316846001600160a01b0316106136ed5782846136f0565b83835b90925090506001600160a01b03821661374b5760405162461bcd60e51b815260206004820152601e60248201527f556e697377617056324c6962726172793a205a45524f5f4144445245535300006044820152606401610552565b9250929050565b60405163e6a4390560e01b81526001600160a01b0387811660048301528681166024830152600091829182917f00000000000000000000000000000000000000000000000000000000000000009091169063e6a439059060440160206040518083038186803b1580156137c457600080fd5b505afa1580156137d8573d6000803e3d6000fd5b505050506040513d601f19601f820116820180604052508101906137fc9190613b2a565b6001600160a01b031614156138b0576040516364e329cb60e11b81526001600160a01b03898116600483015288811660248301527f0000000000000000000000000000000000000000000000000000000000000000169063c9c6539690604401602060405180830381600087803b15801561387657600080fd5b505af115801561388a573d6000803e3d6000fd5b505050506040513d601f19601f820116820180604052508101906138ae9190613b2a565b505b6000806138de7f00000000000000000000000000000000000000000000000000000000000000008b8b6139bb565b915091508160001480156138f0575080155b1561390057879350869250613996565b600061390d8984846135ba565b905087811161394157858110156139365760405162461bcd60e51b81526004016105529061411d565b889450925082613994565b600061394e8984866135ba565b90508981111561396e57634e487b7160e01b600052600160045260246000fd5b8781101561398e5760405162461bcd60e51b815260040161055290614229565b94508793505b505b5050965096945050505050565b6000610a0b8284614342565b6000610a0b828461430a565b60008060006139ca858561365a565b5090506000806139db888888612bf3565b6001600160a01b0316630902f1ac6040518163ffffffff1660e01b815260040160606040518083038186803b158015613a1357600080fd5b505afa158015613a27573d6000803e3d6000fd5b505050506040513d601f19601f82011682018060405250810190613a4b9190613de9565b506001600160701b031691506001600160701b03169150826001600160a01b0316876001600160a01b031614613a82578082613a85565b81815b90999098509650505050505050565b8035613a9f81614402565b919050565b60008083601f840112613ab5578081fd5b50813567ffffffffffffffff811115613acc578182fd5b602083019150836020808302850101111561374b57600080fd5b80516001600160701b0381168114613a9f57600080fd5b803560ff81168114613a9f57600080fd5b600060208284031215613b1f578081fd5b8135610a0b81614402565b600060208284031215613b3b578081fd5b8151610a0b81614402565b600080600080600080600060e0888a031215613b60578283fd5b8735613b6b81614402565b96506020880135613b7b81614402565b955060408801359450606088013593506080880135925060a0880135613ba081614402565b8092505060c0880135905092959891949750929550565b60008060008060008060008060008060006101608c8e031215613bd8578384fd5b8b35613be381614402565b9a5060208c0135613bf381614402565b995060408c0135985060608c0135975060808c0135965060a08c0135613c1881614402565b955060c08c0135945060e08c0135613c2f8161441a565b9350613c3e6101008d01613afd565b92506101208c013591506101408c013590509295989b509295989b9093969950565b600080600080600080600080610100898b031215613c7c578384fd5b8835613c8781614402565b97506020890135613c9781614402565b965060408901359550606089013594506080890135935060a0890135925060c0890135613cc381614402565b8092505060e089013590509295985092959890939650565b60008060008060008060c08789031215613cf3578182fd5b8635613cfe81614402565b95506020870135945060408701359350606087013592506080870135613d2381614402565b8092505060a087013590509295509295509295565b6000806000806000806000806000806101408b8d031215613d57578384fd5b8a35613d6281614402565b995060208b0135985060408b0135975060608b0135965060808b0135613d8781614402565b955060a08b0135945060c08b0135613d9e8161441a565b9350613dac60e08c01613afd565b92506101008b013591506101208b013590509295989b9194979a5092959850565b600060208284031215613dde578081fd5b8151610a0b8161441a565b600080600060608486031215613dfd578081fd5b613e0684613ae6565b9250613e1460208501613ae6565b9150604084015163ffffffff81168114613e2c578182fd5b809150509250925092565b600060208284031215613e48578081fd5b5051919050565b600080600080600060808688031215613e66578283fd5b85359450602086013567ffffffffffffffff811115613e83578384fd5b613e8f88828901613aa4565b9095509350506040860135613ea381614402565b949793965091946060013592915050565b60008060408385031215613ec6578182fd5b8235915060208084013567ffffffffffffffff80821115613ee5578384fd5b818601915086601f830112613ef8578384fd5b813581811115613f0a57613f0a6143ec565b838102604051601f19603f83011681018181108582111715613f2e57613f2e6143ec565b604052828152858101935084860182860187018b1015613f4c578788fd5b8795505b83861015613f7557613f6181613a94565b855260019590950194938601938601613f50565b508096505050505050509250929050565b60008060408385031215613f98578182fd5b505080516020909101519092909150565b60008060008060008060a08789031215613fc1578384fd5b8635955060208701359450604087013567ffffffffffffffff811115613fe5578485fd5b613ff189828a01613aa4565b909550935050606087013561400581614402565b80925050608087013590509295509295509295565b60008060006060848603121561402e578081fd5b505081359360208301359350604090920135919050565b60008251614057818460208701614378565b9190910192915050565b6001600160a01b0397881681529590961660208601526040850193909352606084019190915260ff16608083015260a082015260c081019190915260e00190565b6020808252825182820181905260009190848201906040850190845b818110156140da578351835292840192918401916001016140be565b50909695505050505050565b60208082526018908201527f556e69737761705632526f757465723a20455850495245440000000000000000604082015260600190565b60208082526026908201527f556e69737761705632526f757465723a20494e53554646494349454e545f425f604082015265105353d5539560d21b606082015260800190565b6020808252601d908201527f556e69737761705632526f757465723a20494e56414c49445f50415448000000604082015260600190565b60208082526028908201527f556e697377617056324c6962726172793a20494e53554646494349454e545f4c604082015267495155494449545960c01b606082015260800190565b60208082526027908201527f556e69737761705632526f757465723a204558434553534956455f494e50555460408201526617d05353d5539560ca1b606082015260800190565b60208082526026908201527f556e69737761705632526f757465723a20494e53554646494349454e545f415f604082015265105353d5539560d21b606082015260800190565b6020808252602b908201527f556e69737761705632526f757465723a20494e53554646494349454e545f4f5560408201526a1514155517d05353d5539560aa1b606082015260800190565b600085825284602083015260018060a01b03841660408301526080606083015282518060808401526142f38160a0850160208701614378565b601f01601f19169190910160a00195945050505050565b6000821982111561431d5761431d6143d6565b500190565b60008261433d57634e487b7160e01b81526012600452602481fd5b500490565b600081600019048311821515161561435c5761435c6143d6565b500290565b600082821015614373576143736143d6565b500390565b60005b8381101561439357818101518382015260200161437b565b838111156130365750506000910152565b6000816143b3576143b36143d6565b506000190190565b60006000198214156143cf576143cf6143d6565b5060010190565b634e487b7160e01b600052601160045260246000fd5b634e487b7160e01b600052604160045260246000fd5b6001600160a01b038116811461441757600080fd5b50565b801515811461441757600080fdfea26469706673582212201f4268a51587018446ca5b4d8377e78678b2cdcc11ae1874f179b47fa5a34fa964736f6c63430008020033",
  "devdoc": {
    "kind": "dev",
    "methods": {},
    "version": 1
  },
  "userdoc": {
    "kind": "user",
    "methods": {},
    "version": 1
  },
  "storageLayout": {
    "storage": [],
    "types": null
  }
}