{
  "address": "0xD6311dFa6859D9C5D63a281Ba3b2dFC45768Dccb",
  "abi": [
    {
      "inputs": [
        {
          "internalType": "address",
          "name": "_factory",
          "type": "address"
        },
        {
          "internalType": "address",
          "name": "_bar",
          "type": "address"
        },
        {
          "internalType": "address",
          "name": "_react",
          "type": "address"
        },
        {
          "internalType": "address",
          "name": "_weth",
          "type": "address"
        }
      ],
      "stateMutability": "nonpayable",
      "type": "constructor"
    },
    {
      "anonymous": false,
      "inputs": [
        {
          "indexed": true,
          "internalType": "address",
          "name": "token",
          "type": "address"
        },
        {
          "indexed": true,
          "internalType": "address",
          "name": "bridge",
          "type": "address"
        }
      ],
      "name": "LogBridgeSet",
      "type": "event"
    },
    {
      "anonymous": false,
      "inputs": [
        {
          "indexed": true,
          "internalType": "address",
          "name": "server",
          "type": "address"
        },
        {
          "indexed": true,
          "internalType": "address",
          "name": "token0",
          "type": "address"
        },
        {
          "indexed": true,
          "internalType": "address",
          "name": "token1",
          "type": "address"
        },
        {
          "indexed": false,
          "internalType": "uint256",
          "name": "amount0",
          "type": "uint256"
        },
        {
          "indexed": false,
          "internalType": "uint256",
          "name": "amount1",
          "type": "uint256"
        },
        {
          "indexed": false,
          "internalType": "uint256",
          "name": "amountREACT",
          "type": "uint256"
        }
      ],
      "name": "LogConvert",
      "type": "event"
    },
    {
      "anonymous": false,
      "inputs": [
        {
          "indexed": true,
          "internalType": "address",
          "name": "previousOwner",
          "type": "address"
        },
        {
          "indexed": true,
          "internalType": "address",
          "name": "newOwner",
          "type": "address"
        }
      ],
      "name": "OwnershipTransferred",
      "type": "event"
    },
    {
      "inputs": [],
      "name": "bar",
      "outputs": [
        {
          "internalType": "address",
          "name": "",
          "type": "address"
        }
      ],
      "stateMutability": "view",
      "type": "function"
    },
    {
      "inputs": [
        {
          "internalType": "address",
          "name": "token",
          "type": "address"
        }
      ],
      "name": "bridgeFor",
      "outputs": [
        {
          "internalType": "address",
          "name": "bridge",
          "type": "address"
        }
      ],
      "stateMutability": "view",
      "type": "function"
    },
    {
      "inputs": [
        {
          "internalType": "address",
          "name": "token0",
          "type": "address"
        },
        {
          "internalType": "address",
          "name": "token1",
          "type": "address"
        }
      ],
      "name": "convert",
      "outputs": [],
      "stateMutability": "nonpayable",
      "type": "function"
    },
    {
      "inputs": [
        {
          "internalType": "address[]",
          "name": "token0",
          "type": "address[]"
        },
        {
          "internalType": "address[]",
          "name": "token1",
          "type": "address[]"
        }
      ],
      "name": "convertMultiple",
      "outputs": [],
      "stateMutability": "nonpayable",
      "type": "function"
    },
    {
      "inputs": [],
      "name": "factory",
      "outputs": [
        {
          "internalType": "contract IUniswapV2Factory",
          "name": "",
          "type": "address"
        }
      ],
      "stateMutability": "view",
      "type": "function"
    },
    {
      "inputs": [],
      "name": "owner",
      "outputs": [
        {
          "internalType": "address",
          "name": "",
          "type": "address"
        }
      ],
      "stateMutability": "view",
      "type": "function"
    },
    {
      "inputs": [],
      "name": "renounceOwnership",
      "outputs": [],
      "stateMutability": "nonpayable",
      "type": "function"
    },
    {
      "inputs": [
        {
          "internalType": "address",
          "name": "token",
          "type": "address"
        },
        {
          "internalType": "address",
          "name": "bridge",
          "type": "address"
        }
      ],
      "name": "setBridge",
      "outputs": [],
      "stateMutability": "nonpayable",
      "type": "function"
    },
    {
      "inputs": [
        {
          "internalType": "address",
          "name": "newOwner",
          "type": "address"
        }
      ],
      "name": "transferOwnership",
      "outputs": [],
      "stateMutability": "nonpayable",
      "type": "function"
    }
  ],
  "transactionHash": "0x139de4d3ea563caeff177d0a7eb7c50d9759203623feff1c6513ec237eb9fd68",
  "args": [
    "0xff6dca94678a420190aAee00485c5F2d1B6bae7e",
    "0x02208063DD630C4aeAFf090e31F60785790A7328",
    "0x2925293d027391eD3CC24bf4a4B80D072FCBB714",
    "0xc778417E063141139Fce010982780140Aa0cD5Ab"
  ],
  "solcInputHash": "dac350dcdb2b51afef353dcc77743026",
  "bytecode": "0x6101006040523480156200001257600080fd5b5060405162001926380380620019268339810160408190526200003591620000dd565b620000403362000070565b6001600160601b0319606094851b811660805292841b831660a05290831b821660c05290911b1660e05262000139565b600080546001600160a01b038381166001600160a01b0319831681178455604051919092169283917f8be0079c531659141344cd1fd0a4f28419497f9722a3daafe3b4186f6b6457e09190a35050565b80516001600160a01b0381168114620000d857600080fd5b919050565b60008060008060808587031215620000f3578384fd5b620000fe85620000c0565b93506200010e60208601620000c0565b92506200011e60408601620000c0565b91506200012e60608601620000c0565b905092959194509250565b60805160601c60a05160601c60c05160601c60e05160601c61170d62000219600039600081816102fe0152818161041701528181610993015281816109d001528181610b7501528181610bb201528181610bdb01528181610c0801528181610c450152610c6e0152600081816102c1015281816108fd0152818161094201528181610a3001528181610a7501528181610ad901528181610b1e0152610e2f0152600081816101560152818161096401528181610a9701528181610b400152610e5101526000818161011c015281816105590152610e9d015261170d6000f3fe608060405234801561001057600080fd5b50600436106100935760003560e01c8063a761a93911610066578063a761a939146100f1578063bd1b820c14610104578063c45a015514610117578063f2fde38b1461013e578063febb0f7e1461015157610093565b8063303e6aa414610098578063715018a6146100ad5780638da5cb5b146100b55780639d22ae8c146100de575b600080fd5b6100ab6100a6366004611431565b610178565b005b6100ab61025f565b6000546001600160a01b03165b6040516001600160a01b03909116815260200160405180910390f35b6100ab6100ec3660046113f9565b610295565b6100c26100ff3660046113c1565b6103f4565b6100ab6101123660046113f9565b61043c565b6100c27f000000000000000000000000000000000000000000000000000000000000000081565b6100ab61014c3660046113c1565b610494565b6100c27f000000000000000000000000000000000000000000000000000000000000000081565b3332146101c75760405162461bcd60e51b815260206004820152601860248201527752656163744d616b65723a206d7573742075736520454f4160401b60448201526064015b60405180910390fd5b8260005b81811015610257576102458686838181106101f657634e487b7160e01b600052603260045260246000fd5b905060200201602081019061020b91906113c1565b85858481811061022b57634e487b7160e01b600052603260045260246000fd5b905060200201602081019061024091906113c1565b61052f565b8061024f81611691565b9150506101cb565b505050505050565b6000546001600160a01b031633146102895760405162461bcd60e51b81526004016101be906115d5565b610293600061082a565b565b6000546001600160a01b031633146102bf5760405162461bcd60e51b81526004016101be906115d5565b7f00000000000000000000000000000000000000000000000000000000000000006001600160a01b0316826001600160a01b03161415801561033357507f00000000000000000000000000000000000000000000000000000000000000006001600160a01b0316826001600160a01b031614155b80156103515750806001600160a01b0316826001600160a01b031614155b61039d5760405162461bcd60e51b815260206004820152601a60248201527f52656163744d616b65723a20496e76616c69642062726964676500000000000060448201526064016101be565b6001600160a01b0382811660008181526001602052604080822080546001600160a01b0319169486169485179055517f2e103aa707acc565f9a1547341914802b2bfe977fd79c595209f248ae4b006139190a35050565b6001600160a01b03808216600090815260016020526040902054168061043757507f00000000000000000000000000000000000000000000000000000000000000005b919050565b3332146104865760405162461bcd60e51b815260206004820152601860248201527752656163744d616b65723a206d7573742075736520454f4160401b60448201526064016101be565b610490828261052f565b5050565b6000546001600160a01b031633146104be5760405162461bcd60e51b81526004016101be906115d5565b6001600160a01b0381166105235760405162461bcd60e51b815260206004820152602660248201527f4f776e61626c653a206e6577206f776e657220697320746865207a65726f206160448201526564647265737360d01b60648201526084016101be565b61052c8161082a565b50565b60405163e6a4390560e01b81526001600160a01b03838116600483015282811660248301526000917f00000000000000000000000000000000000000000000000000000000000000009091169063e6a439059060440160206040518083038186803b15801561059d57600080fd5b505afa1580156105b1573d6000803e3d6000fd5b505050506040513d601f19601f820116820180604052508101906105d591906113dd565b90506001600160a01b03811661062d5760405162461bcd60e51b815260206004820152601860248201527f52656163744d616b65723a20496e76616c69642070616972000000000000000060448201526064016101be565b6040516370a0823160e01b81523060048201526106bb9082906001600160a01b038216906370a082319060240160206040518083038186803b15801561067257600080fd5b505afa158015610686573d6000803e3d6000fd5b505050506040513d601f19601f820116820180604052508101906106aa9190611508565b6001600160a01b038416919061087a565b60405163226bf2d160e21b815230600482015260009081906001600160a01b038416906389afcb44906024016040805180830381600087803b15801561070057600080fd5b505af1158015610714573d6000803e3d6000fd5b505050506040513d601f19601f820116820180604052508101906107389190611520565b91509150826001600160a01b0316630dfe16816040518163ffffffff1660e01b815260040160206040518083038186803b15801561077557600080fd5b505afa158015610789573d6000803e3d6000fd5b505050506040513d601f19601f820116820180604052508101906107ad91906113dd565b6001600160a01b0316856001600160a01b0316146107c757905b6001600160a01b03808516908616337fd06b1d7ed79b664d17472c6f6997b929f1abe463ccccb4e5b6a0038f2f730c1585856108058b8b84846108d1565b6040805193845260208401929092529082015260600160405180910390a45050505050565b600080546001600160a01b038381166001600160a01b0319831681178455604051919092169283917f8be0079c531659141344cd1fd0a4f28419497f9722a3daafe3b4186f6b6457e09190a35050565b604080516001600160a01b038416602482015260448082018490528251808303909101815260649091019091526020810180516001600160e01b031663a9059cbb60e01b1790526108cc908490610d42565b505050565b6000836001600160a01b0316856001600160a01b03161415610a2e5760006108f98484610e14565b90507f00000000000000000000000000000000000000000000000000000000000000006001600160a01b0316866001600160a01b03161415610991576109896001600160a01b037f0000000000000000000000000000000000000000000000000000000000000000167f00000000000000000000000000000000000000000000000000000000000000008361087a565b809150610a28565b7f00000000000000000000000000000000000000000000000000000000000000006001600160a01b0316866001600160a01b031614156109fc576109f57f000000000000000000000000000000000000000000000000000000000000000082610e27565b9150610a28565b6000610a07876103f4565b9050610a1587828430610e71565b9150610a2481828460006108d1565b9250505b50610d3a565b7f00000000000000000000000000000000000000000000000000000000000000006001600160a01b0316856001600160a01b03161415610ad757610abc6001600160a01b037f0000000000000000000000000000000000000000000000000000000000000000167f00000000000000000000000000000000000000000000000000000000000000008561087a565b610ad083610aca8685610e27565b90610e14565b9050610d3a565b7f00000000000000000000000000000000000000000000000000000000000000006001600160a01b0316846001600160a01b03161415610b7357610b656001600160a01b037f0000000000000000000000000000000000000000000000000000000000000000167f00000000000000000000000000000000000000000000000000000000000000008461087a565b610ad082610aca8786610e27565b7f00000000000000000000000000000000000000000000000000000000000000006001600160a01b0316856001600160a01b03161415610c0657610ad07f0000000000000000000000000000000000000000000000000000000000000000610c0185610aca887f00000000000000000000000000000000000000000000000000000000000000008830610e71565b610e27565b7f00000000000000000000000000000000000000000000000000000000000000006001600160a01b0316846001600160a01b03161415610c9457610ad07f0000000000000000000000000000000000000000000000000000000000000000610c0184610aca897f00000000000000000000000000000000000000000000000000000000000000008930610e71565b6000610c9f866103f4565b90506000610cac866103f4565b9050856001600160a01b0316826001600160a01b03161415610ce657610cdf8287610cd98a868a30610e71565b876108d1565b9250610d37565b866001600160a01b0316816001600160a01b03161415610d1757610cdf878287610d128a868a30610e71565b6108d1565b610d348282610d288a868a30610e71565b610d128a868a30610e71565b92505b50505b949350505050565b6000610d97826040518060400160405280602081526020017f5361666545524332303a206c6f772d6c6576656c2063616c6c206661696c6564815250856001600160a01b03166111f59092919063ffffffff16565b8051909150156108cc5780806020019051810190610db5919061149a565b6108cc5760405162461bcd60e51b815260206004820152602a60248201527f5361666545524332303a204552433230206f7065726174696f6e20646964206e6044820152691bdd081cdd58d8d9595960b21b60648201526084016101be565b6000610e20828461160a565b9392505050565b6000610e20837f0000000000000000000000000000000000000000000000000000000000000000847f00000000000000000000000000000000000000000000000000000000000000005b60405163e6a4390560e01b81526001600160a01b038581166004830152848116602483015260009182917f0000000000000000000000000000000000000000000000000000000000000000169063e6a439059060440160206040518083038186803b158015610edf57600080fd5b505afa158015610ef3573d6000803e3d6000fd5b505050506040513d601f19601f82011682018060405250810190610f1791906113dd565b90506001600160a01b038116610f6f5760405162461bcd60e51b815260206004820152601a60248201527f52656163744d616b65723a2043616e6e6f7420636f6e7665727400000000000060448201526064016101be565b600080826001600160a01b0316630902f1ac6040518163ffffffff1660e01b815260040160606040518083038186803b158015610fab57600080fd5b505afa158015610fbf573d6000803e3d6000fd5b505050506040513d601f19601f82011682018060405250810190610fe391906114ba565b506001600160701b0391821693501690506000611002876103e5611204565b9050836001600160a01b0316630dfe16816040518163ffffffff1660e01b815260040160206040518083038186803b15801561103d57600080fd5b505afa158015611051573d6000803e3d6000fd5b505050506040513d601f19601f8201168201806040525081019061107591906113dd565b6001600160a01b0316896001600160a01b0316141561113e5761109e81610aca856103e8611204565b6110a88284611204565b6110b29190611622565b94506110c86001600160a01b038a16858961087a565b604080516000808252602082019283905263022c0d9f60e01b9092526001600160a01b0386169163022c0d9f91611107919089908b906024810161158b565b600060405180830381600087803b15801561112157600080fd5b505af1158015611135573d6000803e3d6000fd5b505050506111e9565b61114e81610aca846103e8611204565b6111588285611204565b6111629190611622565b94506111786001600160a01b038a16858961087a565b604080516000808252602082019283905263022c0d9f60e01b9092526001600160a01b0386169163022c0d9f916111b69189918b906024810161158b565b600060405180830381600087803b1580156111d057600080fd5b505af11580156111e4573d6000803e3d6000fd5b505050505b50505050949350505050565b6060610d3a8484600085611210565b6000610e208284611642565b6060824710156112715760405162461bcd60e51b815260206004820152602660248201527f416464726573733a20696e73756666696369656e742062616c616e636520666f6044820152651c8818d85b1b60d21b60648201526084016101be565b843b6112bf5760405162461bcd60e51b815260206004820152601d60248201527f416464726573733a2063616c6c20746f206e6f6e2d636f6e747261637400000060448201526064016101be565b600080866001600160a01b031685876040516112db919061156f565b60006040518083038185875af1925050503d8060008114611318576040519150601f19603f3d011682016040523d82523d6000602084013e61131d565b606091505b5091509150610d3482828660608315611337575081610e20565b8251156113475782518084602001fd5b8160405162461bcd60e51b81526004016101be91906115c2565b60008083601f840112611372578182fd5b50813567ffffffffffffffff811115611389578182fd5b60208301915083602080830285010111156113a357600080fd5b9250929050565b80516001600160701b038116811461043757600080fd5b6000602082840312156113d2578081fd5b8135610e20816116c2565b6000602082840312156113ee578081fd5b8151610e20816116c2565b6000806040838503121561140b578081fd5b8235611416816116c2565b91506020830135611426816116c2565b809150509250929050565b60008060008060408587031215611446578182fd5b843567ffffffffffffffff8082111561145d578384fd5b61146988838901611361565b90965094506020870135915080821115611481578384fd5b5061148e87828801611361565b95989497509550505050565b6000602082840312156114ab578081fd5b81518015158114610e20578182fd5b6000806000606084860312156114ce578283fd5b6114d7846113aa565b92506114e5602085016113aa565b9150604084015163ffffffff811681146114fd578182fd5b809150509250925092565b600060208284031215611519578081fd5b5051919050565b60008060408385031215611532578182fd5b505080516020909101519092909150565b6000815180845261155b816020860160208601611661565b601f01601f19169290920160200192915050565b60008251611581818460208701611661565b9190910192915050565b600085825284602083015260018060a01b0384166040830152608060608301526115b86080830184611543565b9695505050505050565b600060208252610e206020830184611543565b6020808252818101527f4f776e61626c653a2063616c6c6572206973206e6f7420746865206f776e6572604082015260600190565b6000821982111561161d5761161d6116ac565b500190565b60008261163d57634e487b7160e01b81526012600452602481fd5b500490565b600081600019048311821515161561165c5761165c6116ac565b500290565b60005b8381101561167c578181015183820152602001611664565b8381111561168b576000848401525b50505050565b60006000198214156116a5576116a56116ac565b5060010190565b634e487b7160e01b600052601160045260246000fd5b6001600160a01b038116811461052c57600080fdfea26469706673582212208a221d47ad6b60598a1f699519dc65634e3754b184b42d02d16dba1d5190099364736f6c63430008020033",
  "devdoc": {
    "kind": "dev",
    "methods": {
      "owner()": {
        "details": "Returns the address of the current owner."
      },
      "renounceOwnership()": {
        "details": "Leaves the contract without owner. It will not be possible to call `onlyOwner` functions anymore. Can only be called by the current owner. NOTE: Renouncing ownership will leave the contract without an owner, thereby removing any functionality that is only available to the owner."
      },
      "transferOwnership(address)": {
        "details": "Transfers ownership of the contract to a new account (`newOwner`). Can only be called by the current owner."
      }
    },
    "version": 1
  },
  "userdoc": {
    "kind": "user",
    "methods": {},
    "version": 1
  },
  "storageLayout": {
    "storage": [
      {
        "astId": 389,
        "contract": "contracts/XBarman.sol:XBarman",
        "label": "_owner",
        "offset": 0,
        "slot": "0",
        "type": "t_address"
      },
      {
        "astId": 10117,
        "contract": "contracts/XBarman.sol:XBarman",
        "label": "_bridges",
        "offset": 0,
        "slot": "1",
        "type": "t_mapping(t_address,t_address)"
      }
    ],
    "types": {
      "t_address": {
        "encoding": "inplace",
        "label": "address",
        "numberOfBytes": "20"
      },
      "t_mapping(t_address,t_address)": {
        "encoding": "mapping",
        "key": "t_address",
        "label": "mapping(address => address)",
        "numberOfBytes": "32",
        "value": "t_address"
      }
    }
  }
}