{
  "address": "0x02208063DD630C4aeAFf090e31F60785790A7328",
  "abi": [
    {
      "inputs": [
        {
          "internalType": "contract IERC20",
          "name": "_react",
          "type": "address"
        }
      ],
      "stateMutability": "nonpayable",
      "type": "constructor"
    },
    {
      "anonymous": false,
      "inputs": [
        {
          "indexed": true,
          "internalType": "address",
          "name": "owner",
          "type": "address"
        },
        {
          "indexed": true,
          "internalType": "address",
          "name": "spender",
          "type": "address"
        },
        {
          "indexed": false,
          "internalType": "uint256",
          "name": "value",
          "type": "uint256"
        }
      ],
      "name": "Approval",
      "type": "event"
    },
    {
      "anonymous": false,
      "inputs": [
        {
          "indexed": true,
          "internalType": "address",
          "name": "delegator",
          "type": "address"
        },
        {
          "indexed": true,
          "internalType": "address",
          "name": "fromDelegate",
          "type": "address"
        },
        {
          "indexed": true,
          "internalType": "address",
          "name": "toDelegate",
          "type": "address"
        }
      ],
      "name": "DelegateChanged",
      "type": "event"
    },
    {
      "anonymous": false,
      "inputs": [
        {
          "indexed": true,
          "internalType": "address",
          "name": "delegate",
          "type": "address"
        },
        {
          "indexed": false,
          "internalType": "uint256",
          "name": "previousBalance",
          "type": "uint256"
        },
        {
          "indexed": false,
          "internalType": "uint256",
          "name": "newBalance",
          "type": "uint256"
        }
      ],
      "name": "DelegateVotesChanged",
      "type": "event"
    },
    {
      "anonymous": false,
      "inputs": [
        {
          "indexed": true,
          "internalType": "address",
          "name": "from",
          "type": "address"
        },
        {
          "indexed": true,
          "internalType": "address",
          "name": "to",
          "type": "address"
        },
        {
          "indexed": false,
          "internalType": "uint256",
          "name": "value",
          "type": "uint256"
        }
      ],
      "name": "Transfer",
      "type": "event"
    },
    {
      "inputs": [],
      "name": "DOMAIN_SEPARATOR",
      "outputs": [
        {
          "internalType": "bytes32",
          "name": "",
          "type": "bytes32"
        }
      ],
      "stateMutability": "view",
      "type": "function"
    },
    {
      "inputs": [
        {
          "internalType": "address",
          "name": "owner",
          "type": "address"
        },
        {
          "internalType": "address",
          "name": "spender",
          "type": "address"
        }
      ],
      "name": "allowance",
      "outputs": [
        {
          "internalType": "uint256",
          "name": "",
          "type": "uint256"
        }
      ],
      "stateMutability": "view",
      "type": "function"
    },
    {
      "inputs": [
        {
          "internalType": "address",
          "name": "spender",
          "type": "address"
        },
        {
          "internalType": "uint256",
          "name": "amount",
          "type": "uint256"
        }
      ],
      "name": "approve",
      "outputs": [
        {
          "internalType": "bool",
          "name": "",
          "type": "bool"
        }
      ],
      "stateMutability": "nonpayable",
      "type": "function"
    },
    {
      "inputs": [
        {
          "internalType": "address",
          "name": "account",
          "type": "address"
        }
      ],
      "name": "balanceOf",
      "outputs": [
        {
          "internalType": "uint256",
          "name": "",
          "type": "uint256"
        }
      ],
      "stateMutability": "view",
      "type": "function"
    },
    {
      "inputs": [
        {
          "internalType": "address",
          "name": "account",
          "type": "address"
        },
        {
          "internalType": "uint32",
          "name": "pos",
          "type": "uint32"
        }
      ],
      "name": "checkpoints",
      "outputs": [
        {
          "components": [
            {
              "internalType": "uint32",
              "name": "fromBlock",
              "type": "uint32"
            },
            {
              "internalType": "uint224",
              "name": "votes",
              "type": "uint224"
            }
          ],
          "internalType": "struct ERC20Votes.Checkpoint",
          "name": "",
          "type": "tuple"
        }
      ],
      "stateMutability": "view",
      "type": "function"
    },
    {
      "inputs": [],
      "name": "decimals",
      "outputs": [
        {
          "internalType": "uint8",
          "name": "",
          "type": "uint8"
        }
      ],
      "stateMutability": "view",
      "type": "function"
    },
    {
      "inputs": [
        {
          "internalType": "address",
          "name": "spender",
          "type": "address"
        },
        {
          "internalType": "uint256",
          "name": "subtractedValue",
          "type": "uint256"
        }
      ],
      "name": "decreaseAllowance",
      "outputs": [
        {
          "internalType": "bool",
          "name": "",
          "type": "bool"
        }
      ],
      "stateMutability": "nonpayable",
      "type": "function"
    },
    {
      "inputs": [
        {
          "internalType": "address",
          "name": "delegatee",
          "type": "address"
        }
      ],
      "name": "delegate",
      "outputs": [],
      "stateMutability": "nonpayable",
      "type": "function"
    },
    {
      "inputs": [
        {
          "internalType": "address",
          "name": "delegatee",
          "type": "address"
        },
        {
          "internalType": "uint256",
          "name": "nonce",
          "type": "uint256"
        },
        {
          "internalType": "uint256",
          "name": "expiry",
          "type": "uint256"
        },
        {
          "internalType": "uint8",
          "name": "v",
          "type": "uint8"
        },
        {
          "internalType": "bytes32",
          "name": "r",
          "type": "bytes32"
        },
        {
          "internalType": "bytes32",
          "name": "s",
          "type": "bytes32"
        }
      ],
      "name": "delegateBySig",
      "outputs": [],
      "stateMutability": "nonpayable",
      "type": "function"
    },
    {
      "inputs": [
        {
          "internalType": "address",
          "name": "account",
          "type": "address"
        }
      ],
      "name": "delegates",
      "outputs": [
        {
          "internalType": "address",
          "name": "",
          "type": "address"
        }
      ],
      "stateMutability": "view",
      "type": "function"
    },
    {
      "inputs": [
        {
          "internalType": "uint256",
          "name": "_amount",
          "type": "uint256"
        }
      ],
      "name": "enter",
      "outputs": [],
      "stateMutability": "nonpayable",
      "type": "function"
    },
    {
      "inputs": [
        {
          "internalType": "uint256",
          "name": "blockNumber",
          "type": "uint256"
        }
      ],
      "name": "getPastTotalSupply",
      "outputs": [
        {
          "internalType": "uint256",
          "name": "",
          "type": "uint256"
        }
      ],
      "stateMutability": "view",
      "type": "function"
    },
    {
      "inputs": [
        {
          "internalType": "address",
          "name": "account",
          "type": "address"
        },
        {
          "internalType": "uint256",
          "name": "blockNumber",
          "type": "uint256"
        }
      ],
      "name": "getPastVotes",
      "outputs": [
        {
          "internalType": "uint256",
          "name": "",
          "type": "uint256"
        }
      ],
      "stateMutability": "view",
      "type": "function"
    },
    {
      "inputs": [
        {
          "internalType": "address",
          "name": "account",
          "type": "address"
        }
      ],
      "name": "getVotes",
      "outputs": [
        {
          "internalType": "uint256",
          "name": "",
          "type": "uint256"
        }
      ],
      "stateMutability": "view",
      "type": "function"
    },
    {
      "inputs": [
        {
          "internalType": "address",
          "name": "spender",
          "type": "address"
        },
        {
          "internalType": "uint256",
          "name": "addedValue",
          "type": "uint256"
        }
      ],
      "name": "increaseAllowance",
      "outputs": [
        {
          "internalType": "bool",
          "name": "",
          "type": "bool"
        }
      ],
      "stateMutability": "nonpayable",
      "type": "function"
    },
    {
      "inputs": [
        {
          "internalType": "uint256",
          "name": "_share",
          "type": "uint256"
        }
      ],
      "name": "leave",
      "outputs": [],
      "stateMutability": "nonpayable",
      "type": "function"
    },
    {
      "inputs": [],
      "name": "name",
      "outputs": [
        {
          "internalType": "string",
          "name": "",
          "type": "string"
        }
      ],
      "stateMutability": "view",
      "type": "function"
    },
    {
      "inputs": [
        {
          "internalType": "address",
          "name": "owner",
          "type": "address"
        }
      ],
      "name": "nonces",
      "outputs": [
        {
          "internalType": "uint256",
          "name": "",
          "type": "uint256"
        }
      ],
      "stateMutability": "view",
      "type": "function"
    },
    {
      "inputs": [
        {
          "internalType": "address",
          "name": "account",
          "type": "address"
        }
      ],
      "name": "numCheckpoints",
      "outputs": [
        {
          "internalType": "uint32",
          "name": "",
          "type": "uint32"
        }
      ],
      "stateMutability": "view",
      "type": "function"
    },
    {
      "inputs": [
        {
          "internalType": "address",
          "name": "owner",
          "type": "address"
        },
        {
          "internalType": "address",
          "name": "spender",
          "type": "address"
        },
        {
          "internalType": "uint256",
          "name": "value",
          "type": "uint256"
        },
        {
          "internalType": "uint256",
          "name": "deadline",
          "type": "uint256"
        },
        {
          "internalType": "uint8",
          "name": "v",
          "type": "uint8"
        },
        {
          "internalType": "bytes32",
          "name": "r",
          "type": "bytes32"
        },
        {
          "internalType": "bytes32",
          "name": "s",
          "type": "bytes32"
        }
      ],
      "name": "permit",
      "outputs": [],
      "stateMutability": "nonpayable",
      "type": "function"
    },
    {
      "inputs": [],
      "name": "react",
      "outputs": [
        {
          "internalType": "contract IERC20",
          "name": "",
          "type": "address"
        }
      ],
      "stateMutability": "view",
      "type": "function"
    },
    {
      "inputs": [],
      "name": "symbol",
      "outputs": [
        {
          "internalType": "string",
          "name": "",
          "type": "string"
        }
      ],
      "stateMutability": "view",
      "type": "function"
    },
    {
      "inputs": [],
      "name": "totalSupply",
      "outputs": [
        {
          "internalType": "uint256",
          "name": "",
          "type": "uint256"
        }
      ],
      "stateMutability": "view",
      "type": "function"
    },
    {
      "inputs": [
        {
          "internalType": "address",
          "name": "recipient",
          "type": "address"
        },
        {
          "internalType": "uint256",
          "name": "amount",
          "type": "uint256"
        }
      ],
      "name": "transfer",
      "outputs": [
        {
          "internalType": "bool",
          "name": "",
          "type": "bool"
        }
      ],
      "stateMutability": "nonpayable",
      "type": "function"
    },
    {
      "inputs": [
        {
          "internalType": "address",
          "name": "sender",
          "type": "address"
        },
        {
          "internalType": "address",
          "name": "recipient",
          "type": "address"
        },
        {
          "internalType": "uint256",
          "name": "amount",
          "type": "uint256"
        }
      ],
      "name": "transferFrom",
      "outputs": [
        {
          "internalType": "bool",
          "name": "",
          "type": "bool"
        }
      ],
      "stateMutability": "nonpayable",
      "type": "function"
    }
  ],
  "transactionHash": "0xd490daeabccc67d2f2bcb1920b1eaf32074f7308b7dc1430eb063535e15f6c1a",
  "args": [
    "0x2925293d027391eD3CC24bf4a4B80D072FCBB714"
  ],
  "solcInputHash": "dac350dcdb2b51afef353dcc77743026",
  "bytecode": "0x6101606040527f6e71edae12b1b97f4d1f60370fef10105fa2faae0126114a169c64845d6126c9610140523480156200003757600080fd5b5060405162002477380380620024778339810160408190526200005a9162000270565b6040518060400160405280600b81526020016a2c16a9ba30b5b2902130b960a91b81525080604051806040016040528060018152602001603160f81b8152506040518060400160405280600b81526020016a2c16a9ba30b5b2902130b960a91b815250604051806040016040528060068152602001651e14915050d560d21b8152508160039080519060200190620000f4929190620001ca565b5080516200010a906004906020840190620001ca565b5050825160208085019190912083518483012060e08290526101008190524660a0818152604080517f8b73c3c69bb8fe3d512ecc4cf759cc79239f7b179b0ffacaa9a75d522b39400f81880181905281830187905260608201869052608082019490945230818401528151808203909301835260c0019052805194019390932091935091906080523060601b60c052610120525050600980546001600160a01b0319166001600160a01b03959095169490941790935550620002dd915050565b828054620001d890620002a0565b90600052602060002090601f016020900481019282620001fc576000855562000247565b82601f106200021757805160ff191683800117855562000247565b8280016001018555821562000247579182015b82811115620002475782518255916020019190600101906200022a565b506200025592915062000259565b5090565b5b808211156200025557600081556001016200025a565b60006020828403121562000282578081fd5b81516001600160a01b038116811462000299578182fd5b9392505050565b600281046001821680620002b557607f821691505b60208210811415620002d757634e487b7160e01b600052602260045260246000fd5b50919050565b60805160a05160c05160601c60e05161010051610120516101405161213c6200033b6000396000610be60152600061110c0152600061115b015260006111360152600061108d015260006110b7015260006110e1015261213c6000f3fe608060405234801561001057600080fd5b50600436106101735760003560e01c80636fcfff45116100de578063a457c2d711610097578063c3cda52011610071578063c3cda5201461034c578063d505accf1461035f578063dd62ed3e14610372578063f1127ed8146103ab57610173565b8063a457c2d714610313578063a59f3e0c14610326578063a9059cbb1461033957610173565b80636fcfff451461028157806370a08231146102a95780637ecebe00146102d25780638e539e8c146102e557806395d89b41146102f85780639ab24eb01461030057610173565b80633644e515116101305780633644e5151461021857806339509351146102205780633a46b1a814610233578063587cde1e146102465780635c19a95c1461025957806367dfd4c91461026e57610173565b806306fdde0314610178578063095ea7b31461019657806318160ddd146101b957806323b872dd146101cb5780632d2800f1146101de578063313ce56714610209575b600080fd5b6101806103e8565b60405161018d9190611ffa565b60405180910390f35b6101a96101a4366004611eec565b61047b565b604051901515815260200161018d565b6002545b60405190815260200161018d565b6101a96101d9366004611e48565b610491565b6009546101f1906001600160a01b031681565b6040516001600160a01b03909116815260200161018d565b6040516012815260200161018d565b6101bd610540565b6101a961022e366004611eec565b61054f565b6101bd610241366004611eec565b61058b565b6101f1610254366004611dfc565b610605565b61026c610267366004611dfc565b610626565b005b61026c61027c366004611fca565b610633565b61029461028f366004611dfc565b61076b565b60405163ffffffff909116815260200161018d565b6101bd6102b7366004611dfc565b6001600160a01b031660009081526020819052604090205490565b6101bd6102e0366004611dfc565b610793565b6101bd6102f3366004611fca565b6107b1565b61018061080d565b6101bd61030e366004611dfc565b61081c565b6101a9610321366004611eec565b6108b1565b61026c610334366004611fca565b61094a565b6101a9610347366004611eec565b610a4f565b61026c61035a366004611f15565b610a5c565b61026c61036d366004611e83565b610b92565b6101bd610380366004611e16565b6001600160a01b03918216600090815260016020908152604080832093909416825291909152205490565b6103be6103b9366004611f6c565b610cf6565b60408051825163ffffffff1681526020928301516001600160e01b0316928101929092520161018d565b6060600380546103f7906120bb565b80601f0160208091040260200160405190810160405280929190818152602001828054610423906120bb565b80156104705780601f1061044557610100808354040283529160200191610470565b820191906000526020600020905b81548152906001019060200180831161045357829003601f168201915b505050505090505b90565b6000610488338484610d88565b50600192915050565b600061049e848484610eac565b6001600160a01b0384166000908152600160209081526040808320338452909152902054828110156105285760405162461bcd60e51b815260206004820152602860248201527f45524332303a207472616e7366657220616d6f756e74206578636565647320616044820152676c6c6f77616e636560c01b60648201526084015b60405180910390fd5b6105358533858403610d88565b506001949350505050565b600061054a611080565b905090565b3360008181526001602090815260408083206001600160a01b0387168452909152812054909161048891859061058690869061204d565b610d88565b60004382106105dc5760405162461bcd60e51b815260206004820152601f60248201527f4552433230566f7465733a20626c6f636b206e6f7420796574206d696e656400604482015260640161051f565b6001600160a01b03831660009081526007602052604090206105fe90836111ab565b9392505050565b6001600160a01b03808216600090815260066020526040902054165b919050565b6106303382611284565b50565b600061063e60025490565b6009546040516370a0823160e01b81523060048201529192506000916106d49184916106ce916001600160a01b0316906370a082319060240160206040518083038186803b15801561068f57600080fd5b505afa1580156106a3573d6000803e3d6000fd5b505050506040513d601f19601f820116820180604052508101906106c79190611fe2565b869061131a565b90611326565b90506106e03384611332565b60095460405163a9059cbb60e01b8152336004820152602481018390526001600160a01b039091169063a9059cbb906044015b602060405180830381600087803b15801561072d57600080fd5b505af1158015610741573d6000803e3d6000fd5b505050506040513d601f19601f820116820180604052508101906107659190611faa565b50505050565b6001600160a01b03811660009081526007602052604081205461078d90611340565b92915050565b6001600160a01b03811660009081526005602052604081205461078d565b60004382106108025760405162461bcd60e51b815260206004820152601f60248201527f4552433230566f7465733a20626c6f636b206e6f7420796574206d696e656400604482015260640161051f565b61078d6008836111ab565b6060600480546103f7906120bb565b6001600160a01b038116600090815260076020526040812054801561089e576001600160a01b038316600090815260076020526040902061085e6001836120a4565b8154811061087c57634e487b7160e01b600052603260045260246000fd5b60009182526020909120015464010000000090046001600160e01b03166108a1565b60005b6001600160e01b03169392505050565b3360009081526001602090815260408083206001600160a01b0386168452909152812054828110156109335760405162461bcd60e51b815260206004820152602560248201527f45524332303a2064656372656173656420616c6c6f77616e63652062656c6f77604482015264207a65726f60d81b606482015260840161051f565b6109403385858403610d88565b5060019392505050565b6009546040516370a0823160e01b81523060048201526000916001600160a01b0316906370a082319060240160206040518083038186803b15801561098e57600080fd5b505afa1580156109a2573d6000803e3d6000fd5b505050506040513d601f19601f820116820180604052508101906109c69190611fe2565b905060006109d360025490565b90508015806109e0575081155b156109f4576109ef33846113a9565b610a12565b6000610a04836106ce868561131a565b9050610a1033826113a9565b505b6009546040516323b872dd60e01b8152336004820152306024820152604481018590526001600160a01b03909116906323b872dd90606401610713565b6000610488338484610eac565b83421115610aac5760405162461bcd60e51b815260206004820152601d60248201527f4552433230566f7465733a207369676e61747572652065787069726564000000604482015260640161051f565b604080517fe48329057bfd03d55e49b547132e39cffd9c1820ad7b9d4c5307691425d15adf60208201526001600160a01b038816918101919091526060810186905260808101859052600090610b2690610b1e9060a001604051602081830303815290604052805190602001206113b3565b858585611401565b9050610b3181611429565b8614610b7f5760405162461bcd60e51b815260206004820152601960248201527f4552433230566f7465733a20696e76616c6964206e6f6e636500000000000000604482015260640161051f565b610b898188611284565b50505050505050565b83421115610be25760405162461bcd60e51b815260206004820152601d60248201527f45524332305065726d69743a206578706972656420646561646c696e65000000604482015260640161051f565b60007f0000000000000000000000000000000000000000000000000000000000000000888888610c118c611429565b6040805160208101969096526001600160a01b0394851690860152929091166060840152608083015260a082015260c0810186905260e0016040516020818303038152906040528051906020012090506000610c6c826113b3565b90506000610c7c82878787611401565b9050896001600160a01b0316816001600160a01b031614610cdf5760405162461bcd60e51b815260206004820152601e60248201527f45524332305065726d69743a20696e76616c6964207369676e61747572650000604482015260640161051f565b610cea8a8a8a610d88565b50505050505050505050565b60408051808201909152600080825260208201526001600160a01b0383166000908152600760205260409020805463ffffffff8416908110610d4857634e487b7160e01b600052603260045260246000fd5b60009182526020918290206040805180820190915291015463ffffffff8116825264010000000090046001600160e01b0316918101919091529392505050565b6001600160a01b038316610dea5760405162461bcd60e51b8152602060048201526024808201527f45524332303a20617070726f76652066726f6d20746865207a65726f206164646044820152637265737360e01b606482015260840161051f565b6001600160a01b038216610e4b5760405162461bcd60e51b815260206004820152602260248201527f45524332303a20617070726f766520746f20746865207a65726f206164647265604482015261737360f01b606482015260840161051f565b6001600160a01b0383811660008181526001602090815260408083209487168084529482529182902085905590518481527f8c5be1e5ebec7d5bd14f71427d1e84f3dd0314c0f7b2291e5b200ac8c7c3b925910160405180910390a3505050565b6001600160a01b038316610f105760405162461bcd60e51b815260206004820152602560248201527f45524332303a207472616e736665722066726f6d20746865207a65726f206164604482015264647265737360d81b606482015260840161051f565b6001600160a01b038216610f725760405162461bcd60e51b815260206004820152602360248201527f45524332303a207472616e7366657220746f20746865207a65726f206164647260448201526265737360e81b606482015260840161051f565b6001600160a01b03831660009081526020819052604090205481811015610fea5760405162461bcd60e51b815260206004820152602660248201527f45524332303a207472616e7366657220616d6f756e7420657863656564732062604482015265616c616e636560d01b606482015260840161051f565b6001600160a01b0380851660009081526020819052604080822085850390559185168152908120805484929061102190849061204d565b92505081905550826001600160a01b0316846001600160a01b03167fddf252ad1be2c89b69c2b068fc378daa952ba7f163c4a11628f55a4df523b3ef8460405161106d91815260200190565b60405180910390a3610765848484611456565b6000306001600160a01b037f0000000000000000000000000000000000000000000000000000000000000000161480156110d957507f000000000000000000000000000000000000000000000000000000000000000046145b1561110557507f0000000000000000000000000000000000000000000000000000000000000000610478565b50604080517f00000000000000000000000000000000000000000000000000000000000000006020808301919091527f0000000000000000000000000000000000000000000000000000000000000000828401527f000000000000000000000000000000000000000000000000000000000000000060608301524660808301523060a0808401919091528351808403909101815260c09092019092528051910120610478565b8154600090815b8181101561121d5760006111c68284611461565b9050848682815481106111e957634e487b7160e01b600052603260045260246000fd5b60009182526020909120015463ffffffff16111561120957809250611217565b61121481600161204d565b91505b506111b2565b811561126f578461122f6001846120a4565b8154811061124d57634e487b7160e01b600052603260045260246000fd5b60009182526020909120015464010000000090046001600160e01b0316611272565b60005b6001600160e01b031695945050505050565b600061128f83610605565b905060006112b2846001600160a01b031660009081526020819052604090205490565b6001600160a01b0385811660008181526006602052604080822080546001600160a01b031916898616908117909155905194955093928616927f3134e8a2e6d97e929a7e54011ea5485d7d196dd5f0ba4d4ef95803e8e3fc257f9190a461076582848361147c565b60006105fe8284612085565b60006105fe8284612065565b61133c82826115b9565b5050565b600063ffffffff8211156113a55760405162461bcd60e51b815260206004820152602660248201527f53616665436173743a2076616c756520646f65736e27742066697420696e203360448201526532206269747360d01b606482015260840161051f565b5090565b61133c82826115d1565b600061078d6113c0611080565b8360405161190160f01b6020820152602281018390526042810182905260009060620160405160208183030381529060405280519060200120905092915050565b60008060006114128787878761165b565b9150915061141f81611748565b5095945050505050565b6001600160a01b03811660009081526005602052604090208054600181018255905b50919050565b505050565b61145183838361194b565b60006114706002848418612065565b6105fe9084841661204d565b816001600160a01b0316836001600160a01b03161415801561149e5750600081115b15611451576001600160a01b0383161561152c576001600160a01b038316600090815260076020526040812081906114d99061196685611972565b91509150846001600160a01b03167fdec2bacdd2f05b59de34da9b523dff8be42e5e38e818c82fdb0bae774387a7248383604051611521929190918252602082015260400190565b60405180910390a250505b6001600160a01b03821615611451576001600160a01b0382166000908152600760205260408120819061156290611b2385611972565b91509150836001600160a01b03167fdec2bacdd2f05b59de34da9b523dff8be42e5e38e818c82fdb0bae774387a72483836040516115aa929190918252602082015260400190565b60405180910390a25050505050565b6115c38282611b2f565b610765600861196683611972565b6115db8282611c84565b6002546001600160e01b03101561164d5760405162461bcd60e51b815260206004820152603060248201527f4552433230566f7465733a20746f74616c20737570706c79207269736b73206f60448201526f766572666c6f77696e6720766f74657360801b606482015260840161051f565b6107656008611b2383611972565b6000807f7fffffffffffffffffffffffffffffff5d576e7357a4501ddfe92f46681b20a0831115611692575060009050600361173f565b8460ff16601b141580156116aa57508460ff16601c14155b156116bb575060009050600461173f565b6040805160008082526020820180845289905260ff881692820192909252606081018690526080810185905260019060a0016020604051602081039080840390855afa15801561170f573d6000803e3d6000fd5b5050604051601f1901519150506001600160a01b0381166117385760006001925092505061173f565b9150600090505b94509492505050565b600081600481111561176a57634e487b7160e01b600052602160045260246000fd5b141561177557610630565b600181600481111561179757634e487b7160e01b600052602160045260246000fd5b14156117e55760405162461bcd60e51b815260206004820152601860248201527f45434453413a20696e76616c6964207369676e61747572650000000000000000604482015260640161051f565b600281600481111561180757634e487b7160e01b600052602160045260246000fd5b14156118555760405162461bcd60e51b815260206004820152601f60248201527f45434453413a20696e76616c6964207369676e6174757265206c656e67746800604482015260640161051f565b600381600481111561187757634e487b7160e01b600052602160045260246000fd5b14156118d05760405162461bcd60e51b815260206004820152602260248201527f45434453413a20696e76616c6964207369676e6174757265202773272076616c604482015261756560f01b606482015260840161051f565b60048160048111156118f257634e487b7160e01b600052602160045260246000fd5b14156106305760405162461bcd60e51b815260206004820152602260248201527f45434453413a20696e76616c6964207369676e6174757265202776272076616c604482015261756560f01b606482015260840161051f565b61145161195784610605565b61196084610605565b8361147c565b60006105fe82846120a4565b8254600090819080156119cb578561198b6001836120a4565b815481106119a957634e487b7160e01b600052603260045260246000fd5b60009182526020909120015464010000000090046001600160e01b03166119ce565b60005b6001600160e01b031692506119e783858763ffffffff16565b9150600081118015611a3357504386611a016001846120a4565b81548110611a1f57634e487b7160e01b600052603260045260246000fd5b60009182526020909120015463ffffffff16145b15611aa157611a4182611d6b565b86611a4d6001846120a4565b81548110611a6b57634e487b7160e01b600052603260045260246000fd5b9060005260206000200160000160046101000a8154816001600160e01b0302191690836001600160e01b03160217905550611b1a565b856040518060400160405280611ab643611340565b63ffffffff168152602001611aca85611d6b565b6001600160e01b039081169091528254600181018455600093845260209384902083519101805493909401519091166401000000000263ffffffff91821663ffffffff1990931692909217161790555b50935093915050565b60006105fe828461204d565b6001600160a01b038216611b8f5760405162461bcd60e51b815260206004820152602160248201527f45524332303a206275726e2066726f6d20746865207a65726f206164647265736044820152607360f81b606482015260840161051f565b6001600160a01b03821660009081526020819052604090205481811015611c035760405162461bcd60e51b815260206004820152602260248201527f45524332303a206275726e20616d6f756e7420657863656564732062616c616e604482015261636560f01b606482015260840161051f565b6001600160a01b0383166000908152602081905260408120838303905560028054849290611c329084906120a4565b90915550506040518281526000906001600160a01b038516907fddf252ad1be2c89b69c2b068fc378daa952ba7f163c4a11628f55a4df523b3ef9060200160405180910390a361145183600084611456565b6001600160a01b038216611cda5760405162461bcd60e51b815260206004820152601f60248201527f45524332303a206d696e7420746f20746865207a65726f206164647265737300604482015260640161051f565b8060026000828254611cec919061204d565b90915550506001600160a01b03821660009081526020819052604081208054839290611d1990849061204d565b90915550506040518181526001600160a01b038316906000907fddf252ad1be2c89b69c2b068fc378daa952ba7f163c4a11628f55a4df523b3ef9060200160405180910390a361133c60008383611456565b60006001600160e01b038211156113a55760405162461bcd60e51b815260206004820152602760248201527f53616665436173743a2076616c756520646f65736e27742066697420696e20326044820152663234206269747360c81b606482015260840161051f565b80356001600160a01b038116811461062157600080fd5b803560ff8116811461062157600080fd5b600060208284031215611e0d578081fd5b6105fe82611dd4565b60008060408385031215611e28578081fd5b611e3183611dd4565b9150611e3f60208401611dd4565b90509250929050565b600080600060608486031215611e5c578081fd5b611e6584611dd4565b9250611e7360208501611dd4565b9150604084013590509250925092565b600080600080600080600060e0888a031215611e9d578283fd5b611ea688611dd4565b9650611eb460208901611dd4565b95506040880135945060608801359350611ed060808901611deb565b925060a0880135915060c0880135905092959891949750929550565b60008060408385031215611efe578182fd5b611f0783611dd4565b946020939093013593505050565b60008060008060008060c08789031215611f2d578182fd5b611f3687611dd4565b95506020870135945060408701359350611f5260608801611deb565b92506080870135915060a087013590509295509295509295565b60008060408385031215611f7e578182fd5b611f8783611dd4565b9150602083013563ffffffff81168114611f9f578182fd5b809150509250929050565b600060208284031215611fbb578081fd5b815180151581146105fe578182fd5b600060208284031215611fdb578081fd5b5035919050565b600060208284031215611ff3578081fd5b5051919050565b6000602080835283518082850152825b818110156120265785810183015185820160400152820161200a565b818111156120375783604083870101525b50601f01601f1916929092016040019392505050565b60008219821115612060576120606120f0565b500190565b60008261208057634e487b7160e01b81526012600452602481fd5b500490565b600081600019048311821515161561209f5761209f6120f0565b500290565b6000828210156120b6576120b66120f0565b500390565b6002810460018216806120cf57607f821691505b6020821081141561144b57634e487b7160e01b600052602260045260246000fd5b634e487b7160e01b600052601160045260246000fdfea2646970667358221220e27df671610f0252dba998b452ed8bc94c3522b871a488ceaf56efcc9317327364736f6c63430008020033",
  "devdoc": {
    "kind": "dev",
    "methods": {
      "DOMAIN_SEPARATOR()": {
        "details": "See {IERC20Permit-DOMAIN_SEPARATOR}."
      },
      "allowance(address,address)": {
        "details": "See {IERC20-allowance}."
      },
      "approve(address,uint256)": {
        "details": "See {IERC20-approve}. Requirements: - `spender` cannot be the zero address."
      },
      "balanceOf(address)": {
        "details": "See {IERC20-balanceOf}."
      },
      "checkpoints(address,uint32)": {
        "details": "Get the `pos`-th checkpoint for `account`."
      },
      "decimals()": {
        "details": "Returns the number of decimals used to get its user representation. For example, if `decimals` equals `2`, a balance of `505` tokens should be displayed to a user as `5.05` (`505 / 10 ** 2`). Tokens usually opt for a value of 18, imitating the relationship between Ether and Wei. This is the value {ERC20} uses, unless this function is overridden; NOTE: This information is only used for _display_ purposes: it in no way affects any of the arithmetic of the contract, including {IERC20-balanceOf} and {IERC20-transfer}."
      },
      "decreaseAllowance(address,uint256)": {
        "details": "Atomically decreases the allowance granted to `spender` by the caller. This is an alternative to {approve} that can be used as a mitigation for problems described in {IERC20-approve}. Emits an {Approval} event indicating the updated allowance. Requirements: - `spender` cannot be the zero address. - `spender` must have allowance for the caller of at least `subtractedValue`."
      },
      "delegate(address)": {
        "details": "Delegate votes from the sender to `delegatee`."
      },
      "delegateBySig(address,uint256,uint256,uint8,bytes32,bytes32)": {
        "details": "Delegates votes from signer to `delegatee`"
      },
      "delegates(address)": {
        "details": "Get the address `account` is currently delegating to."
      },
      "getPastTotalSupply(uint256)": {
        "details": "Retrieve the `totalSupply` at the end of `blockNumber`. Note, this value is the sum of all balances. It is but NOT the sum of all the delegated votes! Requirements: - `blockNumber` must have been already mined"
      },
      "getPastVotes(address,uint256)": {
        "details": "Retrieve the number of votes for `account` at the end of `blockNumber`. Requirements: - `blockNumber` must have been already mined"
      },
      "getVotes(address)": {
        "details": "Gets the current votes balance for `account`"
      },
      "increaseAllowance(address,uint256)": {
        "details": "Atomically increases the allowance granted to `spender` by the caller. This is an alternative to {approve} that can be used as a mitigation for problems described in {IERC20-approve}. Emits an {Approval} event indicating the updated allowance. Requirements: - `spender` cannot be the zero address."
      },
      "name()": {
        "details": "Returns the name of the token."
      },
      "nonces(address)": {
        "details": "See {IERC20Permit-nonces}."
      },
      "numCheckpoints(address)": {
        "details": "Get number of checkpoints for `account`."
      },
      "permit(address,address,uint256,uint256,uint8,bytes32,bytes32)": {
        "details": "See {IERC20Permit-permit}."
      },
      "symbol()": {
        "details": "Returns the symbol of the token, usually a shorter version of the name."
      },
      "totalSupply()": {
        "details": "See {IERC20-totalSupply}."
      },
      "transfer(address,uint256)": {
        "details": "See {IERC20-transfer}. Requirements: - `recipient` cannot be the zero address. - the caller must have a balance of at least `amount`."
      },
      "transferFrom(address,address,uint256)": {
        "details": "See {IERC20-transferFrom}. Emits an {Approval} event indicating the updated allowance. This is not required by the EIP. See the note at the beginning of {ERC20}. Requirements: - `sender` and `recipient` cannot be the zero address. - `sender` must have a balance of at least `amount`. - the caller must have allowance for ``sender``'s tokens of at least `amount`."
      }
    },
    "version": 1
  },
  "userdoc": {
    "kind": "user",
    "methods": {},
    "version": 1
  },
  "storageLayout": {
    "storage": [
      {
        "astId": 634,
        "contract": "contracts/XStakeBar.sol:XStakeBar",
        "label": "_balances",
        "offset": 0,
        "slot": "0",
        "type": "t_mapping(t_address,t_uint256)"
      },
      {
        "astId": 640,
        "contract": "contracts/XStakeBar.sol:XStakeBar",
        "label": "_allowances",
        "offset": 0,
        "slot": "1",
        "type": "t_mapping(t_address,t_mapping(t_address,t_uint256))"
      },
      {
        "astId": 642,
        "contract": "contracts/XStakeBar.sol:XStakeBar",
        "label": "_totalSupply",
        "offset": 0,
        "slot": "2",
        "type": "t_uint256"
      },
      {
        "astId": 644,
        "contract": "contracts/XStakeBar.sol:XStakeBar",
        "label": "_name",
        "offset": 0,
        "slot": "3",
        "type": "t_string_storage"
      },
      {
        "astId": 646,
        "contract": "contracts/XStakeBar.sol:XStakeBar",
        "label": "_symbol",
        "offset": 0,
        "slot": "4",
        "type": "t_string_storage"
      },
      {
        "astId": 1936,
        "contract": "contracts/XStakeBar.sol:XStakeBar",
        "label": "_nonces",
        "offset": 0,
        "slot": "5",
        "type": "t_mapping(t_address,t_struct(Counter)2828_storage)"
      },
      {
        "astId": 1265,
        "contract": "contracts/XStakeBar.sol:XStakeBar",
        "label": "_delegates",
        "offset": 0,
        "slot": "6",
        "type": "t_mapping(t_address,t_address)"
      },
      {
        "astId": 1271,
        "contract": "contracts/XStakeBar.sol:XStakeBar",
        "label": "_checkpoints",
        "offset": 0,
        "slot": "7",
        "type": "t_mapping(t_address,t_array(t_struct(Checkpoint)1256_storage)dyn_storage)"
      },
      {
        "astId": 1275,
        "contract": "contracts/XStakeBar.sol:XStakeBar",
        "label": "_totalSupplyCheckpoints",
        "offset": 0,
        "slot": "8",
        "type": "t_array(t_struct(Checkpoint)1256_storage)dyn_storage"
      },
      {
        "astId": 10822,
        "contract": "contracts/XStakeBar.sol:XStakeBar",
        "label": "react",
        "offset": 0,
        "slot": "9",
        "type": "t_contract(IERC20)1242"
      }
    ],
    "types": {
      "t_address": {
        "encoding": "inplace",
        "label": "address",
        "numberOfBytes": "20"
      },
      "t_array(t_struct(Checkpoint)1256_storage)dyn_storage": {
        "base": "t_struct(Checkpoint)1256_storage",
        "encoding": "dynamic_array",
        "label": "struct ERC20Votes.Checkpoint[]",
        "numberOfBytes": "32"
      },
      "t_contract(IERC20)1242": {
        "encoding": "inplace",
        "label": "contract IERC20",
        "numberOfBytes": "20"
      },
      "t_mapping(t_address,t_address)": {
        "encoding": "mapping",
        "key": "t_address",
        "label": "mapping(address => address)",
        "numberOfBytes": "32",
        "value": "t_address"
      },
      "t_mapping(t_address,t_array(t_struct(Checkpoint)1256_storage)dyn_storage)": {
        "encoding": "mapping",
        "key": "t_address",
        "label": "mapping(address => struct ERC20Votes.Checkpoint[])",
        "numberOfBytes": "32",
        "value": "t_array(t_struct(Checkpoint)1256_storage)dyn_storage"
      },
      "t_mapping(t_address,t_mapping(t_address,t_uint256))": {
        "encoding": "mapping",
        "key": "t_address",
        "label": "mapping(address => mapping(address => uint256))",
        "numberOfBytes": "32",
        "value": "t_mapping(t_address,t_uint256)"
      },
      "t_mapping(t_address,t_struct(Counter)2828_storage)": {
        "encoding": "mapping",
        "key": "t_address",
        "label": "mapping(address => struct Counters.Counter)",
        "numberOfBytes": "32",
        "value": "t_struct(Counter)2828_storage"
      },
      "t_mapping(t_address,t_uint256)": {
        "encoding": "mapping",
        "key": "t_address",
        "label": "mapping(address => uint256)",
        "numberOfBytes": "32",
        "value": "t_uint256"
      },
      "t_string_storage": {
        "encoding": "bytes",
        "label": "string",
        "numberOfBytes": "32"
      },
      "t_struct(Checkpoint)1256_storage": {
        "encoding": "inplace",
        "label": "struct ERC20Votes.Checkpoint",
        "members": [
          {
            "astId": 1253,
            "contract": "contracts/XStakeBar.sol:XStakeBar",
            "label": "fromBlock",
            "offset": 0,
            "slot": "0",
            "type": "t_uint32"
          },
          {
            "astId": 1255,
            "contract": "contracts/XStakeBar.sol:XStakeBar",
            "label": "votes",
            "offset": 4,
            "slot": "0",
            "type": "t_uint224"
          }
        ],
        "numberOfBytes": "32"
      },
      "t_struct(Counter)2828_storage": {
        "encoding": "inplace",
        "label": "struct Counters.Counter",
        "members": [
          {
            "astId": 2827,
            "contract": "contracts/XStakeBar.sol:XStakeBar",
            "label": "_value",
            "offset": 0,
            "slot": "0",
            "type": "t_uint256"
          }
        ],
        "numberOfBytes": "32"
      },
      "t_uint224": {
        "encoding": "inplace",
        "label": "uint224",
        "numberOfBytes": "28"
      },
      "t_uint256": {
        "encoding": "inplace",
        "label": "uint256",
        "numberOfBytes": "32"
      },
      "t_uint32": {
        "encoding": "inplace",
        "label": "uint32",
        "numberOfBytes": "4"
      }
    }
  }
}